:020000040000FA
:1040000090520020DD410000E5410000AD9F00001E
:1040100000000000000000000000000000000000A0
:10402000000000000000000000000000E941000066
:104030000000000000000000694200002DC70000E1
:10404000EF410000EF4100002DE40000EF410000CF
:10405000EF41000025690000EF410000EF41000042
:10406000EF410000EF410000EF410000A9F1000026
:1040700035F20000EF410000EF410000EF41000089
:10408000EF410000EF410000EF410000EF41000070
:10409000EF410000EF410000EF410000EF41000060
:1040A000EF410000EF410000EF410000EF41000050
:1040B000317F0000EF410000E9900000EF41000077
:1040C00000F002F800F05FF80CA030C8083824189F
:1040D0002D18A246671EAB4654465D46AC4201D140
:1040E00000F051F87E460F3E0FCCB6460126334213
:1040F00000D0FB1AA246AB4633431847103F0100DD
:10410000303F01000023002400250026103A01D38F
:1041100078C1FBD8520700D330C100D50B6070477F
:1041200010B5662902D111F037FF10BD642902D104
:1041300000F056F910BD752902D100F051F910BDFB
:10414000782902D100F082F910BD632902D101F073
:104150000DFE10BD732902D101F010FE10BD00202C
:1041600010BD1FB501F064FF04000020002111F014
:104170004BFD401C60600020002111F05BFDE06001
:104180001FBD10B510BD02F037FB1146FFF7E9FF68
:104190000FF05AF802F04FFB03B4FFF7F2FF03BC35
:1041A0000CF068FD70B505460C46164602E00FCCD3
:1041B0000FC5103E102EFAD2082E02D303CC03C531
:1041C000083E042E07D301CC01C5361F03E0217839
:1041D0002970641C6D1C761EF9D270BD074880479B
:1041E00007480047FEE7FEE7FEE7FEE7FEE7FEE7DB
:1041F00004480549054A064B704700001DF00000C1
:10420000C1400000904200209052002090440020C5
:104210009044002072B6704762B67047EFF310808A
:1042200072B6704780F31088704730BF704720BF68
:104230007047000072B6214821490160002080F3D8
:10424000098808F0D1F81F48016881F308881E48E2
:104250001E49016062B6FEE71B481C4901607047B9
:1042600019481A490160704772B6EFF309800028B7
:104270000BD02438164909680860F0C044464D4602
:1042800056465F46F0C0734608C008F0ADF81148C6
:1042900011490A7802700E4810490A6802601068D5
:1042A0001030F0C8A046A946B246BB4608C89E4694
:1042B00080F309882438F0C862B6704720ED00E02A
:1042C0000000FF008000002004ED00E0000000106E
:1042D00018010020BE000020BF0000201C010020AB
:1042E000704710B5044601F0A1FA0068005DC006F1
:1042F00002D52046203010BD204610BD0FB4054920
:1043000010B503AA029801F03DFD10BC08BC04B032
:1043100018470000540000200FB41CB5074B06AA34
:104320007B4469460090059801F0FDFC0020694639
:1043300001F00CFD1CBC08BC04B01847291A000091
:1043400070B5044685690068C10601D5302600E0D5
:104350002026C00707D070BD62683046A16890472C
:10436000206A401C20626D1EF6D570BD70B50446F3
:1043700085690078C00707D170BD6268A1682020F8
:104380009047206A401C20626D1EF6D570BD70B546
:104390000C460546012A05D02878800600D5EA6932
:1043A000002302E0012305E05B1C934202D2E05CA3
:1043B0000028F9D1A869E618C01AA861286AC018AF
:1043C00028622846FFF7BCFF04E06A682078A968E5
:1043D000641C9047B442F8D32846FFF7C7FF70BD6E
:1043E000F7B5002575291068009914A611D0C046AC
:1043F000C046002802DA404211A608E00099096888
:104400008A0701D50FA602E0490704D50EA60125AB
:1044100001E0C046C046009F0024243704E001F0BC
:10442000C5FC30313955641C0028F8D12B46324682
:104430002146009801F00DFAFEBD000000000000CA
:104440002D0000002B0000002000000070B5044685
:104450000D4621461068C046C0462188090502D590
:104460000F4A7A4402E00E4A7A440E322346002173
:10447000243305E006070009360F965D5E54491C9B
:104480000028F7D120780023000705D5702D03D030
:10449000002901D002231132204601F0DAF970BD63
:1044A000DA340100F3B50446002081B020622046D2
:1044B000E1688847002872D0252802D06268A16888
:1044C000ABE0594F00267F442046E168884720280A
:1044D000054608DB312D06D27819203800780028EF
:1044E00001D00643F0E7B00701D504208643002041
:1044F000E0610746A0612A2D0AD028460CF0FDFA9B
:10450000002827D0B8000019303D0090856119E0DF
:104510000298BA00121902C8916102902046E1681F
:104520008847012F054617D1E06900281FDA2020AF
:1045300086431CE000980A2180694843009940198D
:10454000303888612046E168884705460CF0D5FA86
:104550000028EFD1012F0AD02E2D08D12046E16886
:1045600088470546202006437F1C022FC3DBA06935
:10457000002803DA4042A06101200643F00701D081
:10458000102086436C2D0BD0682D09D04C2D3CD0CB
:104590006A2D38D0742D38D07A2D36D016E040E010
:1045A000E1682F4620468847B842054609D16C2F5E
:1045B00029D001208002E16806432046884705464D
:1045C00004E06C2F1DD0FF2001300643002D28D0C1
:1045D00028464138192803D80120C0020643203557
:1045E000204626602946029A1646FFF799FD0028C4
:1045F00010D001280BD0F61DF008C0000830029042
:1046000055E74020E1E78020D5E70020D3E7361DBD
:1046100002964CE762682846A1689047206A401CD1
:1046200044E7206AFEBD00009E34010030B5054617
:104630000B462A461C781078521C5B1C002801D0BF
:10464000A042F7D0002C03D0002802D06D1CEFE769
:10465000284630BD034610B50B439B070FD1042AF3
:104660000DD308C810C9121FA342F8D018BA21BA36
:10467000884201D9012010BD0020C04310BD002A8E
:1046800003D0D30703D0521C07E0002010BD0378ED
:104690000C78401C491C1B1B07D103780C78401C6C
:1046A000491C1B1B01D1921EF1D1184610BD000000
:1046B00030B5441C03E00178401C00290DD081076F
:1046C000F9D10B4BDD0104C8D11A91432940FAD02E
:1046D000001B0A0603D0C01E30BD001B30BD0A04FB
:1046E00001D0801E30BD0902FCD0401E30BD00004C
:1046F000010101010346F0B50B439B072DD1244D69
:10470000EF01042A29D308C810C95E1B9E43121F5B
:104710003E4017D0D8B2E1B2401A3106014310D161
:1047200098B2A1B2401A310401430AD11802210201
:10473000000A090A401A3102014302D1180E210E63
:10474000401AF0BDA342DCD018BA21BA884201D980
:104750000120F0BD0020C043F0BD002A01D100209F
:10476000F0BD03780C78401C491C002B0DD0A342EF
:104770000BD1521E09D003780C78401C491C002B29
:1047800003D0A34201D1521EEBD1181BF0BD000093
:1047900001010101F8B5042A2CD3830712D00B784C
:1047A000491C0370401C521E83070BD00B78491C18
:1047B0000370401C521E830704D00B78491C037001
:1047C000401C521E8B079B0F05D0C91ADF00202307
:1047D000DE1B08C90AE0FFF7E5FCF8BD1D4608C965
:1047E000FD401C46B4402C4310C0121F042AF5D2D1
:1047F000F308C91A521EF0D40B78491C0370401CF0
:10480000521EEAD40B78491C0370401C012AE4D4E0
:1048100009780170F8BD134610B50446CAB21946AE
:104820001002821810048218204600F00FF820466B
:1048300010BD01E004C0091F0429FBD28B0701D57C
:104840000280801CC90700D00270704700290BD07D
:10485000C30702D00270401C491E022904D38307FB
:1048600002D50280801C891EE3E70022EEE70022C9
:10487000DFE70000024670B50A4392072AD11E4DB9
:10488000EE0104C808C9541B9443344017D0D0B279
:10489000D9B2401A2106014310D190B299B2401A00
:1048A000210401430AD110021902000A090A401A20
:1048B0002102014302D1100E190E401A70BD9A4216
:1048C000DFD010BA19BA884201D9012070BD00208A
:1048D000C04370BD02780B78401C491C002A09D0E7
:1048E0009A4207D102780B78401C491C002A01D05B
:1048F0009A42EFD0D01A70BD0101010100220309D4
:104900008B422CD3030A8B4211D300239C464EE0EA
:1049100003460B433CD4002243088B4231D30309A6
:104920008B421CD3030A8B4201D394463FE0C30958
:104930008B4201D3CB01C01A524183098B4201D370
:104940008B01C01A524143098B4201D34B01C01A5B
:10495000524103098B4201D30B01C01A5241C308D3
:104960008B4201D3CB00C01A524183088B4201D342
:104970008B00C01A524143088B4201D34B00C01A2E
:104980005241411A00D201465241104670475DE043
:10499000CA0F00D04942031000D3404253400022C6
:1049A0009C4603098B422DD3030A8B4212D3FC226F
:1049B000890112BA030A8B420CD3890192118B42EE
:1049C00008D3890192118B4204D389013AD0921104
:1049D00000E08909C3098B4201D3CB01C01A5241BF
:1049E00083098B4201D38B01C01A524143098B4288
:1049F00001D34B01C01A524103098B4201D30B0171
:104A0000C01A5241C3088B4201D3CB00C01A524195
:104A100083088B4201D38B00C01A5241D9D243087C
:104A20008B4201D34B00C01A5241411A00D20146B9
:104A3000634652415B10104601D34042002B00D523
:104A40004942704763465B1000D3404201B50020E5
:104A5000C046C04602BD7047704770470246C80F47
:104A6000C00781434B0030B54B405B009B0D20D00D
:104A70001923DB06C91801231B05994220DB0324F7
:104A8000A40704251346AB400BD3002B04D1EB063F
:104A900013409B00E34204D401246407002312194D
:104AA0005941FF231B0599420BD2C9000143500F06
:104AB00009E0CB0204D501430803024305D00548B1
:104AC00030BDFF21C905084330BD0846072109054F
:104AD000884330BD0000C07FF0B50C46871A9C416A
:104AE0000D46861A9D4103D2C01BA141D2196341D4
:104AF0000D0D1F0DC94EEC1BAE435CD07F057F0D25
:104B00000026002F51D02D05AC46A943DD0201231C
:104B1000ED0A1B051D4320231B1B24D41746E74029
:104B2000381871412F46E740CC199D40281831466E
:104B300061410C0D27D161449A4013D50023401CDC
:104B4000594152000ED14008400001224B0052054D
:104B5000D34207D305204007C14201D5B04900E048
:104B6000B0493046F0BD6B00002A00D001229A18EF
:104B70001F23203C1B1B01D5002302E0E540281821
:104B800071410C0DD7D0012424050919C407CD07A4
:104B900040084908E40F28436144002CD5D0002484
:104BA000401C61419A40D0D1CDE76A05520DD9D160
:104BB000C90FC907D5E79C4D4E00002801D001243C
:104BC00000E0002434195F00002A01D0012600E033
:104BD0000026BE19954FAC420CD8AE420AD8B4425A
:104BE00006D001256D05EC42BCD010461946F0BD3B
:104BF0009942FCD000203946F0BDF0B51FB40C46F8
:104C00000F46811A9F412546861A9D4106D20125ED
:104C1000ED076F40401ABC4152187B41210D1E0D1B
:104C20008D1BAC467D4D8D437ED075056D0D7CD0C2
:104C30000D05AE46AC431B031B0B794D52429D4103
:104C4000202366469B1B14D31746F74038180026CE
:104C50000090744160462F460741E41900989D403A
:104C60002818664116D4714671189A4025D501233B
:104C700020E093182A466A415200002B00D0521CB3
:104C80001E23203E9B1B002B61DD3541EE172818AB
:104C90006641E8D5001876415B1C9A4000D3401C61
:104CA0004B05F3181524E34010D3002B52D0714666
:104CB0007118D30FC01802D3491C05B0F0BD0123F1
:104CC000DB079A42F9D140084000F6E7012252057D
:104CD000B21801D1002853D00123CC0ADB0299433A
:104CE000891E002A08D1020C03D0020C00041039DE
:104CF00002E00246002020390023550B05D11202A4
:104D00000823550B01D152010D23550C01D112017D
:104D10001B1DD50C01D192009B1C150D01D1520019
:104D20005B1C2025EE1A01E02CE022E00546F54050
:104D300015439840CA1AE10769181305C918002AD3
:104D4000BBDA032040070818C10FC9070FE07146FE
:104D50006118B2E7F10740080843711071444A0036
:104D60000CD001235B059A42A7D2C90FC9070020C6
:104D7000A3E74905490D26D1002001E00028F4D120
:104D800000219AE7284D6600002801D0012100E0AB
:104D9000002171185F00002A01D0012600E00026E2
:104DA000BE19224FA94210D8AE420ED8B14208D047
:104DB00001256D05E94206D01946A802414010467A
:104DC0007BE79C4201D0214677E70020394674E713
:104DD00010B50C465C4005D50124E4076340FFF79D
:104DE0000CFF10BDFFF778FE10BD30B40C465C40E0
:104DF00004D50124E407634030BC6DE630BCFCE61A
:104E000070B50124E40761400D465D4002D4FFF710
:104E100063FE70BD6340FFF7F0FE70BDFF0700004A
:104E20000000F0FF0000F07F0000E0FF0000F87FCE
:104E3000F0B5F94D0C091E092C402E402F468BB0C1
:104E4000A7437DD0B543FCD0002E7AD0002CFCD0F7
:104E50000D465D40ED0F2543AC1BFF25AD046419E5
:104E60000894C502440DC9022143500DDC020443DD
:104E70000120C00701430443D2020191200C110C10
:104E800000958C46010423468B430A916146090430
:104E9000E24D8A430991010A7D4449198039097814
:104EA00005464D4301266D18F605751B6943C90C6F
:104EB000640B891C4C436418B5012C1B250C2E0473
:104EC000B4434C434D43210C691889090591009D59
:104ED000E90701D00121C90704912C46019967080F
:104EE000CD072F434C08059DE10B4D432D0C294662
:104EF0006646754302950D4645432E46029D7D1B31
:104F0000B44100950D465D4301942C0C2F040D46D1
:104F10005543AE462D0C3D43029503947546049CC3
:104F20002D04641B049406D2029C039D641C00267D
:104F300075410395029401AC70CC009F7D1B01E08C
:104F40003EE162E1B441090400950791019405999D
:104F5000A4086143090C0C464443650BE7040C4666
:104F600066467443A646640B3C430395029474461C
:104F7000049DE4042C1B049406D2029C039D641C33
:104F8000002675410395029401AC70CC009F7D1BF7
:104F9000B44101940C465C430095650FE7000C4654
:104FA0005443A646640F3C43039502947446049D03
:104FB000E4002C1B049406D2029C039D641C002672
:104FC00075410395029401AC70CC009F7D1BB441E8
:104FD000AE09AF06049DC900AD092F43049DA40688
:104FE000AD060495079D344369180791059DE10BB3
:104FF0004D432D0C29466646754302950D464543A3
:105000002E46029D7D1BB44100950D465D430194E3
:105010002C0C2F040D465543AE462D0C3D430295F6
:1050200003947546049C2D04641B049406D2029CD0
:10503000039D641C002675410395029401AC70CC5D
:10504000009F7D1BB44101948C050694079C890A3E
:10505000611800950791019C0599A4086143090C0A
:105060000D464543680BEF040D46644665436C0BE3
:105070003C43049FED047D1BAC4602D20025641C1A
:105080006841009E019D371B8541084658430195A4
:105090000C46460FC5005443600F28436546E400A4
:1050A0002C1B02D20025401C6E41019D3F1AB541C8
:1050B0002846BD09800628438446A009BF064E0243
:1050C0000699A40676180743079D002068410A99AF
:1050D000079019430020099B00906046FF19134375
:1050E0004041E20F64003A43A4460446D71A8C417B
:1050F000A04203D90120009020463A46C70F9418D9
:1051000040416246D20F2243644664000494009CEE
:10511000BE466400D71AA446044602978C417746DF
:10512000002F01D1A04204D96046401C8446029A57
:105130002046C40FA64694184041049A0546D20F53
:10514000224364466400D31A8D417146002901D17F
:10515000A84202D928461A46641C1043012200289E
:1051600000D0164361020020079B891904465C4168
:105170000223002C02DB491813466441089DCE0A25
:105180002D145D194B056705E10A2C050D190899C9
:105190003E43C9076940002B08D0934006D3002244
:1051A000761C5141002B01D1760876001C4A002D57
:1051B00043DB154241D0AA433FD030460BB0F0BD8F
:1051C00006180D464D41174C7642AC411AD395183E
:1051D0001C465C41134A6D42A24113D30122520581
:1051E0004C00D4420AD15C00D4420BD04B4002D5D3
:1051F00092021143E2E749004908DFE75940C90F2D
:10520000C90718E000200849D8E7054801420DD138
:105210000342F7D0F2E700000000FF07DD2A01009B
:105220000000F07F0000E0FF0000F87F11485940C7
:105230000143C01241400020C0E70123089A9B06A9
:105240009A4205DC032252078918C90FC907B5E73E
:10525000052252078918074A1143D2125140ADE77F
:1052600070B515461C4602460B4628462146FFF7F8
:10527000DFFD70BDFFFFFF7F30B50346CA02400D62
:105280001043164D164C0A1502D02043002A06DBA7
:10529000AA1A002A12DDD040FF2A0BDC30BD5205CD
:1052A000520D01D140004008AA1A07D4D040404214
:1052B000FF2A01DD002030BD0028FCDD4A00002B64
:1052C00001D0012000E00020101801225205D04238
:1052D000F0D8C817C043604030BD00001E04000075
:1052E000000000800346CA02400D10B510430A15A5
:1052F00004D00124E4072043002A05DB0A4CA21A4B
:1053000004D4D040FF2A00DD002010BD4A00002B4D
:1053100001D0012000E00020101801225205D042E7
:10532000F2D8C817C04310BD1E0400001F22030C92
:1053300002D10F22000402D0030E03D004E00020AB
:10534000014670470002083A030F01D10001121F05
:10535000830F01D18000921E002801DB4000521E05
:10536000120551184205C012411810467047C10F6E
:10537000C90700D04042012292071143D6E701211C
:105380008907D3E7F0B58B4C0F09254689B0BD439B
:105390007BD01D092646AE43FAD00E465E4027401C
:1053A000F60F3E43254071D024012142FBD0FF245B
:1053B000AD19A4042D1B039501252D05DB02DB0A85
:1053C000C9022B43C90A29431E010901040F130F07
:1053D000050121431701880B820391432D098C4657
:1053E000A90B1E438A039543B30B9A0396433F09C7
:1053F000BA0B9403A74302962E467E430497B64603
:105400004E19D7190C460196544305977E43371B16
:105410007646BF1B3601B646BE0B36190096764659
:10542000BC043719009C01D3641C00946400002F55
:1054300001D001263443029E049F754366467E4395
:105440000496760034196E0034190094029C019E73
:105450001C196643751BAE46069465464519059CA6
:1054600005956C43594375460891691A0191049E4C
:1054700001465143A41B0491611A009C0791E10667
:1054800005D061090122114302E072E06EE061097A
:10549000089D00272C0A2D066918049D7C412A0AC4
:1054A0002D066918019D6241AC0DAD026D18544185
:1054B000079A910D920255196141029A6446584328
:1054C0005443069B059A5A43121A131B9A0E9B01CA
:1054D0005B187A41010B0005C3185141220A2006CE
:1054E00044195A419A4200D2491C0120400281428B
:1054F00003D315230226F64302E014230326F643C2
:105500002020C51AA9401746AF40DA400A4320467A
:105510000399D8400914731819055118039A384390
:10552000D2075140AC4009D00122944006D300225A
:10553000401C5141002C01D1400840001E4A9342BA
:1055400012D3012203989206904207DB0520400700
:1055500009181A480143C012414004E003204007E3
:105560000818C10FC907002009B0F0BD0020F107DD
:10557000FAE705180C464C4111486D42A04115D37D
:1055800094181A465A410E48644290410ED30120A5
:105590004A004005824209D35A00824206D359404C
:1055A000C90F084AC90700201143DDE7002006495A
:1055B000DAE700000000FF07FE070000FFFFFF7FA3
:1055C0000000E0FF0000F07F0000F87F0121C90526
:1055D0000123411842001B06D3185B0E0AD0C110EC
:1055E0000722D206891840075242D14201D5520003
:1055F00089187047090208D50146002A03D0C10F57
:10560000C9070020704710467047420202D00020B0
:1056100002497047072109050143F4E70000F87FBC
:10562000F0B5FF252D04C609C209FF2704462E4008
:105630000137CB093E4348402A402B400746002A09
:105640006BD0002B69D0AA4267D0AB4265D000284E
:1056500000DA32460125ED0529432C4309022002D8
:10566000090AD21A4B0C7F24E31A434C000A7C44EB
:10567000E35C7D242404121914145B00A2188842F0
:1056800001D3521C00E0400049420C465C43241107
:105690005C43DB016415E318040A5C43C502200D7A
:1056A0000C4644436419250A5D432303EC0C0D4664
:1056B000654300030019EB184C42A34201D35B1869
:1056C000401CD4052018002B07D05B00C91804D358
:1056D000401C002901D1400840003F2189048A4232
:1056E00009D3002A08DC1106090F04D00321490759
:1056F0004018C00FC007F0BD0122410012068918F2
:105700007F2252069142F6D205214907C84201D5AF
:105710009010F0BDFF20C005F0BD002F00DA32462A
:105720001648AA4207D2AB4205D21902090E17D079
:10573000F80FC007F0BDFF2563002D06AB42F9D876
:105740004900A942F6D8AB4201D1A942F2D0A94200
:1057500001D1002101E061004908D0050843F0BDF6
:105760001102090EFBD0FF200243D005F0BD0A460E
:105770000146104654E70000872301000000C07F67
:1057800010B501469E240002CA15A307002A02D0C4
:105790001843002A04DBA21A002A0CDDD04010BDF9
:1057A0001206120E01D140004008A21A03D4D040C4
:1057B00040420028F3DDFF2248001206904201D942
:1057C000002010BDC817C043584010BD1F22030C55
:1057D00002D10F2200041CD0030E01D10002083AAE
:1057E000030F01D10001121F830F01D18000921E0F
:1057F000002801DB4000521ED20551180212511838
:105800001922904004D3491C002801D149084900BD
:1058100008467047C10FC90700D0404201229207D5
:105820001143D3E701218907D0E7704710B500F095
:10583000FFFB001D10BD00BFD103010010B500F03B
:10584000FBFB006810BD10B5044600F0F5FB0460DA
:1058500010BDFFB504460D4681B02430009021688C
:10586000880604D51022E0699143216000E0012000
:10587000A84201DD471B00E000270498A1697A19BE
:105880001018081AA0612078C00602D42046FEF73E
:1058900057FD002608E003986268A168805D904784
:1058A000206A401C761C206204988642F3DB207834
:1058B000C0060AD52046FEF743FD06E06268A168EF
:1058C00030209047206A401C206238467F1E002806
:1058D000F4DC07E000986268A168405D9047206AA8
:1058E000401C206228466D1E0028F3DC2046FEF78F
:1058F0003DFD2078000602D5022005B0F0BD012054
:10590000FBE700007047FFB50C461E468FB003CA88
:10591000089009914F007D0D00D16D1E00210846B1
:105920000020C0460321099A89050840002A03DAAD
:105930008200801840080840800D01280A9002DD8E
:105940000020C0430A90089807430DD0F048F14961
:10595000281848430714189800281DD07542291E9E
:105960001DDD0A9842421BE01898012802D0002051
:10597000302104E00020F24305E02154401CB042F5
:10598000FBDB30460022189B002121540F998B60CD
:105990000A60486013B0F0BDBD1B6D1CDFE70A9ABA
:1059A000002900DA69420BA800F0CCFB0BAB07CB57
:1059B00003AB07C30899099800F030FC6B4607C396
:1059C0000146D5480918002D00910BDDD2490398F6
:1059D0000A9A49424018002303A90390684600F040
:1059E0008DFE08E003990A9A0023081803A9039082
:1059F000684600F02DFE6B4607C30004000C03D080
:105A00000020C043410800E01046189A002A03D045
:105A10000022009215461EE0751E05D400F010FB12
:105A2000303262556D1EF9D501220843079602D027
:105A300000227F1C04E02078302801D100227F1E44
:105A4000002A069787D01EE0112D07DA00F0F8FA39
:105A5000303262556D1C02460A43F5D1084303D02B
:105A60000098002819D00EE00021681E05E0235C94
:105A7000625C63542254401E491C8142F7DBA81B20
:105A8000401E07950690079A18990020A0540F9879
:105A9000079B069A81600CC07CE7112600201890B5
:105AA00059E7D21DF0B50D460446D10893B0C900A0
:105AB00003C90C900D910AF05FFE02460D98C00FCD
:105AC00001D02D2007E02068810701D52B2002E0BE
:105AD0004007C00F4001032A0F9001D0072A05DBC1
:105AE00003462946204600F0E9FA0EE120788006B8
:105AF00001D5E76900E006272846652D04D0662811
:105B000014D0672D69D12DE00020112F009001DB0A
:105B1000112300E07B1C0CAA03A910A8FFF7F3FED9
:105B20001199002610987D1C0E9142E001203B4601
:105B30000CAAC0070B900120009003A910A8FFF742
:105B4000E2FE119D12981099002600280E9501D1B1
:105B5000781C0D18781B02D446427D1C761EE81B6B
:105B600000903AE0012F00DA01270020112F009069
:105B700001DD112300E03B460CAA03A910A8FFF7A2
:105B8000C2FE11993D46109800260E912178090712
:105B90000BD40E99A94200DA0D4603A9012D04DDAC
:105BA0004A19203AD27F302A06D0B84201DA011DC4
:105BB00004DA012100910FE06D1EEFE7002802DCFE
:105BC00086192D1A03E0411CA94200DD0D46801BF9
:105BD000401C00900120C0070B902078000705D4DE
:105BE0000098A84202DB0020C043009069460020D4
:105BF000C8720B98012102AF0337C907884225D02C
:105C0000022010902B2011900B9800280BDA4042B4
:105C10000B902D20119006E00B9800F0C7F8303162
:105C20007F1E0B9039701099481E00291090F3DCEC
:105C30000B980028F0D111987F1E3870208800053D
:105C400001D5452000E065207F1E387001A8C01BEB
:105C5000C01D0B900F98002800D00120411900981A
:105C6000C01709180B980818A169081A401EA061EE
:105C70002078C00602D42046FEF762FB0F98002869
:105C800005D06268A1689047206A401C2062207895
:105C9000C00625D52046FEF753FB21E0002E07DB8A
:105CA0000E98B04204DD03A86268805DA16802E03E
:105CB0006268A16830209047206A761C401C2062F0
:105CC0000098401E002800900AD100F0B1F9C06889
:105CD00062680168405CA1689047206A401C2062AD
:105CE00028466D1E0028D9DC07E062683878A16874
:105CF0007F1C9047206A401C20620B99481E002997
:105D00000B90F2DC2046FEF731FB032042E6000058
:105D100001FCFFFF104D0000E1DFFFFF01694A1C9D
:105D200002610878704700B58FB00291002105919B
:105D30000549019379440391114604906846FEF7A2
:105D4000B1FB0FB000BD0000E5FFFFFF0A68107057
:105D5000521C0A60704710B54369002B02D0C04640
:105D6000C04601E0FEF713FB012010BD127801468A
:105D700024310A7000224A700122ECE711680022E7
:105D8000D243E8E7084B70B50D467B44FFF7CBFFE5
:105D90000446284600F002FD002802D00020C0433F
:105DA00070BD204670BD0000FBC3000001468008A6
:105DB000081A02091018020A1018020C1018C0085C
:105DC000820012185200891A01E0401C0A390A297F
:105DD000FBD27047F8B5224C4E00069DA6420AD869
:105DE000A64201D1002806D15E00A64203D8A642F1
:105DF0000AD1002A08D00D24240425422CD029469B
:105E0000002000F0CFFCF8BD0C461C430CD4994296
:105E100002D0EFF30080F8BD904202D0EFF3008093
:105E2000F8BDEFF30080F8BD09242407E5008B429C
:105E300006D0EFF30080A043591A06D2284304E0AD
:105E4000101A05D3EFF30080A04380F30088F8BD5B
:105E5000EFF30080A043F1E7009500F0BBFCF8BD34
:105E60000000E0FF70B505464800440D124B0020CD
:105E7000002C0AD0634008D09A4206DA6642B24249
:105E800003DD12054019514170BD002C08D0002BD4
:105E900009D0C90FC907002AF6DB084A114370BDB3
:105EA000C90FC90770BD28460A03104302D000205D
:105EB000034970BD284670BDFF0700000000F07F59
:105EC0000000F87FF0B53D4B02460C461C40002018
:105ED000002C63D03A4D8B4366D000296BDB0B0D51
:105EE0001D05A94301252D0529430124FD33E34068
:105EF00001D392184941FF3381339C468B02940DA4
:105F00000121234389074C42920200271B198C1060
:105F10005D1A04D42D1B02D42B4665004919921832
:105F20005B416408F4D15C1A08D40125ED07EE1733
:105F30005519744102D42A462346491C94185B41E2
:105F4000012292071D46E61B8D4106D4B61A8541F3
:105F500003D42B46550034467F1924195B4152085F
:105F6000802AEFD1234300D0022338460A22D040B2
:105F700001D3012213438A0510436246890A1205A0
:105F80008918002B09D00122D34002D30022401CE3
:105F90005141002B01D140084000F0BD0B031343D9
:105FA00007D0C90FC907F0BD0803104303D100296A
:105FB00001DB1046F0BD00202946F0BD0000F07F57
:105FC0000000F87F10B5FF231B0644009C421DD83B
:105FD0004C009C421AD80346124A0B4307D4401A7D
:105FE00002D3EFF3008010BDEFF3008010BD081A5C
:105FF00006D2EFF3008001219043C907084302E075
:10600000EFF30080904380F3008810BD0D231B0444
:106010001A4204D01146002000F0C4FB10BD00F06D
:10602000E3FB10BD000000900048704730420020A4
:10603000004870475042002000487047304200201E
:106040000B4670B5024689078008084319469D082B
:10605000141AA94125090807054308092C194841C4
:10606000250A01060D43010A2C194141200C0D049B
:1060700028430D0C00194D41002140194D41C00825
:1060800069070843E908840F8D002543840024181C
:106090004D4124196D41121BAB4107E00925ED4329
:1060A0002C11521963410024401C61411C460A25F1
:1060B0000026551BB441F1D270BD0000F8B51F4653
:1060C000044601230068DB02032601461840072A24
:1060D00005DB002801D017A506E017A504E000287D
:1060E00001D016A500E016A5102081432160A0690B
:1060F000C01E002FA06101D0401EA0612046FEF707
:106100001FF9002F09D038466268A1689047206ABD
:10611000401C2062C01C206206E0206AFAE7626828
:106120002878A1686D1C9047761EF8D22046FEF7AD
:106130001DF9F8BD4E414E006E616E00494E46009D
:10614000696E6600F7B516468AB0334878446C46E7
:1061500003467C33C06F5A689B680DC42E48784450
:10616000763003AC0DC80DC43720C00108183721A4
:106170001B30FEF7CDFB05460C46803D1B3C02D58F
:106180006442012000E000200027099010E0E007B1
:106190000CD00C2020497843794432464C394118C0
:1061A0006846012300F054FA6B4607C364107F1C55
:1061B000002CECD1184F7F442E3F16E0E80712D098
:1061C0002001C0190EC80691089307920068F0429A
:1061D00001D1981908903246012306A903A800F0BE
:1061E00037FA03AB07C36D10641C002DE6D1099884
:1061F000002806D032466946012303A800F07EFA43
:1062000005E001233246694603A800F021FA0A9B03
:1062100007C30DB0F0BD0000801901000346400027
:106220000A4610B5400D0BD00121C9070F24A40266
:1062300000191C0364082143540D2143D20207E0D6
:1062400000210120F2E7D40F490021435200401EF3
:106250000029F8DADB0FDB07184310BDFFB50D4648
:10626000144685B0486851680AF060FA00910190C0
:10627000A868A1680AF05AFA02910390A8686168B8
:106280000AF054FA029A12188242029201D20120B4
:1062900000E00020019A0B18D2180028019202D0C9
:1062A0008A4202D903E08A4201D2012000E00020A4
:1062B0000099081800906868A1680AF037FA029AF5
:1062C00012188242029201D2012000E00020019ABD
:1062D0000B18D2180028019202D08A4202D903E09A
:1062E0008A4201D2012000E00020009908180090A5
:1062F0002868216840004900400849084018FA49C8
:10630000471814E001994000C90F08430090019814
:1063100002994000C90F0843019002980399400078
:10632000C90F08430290039840007F1E0390009815
:106330000028E7DA0898002801D0EC4E00E000269B
:10634000B74201DA012000E00020002804902AD0A2
:10635000F71BF806C00E15D0029B2021091A039ADC
:106360008B401A430392029A019BC2408B401A430E
:106370000292019A009BC2408B4000991A430192FD
:10638000C14000917B110DD06F460320C11A03D587
:1063900000218200B95003E08A008100BA587A5087
:1063A000401EF3D5374603980299002800D00120FB
:1063B000014308980291002808460CD0002800D01C
:1063C00001200199019A490508430121D20AC90215
:1063D000D202019200E001210E9B0122D207012B83
:1063E00002D0002B03D013E0002807D120E0904218
:1063F00004D890420CD1019B0B4209D0019B591843
:10640000019105D10099491C009101D17F1C009296
:1064100000280DD0102108460020C046049800280E
:1064200006D00F98002803D0082108460020C04657
:1064300028682168019B009A4840C10F0598C90748
:1064400039430EC009B0F0BDFFB587B0099A08986E
:1064500008995368926840688968964600220393B9
:1064600017469446089A12685300099A5B08126806
:10647000520052089A1A9E4BD4180A9A002A01D048
:10648000352200E0402206920022012315460492A4
:10649000DB07059324E0002D05D175460346039ED6
:1064A0004D1BB34109D375466646039B491B049DAA
:1064B0009841059B7519AC465F4163463B4308D044
:1064C000059B049EDD0776082E435B080496059322
:1064D00001E0521E641EC50FED0749184041521CD1
:1064E000069B9A42D7DB002D04D17546039A6B1A9E
:1064F000824101D203200CE0039A0B466B404240DC
:10650000134303D0014303D0012002E0022000E046
:106510000020614601910021009702910A9900290B
:1065200005D0614640020143704B019102E08007B3
:10653000002302909C4201DA012000E000200700C5
:106540003AD01A1BD006C00E15D0029D2021019C06
:10655000091AC5408C402543029C8C4000D0012480
:106560002543019C0295009DC4408D4000992C4319
:106570000194C140009154111DD06D4602210022AA
:1065800002290CD10320001B07E0002804DB860051
:10659000AE59002E00D00122401C0328F5DB081B59
:1065A00002D588002A5004E08000285810438A0051
:1065B000A850491EE3D51C460A98002802980CD022
:1065C000002800D001200199019A490508430121C2
:1065D000D20AC902D202019200E00121109B0122DD
:1065E000D207012B02D0002B03D013E0002807D1E3
:1065F0001FE0904204D890420CD1019B0B4209D07D
:10660000019B5918019105D10099491C009101D1B4
:10661000641C009200280CD0102108460020C046BF
:10662000002F06D01198002803D00821084600202A
:10663000C04608980999019A009B0068096848407B
:10664000C10F0798C907214382600AC00BB0F0BD93
:1066500000B585B0019300920A460146002302A8C6
:10666000FFF7FCFD02A807C805B000BDFFB50A464C
:106670001F4685B00799019301230091014602A8A6
:10668000FFF7ECFD02990398049ECA0F4900D20758
:1066900000920F22490892028C1A0021002800DB88
:1066A0000C46450013486D08844214D3079A002A0B
:1066B00004DA441E0026104DF64302E004460D465F
:1066C0000E46102108460020C046002F03D00421AA
:1066D00008460020C0462005E90A084300990843FF
:1066E0006905F20A1143ADE602C0FFFF013C00005C
:1066F000FF3F0000FF070000FFFFFF7F00B585B0F0
:10670000019300920A460146002302A8FFF79CFE6F
:1067100002A807C8A8E7FFB50A461F4685B0079933
:10672000019301230091014602A8FFF78DFE029913
:106730000398049ECA0F4900D20700920F2249080D
:1067400092028C1A0021002800DB0C4645001148FB
:106750006D08844214D3079A002A04DA441E0026E6
:106760000D4DF64302E004460D460E461021084644
:106770000020C046002F03D0042108460020C04658
:106780002005E90A0843009908436905F20A114304
:1067900058E60000FF070000FFFFFF7FC068802170
:1067A00008407047C80212D54803400F002804D0A3
:1067B000C803C043012188407047EFF30080000107
:1067C000000903210907084380F30088704700206F
:1067D0007047000010B500200249029A00F033F81B
:1067E00010BD00000000F87F10B5024800F02BF843
:1067F00010BD00000000C07F7546FFF715FCAE46D7
:10680000050069465346C008C000854618B020B54B
:10681000FDF7EEFC60BC00274908B6460026C0C55F
:10682000C0C5C0C5C0C5C0C5C0C5C0C5C0C5403D48
:1068300049008D46704710B50446C046C046204604
:10684000FDF7AAFC10BD10B50C461107090F092968
:1068500004D00A290AD008290CD104E011460820E6
:10686000FFF7A0FF06E0510606D501E0510601D56D
:106870000120C007214610BDD10607D50101090935
:10688000CC084907000E0006044309E0410F20022E
:106890004907000A0143200E00061D22D141014391
:1068A0000846E7E770B58C180578401C6B075B0F4E
:1068B00001D10378401C2A1106D10278401C03E064
:1068C0000678401C0E70491C5B1EF9D12B0705D4BD
:1068D0000023521E0DD40B70491CFAE70378401CAC
:1068E000CB1A921C03E01D780D70491C5B1C521ED4
:1068F000F9D5A142D8D3002070BD000010B50446E0
:106900000220074908700846447000208870022061
:10691000C87000200871084600F0DAFA10BD0000C7
:106920009008002020B5002500BF00BF00BFFDF784
:1069300075FC054600BF01F09FF900BF04F0BCFBE9
:1069400000BF01F0B3F900BF2846FDF76BFC00BFA4
:1069500000BF00F003F804F0C5FB20BD10B500F047
:106960005BF800F051F881B20C48407842000B48C7
:106970002038815220304078401CC1B20748417015
:1069800041780078814208DB002000F01BF80020ED
:1069900000F006F8002000F057F810BDB6080020FF
:1069A000012806D10649C96A01221143044AD1626D
:1069B00005E00349C96A49084900014AD1627047A4
:1069C00000280140012806D10649C96A80221143E6
:1069D000044AD16205E00349C96A80229143014A11
:1069E000D1627047002801400146064AD06A02235E
:1069F00002469A43104602220A401043014AD062DE
:106A000070470000002801400248406B4005400DDF
:106A10007047000000280140012001498863704749
:106A200000280140012806D10649896A1022114335
:106A3000044A916205E00349896A10229143014AA0
:106A40009162704700280140012806D10649896AF1
:106A500020221143044A916205E00349896A2022F9
:106A60009143014A91627047002801400146054A5E
:106A7000906A000900010A07120F1043014A906250
:106A800070470000002801400248006B4005400D9F
:106A900070470000002801404105490D014A11637B
:106AA000704700000028014010B50446230009F09B
:106AB00055FE0B0722333435363738393A144B003C
:106AC0000020FFF791FF2248FFF7E6FF0120FFF7C4
:106AD000A9FF0120FFF7B8FF37E00020FFF784FF90
:106AE00019208001FFF7D8FF0120FFF79BFF01204D
:106AF000FFF7AAFF29E00220FFF776FF1448FC38D1
:106B0000FFF7CAFF0120FFF78DFF0120FFF79CFF71
:106B10000620FFF7ABFF18E000BF00BF00BF00BFBB
:106B200000BF00BF00BF0220FFF75EFF0848FC382F
:106B3000FFF7B2FF0020FFF775FF0120FFF784FF8A
:106B4000A01DFFF793FF00E000BF00BF10BD0000D5
:106B5000FB040000F3B58BB03348007C1E2844D101
:106B60003148477CF917490EC919C811FEF752FE82
:106B70000190FEF72BFD00222C4B03910290FEF7B3
:106B800001FC079106902849087CFEF7F8FB059167
:106B90000490079B069AFEF71BF909910890FDF7F0
:106BA0005DFF05460C9803280FD11F49488AFEF760
:106BB000E6FB1F4A1F4B07910690FEF716F9099155
:106BC0000890FDF74BFF044611E01749488AFEF78D
:106BD000D6FB194A194B07910690FEF706F9099161
:106BE0000890FDF73BFF044601E0154D154C164992
:106BF00020460FF069F907460B990FF0ABF801D268
:106C0000124E00E0114E21460B980FF05DF931460F
:106C10000990FEF705FD074629460FF055F80A9042
:106C20000A980DB0F0BD000080FCFF1F0000E03F9F
:106C3000D712F241CF2624C0421CEBE2363A2EC0D6
:106C40000000F0410080BB440000C8417A36A140FA
:106C5000F3B581B0044600250026FFF715FF064670
:106C6000FF2E41D17448008B7D21890188423BDD94
:106C70007148008B4B21C901884235DA082C00D8B5
:106C8000CEE00C2C05D82046083814214843054690
:106C9000C6E0252C09D86849098B614308467D2147
:106CA000C900FDF72BFE0546BAE07D2C0BD8214626
:106CB00062225143604A128B514308465F49FDF7F7
:106CC0001DFE0546ACE05C49098B614308467D2109
:106CD000C900FDF713FE074657491A20085E6421D4
:106CE000FDF716FE3D189BE05548864242D15248BA
:106CF000008A7D21490188423CDD4F48008A4B21B2
:106D00008901884236DA0F2C01D8002588E0192C39
:106D100005D820460F380A214843054680E04B2C11
:106D200009D84549098A614308467D21C900FDF714
:106D3000E5FD054674E0FA2C0BD82146622251434A
:106D40003D4A128A514308463C49FDF7D7FD0546A6
:106D500066E03949098A614308467D21C900FDF78B
:106D6000CDFD074634491220085E6421FDF7D0FDB1
:106D70003D1855E03248864201D1640002E0FF2E02
:106D800000D1A4002F48808A7D21090188423DDD81
:106D90002C48808A4B214901884237DA1E2C01D8C1
:106DA00000253DE0322C04D820461E3881004518CD
:106DB00036E0962C09D82349898A614308467D210B
:106DC000C900FDF79BFD05462AE0FF20F53084420F
:106DD0000BD82146622251431A4A928A51430846EF
:106DE0001649FDF78BFD05461AE01649898A61436D
:106DF00008467D21C900FDF781FD0746114916208F
:106E0000085E6421FDF784FD3D1809E021460A393A
:106E10000D4A514308467D21C900FDF76FFD054627
:106E20000298032806D16621694308466421FDF7CC
:106E300065FD05462846FEBD40FDFF1FA0860100FA
:106E4000FF01000040FCFF1F7E080000012806D162
:106E50000649496801221143044A516005E003498B
:106E6000496849084900014A5160704700280140BB
:106E70000448406AC007C00F002801D001207047B5
:106E80000020FCE7002801400120014948627047CA
:106E9000002801400448406A40210840002801D0F1
:106EA000012070470020FCE700280140012806D19E
:106EB0000649096801221143044A116005E00349AB
:106EC000096849084900014A1160704700280140DB
:106ED000F8B50446002000900026607802F07EFF9E
:106EE000204602F0C5FF1021A01DFDF7BEFCE07892
:106EF000102801DD0F20E070E078022801DA02207E
:106F0000E070E1782620015500212720015501205D
:106F1000FFF746FD254840690004244909694718E0
:106F200000BF2720015D2620005D814220DB002676
:106F3000012505E06900A01D405A8619681CC5B2EC
:106F4000E078A842F6DCE078411E3046FDF7D6FC3A
:106F500006462079012805D105213046FFF778FE45
:106F6000009004E003213046FFF772FE00900DE030
:106F70000E48406900040D4909694018C01BE178BA
:106F80007D22D2005143C9008842CAD300BF607835
:106F900002F0A4FF0020FFF715FD0020FFF700FD21
:106FA0000020FFF751FD0098F8BD000000310140BE
:106FB00010B504460021204601F096F80121204634
:106FC00001F092F810BD000030B593B005460C46B4
:106FD0002648281AC004010E01910020029068463C
:106FE0000079022802D0032817D10AE0002004907B
:106FF00001211F4807F030F821781C2003F0FAFE29
:107000000DE00020049001211948401C07F024F8ED
:1070100021781D2003F0EEFE01E013B030BD00BF6B
:107020006078012801DA012060706078801C069089
:1070300003200790012008A908700021099108A8E1
:1070400001720B91017610A80172417201218172C7
:1070500060880849091A1091002110A8C17202A97C
:10706000284601F0F7F800BFD7E700009030014054
:1070700004000004FFFF000070B504460D462946D9
:10708000204601F09DFC01281BD12946204602F034
:10709000A8F800280AD1052008F05EF82946204605
:1070A00002F09FF800280CD1012070BD052008F0E7
:1070B00053F82946204602F094F8012801D1022015
:1070C000F3E70020F1E77CB50446684602F059FE7C
:1070D000072269462046FDF75DFB002507E00520F5
:1070E000401B205C0621491B6054681CC5B2062D5C
:1070F000F5DB2020207007222146E01DFDF74AFB2A
:10710000072505E0605D00F0DDFC6055681CC5B238
:107110000E2DF7DB7CBD00001FB504460121314870
:1071200006F09AFF002007F073F9002007F09EFA9E
:10713000002007F001FA002007F044FA002007F0D1
:1071400053FA0021C943002007F014FA60780028A0
:1071500004D00121084607F00DFA03E001210020C8
:1071600007F008FAA078002804D00221012007F0D7
:1071700001FA03E00221002007F0FCF9E078002882
:1071800004D00421012007F0F5F903E004210020D8
:1071900007F0F0F92079002804D00821012007F039
:1071A000E9F903E00821002007F0E4F9082007F0DE
:1071B000FDF92178022003F01DFE02A802F0E1FD96
:1071C00002A802F0AFFD00280BD107A103C901916D
:1071D0000090019900980391029002A800F0A2F893
:1071E00000BF1FBD0200000119031810295801003B
:1071F000FFB581B01D460A9E0027002000900024A4
:1072000000BF24E000200090012301A807C807F078
:10721000A5FC002802D00120009010E000240CE022
:10722000701EA04204D9012007F0ACFB285503E0F2
:10723000002007F0A7FB2855641CB442F0D307F0E8
:10724000A1FE0098002800D103E0781CC7B2032FEC
:10725000D8DB00BF009805B0F0BDFFB581B01D467A
:107260000A9E0027002000900024632E02DD0220E9
:1072700005B0F0BD002724E000200090002301A805
:1072800007C807F06BFC002802D0012000900DE039
:10729000002408E0285D07F0F9FD002802D0012055
:1072A000009002E0641CB442F4D300BF07F06AFE11
:1072B0000098002803D1019807F0F2FC03E0781C45
:1072C000C7B2032FD8DB00BF0098D1E7F8B5074657
:1072D0000E460E48C1680020884700210C460D4626
:1072E00009E0385D094A1169884738552846002168
:1072F000641C4841054629460020A21B8141F0D369
:107300000248C16801208847F8BD0000A82F00206E
:1073100000200249086002484860704730000020A1
:1073200028000020FEB50546002600240027284638
:1073300002F0F8FC002800D1FEBD002621E0134831
:1073400007F03AF9284607F079F91048C04307F0EA
:1073500033F9684602F015FD002810D0002407E03C
:107360006846005D295D884200D003E0601CC4B21D
:10737000062CF5DB00BF062C01D1012703E0701CB1
:10738000C6B2032EDBDB00BF3846D5E7ACACACACF5
:10739000FEB50446002001900026204602F068FD5C
:1073A0001021A01DFDF761FAE078102801DD0F2003
:1073B000E070E078022801DA0220E070E17826200F
:1073C00001550021272001550120FFF7E9FA29483E
:1073D0004069000427490969471800BF2720015D5B
:1073E0002620005D81422ADB002601250BE06A0091
:1073F000A11D885AFEF716FA314600900EF064FC83
:107400000646681CC5B2E078A842F0DCE178481E68
:10741000FEF700FA014600903046FEF701F90646F5
:107420002079012805D105213046FFF793FB019013
:1074300004E003213046FFF78DFB01900DE00D487D
:10744000406900040B4909694018C01BE1787D229E
:10745000D2005143C9008842C0D300BF0020FFF7CB
:10746000B1FA0020FFF79CFA0020FFF7EDFA01982F
:10747000FEBD00000031014038B505460C46022C27
:1074800000DA02241448007800280CD10221684652
:10749000017064214170FF214131418069460F48EC
:1074A000FFF792FD00BF042D07D10B48007804219F
:1074B00008430949087008464470082D07D106485A
:1074C000007808210843044908700846847003487E
:1074D000FFF76EFD38BD00005B000020D03001409A
:1074E00038B504466001034940180090009808F040
:1074F00099F838BD0C200140F7B50546164600271F
:10750000002E01D0052D00DDFEBDA8001A49085847
:10751000002807D102F086FEA900174A5050002823
:1075200000D00127A80014490858002821D0301D98
:1075300009F044FA0446002C1AD03246201D019965
:10754000FDF728F96680012F02D10120208001E09B
:107550000020208072B6A900074A5058214607F043
:10756000CBFC62B6002F03D02179284600F006F844
:1075700000BF00BFC8E700000430002038B5044653
:107580000D466001054940180090009808F04AF83F
:107590002946009808F0B7F838BD00000C200140DB
:1075A00070B504460E46052C00DD70BD13E072B6C2
:1075B000A100124A505802F0D1FC054662B6002DD7
:1075C00008D02988281DB04772B6284609F0E6F988
:1075D000002562B600BFA100084A505806F02AFCF8
:1075E0000028E4D0A100054A505809F0DBF800203B
:1075F000A100024A505000BFD7E70000EC2F002046
:1076000070B50446052C00DD70BDA0001F49085868
:10761000002800D1F8E7A0001D49085800280BD128
:1076200002F000FEA1001A4A5050002804D0A10028
:1076300050582421FDF71BF9A100154A505806F0B7
:107640000AFC002815D1A200104B9A581288111D6F
:10765000A2009858002209F0D5F90546002D07D060
:1076600072B6A1000A4A5058294607F045FC62B696
:1076700000BF72B6A100054A505809F08FF90020EA
:10768000A100024A505062B600BFBDE7BC2F0020E7
:10769000EC2F0020F8B504460D461646052C00DDFB
:1076A000F8BD600104494018009032462946009810
:1076B00000F004F800BFF3E70C200140F7B582B0FA
:1076C0000F461446002500260121029807F05EFFB0
:1076D00001280CD115490298401AC004010E0191ED
:1076E0002246394668460079FFF706FF1CE0002570
:1076F00018E0795D029808F006F808E0029807F0B3
:10770000ECFF002801D1002604E0701C86B2084876
:107710008642F3DB00BF0648401E864200DB25465A
:10772000681C85B2A542E4DB05B0F0BD0C20014029
:107730005555000030B587B005460C46012170480C
:1077400006F08AFC6F48281AC004010E01916846B1
:107750000079030009F002F80604183E546B819783
:1077600001216748801F06F077FC02220821664845
:1077700000F0F8F800221021634800F0F3F82178B7
:10778000092003F037FB7FE001215D48401F06F030
:1077900063FC607801280CD1022201215A4880380C
:1077A00000F0E0F8002202215748803800F0DAF8B3
:1077B0000BE0022208215448203800F0D3F80022C0
:1077C00010215148203800F0CDF821780A2003F02C
:1077D00011FB59E001214A48001F06F03DFC02223E
:1077E00004214948803800F0BDF8002208214648AD
:1077F000803800F0B7F821780B2003F0FBFA43E063
:1078000001213F48C01E06F027FC022251023E48DB
:10781000603800F0A7F800220121C9023A48603818
:1078200000F0A0F821780C2003F0E4FA2CE001210C
:107830003348801E06F010FC0222012132484038F5
:1078400000F090F8002202212F48403800F08AF81A
:1078500021780D2003F0CEFA16E001212848401EC1
:1078600006F0FAFB022210212748603800F07AF86F
:10787000002220212448603800F074F821780E207E
:1078800003F0B8FA00E000BF00BF02A806F0F4FA67
:10789000214608312846049A07F031FE0121284686
:1078A00007F00CFF0121284607F048FFE078012887
:1078B00005D101220021284607F07EFE04E00022C7
:1078C0001146284607F078FE2079012805D10122CB
:1078D0001146284607F070FE04E0002201212846E8
:1078E00007F06AFEA078012808D132210748049ADF
:1078F00007F036FD0121284607F008FF07B030BD2C
:107900000E0000030C200140A00C00407094000009
:107910000146002901DD084670474842FCE70000A7
:1079200010B504460E48016801208847002C04D198
:107930000B4841680020884703E00948416801205E
:107940008847012007F014FC0548C16801208847DA
:10795000052007F00DFC0248C1680020884710BDD3
:10796000B80800207CB506460D4614460095002058
:107970006946C871E007C00F002801D1487102E0D4
:1079800001206946487102202040002802D1694642
:10799000887102E0012069468871022069460871F9
:1079A000304601F0E5FB7CBD7CB505460C460094F5
:1079B00000216846C17101214171002181710321BB
:1079C00001716946284601F0D3FB7CBD08B56846C5
:1079D00003F04EFC0748006A002801D10DF06AFD53
:1079E00002F0E8FB044804F0BDFE684603F080FCAA
:1079F00008BD00001C30002000E2040070B5034602
:107A000000200024002500BF59E046009E5D392E6D
:107A100008DC46009E5D302E04DB46009E5D303E55
:107A2000F4B218E046009E5D462E08DC46009E5DDE
:107A3000402E04DB46009E5D373EF4B20BE046006C
:107A40009E5D662E07DC46009E5D602E03DB4600D1
:107A50009E5D573EF4B24600761C9E5D392E0ADCD0
:107A60004600761C9E5D302E05DB4600761C9E5D32
:107A7000303EF5B21EE04600761C9E5D462E0ADCC6
:107A80004600761C9E5D402E05DB4600761C9E5D02
:107A9000373EF5B20EE04600761C9E5D662E09DC90
:107AA0004600761C9E5D602E04DB4600761C9E5DC3
:107AB000573EF5B2260176190E54461CB0B29042DC
:107AC000A3DB70BD10B50146C817000F40180011A8
:107AD0000A2460430A46CC17240FA4182411240159
:107AE0000C1B0019C0B210BD30B50446204600F092
:107AF00003F80546284630BD0146104B99420ED981
:107B00000F4B994204D9090E0A460E4B985C14E0BB
:107B1000090C0A460B4B9B5C184608300DE0FF2908
:107B200006D9090A0A46074B9B5C1846103004E048
:107B30000A46044B9B5C184618307047FFFF000054
:107B4000FFFFFF00D46C010010B500F0DFF800F07B
:107B500001F810BD70B500260020184908801849AA
:107B600008801849086018490860184908601849D1
:107B7000086018490860002400BFFCF74FFB064668
:107B800000BF00250BE000201049086000F074F8E9
:107B900000F08CF80D4800682418681C85B2002D90
:107BA000F1D00C48046000200849086008490860CA
:107BB00000BF3046FCF736FB00BF70BD68000020F8
:107BC0006A0000206C000020700000207800002077
:107BD0007C0000207400002001460846044A126818
:107BE000904203D9024A1268801A00E000207047D0
:107BF0007400002070B5002500BFFCF70FFB0546A0
:107C000000BF0648046800BF2846FCF70BFB00BF16
:107C10002046FFF7E1FF0646304670BD78000020A1
:107C200070B50025FFF7E6FF044600BFFCF7F6FA43
:107C3000054600BF00200449086000BF2846FCF745
:107C4000F1FA00BF204670BD7800002070B5002515
:107C500000BFFCF7E3FA054600BF0648046800BF12
:107C60002846FCF7DFFA00BF2046FFF7B5FF0646BF
:107C7000304670BD7C00002010B509480088401CCB
:107C80000749088007480088002803D100F04AF817
:107C90000549086003480088401C0249088010BD5F
:107CA000680000206A0000206C00002010B50F481A
:107CB0000088401E0D49088008460088002814D11D
:107CC00000F030F80A490860084600680949096868
:107CD000441A09480068A04201D2074804600748D6
:107CE0000068A04201D20548046010BD6A0000206F
:107CF000700000206C000020780000207C00002034
:107D000000200149086070477C00002010B5002069
:107D10000249086000F004F810BD00006400002073
:107D200070470000034949690904024A126988182A
:107D3000704700000031014070B503460C461546FF
:107D40000022002600BF0FE05100585C00F00FF841
:107D50000007060E5100491C585C00F008F8801915
:107D6000C6B2A654501CC2B2AA42EDDB70BD014699
:107D7000302905DB392903DC08463038C0B27047AA
:107D8000412905DB462903DC08463738C0B2F6E74F
:107D9000612905DB662903DC08465738C0B2EEE7E7
:107DA0002020ECE7F8B507460C4616460C2C01DC03
:107DB000012C01DA0020F8BD022C0CD138460AF063
:107DC00093FD002804D009488078401CC5B204E027
:107DD0000648857801E00548055DAE4201DC012ECC
:107DE00001DA0020E7E70120E5E70000C46C0100AC
:107DF00010B500F081FD1849184800F031F8164917
:107E00001648203000F02CF813491448403000F098
:107E100027F811491148603000F022F80E490F4848
:107E2000803000F01DF80C490C48A03000F018F824
:107E300009490A48C03000F013F80022FF2101313F
:107E40000648C030FFF78EFD002201214902034899
:107E5000C030FFF787FD10BDFFFF0000000C0040A1
:107E60007CB504460D466A462946204601F0F2F8E4
:107E700068460079012809D02946204601F0BDF95D
:107E800001222946204605F005FF08E00122294687
:107E9000204605F0FFFE2946204601F0AEF97CBDE4
:107EA00000B591B00121204806F0D6F81A2002F062
:107EB00095FF002000900290232004900020059060
:107EC00001206946087600210791012106A8017268
:107ED0000021099101760E910F910EA8C172694699
:107EE000124800F0B7F901210F48401C06F0B4F821
:107EF0001B2002F073FF00210EA8017241728172F3
:107F00000E910F91C17269460848203000F0A2F925
:107F10000121064800F0E8F801210448203000F073
:107F2000E3F811B000BD00000200000490300140F1
:107F300020B5002500BF00BF00BFFCF76FF9054664
:107F400000BFFFF799FE00BF03F0B6F800BFFFF7D0
:107F5000ADFE00BF2846FCF765F900BF00BF06482C
:107F600000F031F9012804D1034800F036F907F098
:107F700085FC03F0B7F820BDD0300140F8B50546C8
:107F80000026F643284600F01BF90121284600F0A0
:107F9000ABF8002420E01448406900041249096944
:107FA000471800BF284600F001F9012807D12846EC
:107FB00000F006F9284600F040F986B20AE00A48C7
:107FC00040690004084909694018C01B7D21090265
:107FD0008842E7D300BF641C022CDCDB002128466A
:107FE00000F082F83046F8BD0031014010B592B083
:107FF00004461D48201AC004010E00910020019083
:1080000002906846007803280BD1002003900420DA
:1080100004900121154806F01FF81D2002F0DEFE35
:1080200000E000BF00BF002005907F2006900120E7
:108030006946087740210891002107A801720A913A
:1080400001740C9101210176417600210E910FA857
:108050000172417281720F911091C17201A9204683
:1080600000F0F8F812B010BD903001400500000497
:108070008AB242617047012904D1026804231A437D
:10808000026003E0026804239A43026070470A46D4
:10809000016849084900D307DB0F194301607047A5
:1080A00010B50A46016808240B46A3431946082365
:1080B00013401943016010BD012904D10268022355
:1080C0001A43026003E0026802239A430260704789
:1080D000012904D1026820231A43026003E00268E8
:1080E00020239A4302607047012904D1026880234B
:1080F0001A43026003E0026880239A4302607047DB
:1081000010B50A46016810240B46A34319461023F4
:1081100013401943016010BD012904D102684B02CC
:108120001A43026004E0026801235B029A43026082
:10813000704710B50A46016840240B46A343194610
:10814000402313401943016010BD012904D1026886
:108150000B021A43026004E00268FF2301339A43D2
:1081600002607047012904D1826902231A438261A7
:1081700003E0826902239A4382617047012904D196
:10818000826904231A43826103E0826904239A43CB
:1081900082617047012904D1826901231A438261F7
:1081A00003E0826952085200826170470146C86943
:1081B00002221040002801D0012070470020FCE777
:1081C0000221C16170470146C869C007C00F00287D
:1081D00001D0012070470020FCE70121C1617047F8
:1081E0000A4641688908890093079B0F194341603B
:1081F000704710B50A4641681C240B46A343194634
:108200001C2313401943416010BD10B50A46416854
:1082100040240B46A34319464023134019434160B1
:1082200010BD10B50A46416880240B46A343194689
:10823000802313401943416010BD0146086980B294
:1082400070478AB202617047CAB282607047CAB290
:10825000C260704730B505460C4628462168FFF7D6
:10826000D4FF28466168FFF7DCFF2846A168FFF7C6
:10827000B7FF2846E168FFF7BCFF28462169FFF7F2
:10828000E3FF28466169FFF7E2FF217E2846FFF7FA
:1082900043FF2846E169FFF74CFF2020015D284697
:1082A000FFF716FF2846616AFFF72AFF2820015DC5
:1082B0002846FFF74AFF2846E16AFFF7F1FE302023
:1082C000015D2846FFF7D7FE3120015D2846FFF704
:1082D000F3FE2846616BFFF7DAFE2846A16BFFF735
:1082E000B0FF2846E16BFFF7C3FE4020015D284642
:1082F000FFF744FF4120015D2846FFF733FF42208E
:10830000015D2846FFF746FF4320015D2846FFF741
:10831000EBFE30BD0146054A1068800880008A07E0
:10832000920F1043014A1060704700000010004097
:1083300070B504460D462A4621460320FFF7AAF9E8
:108340002A4621460220FFF7A5F970BDFEB5044676
:108350000D4616461F460020019001A83B463246B6
:1083600029460090204600F01BF9FEBDFFB587B0FE
:10837000109D07990998401A069008990A98401A82
:1083800005900020039028680290059906980843FC
:10839000002805D10899079800F098F90BB0F0BDB6
:1083A0000698FFF7B5FA07460598FFF7B1FA874236
:1083B0000DDA05A906A808F0A3F908A907A808F08E
:1083C0009FF90AA909A808F09BF9012003900698D3
:1083D000FFF79EFA0699884210D006984042069010
:1083E00005984042059009A907A808F089F90AA94B
:1083F00008A808F085F90026F64300E00126059854
:10840000002843D10398002820D06348807E0028AC
:1084100005D1099A0799089802F036F935E0002449
:108420000DE002994A1C0846029208F0F9F800286B
:1084300004D107980119089802F0F6F8641C069810
:108440008442EEDD0298401E28601EE05248807E85
:10845000002804D107A807C802F0BAF815E00024E4
:108460000DE002994A1C0846029208F0D9F800284B
:1084700004D107990819089902F0D6F8641C0698E7
:108480008442EEDD0298401E286087E70698C10FFF
:108490000918491004910598002802DA049840420E
:1084A00004903D48807E00282ED1002428E00598C5
:1084B000604304994718002F01DD384600E07842F8
:1084C0003649884206DA38460699FCF721FA0899B7
:1084D000401805E038460699FCF71AFA0899401842
:1084E00001900398002805D107990819019902F015
:1084F0009BF804E007980119019802F095F8641CB4
:1085000006988442D3DD44E0002E03DA28680699F9
:1085100040182860002430E005986043049947180B
:10852000002F01DD384600E078421C49884206DA17
:1085300038460699FCF7ECF90899401805E03846EA
:108540000699FCF7E5F908994018019029688919FE
:108550000846296008F064F800280DD10398002827
:1085600005D107990819019902F05EF804E007980F
:108570000119019802F058F8641C06988442CBDD7A
:10858000002E03DA28680699401828602868801BA6
:10859000286000BF02E70000F4400020FF7F0000D9
:1085A000F0B58FB006460F4614461D464648007E7D
:1085B000012808D114982B462246394600903046AF
:1085C000FFF7D4FE7EE0301B0E90781B0D900D99C6
:1085D0000E980843002874D007A800903A48007EFF
:1085E000421E791B301B08AB029007F0A5FA0898D1
:1085F00000280BDD0899481CC10F09184910069185
:108600000898C10F0918491004910AE00898C10F91
:108610000918491006910899481EC10F09184910F8
:108620000491079800280BDD0799481CC10F091811
:10863000491005910798C10F0918491003910AE0E4
:108640000798C10F0918491005910799481EC10FD5
:108650000918491003910698301801B268468184C0
:108660000598381801B26846C1840498301A01B2DE
:10867000684601850398381A01B209A8C180049898
:10868000201A01B2684681850398281A01B209A808
:1086900041810698201801B268460186059828187D
:1086A00001B209A8C18100231A46042100F074F820
:1086B0003946304607F0E4FE2946204607F0E0FE42
:1086C00000BF00BF0FB0F0BDF440002070B50546FC
:1086D0000E460A48007E012804D13146284601F0A2
:1086E000A3FF09E00548007E441EE00F0019421078
:1086F0003146284600F004F870BD0000F440002028
:10870000F7B582B0044616462249714308467D21DA
:10871000C900FCF7FDF8401C0190F10F89194A10BF
:1087200031467143511800913546A219A01B039997
:1087300001F04EFF012728E0384678432946694377
:1087400041180098814213DD019885420FDDE3193D
:108750005A1E039B5919E31B581C01F039FFE319FA
:108760005A1E039B591BE31B581C01F031FF6D1E61
:108770006219039BD919601B01F02AFF6219039B40
:10878000D91B601B01F024FF7F1C01988742D3DDB9
:1087900005B0F0BDC3020000FFB589B006461F4614
:1087A000534808904042079000250CE0A80080192B
:1087B0000224045F0898844200DA089407988442EF
:1087C00000DD07946D1C0A988542EFDB494840693B
:1087D00000281BD0474841690620085EC11B079846
:1087E000814205DA434841690620085EC01B0790B4
:1087F000404841690220085EC11B0898814205DD9E
:108800003C4841690220085EC01B0890089C69E052
:1088100007F0DCFE00255DE00A98401EA84201DD5D
:10882000681C00E000200690A80081190220085E64
:1088300005900698800081190220085E0490059832
:10884000A04228D10498A0420DD106988000335E42
:108850000B981A18E119A800335E0B9818180390AA
:1088600007F0FCFD35E02346294630460A9A07F01A
:1088700067FE03900398A0420CD00B9801970090DC
:108880000498031B0398021BA800305E2146029047
:1088900007F03CF91DE00498A0421AD00498A042C9
:1088A00002DB0598A04205DD0598A04211DB049883
:1088B000A0420EDC069880008319A800821903A943
:1088C000204607F076F9002802D0039807F0F4F864
:1088D00000BF6D1C0A9885429EDBE1190B9807F0DA
:1088E000E7FD641C0798844292DD0DB0F0BD0000E6
:1088F000FF0F0000F440002000B500F04DF80E48D6
:1089000000F085FC0C48203000F081FC0A48403023
:1089100000F07DFC0848603000F079FC06488030AB
:1089200000F075FC0448A03000F071FC0248C03033
:1089300000F06DFC00BD0000000C00400146054A3F
:10894000106840084000CA07D20F1043014A106067
:1089500070470000000D00400146064A10680223DF
:1089600002469A43104602220A401043014A106010
:1089700070470000000D00400146064A10680823B9
:1089800002469A43104608220A401043014A1060EA
:1089900070470000000D004007480849086248621F
:1089A000886200208863C8630449403108604860D9
:1089B0008860C860704700000000FFFFC00C0040E6
:1089C000F0B503460C4600210020002207E00125F7
:1089D00095402540002D01D0114602E0521C102A7E
:1089E000F5D300BF614E9D1BB34239D008DC604D0A
:1089F0005D19002D0BD0202D0AD0402D73D11BE026
:108A0000202D43D0402D56D0602DF7D181E000BFFE
:108A1000584D2D784F077F0F0126BE403540002D61
:108A200009D00120534D2D784F077F0F0126BE40FE
:108A30007540504E357096E04E4D6D784F077F0F64
:108A40000126BE403540002D09D00120494D6D78EA
:108A50004F077F0F0126BE407540464E757082E07D
:108A60000A2912D8434D6D784F077F0F0126BE406B
:108A70003540002D09D001203E4D6D784F077F0F06
:108A80000126BE4075403B4E75706CE0022911D343
:108A900009290FD8374DAD788E1E0127B7403D40CC
:108AA000002D07D00120334DAD780127B7407D4020
:108AB000304EB57057E0002916D0072914D82D4D37
:108AC000AD784F077F0F0126BE403540002D1FD0E7
:108AD0000120284DAD784F077F0F0126BE4075401D
:108AE000244EB57014E03DE0082911D30B290FD8AE
:108AF000204DAD780E1F0127B7403D40002D07D017
:108B000001201C4DAD780127B7407D40194EB5704E
:108B100029E0022911D1174D6D784E1C0127B7406D
:108B20003D40002D1DD00120124D6D784E1C0127B7
:108B3000B7407D400F4E757013E0052911D3082909
:108B40000FD80C4D6D784E1E0127B7403D40002DCB
:108B500007D00120074D6D780127B7407D40054EB5
:108B6000757000E000BF00BFF0BD0000600C004069
:108B700000F4FFBF5800002030B502460B4600202D
:108B8000002107E001248C401C40002C01D0084645
:108B900002E0491C1029F5D300BF344D541BAA42F2
:108BA00021D008DC324C1419002C0BD0202C0AD018
:108BB000402C58D10FE0202C1FD0402C28D0602C06
:108BC00051D13CE000BF45076D0F0124AC40274D5B
:108BD0006035EC6248E045076D0F0124AC40234D41
:108BE00060352C6340E00A2806D845076D0F012444
:108BF000AC401E4D60352C6336E0022807D30928AF
:108C000005D8841E0125A540184C603465632BE00F
:108C1000002809D0072807D845076D0F0124AC406C
:108C2000124D60356C6309E0082807D30B2805D87E
:108C3000041F0125A5400D4C6034656314E0022833
:108C400006D1441C0125A540084C6034256309E089
:108C5000052807D3082805D8441E0125A540034C44
:108C60006034256300E000BF00BF30BD600C0040F1
:108C700000F4FFBF70B504460D4616460322294690
:108C8000204600F00FF82946204600F0E7F832466B
:108C90002946204600F006F829462046FFF76CFFDB
:108CA00070BD0000F7B5054613460022002408E019
:108CB0000126A640019F3E40002E01D0224602E040
:108CC000641C102CF4D300BF624FEE1BBD4237D0A2
:108CD00008DC614EAE19002E0BD0202E0AD0402E9B
:108CE00070D11AE0202E40D0402E55D0602EF7D102
:108CF00080E000BF5607360F30461030554E6036C4
:108D0000316A032686400F46B74339461E468640E1
:108D10003143504E6036316299E05607360F304687
:108D200010304C4E6036716A032686400F46B743BA
:108D300039461E4686403143464E6036716286E0B3
:108D40000A2A11D85607360F30461030414E603689
:108D5000716A032686400F46B74339461E46864051
:108D600031433C4E6036716271E0022A13D3092A06
:108D700011D8961E760030461030364E6036B16AF5
:108D8000032686400F46B74339461E468640314388
:108D9000304E6036B1625AE0002A14D0072A12D849
:108DA0005600304610302B4E6036B16A032686409E
:108DB0000F46B74339461E4686403143254E60363E
:108DC000B16216E042E0082A13D30B2A11D8161F0D
:108DD0007600304610301F4E6036B16A032686405A
:108DE0000F46B74339461E4686403143194E60361A
:108DF000B1622CE0022A12D1561C760030461030A7
:108E0000144E6036716A032686400F46B7433946D2
:108E10001E46864031430F4E6036716215E0052ACA
:108E200013D3082A11D8561E760030461030094E4A
:108E30006036716A032686400F46B74339461E46A0
:108E400086403143034E6036716200E000BF00BFD0
:108E5000FEBD0000600C004000F4FFBFF0B504460A
:108E60000D460020002307E001269E402E40002EE4
:108E700001D0184602E05B1C102BF5D300BF734FE6
:108E8000E61BBC423CD008DC714EA619002E0BD06C
:108E9000202E0AD0402E7DD121E0202E44D0402E1D
:108EA00066D0602EF7D1A6E000BF4607310F674EAF
:108EB0006036326A03268E401746B7433A46634E01
:108EC000603EB44203D1C6088E40324303E0C60878
:108ED000B61C8E4032435D4E60363262B3E04607C8
:108EE000310F5A4E6036726A03268E401746B743DA
:108EF0003A46C6088E403243544E60367262A2E053
:108F00000A2810D84607310F504E6036726A032681
:108F10008E401746B7433A46C608B61C8E403243C9
:108F20004A4E603672628EE002280ED305280CD8B5
:108F3000811E464E6036B26A01268E401746B74300
:108F40003A46424E6036B26211E006280FD3092835
:108F50000DD8861F7600311D3C4E6036B26A03265E
:108F60008E401746B7433A46384E6036B2626AE0E2
:108F7000002813D0032811D80146344E6036B26A57
:108F800001268E401746B7433A4601268E403243AB
:108F90002E4E00E056E06036B2622BE0042813D378
:108FA000072811D8061F7600311D284E6036B26A98
:108FB00003268E401746B7433A4601268E40324379
:108FC000224E6036B26215E0082813D30B2811D860
:108FD0000646083E7600311D1C4E6036B26A0326F6
:108FE0008E401746B7433A4602268E403243174E0C
:108FF0006036B26227E002280FD10621134E603698
:10900000726A03268E401746B7433A4603268E40BF
:1090100032430E4E6036726213E0052811D30828E1
:109020000FD8461E7100094E6036726A03268E40C4
:109030001746B7433A4603268E403243034E603606
:10904000726200E000BF00BFF0BD0000600C004095
:1090500000F4FFBFF0B504460025002307E0012619
:109060009E400E403546002D00D002E05B1C102BC8
:10907000F5D300BF102B36D21D46116026680E4076
:109080003046E840012802D10126D67101E00026D1
:10909000D67166680E40EE403046012801D19671C7
:1090A00001E000269671A6680E40EE403046012889
:1090B00001D1567101E000265671E6686F00FE404E
:1090C000B007800F002802D1002616710BE001289E
:1090D00002D10126167106E0022802D1022616717D
:1090E00001E003261671F0BD1CB568468188019128
:1090F000002400BF00BFFBF791F8044600BFFEF755
:10910000BBFD00BF01F0D8FF00BFFEF7CFFD00BFE1
:109110002046FBF787F800BF00BF124800781249CD
:10912000C96A08430F490870084640780E49096B20
:1091300008430C494870084680780B49496B08433E
:1091400008498870FF200849C8620863486301A87D
:1091500000231A4619460090044802F0B5FF01F0BA
:10916000C1FF1CBD58000020C00C0040E0300020B2
:10917000F0B502460B4600210024002500BF2DE07B
:1091800001268E4034461E6826403546A54224D12D
:1091900010680646A6433046DE798E4030431060A4
:1091A00050680646A64330469E798E403043506054
:1091B00090680646A64330465E798E403043906004
:1091C0004F000326BE403446D0680646A6433046CC
:1091D0001E794F00BE403043D060491C1029CFD3C8
:1091E000F0BD02460020D3690B40002B01D00120C6
:1091F00000E000207047816170474161704702695B
:109200000A40002A01D0816100E0416170470021DD
:10921000016041608160C16001617047F0B58FB04D
:10922000054660482621415E0D912821415E0C9142
:10923000C0698469A0890B900B98A84209DCE08979
:10924000A84206DB20680E900B982E1A0027FF43D9
:109250001FE0A06861680E91002816D001880B916C
:109260000B99A9420DDC4188A9420ADB0288AA1A9F
:1092700095B24168AA00891800268E5F0227CF5F49
:1092800006E00026F643374602E00026F64337465E
:1092900000BF701C00287CD04248C069007DA17CC2
:1092A00048430A90207C08903E48C069007D0790A2
:1092B0003C482E21415E0991099801F05FFCC0B243
:1092C000069038490A9870430E9A8018A27C0123B0
:1092D00002930392059104900846C069C07DC96954
:1092E000897D00910190079B089A0C990D9801F0D7
:1092F00053F8781C00281DD0022209991143084612
:1093000001F03CFC27490A9878430E9A8018A27C09
:10931000012302930392059104900846C069C07D21
:10932000C969897D00910190079B089A0C990D9855
:1093300001F032F81B48C069407D1A49C969097DAE
:10934000884222DD099802281FD004220999514041
:10935000084601F013FC1348C069007D1149C96932
:10936000497D48430C99401805900E48C069417DDD
:109370000C980B180B48C069807D089948430D99DB
:10938000421805990D9801F0A9F9069801F0F6FB2D
:1093900000BF0448C08C617C401800B20149C884F9
:1093A0000FB0F0BDF440002001460348C069826957
:1093B00000BF507C70470000F440002000BF022234
:1093C0000A807047F0B50446A3699D898D4204DC8C
:1093D000D889884201DB0120F0BD9A68002A12D0AA
:1093E000108888420FDC508888420CDB8F00506860
:1093F000C0191788BF00C61B0020305E002801DBA3
:109400000120E9E700BF00BF0020E5E710B5002418
:109410000CE0A101074A8918081D3C220649FAF709
:10942000C1FE0020A101034A5050641C042CF0DB53
:1094300010BD000030410020F440002010B5002095
:10944000C0430249086000F097FB10BD6001002096
:1094500070B505460C46284600F0DAFAC6B2234637
:1094600000223146284600F001F870BDFFB581B0FA
:109470000D4616461C46214601A806F0F0FB281AA8
:10948000C5B2002E01D0681EC5B2A8001849085800
:109490000199884204D8A80015490858401E019037
:1094A0001FE02846691ECDB2B04205D111480178AF
:1094B0002268501C20601170A8000D4908580090C7
:1094C00000990198FBF724FAC7B2009878430199F4
:1094D000081A019038463030C1B22268501C206012
:1094E0001170002DDDD100202168087005B0F0BD9D
:1094F0000C7001004401002010B5002802DA2D2272
:10950000404200E02B220C68631C0B602270002399
:109510000C68237010BD000010B50021084600F053
:10952000D1F9034B1A465942084600F003F810BD22
:10953000FF0F0000F8B504460D4616461F4600F022
:109540001DFA042001F01AFB00903B4632462946E2
:10955000204601F0C3F8009801F010FB00F0F2FA89
:10956000F8BD70B504460D4600222946204600F09D
:1095700016F870BDF0B585B005460E4617461C4678
:1095800001A800906B46002221462846FFF76EFF97
:109590003A46314601A800F01BF905B0F0BD7FB591
:1095A00004460D46164601A800906B4632462946F1
:1095B0002046FFF75BFF01A800F062F87FBD7FB592
:1095C00005460C4601A80090002D06DA694628469B
:1095D000FFF792FF0546601EC4B2284600F018FA55
:1095E000C6B205E02020009908700098401C009049
:1095F0003046711CCEB2A042F4DB69462846FFF724
:1096000027FF01A800F03CF87FBD0000F8B5064632
:109610000D463046FCF7B4F8074600F0F9F9281A71
:10962000441E002130460CF095FB05D20749304618
:109630000CF012FC00D2641E002C00DA0024E2B20E
:1096400000232946304606F01BFBF8BD000080BF12
:109650007FB505460C46164601A800906946284687
:10966000FFF74AFF0546601EC0B2044601466B463E
:1096700032462846FFF7FAFE01A800F001F87FBD48
:10968000F0B585B00446002C01D105B0F0BD00F066
:1096900075F900F0E1F807464B492620085E039073
:1096A00000F0E6F806464848018D881B00B246499E
:1096B000088573E04549204600F0D8FA009020461E
:1096C000009900F0AFFA05463F48008E8007800FF2
:1096D000012807D0022807D12846E90F09184910A8
:1096E000049104E0049502E00020049000BF00BF54
:1096F0003548C18C0498081A01B23348C1846846C1
:10970000818080884019401E01B2684601812E4840
:10971000018D6846C180C088C019401E01B26846EC
:10972000418101AA2046009900F058FA6846C08895
:10973000254908852046009900F0EEF904192078A3
:109740000A2802D020780D281DD11F48008E8007DE
:10975000800F012802D0022805D100BF039800B273
:109760001949C88404E01848808C1749C88400BF90
:1097700000BF20780A280CD11348008DC01900B210
:109780001149088505E068468088401900B20E49F5
:10979000C8842078002800D103E0641C20780028C9
:1097A00088D100BF0848008D801900B2064908859D
:1097B00008463021415E880880000349088600F091
:1097C000C1F900BF61E70000F4400020FF7F000006
:1097D00070B506460C46154600F0D0F820B2054993
:1097E000C88428B208853046FFF74AFF00F0AAF97E
:1097F00070BD0000F4400020F8B504460D46164642
:109800001F4600F0BBF83B46324629462046FEF78D
:109810009DFD00F097F9F8BDF8B504460D461646D3
:109820001F4600F0ABF83B46324629462046FEF77D
:10983000B3FF00F087F9F8BD70B5044600F09EF85C
:109840000448C069416820468847054600F07AF917
:10985000284670BDF440002010B500F08FF8034892
:10986000C069447D00F06EF9204610BDF440002030
:1098700010B5002400F082F811493020085E0C2158
:109880000840042804D008280ED00C2813D104E086
:109890000B48C069007D441E0DE00949C969087D77
:1098A000C10F09184C1006E00549C969087DC10FB0
:1098B00009184C1000BF00BF00F044F9204610BD4D
:1098C000F440002070B506460C4600F057F83046CC
:1098D00006F06CFE0546204606F070FE054300F0DB
:1098E00031F9284670BD000010B52E2007490870D8
:1098F00000F03EF9064806F06FFEFFF79FFD00F00E
:1099000021F80446FFF782FD204610BD44010020E7
:10991000F4400020F8B504460D4616461F4600F0F8
:109920002DF8012000F0A9F800903B463246294668
:10993000204600F0D3FE009800F09FF800F002F9F6
:10994000F8BD000010B5002401F0F4F801F085F82E
:10995000044300F005FF042001F010F9064B1A46FD
:109960000021084600F0BAFE002001F007F901F0DE
:1099700082F8204610BD0000FF0F000010B51F4800
:109980000068002806D100F013F900F0E9F81C493E
:1099900008600BE000F0E4F819490968884205D036
:1099A00000F006F900F0DCF815490860134800687B
:1099B000401C1249086001281FD106F0D9FD044659
:1099C00010480068844217D00E480068002811DB58
:1099D0000C49096889010C4A8918081D3C220B4969
:1099E000FAF7E0FBA001084A8018011D3C22074855
:1099F000FAF7D8FB0348046000BF10BD68010020DF
:109A0000640100206001002030410020F44000206B
:109A100010B501460120002901DD0B4600E04B4254
:109A20001A4600E0401C8300044CE358934201D8DE
:109A30000928F7DB002900DA401C10BD0C7001007A
:109A400002460220105E0623CB5E984213DC022001
:109A5000085E0623D35E98420DDC0020105E0423CE
:109A6000CB5E984207DC0020085E0423D35E984258
:109A700001DC012070470020FCE770B50446FFF7C9
:109A80007DFF204601F07AF8054600F05BF8284695
:109A900070BD000070B504460548C569FFF76EFF4C
:109AA000002C01D00248C46100F04CF8284670BD7B
:109AB000F440002070B50446FFF760FF0348057EC0
:109AC000047600F03FF8284670BD0000F440002006
:109AD00070B50446FFF752FF04482E25455F20B2BB
