:020000040000FA
:10400000A0560020DD410000E5410000E1930000E2
:1040100000000000000000000000000000000000A0
:10402000000000000000000000000000E941000066
:10403000000000000000000069420000FDB0000028
:10404000EF410000EF41000041C60000EF410000D9
:10405000EF41000049690000EF410000EF4100001E
:10406000EF410000EF410000EF41000035D10000BA
:10407000ADD10000EF410000EF410000EF41000032
:10408000EF410000EF410000EF410000EF41000070
:10409000EF410000EF410000EF410000EF41000060
:1040A000EF410000EF410000EF410000EF41000050
:1040B000657A0000EF41000055870000EF410000E5
:1040C00000F002F800F05FF80CA030C8083824189F
:1040D0002D18A246671EAB4654465D46AC4201D140
:1040E00000F051F87E460F3E0FCCB6460126334213
:1040F00000D0FB1AA246AB463343184758090100CB
:10410000780901000023002400250026103A01D37D
:1041100078C1FBD8520700D330C100D50B6070477F
:1041200010B5662902D10EF081FC10BD642902D1C0
:1041300000F056F910BD752902D100F051F910BDFB
:10414000782902D100F082F910BD632902D101F073
:1041500061FE10BD732902D101F064FE10BD002084
:1041600010BD1FB501F088FF0400002000210EF0F3
:1041700095FA401C6060002000210EF0A5FAE06076
:104180001FBD10B510BD02F05BFB1146FFF7E9FF44
:104190000CF05AF802F073FB03B4FFF7F2FF03BC14
:1041A0000AF00AF970B505460C46164602E00FCC37
:1041B0000FC5103E102EFAD2082E02D303CC03C531
:1041C000083E042E07D301CC01C5361F03E0217839
:1041D0002970641C6D1C761EF9D270BD074880479B
:1041E00007480047FEE7FEE7FEE7FEE7FEE7FEE7DB
:1041F00004480549054A064B70470000D9CF000026
:10420000C1400000A0460020A0560020A048002089
:10421000A048002072B6704762B67047EFF3108076
:1042200072B6704780F31088704730BF704720BF68
:104230007047000072B6214821490160002080F3D8
:10424000098806F023FE1F48016881F308881E488C
:104250001E49016062B6FEE71B481C4901607047B9
:1042600019481A490160704772B6EFF309800028B7
:104270000BD02438164909680860F0C044464D4602
:1042800056465F46F0C0734608C006F0FFFD114871
:1042900011490A7802700E4810490A6802601068D5
:1042A0001030F0C8A046A946B246BB4608C89E4694
:1042B00080F309882438F0C862B6704720ED00E02A
:1042C0000000FF008800002004ED00E00000001066
:1042D00020010020C6000020C7000020240100208B
:1042E000704710B5044601F0F5FA0068005DC0069D
:1042F00002D52046203010BD204610BD0FB4054920
:1043000010B503AA029801F091FD10BC08BC04B0DE
:10431000184700005C0000200FB41CB5074B06AA2C
:104320007B4469460090059801F051FD00206946E4
:1043300001F060FD1CBC08BC04B01847D11A000095
:1043400070B5044685690068C10601D5302600E0D5
:104350002026C00707D070BD62683046A16890472C
:10436000206A401C20626D1EF6D570BD70B50446F3
:1043700085690078C00707D170BD6268A1682020F8
:104380009047206A401C20626D1EF6D570BD70B546
:104390000C460546012A05D02878800600D5EA6932
:1043A000002302E0012305E05B1C934202D2E05CA3
:1043B0000028F9D1A869E618C01AA861286AC018AF
:1043C00028622846FFF7BCFF04E06A682078A968E5
:1043D000641C9047B442F8D32846FFF7C7FF70BD6E
:1043E000F7B5002575291068009914A611D0C046AC
:1043F000C046002802DA404211A608E00099096888
:104400008A0701D50FA602E0490704D50EA60125AB
:1044100001E0C046C046009F0024243704E001F0BC
:1044200019FD30313955641C0028F8D12B4632462D
:104430002146009801F061FAFEBD00000000000076
:104440002D0000002B0000002000000070B5044685
:104450000D4621461068C046C0462188090502D590
:104460000F4A7A4402E00E4A7A440E322346002173
:10447000243305E006070009360F965D5E54491C9B
:104480000028F7D120780023000705D5702D03D030
:10449000002901D002231132204601F02EFA70BD0E
:1044A00026FF0000F3B50446002081B020622046BC
:1044B000E1688847002872D0252802D06268A16888
:1044C000ABE0594F00267F442046E168884720280A
:1044D000054608DB312D06D27819203800780028EF
:1044E00001D00643F0E7B00701D504208643002041
:1044F000E0610746A0612A2D0AD0284609F0BAFEDD
:10450000002827D0B8000019303D0090856119E0DF
:104510000298BA00121902C8916102902046E1681F
:104520008847012F054617D1E06900281FDA2020AF
:1045300086431CE000980A2180694843009940198D
:10454000303888612046E1688847054609F092FEC8
:104550000028EFD1012F0AD02E2D08D12046E16886
:1045600088470546202006437F1C022FC3DBA06935
:10457000002803DA4042A06101200643F00701D081
:10458000102086436C2D0BD0682D09D04C2D3CD0CB
:104590006A2D38D0742D38D07A2D36D016E040E010
:1045A000E1682F4620468847B842054609D16C2F5E
:1045B00029D001208002E16806432046884705464D
:1045C00004E06C2F1DD0FF2001300643002D28D0C1
:1045D00028464138192803D80120C0020643203557
:1045E000204626602946029A1646FFF799FD0028C4
:1045F00010D001280BD0F61DF008C0000830029042
:1046000055E74020E1E78020D5E70020D3E7361DBD
:1046100002964CE762682846A1689047206A401CD1
:1046200044E7206AFEBD0000EAFE000030B5054602
:104630000B462A461C781078521C5B1C002801D0BF
:10464000A042F7D0002C03D0002802D06D1CEFE769
:10465000284630BD034610B50B439B070FD1042AF3
:104660000DD308C810C9121FA342F8D018BA21BA36
:10467000884201D9012010BD0020C04310BD002A8E
:1046800003D0D30703D0521C07E0002010BD0378ED
:104690000C78401C491C1B1B07D103780C78401C6C
:1046A000491C1B1B01D1921EF1D1184610BD000000
:1046B00030B5441C03E00178401C00290DD081076F
:1046C000F9D10B4BDD0104C8D11A91432940FAD02E
:1046D000001B0A0603D0C01E30BD001B30BD0A04FB
:1046E00001D0801E30BD0902FCD0401E30BD00004C
:1046F000010101010346F0B50B439B072DD1244D69
:10470000EF01042A29D308C810C95E1B9E43121F5B
:104710003E4017D0D8B2E1B2401A3106014310D161
:1047200098B2A1B2401A310401430AD11802210201
:10473000000A090A401A3102014302D1180E210E63
:10474000401AF0BDA342DCD018BA21BA884201D980
:104750000120F0BD0020C043F0BD002A01D100209F
:10476000F0BD03780C78401C491C002B0DD0A342EF
:104770000BD1521E09D003780C78401C491C002B29
:1047800003D0A34201D1521EEBD1181BF0BD000093
:1047900001010101F8B5042A2CD3830712D00B784C
:1047A000491C0370401C521E83070BD00B78491C18
:1047B0000370401C521E830704D00B78491C037001
:1047C000401C521E8B079B0F05D0C91ADF00202307
:1047D000DE1B08C90AE0FFF7E5FCF8BD1D4608C965
:1047E000FD401C46B4402C4310C0121F042AF5D2D1
:1047F000F308C91A521EF0D40B78491C0370401CF0
:10480000521EEAD40B78491C0370401C012AE4D4E0
:1048100009780170F8BD134610B50446CAB21946AE
:104820001002821810048218204600F00FF820466B
:1048300010BD01E004C0091F0429FBD28B0701D57C
:104840000280801CC90700D00270704700290BD07D
:10485000C30702D00270401C491E022904D38307FB
:1048600002D50280801C891EE3E70022EEE70022C9
:10487000DFE70000024670B50A4392072AD11E4DB9
:10488000EE0104C808C9541B9443344017D0D0B279
:10489000D9B2401A2106014310D190B299B2401A00
:1048A000210401430AD110021902000A090A401A20
:1048B0002102014302D1100E190E401A70BD9A4216
:1048C000DFD010BA19BA884201D9012070BD00208A
:1048D000C04370BD02780B78401C491C002A09D0E7
:1048E0009A4207D102780B78401C491C002A01D05B
:1048F0009A42EFD0D01A70BD0101010100220309D4
:104900008B422CD3030A8B4211D300239C464EE0EA
:1049100003460B433CD4002243088B4231D30309A6
:104920008B421CD3030A8B4201D394463FE0C30958
:104930008B4201D3CB01C01A524183098B4201D370
:104940008B01C01A524143098B4201D34B01C01A5B
:10495000524103098B4201D30B01C01A5241C308D3
:104960008B4201D3CB00C01A524183088B4201D342
:104970008B00C01A524143088B4201D34B00C01A2E
:104980005241411A00D201465241104670475DE043
:10499000CA0F00D04942031000D3404253400022C6
:1049A0009C4603098B422DD3030A8B4212D3FC226F
:1049B000890112BA030A8B420CD3890192118B42EE
:1049C00008D3890192118B4204D389013AD0921104
:1049D00000E08909C3098B4201D3CB01C01A5241BF
:1049E00083098B4201D38B01C01A524143098B4288
:1049F00001D34B01C01A524103098B4201D30B0171
:104A0000C01A5241C3088B4201D3CB00C01A524195
:104A100083088B4201D38B00C01A5241D9D243087C
:104A20008B4201D34B00C01A5241411A00D20146B9
:104A3000634652415B10104601D34042002B00D523
:104A40004942704763465B1000D3404201B50020E5
:104A5000C046C04602BD7047704770470246C80F47
:104A6000C00781434B0030B54B405B009B0D20D00D
:104A70001923DB06C91801231B05994220DB0324F7
:104A8000A40704251346AB400BD3002B04D1EB063F
:104A900013409B00E34204D401246407002312194D
:104AA0005941FF231B0599420BD2C9000143500F06
:104AB00009E0CB0204D501430803024305D00548B1
:104AC00030BDFF21C905084330BD0846072109054F
:104AD000884330BD0000C07FF0B50C46871A9C416A
:104AE0000D46861A9D4103D2C01BA141D2196341D4
:104AF0000D0D1F0DC94EEC1BAE435CD07F057F0D25
:104B00000026002F51D02D05AC46A943DD0201231C
:104B1000ED0A1B051D4320231B1B24D41746E74029
:104B2000381871412F46E740CC199D40281831466E
:104B300061410C0D27D161449A4013D50023401CDC
:104B4000594152000ED14008400001224B0052054D
:104B5000D34207D305204007C14201D5B04900E048
:104B6000B0493046F0BD6B00002A00D001229A18EF
:104B70001F23203C1B1B01D5002302E0E540281821
:104B800071410C0DD7D0012424050919C407CD07A4
:104B900040084908E40F28436144002CD5D0002484
:104BA000401C61419A40D0D1CDE76A05520DD9D160
:104BB000C90FC907D5E79C4D4E00002801D001243C
:104BC00000E0002434195F00002A01D0012600E033
:104BD0000026BE19954FAC420CD8AE420AD8B4425A
:104BE00006D001256D05EC42BCD010461946F0BD3B
:104BF0009942FCD000203946F0BDF0B51FB40C46F8
:104C00000F46811A9F412546861A9D4106D20125ED
:104C1000ED076F40401ABC4152187B41210D1E0D1B
:104C20008D1BAC467D4D8D437ED075056D0D7CD0C2
:104C30000D05AE46AC431B031B0B794D52429D4103
:104C4000202366469B1B14D31746F74038180026CE
:104C50000090744160462F460741E41900989D403A
:104C60002818664116D4714671189A4025D501233B
:104C700020E093182A466A415200002B00D0521CB3
:104C80001E23203E9B1B002B61DD3541EE172818AB
:104C90006641E8D5001876415B1C9A4000D3401C61
:104CA0004B05F3181524E34010D3002B52D0714666
:104CB0007118D30FC01802D3491C05B0F0BD0123F1
:104CC000DB079A42F9D140084000F6E7012252057D
:104CD000B21801D1002853D00123CC0ADB0299433A
:104CE000891E002A08D1020C03D0020C00041039DE
:104CF00002E00246002020390023550B05D11202A4
:104D00000823550B01D152010D23550C01D112017D
:104D10001B1DD50C01D192009B1C150D01D1520019
:104D20005B1C2025EE1A01E02CE022E00546F54050
:104D300015439840CA1AE10769181305C918002AD3
:104D4000BBDA032040070818C10FC9070FE07146FE
:104D50006118B2E7F10740080843711071444A0036
:104D60000CD001235B059A42A7D2C90FC9070020C6
:104D7000A3E74905490D26D1002001E00028F4D120
:104D800000219AE7284D6600002801D0012100E0AB
:104D9000002171185F00002A01D0012600E00026E2
:104DA000BE19224FA94210D8AE420ED8B14208D047
:104DB00001256D05E94206D01946A802414010467A
:104DC0007BE79C4201D0214677E70020394674E713
:104DD00010B50C465C4005D50124E4076340FFF79D
:104DE0000CFF10BDFFF778FE10BD30B40C465C40E0
:104DF00004D50124E407634030BC6DE630BCFCE61A
:104E000070B50124E40761400D465D4002D4FFF710
:104E100063FE70BD6340FFF7F0FE70BDFF0700004A
:104E20000000F0FF0000F07F0000E0FF0000F87FCE
:104E3000F0B5F94D0C091E092C402E402F468BB0C1
:104E4000A7437DD0B543FCD0002E7AD0002CFCD0F7
:104E50000D465D40ED0F2543AC1BFF25AD046419E5
:104E60000894C502440DC9022143500DDC020443DD
:104E70000120C00701430443D2020191200C110C10
:104E800000958C46010423468B430A916146090430
:104E9000E24D8A430991010A7D4449198039097814
:104EA00005464D4301266D18F605751B6943C90C6F
:104EB000640B891C4C436418B5012C1B250C2E0473
:104EC000B4434C434D43210C691889090591009D59
:104ED000E90701D00121C90704912C46019967080F
:104EE000CD072F434C08059DE10B4D432D0C294662
:104EF0006646754302950D4645432E46029D7D1B31
:104F0000B44100950D465D4301942C0C2F040D46D1
:104F10005543AE462D0C3D43029503947546049CC3
:104F20002D04641B049406D2029C039D641C00267D
:104F300075410395029401AC70CC009F7D1B01E08C
:104F40003EE162E1B441090400950791019405999D
:104F5000A4086143090C0C464443650BE7040C4666
:104F600066467443A646640B3C430395029474461C
:104F7000049DE4042C1B049406D2029C039D641C33
:104F8000002675410395029401AC70CC009F7D1BF7
:104F9000B44101940C465C430095650FE7000C4654
:104FA0005443A646640F3C43039502947446049D03
:104FB000E4002C1B049406D2029C039D641C002672
:104FC00075410395029401AC70CC009F7D1BB441E8
:104FD000AE09AF06049DC900AD092F43049DA40688
:104FE000AD060495079D344369180791059DE10BB3
:104FF0004D432D0C29466646754302950D464543A3
:105000002E46029D7D1BB44100950D465D430194E3
:105010002C0C2F040D465543AE462D0C3D430295F6
:1050200003947546049C2D04641B049406D2029CD0
:10503000039D641C002675410395029401AC70CC5D
:10504000009F7D1BB44101948C050694079C890A3E
:10505000611800950791019C0599A4086143090C0A
:105060000D464543680BEF040D46644665436C0BE3
:105070003C43049FED047D1BAC4602D20025641C1A
:105080006841009E019D371B8541084658430195A4
:105090000C46460FC5005443600F28436546E400A4
:1050A0002C1B02D20025401C6E41019D3F1AB541C8
:1050B0002846BD09800628438446A009BF064E0243
:1050C0000699A40676180743079D002068410A99AF
:1050D000079019430020099B00906046FF19134375
:1050E0004041E20F64003A43A4460446D71A8C417B
:1050F000A04203D90120009020463A46C70F9418D9
:1051000040416246D20F2243644664000494009CEE
:10511000BE466400D71AA446044602978C417746DF
:10512000002F01D1A04204D96046401C8446029A57
:105130002046C40FA64694184041049A0546D20F53
:10514000224364466400D31A8D417146002901D17F
:10515000A84202D928461A46641C1043012200289E
:1051600000D0164361020020079B891904465C4168
:105170000223002C02DB491813466441089DCE0A25
:105180002D145D194B056705E10A2C050D190899C9
:105190003E43C9076940002B08D0934006D3002244
:1051A000761C5141002B01D1760876001C4A002D57
:1051B00043DB154241D0AA433FD030460BB0F0BD8F
:1051C00006180D464D41174C7642AC411AD395183E
:1051D0001C465C41134A6D42A24113D30122520581
:1051E0004C00D4420AD15C00D4420BD04B4002D5D3
:1051F00092021143E2E749004908DFE75940C90F2D
:10520000C90718E000200849D8E7054801420DD138
:105210000342F7D0F2E700000000FF0729F5000085
:105220000000F07F0000E0FF0000F87F11485940C7
:105230000143C01241400020C0E70123089A9B06A9
:105240009A4205DC032252078918C90FC907B5E73E
:10525000052252078918074A1143D2125140ADE77F
:1052600070B515461C4602460B4628462146FFF7F8
:10527000DFFD70BDFFFFFF7F30B50346CA02400D62
:105280001043164D164C0A1502D02043002A06DBA7
:10529000AA1A002A12DDD040FF2A0BDC30BD5205CD
:1052A000520D01D140004008AA1A07D4D040404214
:1052B000FF2A01DD002030BD0028FCDD4A00002B64
:1052C00001D0012000E00020101801225205D04238
:1052D000F0D8C817C043604030BD00001E04000075
:1052E000000000800346CA02400D10B510430A15A5
:1052F00004D00124E4072043002A05DB0A4CA21A4B
:1053000004D4D040FF2A00DD002010BD4A00002B4D
:1053100001D0012000E00020101801225205D042E7
:10532000F2D8C817C04310BD1E0400001F22030C92
:1053300002D10F22000402D0030E03D004E00020AB
:10534000014670470002083A030F01D10001121F05
:10535000830F01D18000921E002801DB4000521E05
:10536000120551184205C012411810467047C10F6E
:10537000C90700D04042012292071143D6E701211C
:105380008907D3E7F0B58B4C0F09254689B0BD439B
:105390007BD01D092646AE43FAD00E465E4027401C
:1053A000F60F3E43254071D024012142FBD0FF245B
:1053B000AD19A4042D1B039501252D05DB02DB0A85
:1053C000C9022B43C90A29431E010901040F130F07
:1053D000050121431701880B820391432D098C4657
:1053E000A90B1E438A039543B30B9A0396433F09C7
:1053F000BA0B9403A74302962E467E430497B64603
:105400004E19D7190C460196544305977E43371B16
:105410007646BF1B3601B646BE0B36190096764659
:10542000BC043719009C01D3641C00946400002F55
:1054300001D001263443029E049F754366467E4395
:105440000496760034196E0034190094029C019E73
:105450001C196643751BAE46069465464519059CA6
:1054600005956C43594375460891691A0191049E4C
:1054700001465143A41B0491611A009C0791E10667
:1054800005D061090122114302E072E06EE061097A
:10549000089D00272C0A2D066918049D7C412A0AC4
:1054A0002D066918019D6241AC0DAD026D18544185
:1054B000079A910D920255196141029A6446584328
:1054C0005443069B059A5A43121A131B9A0E9B01CA
:1054D0005B187A41010B0005C3185141220A2006CE
:1054E00044195A419A4200D2491C0120400281428B
:1054F00003D315230226F64302E014230326F643C2
:105500002020C51AA9401746AF40DA400A4320467A
:105510000399D8400914731819055118039A384390
:10552000D2075140AC4009D00122944006D300225A
:10553000401C5141002C01D1400840001E4A9342BA
:1055400012D3012203989206904207DB0520400700
:1055500009181A480143C012414004E003204007E3
:105560000818C10FC907002009B0F0BD0020F107DD
:10557000FAE705180C464C4111486D42A04115D37D
:1055800094181A465A410E48644290410ED30120A5
:105590004A004005824209D35A00824206D359404C
:1055A000C90F084AC90700201143DDE7002006495A
:1055B000DAE700000000FF07FE070000FFFFFF7FA3
:1055C0000000E0FF0000F07F0000F87F70B50546A6
:1055D0004800440D124B0020002C0AD0634008D034
:1055E0009A4206DA6642B24203DD12054019514181
:1055F00070BD002C08D0002B09D0C90FC907002AA4
:10560000F6DB084A114370BDC90FC90770BD2846B3
:105610000A03104302D00020034970BD284670BD24
:10562000FF0700000000F07F0000F87F0121C9059E
:105630000123411842001B06D3185B0E0AD0C1108B
:105640000722D206891840075242D14201D55200A2
:1056500089187047090208D50146002A03D0C10FF6
:10566000C9070020704710467047420202D0002050
:1056700002497047072109050143F4E70000F87F5C
:10568000F0B5FF252D04C609C209FF2704462E40A8
:105690000137CB093E4348402A402B400746002AA9
:1056A0006BD0002B69D0AA4267D0AB4265D00028EE
:1056B00000DA32460125ED0529432C430902200278
:1056C000090AD21A4B0C7F24E31A434C000A7C448B
:1056D000E35C7D242404121914145B00A218884290
:1056E00001D3521C00E0400049420C465C432411A7
:1056F0005C43DB016415E318040A5C43C502200D1A
:105700000C4644436419250A5D432303EC0C0D4603
:10571000654300030019EB184C42A34201D35B1808
:10572000401CD4052018002B07D05B00C91804D3F7
:10573000401C002901D1400840003F2189048A42D1
:1057400009D3002A08DC1106090F04D003214907F8
:105750004018C00FC007F0BD012241001206891891
:105760007F2252069142F6D205214907C84201D54F
:105770009010F0BDFF20C005F0BD002F00DA3246CA
:105780001648AA4207D2AB4205D21902090E17D019
:10579000F80FC007F0BDFF2563002D06AB42F9D816
:1057A0004900A942F6D8AB4201D1A942F2D0A942A0
:1057B00001D1002101E061004908D0050843F0BD96
:1057C0001102090EFBD0FF200243D005F0BD0A46AE
:1057D0000146104654E7000073ED00000000C07F52
:1057E00010B501469E240002CA15A307002A02D064
:1057F0001843002A04DBA21A002A0CDDD04010BD99
:105800001206120E01D140004008A21A03D4D04063
:1058100040420028F3DDFF2248001206904201D9E1
:10582000002010BDC817C043584010BD1F22030CF4
:1058300002D10F2200041CD0030E01D10002083A4D
:10584000030F01D10001121F830F01D18000921EAE
:10585000002801DB4000521ED205511802125118D7
:105860001922904004D3491C002801D1490849005D
:1058700008467047C10FC90700D040420122920775
:105880001143D3E701218907D0E7000010B5FF22BB
:10589000C30D134009D05A4007D0914205DA5C424B
:1058A000A14202DDC905081810BDC40FE407002B92
:1058B00006D0002A06D0002902DBFF20C0050443E1
:1058C000204610BD4102FCD0004810BD0000C07F42
:1058D0007047000010B500F0CFFB001D10BD00BFE9
:1058E000BDCD000010B500F0CBFB006810BD10B5B9
:1058F000044600F0C5FB046010BDFFB504460D462C
:1059000081B0243000902168880604D51022E06917
:105910009143216000E00120A84201DD471B00E027
:1059200000270498A1697A191018081AA061207834
:10593000C00602D42046FEF703FD002608E00398C7
:105940006268A168805D9047206A401C761C2062D6
:1059500004988642F3DB2078C0060AD52046FEF77D
:10596000EFFC06E06268A16830209047206A401C86
:10597000206238467F1E0028F4DC07E00098626849
:10598000A168405D9047206A401C206228466D1E39
:105990000028F3DC2046FEF7E9FC2078000602D55B
:1059A000022005B0F0BD0120FBE700007047FFB505
:1059B0000C461E468FB003CA089009914F007D0D1A
:1059C00000D16D1E002108460020C0460321099A1F
:1059D00089050840002A03DA820080184008084040
:1059E000800D01280A9002DD0020C0430A9008982B
:1059F00007430DD0F048F149281848430714189878
:105A000000281DD07542291E1DDD0A9842421BE068
:105A10001898012802D00020302104E00020F24331
:105A200005E02154401CB042FBDB30460022189BAD
:105A3000002121540F998B600A60486013B0F0BDBB
:105A4000BD1B6D1CDFE70A9A002900DA69420BA82A
:105A500000F09CFB0BAB07CB03AB07C3089909987D
:105A600000F000FC6B4607C30146D5480918002D1D
:105A700000910BDDD24903980A9A4942401800234D
:105A800003A90390684600F05DFE08E003990A9AB6
:105A90000023081803A90390684600F0FDFD6B463B
:105AA00007C30004000C03D00020C043410800E0FD
:105AB0001046189A002A03D00022009215461EE0D4
:105AC000751E05D400F0E0FA303262556D1EF9D52E
:105AD00001220843079602D000227F1C04E02078B0
:105AE000302801D100227F1E002A069787D01EE0B1
:105AF000112D07DA00F0C8FA303262556D1C0246EB
:105B00000A43F5D1084303D00098002819D00EE0CD
:105B10000021681E05E0235C625C63542254401E31
:105B2000491C8142F7DBA81B401E07950690079A87
:105B300018990020A0540F98079B069A81600CC00A
:105B40007CE711260020189059E7D21DF0B50D46CC
:105B50000446D10893B0C90003C90C900D9108F018
:105B600019FA02460D98C00F01D02D2007E02068D9
:105B7000810701D52B2002E04007C00F4001032A16
:105B80000F9001D0072A05DB03462946204600F086
:105B9000B9FA0EE12078800601D5E76900E0062712
:105BA0002846652D04D0662814D0672D69D12DE0D4
:105BB0000020112F009001DB112300E07B1C0CAAB8
:105BC00003A910A8FFF7F3FE1199002610987D1C79
:105BD0000E9142E001203B460CAAC0070B90012029
:105BE000009003A910A8FFF7E2FE119D12981099EA
:105BF000002600280E9501D1781C0D18781B02D4C0
:105C000046427D1C761EE81B00903AE0012F00DA28
:105C100001270020112F009001DD112300E03B46F9
:105C20000CAA03A910A8FFF7C2FE11993D461098CF
:105C300000260E91217809070BD40E99A94200DAAB
:105C40000D4603A9012D04DD4A19203AD27F302ADE
:105C500006D0B84201DA011D04DA012100910FE0FB
:105C60006D1EEFE7002802DC86192D1A03E0411CA7
:105C7000A94200DD0D46801B401C00900120C0079A
:105C80000B902078000705D40098A84202DB002082
:105C9000C043009069460020C8720B98012102AFF2
:105CA0000337C907884225D0022010902B2011907D
:105CB0000B9800280BDA40420B902D20119006E043
:105CC0000B9800F0C7F830317F1E0B903970109997
:105CD000481E00291090F3DC0B980028F0D1119891
:105CE0007F1E38702088000501D5452000E0652022
:105CF0007F1E387001A8C01BC01D0B900F98002894
:105D000000D0012041190098C01709180B980818F5
:105D1000A169081A401EA0612078C00602D420465E
:105D2000FEF70EFB0F98002805D06268A168904727
:105D3000206A401C20622078C00625D52046FEF748
:105D4000FFFA21E0002E07DB0E98B04204DD03A825
:105D50006268805DA16802E06268A16830209047B7
:105D6000206A761C401C20620098401E002800908B
:105D70000AD100F081F9C06862680168405CA168DE
:105D80009047206A401C206228466D1E0028D9DCFE
:105D900007E062683878A1687F1C9047206A401C41
:105DA00020620B99481E00290B90F2DC2046FEF77A
:105DB000DDFA032042E6000001FCFFFF104D000069
:105DC000E1DFFFFF01694A1C02610878704700B5F6
:105DD0008FB0029100210591054901937944039107
:105DE000114604906846FEF75DFB0FB000BD000051
:105DF000E5FFFFFF0A681070521C0A60704710B57B
:105E00004369002B02D0C046C04601E0FEF7BFFA4E
:105E1000012010BD1278014624310A7000224A7018
:105E20000122ECE711680022D243E8E7084B70B585
:105E30000D467B44FFF7CBFF0446284600F0D2FC1A
:105E4000002802D00020C04370BD204670BD000075
:105E5000BF97000001468008081A02091018020ABC
:105E60001018020C1018C008820012185200891A6B
:105E700001E0401C0A390A29FBD27047F8B5224CD0
:105E80004E00069DA6420AD8A64201D1002806D19E
:105E90005E00A64203D8A6420AD1002A08D00D24EB
:105EA000240425422CD02946002000F09FFCF8BD98
:105EB0000C461C430CD4994202D0EFF30080F8BD8D
:105EC000904202D0EFF30080F8BDEFF30080F8BD00
:105ED00009242407E5008B4206D0EFF30080A0439D
:105EE000591A06D2284304E0101A05D3EFF30080B4
:105EF000A04380F30088F8BDEFF30080A043F1E7F2
:105F0000009500F08BFCF8BD0000E0FFF0B53D4BC4
:105F100002460C461C400020002C63D03A4D8B43B7
:105F200066D000296BDB0B0D1D05A94301252D054E
:105F300029430124FD33E34001D392184941FF3343
:105F400081339C468B02940D0121234389074C42E7
:105F5000920200271B198C105D1A04D42D1B02D449
:105F60002B466500491992185B416408F4D15C1A0C
:105F700008D40125ED07EE175519744102D42A46BD
:105F80002346491C94185B41012292071D46E61BDB
:105F90008D4106D4B61A854103D42B4655003446AC
:105FA0007F1924195B415208802AEFD1234300D086
:105FB000022338460A22D04001D3012213438A0526
:105FC00010436246890A12058918002B09D0012264
:105FD000D34002D30022401C5141002B01D1400884
:105FE0004000F0BD0B03134307D0C90FC907F0BD34
:105FF0000803104303D1002901DB1046F0BD002047
:106000002946F0BD0000F07F0000F87F10B5FF23A7
:106010001B0644009C421DD84C009C421AD80346E3
:10602000124A0B4307D4401A02D3EFF3008010BD8D
:10603000EFF3008010BD081A06D2EFF300800121B3
:106040009043C907084302E0EFF30080904380F3D8
:10605000008810BD0D231B041A4204D011460020F5
:1060600000F0C4FB10BD00F0E3FB10BD0000009089
:1060700000487047404600200048704760460020B6
:1060800000487047404600200B4670B5024689071D
:106090008008084319469D08141AA94125090807D4
:1060A000054308092C194841250A01060D43010A38
:1060B0002C194141200C0D0428430D0C00194D41B1
:1060C000002140194D41C00869070843E908840FC1
:1060D0008D002543840024184D4124196D41121B65
:1060E000AB4107E00925ED432C115219634100240F
:1060F000401C61411C460A250026551BB441F1D2C3
:1061000070BD0000F8B51F46044601230068DB029D
:10611000032601461840072A05DB002801D017A5F1
:1061200006E017A504E0002801D016A500E016A59A
:10613000102081432160A069C01E002FA06101D002
:10614000401EA0612046FEF7FBF8002F09D038461C
:106150006268A1689047206A401C2062C01C2062CF
:1061600006E0206AFAE762682878A1686D1C90470B
:10617000761EF8D22046FEF7F9F8F8BD4E414E00E3
:106180006E616E00494E4600696E6600F7B51646B0
:106190008AB0334878446C4603467C33C06F5A68F3
:1061A0009B680DC42E487844763003AC0DC80DC4EE
:1061B0003720C001081837211B30FEF7A9FB054620
:1061C0000C46803D1B3C02D56442012000E00020CB
:1061D0000027099010E0E0070CD00C2020497843FC
:1061E000794432464C3941186846012300F054FA8C
:1061F0006B4607C364107F1C002CECD1184F7F4402
:106200002E3F16E0E80712D02001C0190EC80691F3
:10621000089307920068F04201D19819089032461D
:10622000012306A903A800F037FA03AB07C36D10DA
:10623000641C002DE6D10998002806D03246694634
:10624000012303A800F07EFA05E0012332466946E7
:1062500003A800F021FA0A9B07C30DB0F0BD0000AF
:1062600080E30000034640000A4610B5400D0BD005
:106270000121C9070F24A40200191C03640821434B
:10628000540D2143D20207E000210120F2E7D40F90
:10629000490021435200401E0029F8DADB0FDB07DA
:1062A000184310BDFFB50D46144685B048685168C7
:1062B00007F04AFE00910190A868A16807F044FE2B
:1062C00002910390A868616807F03EFE029A1218D6
:1062D0008242029201D2012000E00020019A0B18B4
:1062E000D2180028019202D08A4202D903E08A42E1
:1062F00001D2012000E00020009908180090686891
:10630000A16807F021FE029A12188242029201D27D
:10631000012000E00020019A0B18D21800280192F9
:1063200002D08A4202D903E08A4201D2012000E071
:106330000020009908180090286821684000490052
:10634000400849084018FA49471814E001994000EC
:10635000C90F08430090019802994000C90F0843F3
:106360000190029803994000C90F084302900398D6
:1063700040007F1E039000980028E7DA0898002864
:1063800001D0EC4E00E00026B74201DA012000E027
:106390000020002804902AD0F71BF806C00E15D064
:1063A000029B2021091A039A8B401A430392029AF6
:1063B000019BC2408B401A430292019A009BC2404B
:1063C0008B4000991A430192C14000917B110DD07E
:1063D0006F460320C11A03D500218200B95003E0A3
:1063E0008A008100BA587A50401EF3D53746039888
:1063F0000299002800D0012001430898029100284A
:1064000008460CD0002800D001200199019A4905C6
:1064100008430121D20AC902D202019200E00121FF
:106420000E9B0122D207012B02D0002B03D013E0D8
:10643000002807D120E0904204D890420CD1019B63
:106440000B4209D0019B5918019105D10099491CB3
:10645000009101D17F1C009200280DD01021084628
:106460000020C0460498002806D00F98002803D0CA
:10647000082108460020C04628682168019B009A30
:106480004840C10F0598C90739430EC009B0F0BD97
:10649000FFB587B0099A08980899536892684068D0
:1064A000896896460022039317469446089A126814
:1064B0005300099A5B081268520052089A1A9E4BC0
:1064C000D4180A9A002A01D0352200E04022069210
:1064D0000022012315460492DB07059324E0002DDA
:1064E00005D175460346039E4D1BB34109D375463E
:1064F0006646039B491B049D9841059B7519AC4654
:106500005F4163463B4308D0059B049EDD07760848
:106510002E435B080496059301E0521E641EC50FCE
:10652000ED0749184041521C069B9A42D7DB002DCB
:1065300004D17546039A6B1A824101D203200CE004
:10654000039A0B466B404240134303D0014303D0F0
:10655000012002E0022000E00020614601910021BC
:10656000009702910A99002905D061464002014333
:10657000704B019102E08007002302909C4201DAF7
:10658000012000E0002007003AD01A1BD006C00E00
:1065900015D0029D2021019C091AC5408C4025433D
:1065A000029C8C4000D001242543019C0295009D53
:1065B000C4408D4000992C430194C1400091541176
:1065C0001DD06D460221002202290CD10320001BA0
:1065D00007E0002804DB8600AE59002E00D001221F
:1065E000401C0328F5DB081B02D588002A5004E074
:1065F0008000285810438A00A850491EE3D51C4645
:106600000A98002802980CD0002800D00120019997
:10661000019A490508430121D20AC902D202019216
:1066200000E00121109B0122D207012B02D0002B98
:1066300003D013E0002807D11FE0904204D8904215
:106640000CD1019B0B4209D0019B5918019105D136
:106650000099491C009101D1641C009200280CD0C3
:10666000102108460020C046002F06D011980028AF
:1066700003D0082108460020C04608980999019ACD
:10668000009B006809684840C10F0798C90721436B
:1066900082600AC00BB0F0BD00B585B001930092D6
:1066A0000A460146002302A8FFF7FCFD02A807C81E
:1066B00005B000BDFFB50A461F4685B00799019396
:1066C00001230091014602A8FFF7ECFD029903980F
:1066D000049ECA0F4900D20700920F224908920275
:1066E0008C1A0021002800DB0C46450013486D0879
:1066F000844214D3079A002A04DA441E0026104D5F
:10670000F64302E004460D460E46102108460020DE
:10671000C046002F03D0042108460020C0462005B3
:10672000E90A0843009908436905F20A1143ADE6F6
:1067300002C0FFFF013C0000FF3F0000FF07000018
:10674000FFFFFF7F00B585B0019300920A46014626
:10675000002302A8FFF79CFE02A807C8A8E7FFB520
:106760000A461F4685B0079901930123009101460F
:1067700002A8FFF78DFE02990398049ECA0F4900F4
:10678000D20700920F22490892028C1A0021002899
:1067900000DB0C46450011486D08844214D3079A6B
:1067A000002A04DA441E00260D4DF64302E004469A
:1067B0000D460E46102108460020C046002F03D08B
:1067C000042108460020C0462005E90A0843009934
:1067D00008436905F20A114358E60000FF0700006C
:1067E000FFFFFF7FC068802108407047C80212D5B4
:1067F0004803400F002804D0C803C043012188404B
:106800007047EFF3008000010009032109070843E6
:1068100080F30088704700207047000010B500200A
:106820000249029A00F033F810BD00000000F87F22
:1068300010B5024800F02BF810BD00000000C07F2A
:106840007546FFF715FCAE46050069465346C0087D
:10685000C000854618B020B5FDF7CAFC60BC002713
:106860004908B6460026C0C5C0C5C0C5C0C5C0C51C
:10687000C0C5C0C5C0C5403D49008D46704710B574
:106880000446C046C0462046FDF786FC10BD10B544
:106890000C461107090F092904D00A290AD0082932
:1068A0000CD104E011460820FFF7A0FF06E05106D6
:1068B00006D501E0510601D50120C007214610BDD3
:1068C000D10607D501010909CC084907000E0006C9
:1068D000044309E0410F20024907000A0143200E4A
:1068E00000061D22D14101430846E7E730B58C1868
:1068F0000278401C13071B0F01D10378401C1209BA
:1069000006D10278401C03E00578401C0D70491C3C
:106910005B1EF9D101E00B70491C521EFBD1A14254
:10692000E6D3002030BD000010B5064902220A70EF
:10693000487000208870CA700871084600F002FA9A
:1069400010BD00009E08002010B5FDF767FC04464E
:1069500000F070FF03F0C4FB00F07EFF2046FDF75F
:1069600061FC00F003F803F0CBFB10BD10B500F0A4
:1069700049F800F03FF80C49CA790B465200203B19
:10698000D218D080C879401CC0B2C87189798842B9
:1069900008D3002000F018F8002000F007F80020CD
:1069A00000F042F810BD0000BE0800200549012893
:1069B000C86A03D040084000C862704701221043F3
:1069C000FAE7000000280140044980220128C86A33
:1069D00002D09043C86270471043FBE70028014093
:1069E000034AD16A0223994318400843D062704792
:1069F000002801400248406B4005400D70470000F0
:106A000000280140014901208863704700280140A7
:106A1000044910220128886A02D090438862704796
:106A20001043FBE700280140044920220128886A1E
:106A300002D09043886270471043FBE70028014072
:106A400004498A6A000712091201000F1043886284
:106A500070470000002801400248006B4005400DCF
:106A6000704700000028014040050249400D0863BE
:106A7000704700000028014070B506461C4D1D4CB3
:106A8000030007F079FA0B071A2626262626262663
:106A9000260D19000020FFF7A3FF1648FC3004E084
:106AA0000020FFF79DFF1920800128630120FFF7D8
:106AB000AFFF0120FFF7B8FF70BD0220FFF790FF86
:106AC0002C630120FFF7A4FF0120FFF7ADFF062094
:106AD0000AE00220FFF784FF2C630020FFF798FFF5
:106AE0000120FFF7A1FFB01DFFF7AAFF70BD000056
:106AF00000280140FF030000F3B51F4C1F4E207C0F
:106B000081B00F461E2813D01D4D1E4C1E49204635
:106B10000BF024FF01990BF067FE214601980BF062
:106B20001DFF3146FEF7ACFD29460BF017FEFEBDFA
:106B3000607CC009FEF723FC0022D243FEF746FD2D
:106B400002460B4600201149FEF742F9FDF786FF89
:106B50000546608A032F09D0FEF711FC0C4A0D4B45
:106B6000FEF743F9FDF77AFF0446CFE7FEF707FC8F
:106B7000094A0A4BF4E7000080FCFF1F7A36A14067
:106B80000000F0410080BB440000C84100003E40CE
:106B9000421CEBE2363A2EC0D712F241CF2624C077
:106BA000F3B581B002460023FFF756FF7D21622432
:106BB000C9005443434E444D444FFF2812D0A842CD
:106BC00040D1388A8D00A8423ED94B25AD01A8425C
:106BD0003AD20F2A65D9192A25D813460A200F3B25
:106BE00043435EE0388B7D25AD01A84230D94B256B
:106BF000ED01A8422CD2082A53D90C2A04D814201B
:106C0000083A424313464CE0252A01D850433AE063
:106C10007D2A01D8604335E05043FDF76FFE0446FE
:106C20001A20385E09E04B2AF0D9FA2AF2D95043EB
:106C3000FDF764FE04461220385E6421FDF768FE0D
:106C400023182EE0A84201D1520002E0FF2800D113
:106C500092001F4C1F4DA08AFF2745199037BD4257
:106C600023D21E2A1DD9322A03D81E3A90001318A7
:106C700017E0962ACAD9FF23F5339A4207D8622132
:106C80004A4350433146FDF739FE034609E050437D
:106C9000FDF734FE05461620205E6421FDF738FE20
:106CA0002B180298032804D00AE00B480A3A5043F4
:106CB000E9E71846662148436421FDF71FFE0346B5
:106CC0001846FEBDA0860100FF01000040FDFF1F29
:106CD00040FCFF1F2FF8FFFF7E0800000549012838
:106CE000486803D0400840004860704701221043C4
:106CF000FAE70000002801400248406AC00700D0BF
:106D00000120704700280140014901204862704776
:106D1000002801400348406A400601D50120704721
:106D2000002070470028014005490128086803D069
:106D3000400840000860704701221043FAE7000055
:106D400000280140F8B5002604460096407802F07D
:106D5000A3FA204602F0D4FA1021A01DFDF785FD0C
:106D6000E078102801D90F2002E0022801D2022089
:106D7000E07025462035A871EE710120FFF716FE60
:106D80001D484169026909048B18AA79ED79E178F7
:106D9000954218D30022012005E043001B19DB882F
:106DA0009A18401CC0B28142F7D81046491EFDF720
:106DB000A5FD2179012904D00321FFF7F1FE009000
:106DC0000BE00521F9E7466907693604F6197D27C6
:106DD000BF01F61A4F43BE42DAD3607802F0C0FA20
:106DE0000020FFF7F1FD0020FFF7E0FD0020FFF796
:106DF0001BFE0098F8BD00000031014010B50446AC
:106E0000002100F0E3FE0121204600F0DFFE10BD6E
:106E100070B50646F720000192B00D4630184009C3
:106E20006946087000240194087802280FD00328CE
:106E300031D101211948039405F096FA29781D20D3
:106E400003F056F869780120002909D009E01348B9
:106E50000121401E039405F087FA29781C20EFE7F2
:106E600068706978891C0591032106916946087745
:106E700008A908940C710A940C7510A90C714C7136
:106E8000887168880649081A0F9010A9CC7101A969
:106E9000304600F017FF12B070BD0000050000047E
:106EA000FFFF000070B50C46054601F057FA0128B7
:106EB00018D12146284601F0A9FC002809D0052058
:106EC00006F012F92146284601F0A0FC01280DD059
:106ED00008E0052006F008F92146284601F096FC56
:106EE000002801D0002070BD012070BD022070BDBF
:106EF0007CB50446684602F0A9F907226946204697
:106F0000FDF748FC0020052106220B1A151A401C2B
:106F1000E35CC0B263550628F7D320202070072217
:106F20002146E01DFDF736FC0725605D00F0F1FB12
:106F300060556D1CEDB20E2DF7D37CBD1CB504461B
:106F400001212B4805F010FA002005F06DFB002010
:106F500005F074FC002005F0E7FB002005F01EFCA6
:106F6000002005F029FC0021C943002005F0F4FBB6
:106F70006078002802D00121084601E001210020AC
:106F800005F0EAFBA078002802D00221012001E0F0
:106F90000221002005F0E0FBE078002802D0042167
:106FA000012001E00421002005F0D6FB2079002813
:106FB00002D00821012001E00821002005F0CCFBCF
:106FC000082005F0DFFB2178022002F091FF6846DF
:106FD00002F03CF9684602F00DF9002806D105A13F
:106FE00003C900900191684600F086F81CBD0000BE
:106FF000020000011903181029580100FFB581B0E3
:107000000A9D17460024002601233A46029901985A
:1070100005F0DCFD002807D0012605F095FF641C73
:10702000E4B2032CEFD310E000246F1E09E0BC4251
:1070300001D2012000E0002005F01AFD0499085556
:10704000641CAC42F3D305F07FFF304605B0F0BDC1
:10705000FFB581B00A9F0025632F02D9022005B039
:10706000F0BD01AC07CC0026334605F0AFFD00288B
:1070700007D100240EE00498005D05F005FF00280C
:1070800007D0012605F060FF6D1CEDB2032DE8D39B
:1070900007E0641CBC42EED305F056FF019805F0F2
:1070A00023FE3046DBE70000F8B507460C480E46E5
:1070B000C168002088470024254607E00849385D5C
:1070C0000969884738550020641C4541284600213D
:1070D000A21B8841F2D30248C16801208847F8BD4D
:1070E000B82F00200248002101600249416070472A
:1070F0003800002034000020FEB500240646254656
:1071000002F078F800281FD06F46114805F040FBC8
:10711000304605F075FB0E48C04305F039FB684664
:1071200002F094F800280AD00020395C325C9142C9
:1071300003D1401CC0B20628F7D3062805D0641C32
:10714000E4B2032CE1D32846FEBD0125FBE7000095
:10715000ACACACACF8B500260446009602F0D0F812
:107160001021A01DFDF781FBE078102801D90F2028
:1071700002E0022801D20220E07025462035A871E5
:10718000EE710120FFF712FC1F48416902690904F2
:107190008A18A979EB79E5788B4220D3002701265C
:1071A0000AE070000019C088FEF76CFB39460BF04E
:1071B000D5FA761C0746F6B2B542F2D8681EFEF73D
:1071C00059FB01463846FEF75BFA2179012904D0C4
:1071D0000321FFF791FC00900AE00521F9E74669D9
:1071E00007693604F619094FB61A6F43BE42D3D366
:1071F0000020FFF7E9FB0020FFF7D8FB0020FFF796
:1072000013FC0098F8BD0000003101401027000079
:10721000F8B50D460746022900D20225124C134E3E
:10722000207800280BD1022168460170642141704A
:10723000FF214131418069463046FFF7E9FD042FC7
:1072400002D0082F06D00AE02078042108432070DD
:10725000657004E02078082108432070A57030464E
:10726000FFF7CCFDF8BD000063000020D0300140E6
:10727000034908B540014018009006F017F908BD11
:107280000C200140F7B500261546002A2CD00098A6
:10729000052829D887001548C059002806D102F0D2
:1072A00097F912490028C8511ED00126281D06F062
:1072B00065FF040018D02A46201D0199FDF76AFADF
:1072C0006580002E01D0012000E00020208072B6F1
:1072D00006482146C05905F003FE62B6002E03D0D1
:1072E0002179009800F004F8FEBD00001430002061
:1072F00038B50C46054940014018009006F0D6F814
:107300002146009806F022F938BD00000C2001400B
:10731000F8B50F4605280BD80E4C8500605904F0CF
:1073200049FF002805D0605906F04AFE0020605150
:10733000F8BD72B6605902F03DF8060062B6EDD0B5
:107340003188301DB84772B6304606F00BFF62B682
:10735000E4E70000FC2F002070B505282AD8164D60
:1073600084002859002825D02E4630363059002870
:1073700007D102F02DF93051002802D02421FDF769
:1073800076FA305904F025FF00280CD12859002244
:107390000188091D06F00EFF010004D072B63059B5
:1073A00005F09EFD62B672B6285906F0DBFE00209D
:1073B000285162B670BD0000CC2F002008B505280A
:1073C00005D8034B4001C018009000F003F808BD39
:1073D0000C200140F7B582B0002416462546012155
:1073E000029806F025F8012801D0154F23E00B2163
:1073F0000298C94340184109684601703246007836
:107400000399FFF73FFF05B0F0BD0398015D0298B7
:1074100006F09CF806E0029806F08CF800280DD0E3
:107420006D1CADB2BD42F6D30548401E854200D367
:107430003446641CA4B2B442E7D3E4E70025F8E77D
:1074400055550000F0B50C46074687B0012163484A
:1074500004F08AFF0B20C0433818400969460875BC
:10746000087D5F4E5E4D2036030006F085FD060464
:107470001867798CA03059480121801F04F074FFEF
:10748000574D022280350821284600F0CDF8002211
:107490001021284600F0C8F82178092015E04F484F
:1074A0000121401F04F060FF607801283ED04C4D60
:1074B000022260350821284600F0B6F8002210218B
:1074C000284600F0B1F821780A2002F011FD684644
:1074D00004F08EFE214608313846029A05F069FF15
:1074E0000121384606F01DF80121384606F041F822
:1074F000E07801286DD000220021384605F0ACFF6D
:107500002079012867D000220121384605F0A4FF28
:10751000A078012808D132213248029A05F0BCFE39
:107520000121384606F015F807B0F0BD022201210E
:10753000284600F079F800220221C1E727480121FE
:10754000001F04F011FF02220421284600F06CF80D
:1075500000220821284600F067F821780B20B4E7C4
:107560001E480121C01E04F0FFFE022251023046D7
:1075700000F05AF801210022C902304600F054F808
:1075800021780C20A1E715480121801E04F0ECFEB3
:10759000134D022240350121284600F045F8002213
:1075A0000221284600F040F821780D208DE70B4895
:1075B0000121401E04F0D8FE02221021304600F0C6
:1075C00033F800222021304600F02EF821780E20DA
:1075D0007BE7012290E7012296E700000E000003FE
:1075E000200C004070940000002800DC40427047EE
:1075F00070B50C4C05462168012088476168002D54
:107600000ED001208847012005F07AFDE1680120B5
:107610008847052005F074FDE1680020884770BDAB
:107620000020EFE7C80800201CB5009100216B4640
:10763000D971D4070123002C6C4604D063719207E2
:1076400003D4A17102E06171F9E7A37102212171F4
:10765000214601F0B3F81CBD1CB5009100216A461B
:10766000D17101235371917103211171694601F0A8
:10767000A5F81CBD08B5684602F0C6FD0748006ABB
:10768000002801D10AF0F0FC01F072FF044803F079
:1076900047FD684602F0E8FD08BD00002C300020E0
:1076A00000E20400F0B500248C46264625462DE075
:1076B0006100435C1F46303F092F01D8FEB20BE04A
:1076C0001F46403F062F01D8373B04E01F46603F6E
:1076D000062F01D8573BDEB2091849780B46303BDC
:1076E000092B01D8DDB20BE00B46403B062B01D83D
:1076F000373904E00B46603B062B01D85739CDB231
:107700003101491963461955641CA4B29442CFD380
:10771000F0BD01090A2200075143000F0818C0B24A
:10772000704700B500F002F800BD00000B4A0C499C
:10773000904209D90B4A904202D9000E085C70476A
:10774000000C085C08307047FF2803D9000A085C69
:1077500010307047085C183070470000FFFF0000D1
:1077600065370100FFFFFF0010B5044900204860A5
:1077700000F090F800F004F810BD00006C0000204C
:10778000F8B500240F4D27462C806C80AC60EC606F
:107790006C61AC612C61FCF741FD002600906C61CE
:1077A00000F048F800F058F868693F18761C360475
:1077B000360CF4D06C612F61AC610098FCF732FD9F
:1077C000F8BD00006C00002003490969884201D916
:1077D000401A7047002070476C00002010B5FCF77D
:1077E0001DFD04494C69FCF71DFD2046FFF7ECFF29
:1077F00010BD00006C00002010B5FFF7EFFF04463D
:10780000FCF70CFD034A00215161FCF70BFD2046FB
:1078100010BD00006C00002010B5FCF7FFFC04490F
:107820008C69FCF7FFFC2046FFF7CEFF10BD00007F
:107830006C00002010B5074C2088401C2080608818
:10784000002802D100F028F8A0606088401C608009
:1078500010BD00006C00002010B50A4C6088401E6E
:107860000004000C60800CD100F016F8E060A16804
:10787000401A6169814200D26061A169814200D2EF
:10788000A06110BD6C000020014900208861704794
:107890006C0000207047000002484169006909043B
:1078A0000818704700310140F0B50F460446002328
:1078B0000CE05E00A05D00F00CF805013019407886
:1078C00000F007F84019F8545B1CDBB29342F0D388
:1078D000F0BD01463039092901D8C8B270470146C8
:1078E0004139052901D8373804E0014661390529B5
:1078F00002D85738C0B270472020704710B51446E0
:107900004A1E0C2A11D2022907D00948405C844241
:107910000BD8002C09D0012010BD08F023F9002855
:1079200001D01D20F3E71C20F1E7002010BD00006E
:107930005837010010B500F0BBFC174C1748214622
:1079400000F02EF815482146203000F029F81348A1
:107950002146403000F024F810482146603000F005
:107960001FF80E482146803000F01AF80B482146D7
:10797000A03000F015F82146084CC034204600F035
:107980000FF80022A1152046FFF74EFE00226115D8
:107990002046FFF749FE10BDFFFF0000000C00402D
:1079A0007CB50C4605466A4600F09CFE6A46127994
:1079B000012A09D02146284600F031FF0122214644
:1079C000284604F04DFB7CBD01222146284604F0E8
:1079D00047FB2146284600F022FF7CBD30B591B020
:1079E00001211E4804F0C0FC1A2002F075FA0024A0
:1079F000232000940490029405940120694608769F
:107A000008A90794087009940C740E9410A90F9497
:107A1000134DCC706946284600F054F90F480121F7
:107A2000401C04F0A1FC1B2002F056FA10A90C70B7
:107A30004C708C700E940F94CC70094C69462034B5
:107A4000204600F03FF90121284600F0BFF801214F
:107A5000204600F0BBF811B030BD00000200000469
:107A60009030014010B5FCF7D9FB0446FFF7E2FE69
:107A700002F036FBFFF7F0FE2046FCF7D3FB074C85
:107A8000204600F0F4F8012804D1204600F0F4F874
:107A900005F0D8FD02F034FB10BD0000D0300140ED
:107AA000F1B5002082B0C0430090029800F0DCF8ED
:107AB0000121029800F08AF80025124C7D273F0230
:107AC0006069216900044618029800F0C6F8012890
:107AD0000FD06069216900044018801BB842F3D3BD
:107AE0006D1C022DECDB0021029800F06FF800986D
:107AF000FEBD029800F0B8F8029800F0DDF880B200
:107B00000090EDE70031014030B50546F720000157
:107B100093B0281840096946087000240194029423
:107B20000878032809D10420049001210394114806
:107B300004F01AFC1D2002F0CFF97F2006900121ED
:107B40000594684601774020089008A804710A94BB
:107B500004730C940175417510A80E94047144715E
:107B600084710F941094C47101A9284600F0AAF8FA
:107B700013B030BD0500000404220129016802D0C1
:107B80009143016070471143FBE70268C90752083F
:107B90005200C90F114301607047036808229343E4
:107BA000114019430160704702220129016802D087
:107BB0009143016070471143FBE7202201290168CE
:107BC00002D09143016070471143FBE780220129F5
:107BD000016802D09143016070471143FBE70368DD
:107BE0001022934311401943016070470122520251
:107BF0000129016802D09143016070471143FBE7FE
:107C00000368402293431140194301607047FF22EB
:107C100001320129016802D091430160704711438C
:107C2000FBE702220129816902D0914381617047FB
:107C30001143FBE704220129816902D0914381614C
:107C400070471143FBE70129816903D049084900C6
:107C50008161704701221143FAE7C069800701D5AD
:107C600001207047002070470221C1617047C06940
:107C7000C00700D0012070470121C16170474268F0
:107C8000890792089200890F114341607047436849
:107C90001C229343114019434160704743684022BE
:107CA00093431140194341607047436880229343D6
:107CB0001140194341607047006980B27047C9B2F2
:107CC0008160704770B50C4605460968FFF7E6FF0E
:107CD00028466168FFF7E9FF2846A168FFF7CFFF54
:107CE0002846E168FFF7D3FF207CA860207DE8608C
:107CF000217E2846FFF77AFF2846E169FFF780FFDB
:107D00002646203631782846FFF757FF2846616A15
:107D1000FFF765FF317A2846FFF779FF2846E16AC9
:107D2000FFF73BFF317C2846FFF726FF717C284692
:107D3000FFF73AFF2846616BFFF727FF208F80B2DD
:107D40002861A08F80B26861403421782846FFF70F
:107D500071FF61782846FFF764FFA1782846FFF796
:107D600072FFE1782846FFF731FF70BD04490A68C9
:107D7000800792089200800F10430860704700004F
:107D80000010004070B50C460A4605460146032027
:107D9000FFF714FB224629460220FFF70FFB70BDB8
:107DA0001CB50024019401AC009400F0D7F81CBD70
:107DB000FFB585B0059907980E9E441A0699089854
:107DC000451A00200290306801902046284319D0BF
:107DD0002046FFF709FC07462846FFF705FC8742C7
:107DE0000CDA20462C460546069905980591069022
:107DF000089907980890079101200290002C06DD51
:107E0000204605E0059800F029F909B0F0BD604270
:107E1000A0420AD0079905980790089864420690F6
:107E20006D4200200591C04300E0012000904A48C7
:107E3000002D12D0E10F091949100191002D01DA2E
:107E400049420191807E002840D00098002802DA43
:107E500030680019306000276DE00299807E0029AB
:107E600019D0002801D0002512E0079A059906983C
:107E700001F07EFDC9E70198411C019106F012F85E
:107E8000002804D105984119069801F053FD6D1C96
:107E9000A542F0DD17E0002801D0002511E005AB78
:107EA00007CB01F02BFDB0E70198411C019105F0D3
:107EB000F9FF002804D105980699401901F03AFD10
:107EC0006D1CA542F0DD0198401E3FE0002610E049
:107ED00028460199704340182146FCF719FD069980
:107EE000401802990029059906D0891901F022FD50
:107EF000761CA642ECDD88E78A1901461046F5E7B4
:107F000028460199784340182146FCF701FD06995F
:107F100040180390316800980818306005F0C2FFDF
:107F2000002807D102980028059811D0C11903989C
:107F300001F000FD7F1CA742E2DD0098002802DA74
:107F400030680019306031680098081A30605CE7CA
:107F5000C0190399ECE7000004450020FFB53E4935
:107F600085B00D7E0E981E461746012D1DD0059832
:107F70000699C01B891B02460A431BD06D1E06F0E2
:107F800035F9012189024018049001F003F90446F3
:107F90006C43049801F006F9012168434902002C62
:107FA0000ADA0A1B921255420AE0009006990598D7
:107FB000FFF7FEFE09B0F0BDFF34FF340234A51216
:107FC000002803DA081A8012444203E0FF30FF3031
:107FD00002308412002D04DD681CC10F0818411006
:107FE00003E0E80F401941106D1EE80F40194210E0
:107FF000002C04DD601CC30F1818431003E0E00FD1
:1080000000194310641EE00F00194410059845182C
:108010006846058006987918C51868464580059811
:10802000851A684685800698BA1A051B6846C58079
:108030000281321B42818181F118C18100231A46DD
:10804000042100F069F80699059805F0F5FE31461F
:10805000384605F0F1FEADE70445002010B5074AAB
:10806000127E012A06D0521ED30F9A18521000F029
:1080700007F810BD01F05EFC10BD000004450020B3
:10808000F7B506462349104648437D2184B014467F
:10809000C900FCF73DFC471CE10F2046091960436D
:1080A0004910401801903219301B059901F026FC47
:1080B00001252BE028462146684361434118019879
:1080C000814214DDBC4211DD059872190119701B43
:1080D00002920090401C521E01F010FC0598029A7A
:1080E000011B0098521E401C01F008FC641E0598FC
:1080F00032194119301B0292009001F0FFFB0598E4
:10810000029A411B009801F0F9FB6D1CBD42D1DDC4
:1081100007B0F0BDC3020000FFB5614C0F466642D8
:1081200085B000210BE005988A0012180220105E2D
:10813000A04200DA0446B04200DD0646491CB942BE
:10814000F1DB5848406900280DD00622825E08996C
:10815000511AB14200DA0E460221415E0898081A0F
:10816000A04200DD044696E000214F480D46016024
:108170006DE0781E854201DA681C00E000200146AF
:10818000A8000090059A8900821802209446105E8B
:10819000059A8B1802229A5EA042964643D1A645C4
:1081A00014D1059A0098125E07981018089AA21820
:1081B0009446059A525E07995318984202DA1A4675
:1081C00061462AE002466146184626E005980022EC
:1081D00001907B1E28469C460CE0002801D0401EE2
:1081E00000E0781E019B8100C9180223CB5EA342E8
:1081F00003D1521C6245F0DB2346A34226D00599E9
:1082000000981A1B085E71460B1B07995A408C4652
:10821000089905D460446118024601F06FFB15E02F
:1082200005F0DCFA12E0A64510D0A64501DBA0421D
:1082300003DDA0420ADBA64508DC6246694620460B
:1082400005F0EAFA002801D00098E9E76D1CBD426C
:108250008FDB0798019008982018039000200546AE
:10826000029013E011496A00895E00910299002989
:1082700006D00199009A08188A18039901F03EFB6C
:10828000029801214840029000986D1C0649096837
:108290008D42E7DB641CB44200DC65E709B0F0BD49
:1082A000FF0F00000445002038010020EC440020AE
:1082B00000B500F03FF80E4800F0BAFA0C48203044
:1082C00000F0B6FA0A48403000F0B2FA08486030D0
:1082D00000F0AEFA0648803000F0AAFA0448A03058
:1082E00000F0A6FA0248C03000F0A2FA00BD00007B
:1082F000000C004004490A68C00752085200C00F31
:108300001043086070470000000D0040034A1168E8
:10831000022399431840084310607047000D004045
:10832000034A1168082399431840084310607047B6
:10833000000D004008490748086248628862002032
:108340008863C86304494031086048608860C86039
:10835000704700000000FFFFC00C0040F0B5002394
:10836000054618461C4601221646A6400E4201D07C
:10837000234602E0641C102CF6D3264F2649EE1B40
:108380004C78BD4229D007DC244EAD1914D0202DE5
:1083900012D0402D19D119E01F4D202EAD781FD0DD
:1083A000402E27D0602E10D1022B2FD05D1F032D21
:1083B0000BD85B1E9A402AE05B070C785B0F9A4053
:1083C000144202D0012054400C70F0BD5B075B0FDB
:1083D000F0E7012054404C70F0BD0A2BF6D9F0BDF7
:1083E0009B1E072BFBD89A401542F8D00120554020
:1083F0008D70F0BD5C1E062C02D85B075B0FF2E7A8
:108400001C46083C032CF4D81B1FECE7082214423E
:10841000DFD1F0BD600C00406000002000F4FFBF21
:1084200030B50022144601231D46A5400D4201D05F
:10843000224602E0641C102CF6D3204D1F49441B39
:108440006031A84220D007DC1D4C001913D0202831
:1084500011D040280ED113E0202C18D0402C1BD076
:10846000602C07D1022A25D0501F032802D8521EA3
:1084700093400B6330BD5007400F8340CB6230BD4B
:108480005007400F8340F4E70A2AF9D930BD921E05
:10849000072AFBD8934005E0501E062804D8500751
:1084A000400F83404B6330BD104608380328FAD88C
:1084B000121FEFE70820086330BD0000600C004089
:1084C00000F4FFBF70B514460D460646032200F0C7
:1084D0000FF82946304600F073F822462946304608
:1084E00000F006F829463046FFF79AFF70BD0000FD
:1084F00070B500231C4601263546A5400D4201D02B
:10850000234602E0641C102CF6D32B4E2A49851B0F
:1085100060310324B04229D007DC284D401916D021
:10852000202814D040281BD11BE0202D21D0402D25
:1085300026D0602D14D1022B36D0581F03280FD817
:10854000486A5B000E339C40A0439A4031E05807D4
:10855000030F086A10339C40A0439A4002430A620A
:1085600070BD5807030F486A1033ECE70A2BF8D99F
:1085700070BD981E0728FBD8886A5B000C3305E0A5
:10858000581E062808D8886A5B0010339C40A04318
:108590009A4002438A6270BD184608380328FAD808
:1085A000886A5B000833F1E7486A03239B05984318
:1085B000920502434A6270BD600C004000F4FFBFA8
:1085C00070B500221346012425469D400D4201D07E
:1085D0001A4602E05B1C102BF6D3404E3F49851B28
:1085E00003236031B04232D00DDC3D4C04191DD064
:1085F000202C1BD0402C18D15007040F486AA340F0
:108600009843D2082CE0202D2ED0402D3ED0602D56
:108610000BD1022A5BD0501F032806D8486A5200AB
:10862000921E9340984303434B6270BD5407250F3D
:108630000C6AAB409C43294B603B984201D1D00867
:1086400001E0D008801CA8402043086270BD0A2ABF
:10865000FCD85007040F486AA3409843D208921CE4
:10866000A24002434A6270BD901E032804D8886A63
:10867000921E9440A04307E0901F0328F3D8886A15
:108680005200083A93409843886270BD501E0228F9
:1086900003D8886A9440A04308E0101F032808D834
:1086A000886A5200121F93409843944004438C629E
:1086B00070BD104608380328FAD8886A52000C3A70
:1086C000934098430223934003438B6270BD4A6AF0
:1086D000C02082431043486270BD0000600C00401F
:1086E00000F4FFBF70B50023012425469D400D42D4
:1086F00003D15B1C102BF8D370BD102BFCD2116082
:10870000066800250E40DE40012E19D0D57146685E
:108710000E40DE40012E15D0957186680E40DE4079
:10872000012E11D05571C0685900C8408007800FD4
:108730000CD001280CD0022800D00320107170BD8D
:10874000D471E4E79471E8E75471ECE7157170BDFA
:10875000147170BD1CB5684681888180FBF75EFD91
:108760000446FFF767F801F0BBFCFFF775F82046F9
:10877000FBF758FD0E490F480A78C36A1A430A707E
:108780004A78036B1A434A708A78436B1A438A709B
:10879000FF21C1620163416301A8002300901A46D2
:1087A0001946054802F056FA01F0AAFC1CBD00006B
:1087B00060000020C00C0040F030002070B50022A6
:1087C000012423460D6893401D409D421AD105683F
:1087D000CE799D4396402E43066046688D799E4330
:1087E00095403543456085689D434B7993402B43C5
:1087F000836056000323C568B3409D430B79B340A3
:108800002B43C360521C102ADBD370BD0246D269D1
:1088100000200A4200D00120704781617047416109
:10882000704702690A4201D0816170474161704717
:108830000021016041608160C160016170470000FA
:10884000F0B54A49262291B08A5E069228228A5EB5
:108850000792CB6900269C69F643A189814206D81C
:10886000E289824203D32268471A0F9213E0A1687B
:1088700062680F92002972D00A8882426FD84D88B0
:1088800085426CD3801A02044868910B08180027AF
:108890000226C75F865F781C61D0187DA27C0146E6
:1088A00050430890207C099030480A912E25455F5E
:1088B000284601F019FAC0B20D900898A27C4743EF
:1088C0000F982A49381801270490029703920591BE
:1088D0000846C069099AC17D807D019100900A9B7C
:1088E0000799069800F00EFF701C19D02846022147
:1088F000084301F0F9F90899A27C4E430F991B48EF
:1089000071180297039204910590C069099AC17D7C
:10891000807D019100900A9B0799069800F0F2FE75
:10892000124EF069417D007D814215D9022D13D090
:1089300028460421484001F0D7F9F069079B017DE2
:10894000427D807D5143C918D318099A5043069A35
:108950008218069801F028F80D9801F0C5F903482F
:10896000627CC18C8918C18411B0F0BD044500201F
:108970000248C0698069407C7047000004450020BF
:10898000022008807047806982898A4202D8C289A1
:108990008A4211D28068002810D002888A420DD8FD
:1089A00043888B420AD34068890040189100401ADE
:1089B0000021415E002901DB012070470020704743
:1089C000F8B50024064D2746A60170193C2205493A
:1089D000001DFBF7E7FB641CAF51042CF4DBF8BD72
:1089E000404500200445002010B500200249C04346
:1089F000086000F043FB10BD4801002070B50C4634
:108A0000054600F091FAC1B223460022284600F044
:108A100001F870BDFFB581B01E46050007D530686E
:108A20002D23421C326003706D42012000E00020C3
:108A3000081AC4B20398002801D0641EE4B2154895
:108A4000A1004158A9421DD84D1E1BE02046641EBE
:108A50000399E4B2884205D10F4831680278481C76
:108A600030600A700B48A100475828463946FBF78A
:108A70004FFFC0B2014679436D1A31684A1C30304D
:108A800032600870002CE1D131680020087005B018
:108A9000F0BD0000583A01003C01002010B500284C
:108AA00002DA2D22404200E02B220B685C1C0C6095
:108AB0001A70096800220A7010BD000010B500216C
:108AC000084600F07BF9034A50421346014600F085
:108AD00003F810BDFF0F0000FFB581B01D4616461C
:108AE0000F4600F0E1F9042001F0FEF804462B46A1
:108AF00032463946019800F057FF204601F0F4F85D
:108B000000F0A4FA05B0F0BD10B5002200F012F894
:108B100010BD7FB50D461E4669461446039103AB52
:108B200000223146FFF776FF22462946684600F0CC
:108B3000D9F87FBD1FB56B46039303ABFFF76AFF00
:108B4000684600F053F81FBD7FB5050001A80C462C
:108B5000009006D569462846FFF7A0FF641E05462B
:108B6000E4B2284600F0E0F9C1B2202003E0009A08
:108B70001070521C00920A46491CC9B2A242F6D398
:108B800069462846FFF73AFF01A800F02FF87FBD9D
:108B900070B50C460546FCF723FE00F0C5F9221A15
:108BA000FF20C0053F2128180906521E884200D226
:108BB000521E002A00DA0022D2B2002321462846A3
:108BC00004F05CFE70BD7FB50C4669460391154606
:108BD00003A9FFF763FF641EE1B203AB2A46FFF768
:108BE00019FF684600F002F87FBD0000F0B585B0BF
:108BF000060057D000F058F900F0B6F8374C039053
:108C00002620205E049000F0BBF8218D0746C81B8B
:108C100020853BE03249304600F09EFA0146029042
:108C2000304600F07DFA0546208E8007800F01282F
:108C30003ED0022838D00020E18C6A46081AE08431
:108C400069460880691E401869468880208D4880E2
:108C50000399491E40186946C8803046029900F0C1
:108C60003FFA6946488820853046029900F0DCF9D1
:108C7000861930780A281DD00D281BD06846008838
:108C80004019E0843078002803D0761C3078002822
:108C9000C0D1208DC0192085208E800880002086BC
:108CA00000F0D4F905B0F0BDE80F40194010C3E75B
:108CB0002846C1E7208E8007800F012803D00228B4
:108CC00001D0A08C00E00498E08430780A28D9D143
:108CD000218D039808182085D4E700000445002062
:108CE000FF7F000070B514460D46064600F0DCF824
:108CF0000448C58404853046FFF778FF00F0A6F9E4
:108D000070BD000004450020F8B51C4615460E460F
:108D1000074600F0C9F823462A4631463846FFF791
:108D20003FF800F093F9F8BDF8B51C4615460E461D
:108D3000074600F0B9F823462A4631463846FFF781
:108D4000EBF900F083F9F8BD10B5044600F0ACF87B
:108D50000448C069416820468847044600F076F917
:108D6000204610BD0445002010B500F09DF80348D2
:108D7000C069447D00F06AF9204610BD044500201A
:108D800010B5002400F090F80B483021415E0C2211
:108D90001140042904D0082906D00C2907D103E08A
:108DA000C069047D641E02E0C069007D440800F0D3
:108DB0004DF9204610BD00000445002070B50D4659
:108DC000044600F071F8204605F060F80446284695
:108DD00005F062F8044300F039F9204670BD000048
:108DE00070B512492E20087000F044F9104C254649
:108DF00008352846656100F0FEFE0E486561E061B9
:108E0000012020760C486063A063002000F034FF4E
:108E10000A4800F051FF0A482062FFF7E5FD00F024
:108E200029F80446FFF7CCFD204670BD3C01002028
:108E300004450020243D0100FFFFFF0FFFFFFF005E
:108E4000C43A0100FFB581B01D4616460F4600F03A
:108E50002BF8012000F09CF804462B463246394698
:108E6000019800F0A1FD204600F092F800F0EEF825
:108E700005B0F0BD10B500F017FF00F0C8FE0446C5
:108E800000F0BCFD042000F02FFF064A002113462D
:108E9000084600F089FD002000F026FF00F0BEFE2D
:108EA000204610BDFF0F000070B51C4CA0680028C4
:108EB00004D000F0D7F86168884204D000F0FAF8D6
:108EC00000F0D0F86060A068401CA060012821D1AB
:108ED0000025134E00F0C6F8A9017158814205D053
:108EE000002918D06D1C042DF4DB00252068854274
:108EF00010D000280DDB800180193C220949001D9B
:108F0000FBF750F9A80181193C220648091DFBF71F
:108F100049F9256070BDA9017050E7E748010020BC
:108F20004045002004450020014610B501200029DD
:108F300001DD0A4600E04A42064B00E0401C840086
:108F40001C59944201D80928F8DB002900DA401C9A
:108F500010BD0000583A010002220623825ECB5E5B
:108F60009A4213DC022206238A5EC35E9A420DDC1B
:108F700000220423825ECB5E9A4207DC00228A5ED6
:108F80000421415E8A4201DC0120704700207047C5
:108F900010B50446FFF788FF204600F0A5FE044602
:108FA00000F054F8204610BD70B5064D0446EE6939
:108FB000FFF77AFF002C00D0EC6100F047F8304654
:108FC00070BD00000445002070B50546FFF76CFF3A
:108FD0000348047E057600F039F8204670BD000095
:108FE0000445002070B50446FFF75EFF03482E25B8
:108FF000455FC48500F02AF8284670BD044500206E
:10900000F8B5084E04460568306A01682846884766
:109010000746306A4168284688474019206038462C
:10902000F8BD000004450020F8B50C4606460025B2
:10903000054F05E0386A41683046884736182D18D4
:10904000641EF7D22846F8BD0445002010B5044838
:109050008168491E816001D100F038F810BD000020
:1090600048010020024800682030C07E70470000A0
:109070002001002010B500F019FB10BD08B56B46AB
:10908000012206A1074801F02BF906486B46012290
:1090900005A1283001F024F908BD0000646973704F
:1090A00053656D009C4400206576656E7453656D54
:1090B000000000000EB501A80022009002AB11468E
:1090C000014801F04FF90EBD9C44002008B56A46E6
:1090D0000021024801F004FA08BD00009C44002071
:1090E0007CB505460C48134600680C46002801D0A4
:1090F0006A460DE0082219466846FBF74BFB6846B6
:1091000006490088C8846846408808856A46214622
:10911000284604F0DDFB7CBD44010020044500200E
:1091200073B5009800240D46002810D00949C9697C
:109130000969002909D00A68294690477CBD68461C
:10914000FFF75EFFFFF700FE04196D1EF7D52046FE
:109150007CBD00000445002073B5009800240D4636
:10916000002812D00A49C969096900290BD04A6848
:10917000294690477CBD6846FFF742FF002804D08F
:109180000A2802D0641CAC42F5DB20467CBD0000FE
:1091900004450020012100B58902401800F002F8C2
:1091A00000BD000030B5000501210022000DC902FC
:1091B000884201DD401A012201239B02984200DD12
:1091C000081A841180066500800E4023084C191A85
:1091D000605B4843402904D02C196488591A4C43D9
:1091E000201820308009002A00D0404230BD000005
:1091F000803A0100FEB504460078FEF78AFA7D2128
:10920000090147186078FEF784FA0190A078FEF70C
:1092100080FA0090E078FEF77CFA06462079FEF7A7
:1092200078FA05466079FEF774FA3B2803D83B2D9F
:1092300001D8172E01D90020FEBD3846009A0199A9
:10924000FEF75CFB0028F7D00120FEBDF1B584B02D
:10925000002425466E4602AF684603F0B9FA02A81C
:1092600003F0B6FA0020315C3A5C914203D1401C15
:10927000C0B20728F7D3072806D0641CE4B2032C39
:10928000EAD3284605B0F0BD0125072269460498B7
:10929000FBF780FAF5E70000811E10B51748174A62
:1092A000164C2030203A0B0004F066FE08050B1225
:1092B00014161A2022260020FFF71CF801210903AA
:1092C00004E00020FFF722F801214903204611E0C5
:1092D00001210FE002210DE008484021603009E043
:1092E0000020FFF71DF80121C903EFE7042100E08A
:1092F00008211046FEF7B0F910BD0000400C0040F8
:1093000010B504460121124803F02EF8012111483E
:1093100003F02AF80120000403F01AF8A0780228CC
:1093200012D0012812D0FF20FDF79EFB6078FDF7D8
:10933000A3FB0120FDF748FB0020FDF737FB217858
:10934000052000F0D5FD10BD0348EDE70348EBE72D
:109350000600000108000002FF030000FF010000FA
:1093600010B5811E124A124C11482032203C0B00CD
:1093700004F002FE0805080B0D101417191D012139
:10938000090312E0012149030FE0012100E002215D
:1093900010460AE006484021603006E00121C9037A
:1093A00003E0042100E008212046FEF7F9FA10BD91
:1093B000400C0040014620310A789300521C5207AD
:1093C000C058520F0A704A78521E4A70704710B542
:1093D0000A21FBF793FA00014018C0B210BD00004B
:1093E00008B5684600F010FF01A0FAF787FFFEE716
:1093F000D3B2BCFEB4EDCEF30D0A000070B500246C
:10940000302619E00B5D65001B094355092B01D877
:10941000334302E00F2B01D8373343550B5D451919
:109420001B071B0F6B70092B01D8334302E00F2B76
:1094300001D837336B70641C9442E3D3002152008F
:10944000815470BDF1B5002084B00090019002906D
:10945000044606460746054603900F2268460499CF
:10946000FBF798F90F210498FBF7FFF96946087894
:1094700030280DD100200A1852780A54401CC0B27E
:109480000F28F8D3761C641CE4B2F6B2042CEED399
:1094900001200F22921B0C46215C302911D121188A
:1094A0002039C97F2E290CD17F1CFFB2014604E070
:1094B00063185B786354491CC9B28A42F8DC401EC9
:1094C000C0B2401CC0B20F28E6D300200E220146D5
:1094D000F31903E0161A401CA155C0B28342F9D813
:1094E000207830262E2811D10C22611C0498FBF71D
:1094F00051F9684606702E2141700C22A01C049977
:10950000FBF748F90F210498FBF7AFF90127E05D5D
:109510002E2813D1E61970782E280FD1711C08223D
:109520000498FBF737F930207070B01C08220499BA
:10953000FBF730F90F210498FBF797F97F1CFFB276
:10954000082FE4D30120215C2E2900D10546401CC0
:10955000C0B20C28F7D360194178002901D130211D
:1095600041700F2269460498FBF714F905B0F0BD6D
:1095700002490148086070475A5A341200140140E9
:1095800004494A68800792089200800F104348609F
:109590007047000000140140044904220128486873
:1095A00002D09043486070471043FBE7001401402D
:1095B00010B50121054802F0D7FEFFF7D9FF0320BF
:1095C000FFF7DEFF0020FFF7E7FF10BD05000001F9
:1095D00010B5242004F0E0FD002805D0002201464B
:1095E00020310A704A708A7010BD000000210348C3
:1095F000C9438162C1620163416370470002004058
:1096000010B588B00F2000040590012469460C763F
:1096100005A802F037FF00200090019002906946F3
:1096200003900C744874684602F096FF08B010BDB1
:1096300010B50120FEF79AFB002002F0CBFEFFF7E9
:10964000DFFFFFF7D3FF002002F076FE0120FDF7D9
:109650006BFB0020FDF742FB012003F03DFA10BD3B
:1096600010B572B6FFF7A4FFFFF782FFFFF7E0FF28
:10967000FEF7B4F9042002F03DFEFEF75BF900208E
:1096800002F080FF10BD1CB5009101216B46D9711D
:1096900059710023002A06D06A46917169460B7100
:1096A000FFF78CF81CBD69468B71F7E70EB50020FB
:1096B00003F0D4FAFD2069460870002048708870D5
:1096C000C870DD200871CC204871BB208871AA20A9
:1096D000C8710A216846FDF7E7FC0EBD10B500F021
:1096E0009BF910BD0104C2B2090E000C51180818F4
:1096F00010B5FF3002498030FBF70AF910BD0000B9
:10970000FD020000F0B505468DB0002004907948B8
:109710001E460368169C17468C46002B12D01499DF
:10972000159A179803920494029105901399129830
:10973000019100901C6833463A4661462846A0478E
:109740000DB0F0BD8A1913991298EB190843521EF7
:109750005B1E012808D014980821081A059060465D
:10976000029000200990C1E063480A21415E6046F2
:10977000081A002806DD361A002EE1DD8C46159900
:10978000484304195C490E20085E101A002802DDC7
:10979000361A002ED4DD0C20085E181A002800DDD1
:1097A0003F1A08228A5E0020AA4232DD501B149A1A
:1097B0003F1A042A1FD004DC012A0CD0022A28D127
:1097C00011E04D490823CB5E591B6918082A1AD0AD
:1097D000102A1ED119E0C1100C19C108C9004D1979
:1097E0004007400F15E081100C19810889004D19C0
:1097F0008007800F0DE041100C19410849004D19F8
:10980000C007C00F05E0241801E0400004190D4610
:109810000020002F94DD17990390159A1498019257
:1098200004910090029433463A466146284600F07F
:10983000F7F885E7139902980A2240180B90401E0A
:109840002D4900908A5E824248DC08460E21415E26
:109850000298814242DB002003950690089407900D
:109860003AE00698002807D10898007804900898F4
:10987000401C08900820069005990498149AC84046
:1098800004999140C9B204910699891A0691002859
:1098900003D11949097C890716D4174949780A91D7
:1098A0001799002903D0095C1348417001E012495F
:1098B000487012990398009B4218521E029900F0BA
:1098C00073F80D490A98487007981299401C079040
:1098D0000398401803900798B842C2DB0998401CCF
:1098E00009900B980290159824180998B042A1DBB2
:1098F00026E70000440100200445002010B50C4B71
:109900000A241C5F8C4211DC0E241C5F8C420DDB90
:1099100008241C5F844200DD20460C241C5F944216
:1099200000DA2246824201DB00F0D8F810BD0000C8
:109930000445002010B50D4A0A23D35E8B4210DC8B
:109940000E23D35E8B420CDB0823D35E834208DCFC
:109950000C23D35E834204DB137CDB0702D000F0D0
:1099600087F910BD527800F06BF910BD0445002056
:1099700010B50C4B08241C5F844211DC0C241C5FC6
:1099800084420DDB0A241C5F8C4200DD21460E243C
:109990001C5F944200DA22468A4201DB00F0F0F8B4
:1099A00010BD00000445002070B50E4C0825655F11
:1099B000854200DD28460C25655F954200DA2A467F
:1099C00082420DDB0A25655F8D4200DD29460E25AA
:1099D000655F9D4200DA2B468B4201DB00F0FCF80C
:1099E00070BD00000445002010B500F00CF910BD5A
:1099F000002800D000487047FFFFFF0010B500248A
:109A0000E0B2FFF7F1FFE2B20146104600F007F9BD
:109A1000641C022CF4DB10BD10B5FFF763FE10BD13
:109A2000FFB583B0109D1F460E46002D00D1294D75
:109A30000C98012801D0002449E00F9B0398297855
:109A40006A78C018914203D1234C227C92070AD035
:109A5000059A0D9900920291019731460E9A04F0F1
:109A60000BF907B0F0BD657861700599F3194218DC
:109A70003146521E5B1E00F0AFF86570F1E70C989E
:109A8000022804D004280CD008281BD113E0059824
:109A90000090A11901950F9B0E9A039803F042FFC5
:109AA00010E005980090A11901950F9B0E9A03985C
:109AB00004F034F806E00095A119059B0E9A03986E
:109AC00004F0A4F80D990E984018641C0E90BC4246
:109AD000D5DBC6E70D3A010004450020F0B5540778
