:020000040000FA
:10400000C0560020DD410000E5410000859B000016
:1040100000000000000000000000000000000000A0
:10402000000000000000000000000000E941000066
:1040300000000000000000006942000071C20000A2
:10404000EF410000EF410000B9DE0000EF41000049
:10405000EF41000025690000EF410000EF41000042
:10406000EF410000EF410000EF41000081EB000054
:104070000DEC0000EF410000EF410000EF410000B7
:10408000EF410000EF410000EF410000EF41000070
:10409000EF410000EF410000EF410000EF41000060
:1040A000EF410000EF410000EF410000EF41000050
:1040B000A57D0000EF410000F58C0000EF410000FD
:1040C00000F002F800F05FF80CA030C8083824189F
:1040D0002D18A246671EAB4654465D46AC4201D140
:1040E00000F051F87E460F3E0FCCB6460126334213
:1040F00000D0FB1AA246AB4633431847B035010047
:10410000D03501000023002400250026103A01D3F9
:1041100078C1FBD8520700D330C100D50B6070477F
:1041200010B5662902D111F089FA10BD642902D1B7
:1041300000F056F910BD752902D100F051F910BDFB
:10414000782902D100F082F910BD632902D101F073
:104150003DFE10BD732902D101F040FE10BD0020CC
:1041600010BD1FB501F064FF04000020002111F014
:104170009DF8401C60600020002111F0ADF8E06067
:104180001FBD10B510BD02F037FB1146FFF7E9FF68
:104190000EF0B4FB02F04FFB03B4FFF7F2FF03BCD9
:1041A0000CF0C4F970B505460C46164602E00FCC7B
:1041B0000FC5103E102EFAD2082E02D303CC03C531
:1041C000083E042E07D301CC01C5361F03E0217839
:1041D0002970641C6D1C761EF9D270BD074880479B
:1041E00007480047FEE7FEE7FEE7FEE7FEE7FEE7DB
:1041F00004480549054A064B7047000005EA0000DF
:10420000C1400000C0460020C0560020C048002029
:10421000C048002072B6704762B67047EFF3108056
:1042200072B6704780F31088704730BF704720BF68
:104230007047000072B6214821490160002080F3D8
:10424000098807F073FE1F48016881F308881E483B
:104250001E49016062B6FEE71B481C4901607047B9
:1042600019481A490160704772B6EFF309800028B7
:104270000BD02438164909680860F0C044464D4602
:1042800056465F46F0C0734608C007F04FFE11481F
:1042900011490A7802700E4810490A6802601068D5
:1042A0001030F0C8A046A946B246BB4608C89E4694
:1042B00080F309882438F0C862B6704720ED00E02A
:1042C0000000FF008C00002004ED00E00000001062
:1042D00024010020CA000020CB000020280100207B
:1042E000704710B5044601F0D1FA0068005DC006C1
:1042F00002D52046203010BD204610BD0FB4054920
:1043000010B503AA029801F06DFD10BC08BC04B002
:1043100018470000600000200FB41CB5074B06AA28
:104320007B4469460090059801F02DFD0020694608
:1043300001F03CFD1CBC08BC04B01847891A000001
:1043400070B5044685690068C10601D5302600E0D5
:104350002026C00707D070BD62683046A16890472C
:10436000206A401C20626D1EF6D570BD70B50446F3
:1043700085690078C00707D170BD6268A1682020F8
:104380009047206A401C20626D1EF6D570BD70B546
:104390000C460546012A05D02878800600D5EA6932
:1043A000002302E0012305E05B1C934202D2E05CA3
:1043B0000028F9D1A869E618C01AA861286AC018AF
:1043C00028622846FFF7BCFF04E06A682078A968E5
:1043D000641C9047B442F8D32846FFF7C7FF70BD6E
:1043E000F7B5002575291068009914A611D0C046AC
:1043F000C046002802DA404211A608E00099096888
:104400008A0701D50FA602E0490704D50EA60125AB
:1044100001E0C046C046009F0024243704E001F0BC
:10442000F5FC30313955641C0028F8D12B46324652
:104430002146009801F03DFAFEBD0000000000009A
:104440002D0000002B0000002000000070B5044685
:104450000D4621461068C046C0462188090502D590
:104460000F4A7A4402E00E4A7A440E322346002173
:10447000243305E006070009360F965D5E54491C9B
:104480000028F7D120780023000705D5702D03D030
:10449000002901D002231132204601F00AFA70BD32
:1044A0007E2B0100F3B50446002081B02062204637
:1044B000E1688847002872D0252802D06268A16888
:1044C000ABE0594F00267F442046E168884720280A
:1044D000054608DB312D06D27819203800780028EF
:1044E00001D00643F0E7B00701D504208643002041
:1044F000E0610746A0612A2D0AD028460BF05FFF35
:10450000002827D0B8000019303D0090856119E0DF
:104510000298BA00121902C8916102902046E1681F
:104520008847012F054617D1E06900281FDA2020AF
:1045300086431CE000980A2180694843009940198D
:10454000303888612046E168884705460BF037FF20
:104550000028EFD1012F0AD02E2D08D12046E16886
:1045600088470546202006437F1C022FC3DBA06935
:10457000002803DA4042A06101200643F00701D081
:10458000102086436C2D0BD0682D09D04C2D3CD0CB
:104590006A2D38D0742D38D07A2D36D016E040E010
:1045A000E1682F4620468847B842054609D16C2F5E
:1045B00029D001208002E16806432046884705464D
:1045C00004E06C2F1DD0FF2001300643002D28D0C1
:1045D00028464138192803D80120C0020643203557
:1045E000204626602946029A1646FFF799FD0028C4
:1045F00010D001280BD0F61DF008C0000830029042
:1046000055E74020E1E78020D5E70020D3E7361DBD
:1046100002964CE762682846A1689047206A401CD1
:1046200044E7206AFEBD0000422B010030B505467C
:104630000B462A461C781078521C5B1C002801D0BF
:10464000A042F7D0002C03D0002802D06D1CEFE769
:10465000284630BD034610B50B439B070FD1042AF3
:104660000DD308C810C9121FA342F8D018BA21BA36
:10467000884201D9012010BD0020C04310BD002A8E
:1046800003D0D30703D0521C07E0002010BD0378ED
:104690000C78401C491C1B1B07D103780C78401C6C
:1046A000491C1B1B01D1921EF1D1184610BD000000
:1046B00030B5441C03E00178401C00290DD081076F
:1046C000F9D10B4BDD0104C8D11A91432940FAD02E
:1046D000001B0A0603D0C01E30BD001B30BD0A04FB
:1046E00001D0801E30BD0902FCD0401E30BD00004C
:1046F000010101010346F0B50B439B072DD1244D69
:10470000EF01042A29D308C810C95E1B9E43121F5B
:104710003E4017D0D8B2E1B2401A3106014310D161
:1047200098B2A1B2401A310401430AD11802210201
:10473000000A090A401A3102014302D1180E210E63
:10474000401AF0BDA342DCD018BA21BA884201D980
:104750000120F0BD0020C043F0BD002A01D100209F
:10476000F0BD03780C78401C491C002B0DD0A342EF
:104770000BD1521E09D003780C78401C491C002B29
:1047800003D0A34201D1521EEBD1181BF0BD000093
:1047900001010101F8B5042A2CD3830712D00B784C
:1047A000491C0370401C521E83070BD00B78491C18
:1047B0000370401C521E830704D00B78491C037001
:1047C000401C521E8B079B0F05D0C91ADF00202307
:1047D000DE1B08C90AE0FFF7E5FCF8BD1D4608C965
:1047E000FD401C46B4402C4310C0121F042AF5D2D1
:1047F000F308C91A521EF0D40B78491C0370401CF0
:10480000521EEAD40B78491C0370401C012AE4D4E0
:1048100009780170F8BD134610B50446CAB21946AE
:104820001002821810048218204600F00FF820466B
:1048300010BD01E004C0091F0429FBD28B0701D57C
:104840000280801CC90700D00270704700290BD07D
:10485000C30702D00270401C491E022904D38307FB
:1048600002D50280801C891EE3E70022EEE70022C9
:10487000DFE70000024670B50A4392072AD11E4DB9
:10488000EE0104C808C9541B9443344017D0D0B279
:10489000D9B2401A2106014310D190B299B2401A00
:1048A000210401430AD110021902000A090A401A20
:1048B0002102014302D1100E190E401A70BD9A4216
:1048C000DFD010BA19BA884201D9012070BD00208A
:1048D000C04370BD02780B78401C491C002A09D0E7
:1048E0009A4207D102780B78401C491C002A01D05B
:1048F0009A42EFD0D01A70BD0101010100220309D4
:104900008B422CD3030A8B4211D300239C464EE0EA
:1049100003460B433CD4002243088B4231D30309A6
:104920008B421CD3030A8B4201D394463FE0C30958
:104930008B4201D3CB01C01A524183098B4201D370
:104940008B01C01A524143098B4201D34B01C01A5B
:10495000524103098B4201D30B01C01A5241C308D3
:104960008B4201D3CB00C01A524183088B4201D342
:104970008B00C01A524143088B4201D34B00C01A2E
:104980005241411A00D201465241104670475DE043
:10499000CA0F00D04942031000D3404253400022C6
:1049A0009C4603098B422DD3030A8B4212D3FC226F
:1049B000890112BA030A8B420CD3890192118B42EE
:1049C00008D3890192118B4204D389013AD0921104
:1049D00000E08909C3098B4201D3CB01C01A5241BF
:1049E00083098B4201D38B01C01A524143098B4288
:1049F00001D34B01C01A524103098B4201D30B0171
:104A0000C01A5241C3088B4201D3CB00C01A524195
:104A100083088B4201D38B00C01A5241D9D243087C
:104A20008B4201D34B00C01A5241411A00D20146B9
:104A3000634652415B10104601D34042002B00D523
:104A40004942704763465B1000D3404201B50020E5
:104A5000C046C04602BD7047704770470246C80F47
:104A6000C00781434B0030B54B405B009B0D20D00D
:104A70001923DB06C91801231B05994220DB0324F7
:104A8000A40704251346AB400BD3002B04D1EB063F
:104A900013409B00E34204D401246407002312194D
:104AA0005941FF231B0599420BD2C9000143500F06
:104AB00009E0CB0204D501430803024305D00548B1
:104AC00030BDFF21C905084330BD0846072109054F
:104AD000884330BD0000C07FF0B50C46871A9C416A
:104AE0000D46861A9D4103D2C01BA141D2196341D4
:104AF0000D0D1F0DC94EEC1BAE435CD07F057F0D25
:104B00000026002F51D02D05AC46A943DD0201231C
:104B1000ED0A1B051D4320231B1B24D41746E74029
:104B2000381871412F46E740CC199D40281831466E
:104B300061410C0D27D161449A4013D50023401CDC
:104B4000594152000ED14008400001224B0052054D
:104B5000D34207D305204007C14201D5B04900E048
:104B6000B0493046F0BD6B00002A00D001229A18EF
:104B70001F23203C1B1B01D5002302E0E540281821
:104B800071410C0DD7D0012424050919C407CD07A4
:104B900040084908E40F28436144002CD5D0002484
:104BA000401C61419A40D0D1CDE76A05520DD9D160
:104BB000C90FC907D5E79C4D4E00002801D001243C
:104BC00000E0002434195F00002A01D0012600E033
:104BD0000026BE19954FAC420CD8AE420AD8B4425A
:104BE00006D001256D05EC42BCD010461946F0BD3B
:104BF0009942FCD000203946F0BDF0B51FB40C46F8
:104C00000F46811A9F412546861A9D4106D20125ED
:104C1000ED076F40401ABC4152187B41210D1E0D1B
:104C20008D1BAC467D4D8D437ED075056D0D7CD0C2
:104C30000D05AE46AC431B031B0B794D52429D4103
:104C4000202366469B1B14D31746F74038180026CE
:104C50000090744160462F460741E41900989D403A
:104C60002818664116D4714671189A4025D501233B
:104C700020E093182A466A415200002B00D0521CB3
:104C80001E23203E9B1B002B61DD3541EE172818AB
:104C90006641E8D5001876415B1C9A4000D3401C61
:104CA0004B05F3181524E34010D3002B52D0714666
:104CB0007118D30FC01802D3491C05B0F0BD0123F1
:104CC000DB079A42F9D140084000F6E7012252057D
:104CD000B21801D1002853D00123CC0ADB0299433A
:104CE000891E002A08D1020C03D0020C00041039DE
:104CF00002E00246002020390023550B05D11202A4
:104D00000823550B01D152010D23550C01D112017D
:104D10001B1DD50C01D192009B1C150D01D1520019
:104D20005B1C2025EE1A01E02CE022E00546F54050
:104D300015439840CA1AE10769181305C918002AD3
:104D4000BBDA032040070818C10FC9070FE07146FE
:104D50006118B2E7F10740080843711071444A0036
:104D60000CD001235B059A42A7D2C90FC9070020C6
:104D7000A3E74905490D26D1002001E00028F4D120
:104D800000219AE7284D6600002801D0012100E0AB
:104D9000002171185F00002A01D0012600E00026E2
:104DA000BE19224FA94210D8AE420ED8B14208D047
:104DB00001256D05E94206D01946A802414010467A
:104DC0007BE79C4201D0214677E70020394674E713
:104DD00010B50C465C4005D50124E4076340FFF79D
:104DE0000CFF10BDFFF778FE10BD30B40C465C40E0
:104DF00004D50124E407634030BC6DE630BCFCE61A
:104E000070B50124E40761400D465D4002D4FFF710
:104E100063FE70BD6340FFF7F0FE70BDFF0700004A
:104E20000000F0FF0000F07F0000E0FF0000F87FCE
:104E3000F0B5F94D0C091E092C402E402F468BB0C1
:104E4000A7437DD0B543FCD0002E7AD0002CFCD0F7
:104E50000D465D40ED0F2543AC1BFF25AD046419E5
:104E60000894C502440DC9022143500DDC020443DD
:104E70000120C00701430443D2020191200C110C10
:104E800000958C46010423468B430A916146090430
:104E9000E24D8A430991010A7D4449198039097814
:104EA00005464D4301266D18F605751B6943C90C6F
:104EB000640B891C4C436418B5012C1B250C2E0473
:104EC000B4434C434D43210C691889090591009D59
:104ED000E90701D00121C90704912C46019967080F
:104EE000CD072F434C08059DE10B4D432D0C294662
:104EF0006646754302950D4645432E46029D7D1B31
:104F0000B44100950D465D4301942C0C2F040D46D1
:104F10005543AE462D0C3D43029503947546049CC3
:104F20002D04641B049406D2029C039D641C00267D
:104F300075410395029401AC70CC009F7D1B01E08C
:104F40003EE162E1B441090400950791019405999D
:104F5000A4086143090C0C464443650BE7040C4666
:104F600066467443A646640B3C430395029474461C
:104F7000049DE4042C1B049406D2029C039D641C33
:104F8000002675410395029401AC70CC009F7D1BF7
:104F9000B44101940C465C430095650FE7000C4654
:104FA0005443A646640F3C43039502947446049D03
:104FB000E4002C1B049406D2029C039D641C002672
:104FC00075410395029401AC70CC009F7D1BB441E8
:104FD000AE09AF06049DC900AD092F43049DA40688
:104FE000AD060495079D344369180791059DE10BB3
:104FF0004D432D0C29466646754302950D464543A3
:105000002E46029D7D1BB44100950D465D430194E3
:105010002C0C2F040D465543AE462D0C3D430295F6
:1050200003947546049C2D04641B049406D2029CD0
:10503000039D641C002675410395029401AC70CC5D
:10504000009F7D1BB44101948C050694079C890A3E
:10505000611800950791019C0599A4086143090C0A
:105060000D464543680BEF040D46644665436C0BE3
:105070003C43049FED047D1BAC4602D20025641C1A
:105080006841009E019D371B8541084658430195A4
:105090000C46460FC5005443600F28436546E400A4
:1050A0002C1B02D20025401C6E41019D3F1AB541C8
:1050B0002846BD09800628438446A009BF064E0243
:1050C0000699A40676180743079D002068410A99AF
:1050D000079019430020099B00906046FF19134375
:1050E0004041E20F64003A43A4460446D71A8C417B
:1050F000A04203D90120009020463A46C70F9418D9
:1051000040416246D20F2243644664000494009CEE
:10511000BE466400D71AA446044602978C417746DF
:10512000002F01D1A04204D96046401C8446029A57
:105130002046C40FA64694184041049A0546D20F53
:10514000224364466400D31A8D417146002901D17F
:10515000A84202D928461A46641C1043012200289E
:1051600000D0164361020020079B891904465C4168
:105170000223002C02DB491813466441089DCE0A25
:105180002D145D194B056705E10A2C050D190899C9
:105190003E43C9076940002B08D0934006D3002244
:1051A000761C5141002B01D1760876001C4A002D57
:1051B00043DB154241D0AA433FD030460BB0F0BD8F
:1051C00006180D464D41174C7642AC411AD395183E
:1051D0001C465C41134A6D42A24113D30122520581
:1051E0004C00D4420AD15C00D4420BD04B4002D5D3
:1051F00092021143E2E749004908DFE75940C90F2D
:10520000C90718E000200849D8E7054801420DD138
:105210000342F7D0F2E700000000FF078121010000
:105220000000F07F0000E0FF0000F87F11485940C7
:105230000143C01241400020C0E70123089A9B06A9
:105240009A4205DC032252078918C90FC907B5E73E
:10525000052252078918074A1143D2125140ADE77F
:1052600070B515461C4602460B4628462146FFF7F8
:10527000DFFD70BDFFFFFF7F30B50346CA02400D62
:105280001043164D164C0A1502D02043002A06DBA7
:10529000AA1A002A12DDD040FF2A0BDC30BD5205CD
:1052A000520D01D140004008AA1A07D4D040404214
:1052B000FF2A01DD002030BD0028FCDD4A00002B64
:1052C00001D0012000E00020101801225205D04238
:1052D000F0D8C817C043604030BD00001E04000075
:1052E000000000800346CA02400D10B510430A15A5
:1052F00004D00124E4072043002A05DB0A4CA21A4B
:1053000004D4D040FF2A00DD002010BD4A00002B4D
:1053100001D0012000E00020101801225205D042E7
:10532000F2D8C817C04310BD1E0400001F22030C92
:1053300002D10F22000402D0030E03D004E00020AB
:10534000014670470002083A030F01D10001121F05
:10535000830F01D18000921E002801DB4000521E05
:10536000120551184205C012411810467047C10F6E
:10537000C90700D04042012292071143D6E701211C
:105380008907D3E7F0B58B4C0F09254689B0BD439B
:105390007BD01D092646AE43FAD00E465E4027401C
:1053A000F60F3E43254071D024012142FBD0FF245B
:1053B000AD19A4042D1B039501252D05DB02DB0A85
:1053C000C9022B43C90A29431E010901040F130F07
:1053D000050121431701880B820391432D098C4657
:1053E000A90B1E438A039543B30B9A0396433F09C7
:1053F000BA0B9403A74302962E467E430497B64603
:105400004E19D7190C460196544305977E43371B16
:105410007646BF1B3601B646BE0B36190096764659
:10542000BC043719009C01D3641C00946400002F55
:1054300001D001263443029E049F754366467E4395
:105440000496760034196E0034190094029C019E73
:105450001C196643751BAE46069465464519059CA6
:1054600005956C43594375460891691A0191049E4C
:1054700001465143A41B0491611A009C0791E10667
:1054800005D061090122114302E072E06EE061097A
:10549000089D00272C0A2D066918049D7C412A0AC4
:1054A0002D066918019D6241AC0DAD026D18544185
:1054B000079A910D920255196141029A6446584328
:1054C0005443069B059A5A43121A131B9A0E9B01CA
:1054D0005B187A41010B0005C3185141220A2006CE
:1054E00044195A419A4200D2491C0120400281428B
:1054F00003D315230226F64302E014230326F643C2
:105500002020C51AA9401746AF40DA400A4320467A
:105510000399D8400914731819055118039A384390
:10552000D2075140AC4009D00122944006D300225A
:10553000401C5141002C01D1400840001E4A9342BA
:1055400012D3012203989206904207DB0520400700
:1055500009181A480143C012414004E003204007E3
:105560000818C10FC907002009B0F0BD0020F107DD
:10557000FAE705180C464C4111486D42A04115D37D
:1055800094181A465A410E48644290410ED30120A5
:105590004A004005824209D35A00824206D359404C
:1055A000C90F084AC90700201143DDE7002006495A
:1055B000DAE700000000FF07FE070000FFFFFF7FA3
:1055C0000000E0FF0000F07F0000F87F70B50546A6
:1055D0004800440D124B0020002C0AD0634008D034
:1055E0009A4206DA6642B24203DD12054019514181
:1055F00070BD002C08D0002B09D0C90FC907002AA4
:10560000F6DB084A114370BDC90FC90770BD2846B3
:105610000A03104302D00020034970BD284670BD24
:10562000FF0700000000F07F0000F87F0121C9059E
:105630000123411842001B06D3185B0E0AD0C1108B
:105640000722D206891840075242D14201D55200A2
:1056500089187047090208D50146002A03D0C10FF6
:10566000C9070020704710467047420202D0002050
:1056700002497047072109050143F4E70000F87F5C
:10568000F0B5FF252D04C609C209FF2704462E40A8
:105690000137CB093E4348402A402B400746002AA9
:1056A0006BD0002B69D0AA4267D0AB4265D00028EE
:1056B00000DA32460125ED0529432C430902200278
:1056C000090AD21A4B0C7F24E31A434C000A7C448B
:1056D000E35C7D242404121914145B00A218884290
:1056E00001D3521C00E0400049420C465C432411A7
:1056F0005C43DB016415E318040A5C43C502200D1A
:105700000C4644436419250A5D432303EC0C0D4603
:10571000654300030019EB184C42A34201D35B1808
:10572000401CD4052018002B07D05B00C91804D3F7
:10573000401C002901D1400840003F2189048A42D1
:1057400009D3002A08DC1106090F04D003214907F8
:105750004018C00FC007F0BD012241001206891891
:105760007F2252069142F6D205214907C84201D54F
:105770009010F0BDFF20C005F0BD002F00DA3246CA
:105780001648AA4207D2AB4205D21902090E17D019
:10579000F80FC007F0BDFF2563002D06AB42F9D816
:1057A0004900A942F6D8AB4201D1A942F2D0A942A0
:1057B00001D1002101E061004908D0050843F0BD96
:1057C0001102090EFBD0FF200243D005F0BD0A46AE
:1057D0000146104654E70000CB1901000000C07FCD
:1057E00010B501469E240002CA15A307002A02D064
:1057F0001843002A04DBA21A002A0CDDD04010BD99
:105800001206120E01D140004008A21A03D4D04063
:1058100040420028F3DDFF2248001206904201D9E1
:10582000002010BDC817C043584010BD1F22030CF4
:1058300002D10F2200041CD0030E01D10002083A4D
:10584000030F01D10001121F830F01D18000921EAE
:10585000002801DB4000521ED205511802125118D7
:105860001922904004D3491C002801D1490849005D
:1058700008467047C10FC90700D040420122920775
:105880001143D3E701218907D0E7704710B500F035
:10589000CFFB001D10BD00BF15FA000010B500F0D1
:1058A000CBFB006810BD10B5044600F0C5FB0460DA
:1058B00010BDFFB504460D4681B02430009021682C
:1058C000880604D51022E0699143216000E00120A0
:1058D000A84201DD471B00E000270498A1697A195E
:1058E0001018081AA0612078C00602D42046FEF7DE
:1058F00027FD002608E003986268A168805D904754
:10590000206A401C761C206204988642F3DB2078D3
:10591000C0060AD52046FEF713FD06E06268A168BE
:1059200030209047206A401C206238467F1E0028A5
:10593000F4DC07E000986268A168405D9047206A47
:10594000401C206228466D1E0028F3DC2046FEF72E
:105950000DFD2078000602D5022005B0F0BD012023
:10596000FBE700007047FFB50C461E468FB003CA28
:10597000089009914F007D0D00D16D1E0021084651
:105980000020C0460321099A89050840002A03DA4D
:105990008200801840080840800D01280A9002DD2E
:1059A0000020C0430A90089807430DD0F048F14901
:1059B000281848430714189800281DD07542291E3E
:1059C0001DDD0A9842421BE01898012802D00020F1
:1059D000302104E00020F24305E02154401CB04295
:1059E000FBDB30460022189B002121540F998B606D
:1059F0000A60486013B0F0BDBD1B6D1CDFE70A9A5A
:105A0000002900DA69420BA800F09CFB0BAB07CB26
:105A100003AB07C30899099800F000FC6B4607C365
:105A20000146D5480918002D00910BDDD249039895
:105A30000A9A49424018002303A90390684600F0DF
:105A40005DFE08E003990A9A0023081803A9039051
:105A5000684600F0FDFD6B4607C30004000C03D050
:105A60000020C043410800E01046189A002A03D0E5
:105A70000022009215461EE0751E05D400F0E0FAE3
:105A8000303262556D1EF9D501220843079602D0C7
:105A900000227F1C04E02078302801D100227F1EE4
:105AA000002A069787D01EE0112D07DA00F0C8FA09
:105AB000303262556D1C02460A43F5D1084303D0CB
:105AC0000098002819D00EE00021681E05E0235C34
:105AD000625C63542254401E491C8142F7DBA81BC0
:105AE000401E07950690079A18990020A0540F9819
:105AF000079B069A81600CC07CE711260020189055
:105B000059E7D21DF0B50D460446D10893B0C9003F
:105B100003C90C900D910AF0A9FA02460D98C00F26
:105B200001D02D2007E02068810701D52B2002E05D
:105B30004007C00F4001032A0F9001D0072A05DB60
:105B400003462946204600F0B9FA0EE12078800687
:105B500001D5E76900E006272846652D04D06628B0
:105B600014D0672D69D12DE00020112F009001DBAA
:105B7000112300E07B1C0CAA03A910A8FFF7F3FE79
:105B80001199002610987D1C0E9142E001203B46A1
:105B90000CAAC0070B900120009003A910A8FFF7E2
:105BA000E2FE119D12981099002600280E9501D151
:105BB000781C0D18781B02D446427D1C761EE81B0B
:105BC00000903AE0012F00DA01270020112F009009
:105BD00001DD112300E03B460CAA03A910A8FFF742
:105BE000C2FE11993D46109800260E9121780907B2
:105BF0000BD40E99A94200DA0D4603A9012D04DD4C
:105C00004A19203AD27F302A06D0B84201DA011D63
:105C100004DA012100910FE06D1EEFE7002802DC9D
:105C200086192D1A03E0411CA94200DD0D46801B98
:105C3000401C00900120C0070B902078000705D47D
:105C40000098A84202DB0020C04300906946002073
:105C5000C8720B98012102AF0337C907884225D0CB
:105C6000022010902B2011900B9800280BDA404254
:105C70000B902D20119006E00B9800F0C7F8303102
:105C80007F1E0B9039701099481E00291090F3DC8C
:105C90000B980028F0D111987F1E387020880005DD
:105CA00001D5452000E065207F1E387001A8C01B8B
:105CB000C01D0B900F98002800D0012041190098BA
:105CC000C01709180B980818A169081A401EA0618E
:105CD0002078C00602D42046FEF732FB0F98002839
:105CE00005D06268A1689047206A401C2062207835
:105CF000C00625D52046FEF723FB21E0002E07DB5A
:105D00000E98B04204DD03A86268805DA16802E0DD
:105D10006268A16830209047206A761C401C20628F
:105D20000098401E002800900AD100F081F9C06858
:105D300062680168405CA1689047206A401C20624C
:105D400028466D1E0028D9DC07E062683878A16813
:105D50007F1C9047206A401C20620B99481E002936
:105D60000B90F2DC2046FEF701FB032042E6000028
:105D700001FCFFFF104D0000E1DFFFFF01694A1C3D
:105D800002610878704700B58FB00291002105913B
:105D90000549019379440391114604906846FEF742
:105DA00081FB0FB000BD0000E5FFFFFF0A68107027
:105DB000521C0A60704710B54369002B02D0C046E0
:105DC000C04601E0FEF7E3FA012010BD127801465B
:105DD00024310A7000224A700122ECE71168002287
:105DE000D243E8E7084B70B50D467B44FFF7CBFF85
:105DF0000446284600F0D2FC002802D00020C04310
:105E000070BD204670BD00004BBC000001468008FC
:105E1000081A02091018020A1018020C1018C008FB
:105E2000820012185200891A01E0401C0A390A291E
:105E3000FBD27047F8B5224C4E00069DA6420AD808
:105E4000A64201D1002806D15E00A64203D8A64290
:105E50000AD1002A08D00D24240425422CD029463A
:105E6000002000F09FFCF8BD0C461C430CD4994266
:105E700002D0EFF30080F8BD904202D0EFF3008033
:105E8000F8BDEFF30080F8BD09242407E5008B423C
:105E900006D0EFF30080A043591A06D2284304E04D
:105EA000101A05D3EFF30080A04380F30088F8BDFB
:105EB000EFF30080A043F1E7009500F08BFCF8BD04
:105EC0000000E0FFF0B53D4B02460C461C400020B0
:105ED000002C63D03A4D8B4366D000296BDB0B0D51
:105EE0001D05A94301252D0529430124FD33E34068
:105EF00001D392184941FF3381339C468B02940DA4
:105F00000121234389074C42920200271B198C1060
:105F10005D1A04D42D1B02D42B4665004919921832
:105F20005B416408F4D15C1A08D40125ED07EE1733
:105F30005519744102D42A462346491C94185B41E2
:105F4000012292071D46E61B8D4106D4B61A8541F3
:105F500003D42B46550034467F1924195B4152085F
:105F6000802AEFD1234300D0022338460A22D040B2
:105F700001D3012213438A0510436246890A1205A0
:105F80008918002B09D00122D34002D30022401CE3
:105F90005141002B01D140084000F0BD0B031343D9
:105FA00007D0C90FC907F0BD0803104303D100296A
:105FB00001DB1046F0BD00202946F0BD0000F07F57
:105FC0000000F87F10B5FF231B0644009C421DD83B
:105FD0004C009C421AD80346124A0B4307D4401A7D
:105FE00002D3EFF3008010BDEFF3008010BD081A5C
:105FF00006D2EFF3008001219043C907084302E075
:10600000EFF30080904380F3008810BD0D231B0444
:106010001A4204D01146002000F0C4FB10BD00F06D
:10602000E3FB10BD00000090004870475C46002074
:10603000004870477C460020004870475C460020BE
:106040000B4670B5024689078008084319469D082B
:10605000141AA94125090807054308092C194841C4
:10606000250A01060D43010A2C194141200C0D049B
:1060700028430D0C00194D41002140194D41C00825
:1060800069070843E908840F8D002543840024181C
:106090004D4124196D41121BAB4107E00925ED4329
:1060A0002C11521963410024401C61411C460A25F1
:1060B0000026551BB441F1D270BD0000F8B51F4653
:1060C000044601230068DB02032601461840072A24
:1060D00005DB002801D017A506E017A504E000287D
:1060E00001D016A500E016A5102081432160A0690B
:1060F000C01E002FA06101D0401EA0612046FEF707
:106100001FF9002F09D038466268A1689047206ABD
:10611000401C2062C01C206206E0206AFAE7626828
:106120002878A1686D1C9047761EF8D22046FEF7AD
:106130001DF9F8BD4E414E006E616E00494E46009D
:10614000696E6600F7B516468AB0334878446C46E7
:1061500003467C33C06F5A689B680DC42E48784450
:10616000763003AC0DC80DC43720C00108183721A4
:106170001B30FEF7CDFB05460C46803D1B3C02D58F
:106180006442012000E000200027099010E0E007B1
:106190000CD00C2020497843794432464C394118C0
:1061A0006846012300F054FA6B4607C364107F1C55
:1061B000002CECD1184F7F442E3F16E0E80712D098
:1061C0002001C0190EC80691089307920068F0429A
:1061D00001D1981908903246012306A903A800F0BE
:1061E00037FA03AB07C36D10641C002DE6D1099884
:1061F000002806D032466946012303A800F07EFA43
:1062000005E001233246694603A800F021FA0A9B03
:1062100007C30DB0F0BD0000201001000346400090
:106220000A4610B5400D0BD00121C9070F24A40266
:1062300000191C0364082143540D2143D20207E0D6
:1062400000210120F2E7D40F490021435200401EF3
:106250000029F8DADB0FDB07184310BDFFB50D4648
:10626000144685B04868516809F0DAFE0091019043
:10627000A868A16809F0D4FE02910390A86861683B
:1062800009F0CEFE029A12188242029201D2012037
:1062900000E00020019A0B18D2180028019202D0C9
:1062A0008A4202D903E08A4201D2012000E00020A4
:1062B0000099081800906868A16809F0B1FE029A78
:1062C00012188242029201D2012000E00020019ABD
:1062D0000B18D2180028019202D08A4202D903E09A
:1062E0008A4201D2012000E00020009908180090A5
:1062F0002868216840004900400849084018FA49C8
:10630000471814E001994000C90F08430090019814
:1063100002994000C90F0843019002980399400078
:10632000C90F08430290039840007F1E0390009815
:106330000028E7DA0898002801D0EC4E00E000269B
:10634000B74201DA012000E00020002804902AD0A2
:10635000F71BF806C00E15D0029B2021091A039ADC
:106360008B401A430392029A019BC2408B401A430E
:106370000292019A009BC2408B4000991A430192FD
:10638000C14000917B110DD06F460320C11A03D587
:1063900000218200B95003E08A008100BA587A5087
:1063A000401EF3D5374603980299002800D00120FB
:1063B000014308980291002808460CD0002800D01C
:1063C00001200199019A490508430121D20AC90215
:1063D000D202019200E001210E9B0122D207012B83
:1063E00002D0002B03D013E0002807D120E0904218
:1063F00004D890420CD1019B0B4209D0019B591843
:10640000019105D10099491C009101D17F1C009296
:1064100000280DD0102108460020C046049800280E
:1064200006D00F98002803D0082108460020C04657
:1064300028682168019B009A4840C10F0598C90748
:1064400039430EC009B0F0BDFFB587B0099A08986E
:1064500008995368926840688968964600220393B9
:1064600017469446089A12685300099A5B08126806
:10647000520052089A1A9E4BD4180A9A002A01D048
:10648000352200E0402206920022012315460492A4
:10649000DB07059324E0002D05D175460346039ED6
:1064A0004D1BB34109D375466646039B491B049DAA
:1064B0009841059B7519AC465F4163463B4308D044
:1064C000059B049EDD0776082E435B080496059322
:1064D00001E0521E641EC50FED0749184041521CD1
:1064E000069B9A42D7DB002D04D17546039A6B1A9E
:1064F000824101D203200CE0039A0B466B404240DC
:10650000134303D0014303D0012002E0022000E046
:106510000020614601910021009702910A9900290B
:1065200005D0614640020143704B019102E08007B3
:10653000002302909C4201DA012000E000200700C5
:106540003AD01A1BD006C00E15D0029D2021019C06
:10655000091AC5408C402543029C8C4000D0012480
:106560002543019C0295009DC4408D4000992C4319
:106570000194C140009154111DD06D4602210022AA
:1065800002290CD10320001B07E0002804DB860051
:10659000AE59002E00D00122401C0328F5DB081B59
:1065A00002D588002A5004E08000285810438A0051
:1065B000A850491EE3D51C460A98002802980CD022
:1065C000002800D001200199019A490508430121C2
:1065D000D20AC902D202019200E00121109B0122DD
:1065E000D207012B02D0002B03D013E0002807D1E3
:1065F0001FE0904204D890420CD1019B0B4209D07D
:10660000019B5918019105D10099491C009101D1B4
:10661000641C009200280CD0102108460020C046BF
:10662000002F06D01198002803D00821084600202A
:10663000C04608980999019A009B0068096848407B
:10664000C10F0798C907214382600AC00BB0F0BD93
:1066500000B585B0019300920A460146002302A8C6
:10666000FFF7FCFD02A807C805B000BDFFB50A464C
:106670001F4685B00799019301230091014602A8A6
:10668000FFF7ECFD02990398049ECA0F4900D20758
:1066900000920F22490892028C1A0021002800DB88
:1066A0000C46450013486D08844214D3079A002A0B
:1066B00004DA441E0026104DF64302E004460D465F
:1066C0000E46102108460020C046002F03D00421AA
:1066D00008460020C0462005E90A084300990843FF
:1066E0006905F20A1143ADE602C0FFFF013C00005C
:1066F000FF3F0000FF070000FFFFFF7F00B585B0F0
:10670000019300920A460146002302A8FFF79CFE6F
:1067100002A807C8A8E7FFB50A461F4685B0079933
:10672000019301230091014602A8FFF78DFE029913
:106730000398049ECA0F4900D20700920F2249080D
:1067400092028C1A0021002800DB0C4645001148FB
:106750006D08844214D3079A002A04DA441E0026E6
:106760000D4DF64302E004460D460E461021084644
:106770000020C046002F03D0042108460020C04658
:106780002005E90A0843009908436905F20A114304
:1067900058E60000FF070000FFFFFF7FC068802170
:1067A00008407047C80212D54803400F002804D0A3
:1067B000C803C043012188407047EFF30080000107
:1067C000000903210907084380F30088704700206F
:1067D0007047000010B500200249029A00F033F81B
:1067E00010BD00000000F87F10B5024800F02BF843
:1067F00010BD00000000C07F7546FFF715FCAE46D7
:10680000050069465346C008C000854618B020B54B
:10681000FDF7EEFC60BC00274908B6460026C0C55F
:10682000C0C5C0C5C0C5C0C5C0C5C0C5C0C5403D48
:1068300049008D46704710B50446C046C046204604
:10684000FDF7AAFC10BD10B50C461107090F092968
:1068500004D00A290AD008290CD104E011460820E6
:10686000FFF7A0FF06E0510606D501E0510601D56D
:106870000120C007214610BDD10607D50101090935
:10688000CC084907000E0006044309E0410F20022E
:106890004907000A0143200E00061D22D141014391
:1068A0000846E7E770B58C180578401C6B075B0F4E
:1068B00001D10378401C2A1106D10278401C03E064
:1068C0000678401C0E70491C5B1EF9D12B0705D4BD
:1068D0000023521E0DD40B70491CFAE70378401CAC
:1068E000CB1A921C03E01D780D70491C5B1C521ED4
:1068F000F9D5A142D8D3002070BD000010B50446E0
:106900000220074908700846447000208870022061
:10691000C87000200871084600F052FA10BD00004F
:10692000BA08002020B5002500BF00BF00BFFDF75A
:1069300075FC054600BF01F0E3F800BF04F05EF906
:1069400000BF01F0F7F800BF2846FDF76BFC00BF61
:1069500000BF00F003F804F067F920BD10B500F0A7
:106960004FF800F045F881B20C48407842000B48DF
:106970002038815220304078401CC1B20748417015
:1069800041780078814208DB002000F019F80020EF
:1069900000F006F8002000F047F810BDE0080020E5
:1069A0000649012804D0C86A40084000C862704700
:1069B000C86A01221043C8627047000000280140E5
:1069C00005498022012803D0C86A9043C8627047F5
:1069D000C86A1043C862704700280140034AD16A60
:1069E0000223994318400843D062704700280140B1
:1069F0000248406B4005400D7047000000280140F0
:106A00000149012088637047002801400549102290
:106A1000012803D0886A904388627047886A1043CF
:106A2000886270470028014005492022012803D0D0
:106A3000886A904388627047886A1043886270470A
:106A400000280140044A916A090909010007000F62
:106A50000843906270470000002801400248006B24
:106A60004005400D704700000028014040050249E4
:106A7000400D0863704700000028014030B504460F
:106A8000234D230009F0E4FA0B0723333333333368
:106A90003333331514000020FFF7A0FF1C48FC30EF
:106AA000FFF7E4FF0120FFF7B1FF0120FFF7BCFF74
:106AB00030BD0020FFF792FF19208001FFF7D6FFBD
:106AC0000120FFF7A3FF0120FFF7AEFF30BD02203A
:106AD000FFF784FF2846FFF7C9FF0120FFF796FF65
:106AE0000120FFF7A1FF0620FFF7ACFF30BD022019
:106AF000FFF774FF2846FFF7B9FF0020FFF786FF76
:106B00000120FFF791FFA01DFFF79CFF30BD0000A3
:106B1000FF030000F3B581B00F46214E214D307CBC
:106B20001E2813D0204C214E214930460EF01EFD68
:106B300001990EF061FC314601980EF017FD2946CF
:106B4000FEF79EFD21460EF011FCFEBD707CC009D3
:106B5000FEF715FC0022D243FEF738FD02460B4635
:106B600000201449FEF734F9FDF778FF0446032F9F
:106B70000AD0708AFEF703FC0F4A104BFEF735F976
:106B8000FDF76CFF0646CFE7708AFEF7F8FB0C4A6C
:106B90000C4BFEF72AF9FDF761FF0646C4E700003B
:106BA00080FCFF1F7A36A1400000F0410080BB440A
:106BB0000000C84100003E40421CEBE2363A2EC0C5
:106BC000D712F241CF2624C0F3B581B0024600238C
:106BD000FFF744FF06467D2162201446C900444366
:106BE000554DFF2E2CD15548CF00008BB84227D9E8
:106BF0004B27FF01B84223D2082A05D90C2A04D812
:106C0000083A1420424313468AE0252A04D8504308
:106C1000FDF774FE034683E07D2A05D860432946CC
:106C2000FDF76CFE03467BE0444C5043FDF766FEE7
:106C300005461A20205E6421FDF76AFE2B186FE0DE
:106C4000F01FFF38F9382DD13C487D27008A7F019D
:106C5000B84227D94B27BF01B84223D20F2A5FD9A8
:106C6000192A04D80F3A0A204243134658E04B2A07
:106C700004D85043FDF742FE034651E0FA2A05D8F6
:106C800060432946FDF73AFE034649E02B4C50434A
:106C9000FDF734FE05461220205E6421FDF738FE24
:106CA0002B183DE0F01FFF38F93802D0FF2E02D03C
:106CB00002E0520000E09200214C224EA08AFF2701
:106CC00086199037BE4225D21E2A29D9322A03D8E6
:106CD0001E3A9000131823E0962A04D85043FDF77B
:106CE0000DFE03461CE0FF23F5339A4207D86221CC
:106CF0004A4350432946FDF701FE034610E0504346
:106D0000FDF7FCFD05461620205E6421FDF700FE20
:106D10002B1805E00C480A3A5043FDF7EFFD0346F7
:106D20000298032805D1662058436421FDF7E6FD4B
:106D300003461846FEBD0000A086010040FDFF1F6F
:106D400040FCFF1F2FF8FFFF7E08000006490128C6
:106D500004D04868400840004860704748680122F5
:106D60001043486070470000002801400348406A13
:106D7000C00701D001207047002070470028014063
:106D80000149012048627047002801400348406AD9
:106D9000400601D5012070470020704700280140BF
:106DA0000649012804D00868400840000860704780
:106DB0000868012210430860704700000028014065
:106DC000F8B50446002000900026607802F0F8FD37
:106DD000204602F03FFE1021A01DFDF746FDE078A1
:106DE000102801DD0F20E070E078022801DA02208F
:106DF000E070E1782620015500212720015501206F
:106E0000FFF7CEFD25484069000424490969471869
:106E100000BF2720015D2620005D814220DB002687
:106E2000012505E06900A01D405A8619681CC5B2FD
:106E3000E078A842F6DCE078411E3046FDF75EFDC2
:106E400006462079012805D105213046FFF7BCFE12
:106E5000009004E003213046FFF7B6FE00900DE0FD
:106E60000E48406900040D4909694018C01BE178CB
:106E70007D22D2005143C9008842CAD300BF607846
:106E800002F01EFE0020FFF79BFD0020FFF788FDAB
:106E90000020FFF7C9FD0098F8BD00000031014057
:106EA00010B504460021204601F04FF8012120468C
:106EB00001F04BF810BD000030B593B005460C460C
:106EC0002648281AC004010E01910020029068464D
:106ED0000079022802D0032817D10AE0002004908C
:106EE00001211F4806F032FE21781C2003F024FD0A
:106EF0000DE00020049001211948401C06F026FEF8
:106F000021781D2003F018FD01E013B030BD00BF53
:106F10006078012801DA012060706078801C06909A
:106F200003200790012008A908700021099108A8F2
:106F300001720B91017610A80172417201218172D8
:106F400060880849091A1091002110A8C17202A98D
:106F5000284601F08AF800BFD7E7000090300140D2
:106F600004000004FFFF000070B504460D462946EA
:106F7000204601F01BFC01281BD12946204601F0C8
:106F800025FF00280AD1052007F0D2FD294620461A
:106F900001F01CFF00280CD1012070BD052007F076
:106FA000C7FD2946204601F011FF012801D102202A
:106FB000F3E70020F1E77CB50446684602F0D3FC15
:106FC000072269462046FDF7E5FB002507E005207E
:106FD000401B205C0621491B6054681CC5B2062D6D
:106FE000F5DB2020207007222146E01DFDF7D2FBB3
:106FF000072505E0605D00F0B2FC6055681CC5B275
:107000000E2DF7DB7CBD00001FB504460121314881
:1070100006F09CFD002006F043FF002007F05EF81C
:10702000002006F0CFFF002007F00AF8002007F04C
:1070300017F80021C943002006F0DEFF6078002821
:1070400004D00121084606F0D7FF03E0012100200B
:1070500006F0D2FFA078002804D00221012006F01B
:10706000CBFF03E00221002006F0C6FFE0780028F5
:1070700004D00421012006F0BFFF03E0042100201A
:1070800006F0BAFF2079002804D00821012006F07C
:10709000B3FF03E00821002006F0AEFF082006F051
:1070A000C3FF2178022003F047FC02A802F05BFC3A
:1070B00002A802F029FC00280BD107A103C9019105
:1070C0000090019900980391029002A800F0A2F8A4
:1070D00000BF1FBD0200000119031810295801004C
:1070E000FFB581B01D460A9E0027002000900024B5
:1070F00000BF24E000200090012301A807C807F08A
:1071000021FA002802D00120009010E000240CE0B9
:10711000701EA04204D9012007F04EF9285503E063
:10712000002007F049F92855641CB442F0D307F059
:107130001DFC0098002800D103E0781CC7B2032F83
:10714000D8DB00BF009805B0F0BDFFB581B01D468B
:107150000A9E0027002000900024632E02DD0220FA
:1071600005B0F0BD002724E000200090002301A816
:1071700007C807F0E7F9002802D0012000900DE0D1
:10718000002408E0285D07F075FB002802D00120EC
:10719000009002E0641CB442F4D300BF07F0E6FBA9
:1071A0000098002803D1019807F06EFA03E0781CDC
:1071B000C7B2032FD8DB00BF0098D1E7F8B5074668
:1071C0000E460E48C1680020884700210C460D4637
:1071D00009E0385D094A1169884738552846002179
:1071E000641C4841054629460020A21B8141F0D37A
:1071F0000248C16801208847F8BD0000D42F002054
:107200000020024908600248486070473C000020A6
:1072100034000020FEB5054600260024002728463D
:1072200002F072FB002800D1FEBD002621E01348C9
:1072300006F000FF284606F039FF1048C04306F06C
:10724000F9FE684602F08FFB002810D0002407E00A
:107250006846005D295D884200D003E0601CC4B22E
:10726000062CF5DB00BF062C01D1012703E0701CC2
:10727000C6B2032EDBDB00BF3846D5E7ACACACAC06
:10728000FEB50446002001900026204602F0E2FBF5
:107290001021A01DFDF7E9FAE078102801DD0F208C
:1072A000E070E078022801DA0220E070E178262020
:1072B00001550021272001550120FFF771FB2948C6
:1072C0004069000427490969471800BF2720015D6C
:1072D0002620005D81422ADB002601250BE06A00A2
:1072E000A11D885AFEF7CEFA314600900EF03EF806
:1072F0000646681CC5B2E078A842F0DCE178481E7A
:10730000FEF7B8FA014600903046FEF7B9F9064696
:107310002079012805D105213046FFF7FBFB0190BC
:1073200004E003213046FFF7F5FB01900EE00D4825
:10733000406900040B4909694018C11BE0787D22AF
:10734000D20050430A2250438142BFD300BF0020E5
:10735000FFF736FB0020FFF723FB0020FFF764FB5D
:107360000198FEBD0031014038B505460C46022C9F
:1073700000DA02241448007800280CD10221684663
:10738000017064214170FF214131418069460F48FD
:10739000FFF792FD00BF042D07D10B4800780421B0
:1073A00008430949087008464470082D07D106486B
:1073B000007808210843044908700846847003488F
:1073C000FFF76EFD38BD000067000020D03001409F
:1073D00038B504466001034940180090009807F052
:1073E000B9FD38BD0C200140F7B50546164600270B
:1073F000002E01D0052D00DDFEBDA8001A49085859
:10740000002807D102F0BEFCA900174A50500028FE
:1074100000D00127A80014490858002821D0301DA9
:1074200008F02EFF0446002C1AD03246201D019988
:10743000FDF7B0F96680012F02D10120208001E024
:107440000020208072B6A900074A5058214607F054
:1074500047FA62B6002F03D02179284600F006F8DB
:1074600000BF00BFC8E700003030002038B5044638
:107470000D466001054940180090009807F06AFD2C
:107480002946009807F0C5FD38BD00000C200140DA
:1074900070B504460E46052C00DD70BD13E072B6D3
:1074A000A100124A505802F04BFB054662B6002D6F
:1074B00008D02988281DB04772B6284608F0D0FEAB
:1074C000002562B600BFA100084A505806F04CFAE9
:1074D0000028E4D0A100054A505808F0DDFD002046
:1074E000A100024A505000BFD7E70000183000202A
:1074F00070B50446052C00DD70BDA0001F4908587A
:10750000002800D1F8E7A0001D49085800280BD139
:1075100002F038FCA1001A4A5050002804D0A10003
:1075200050582421FDF7A3F9A100154A505806F040
:107530002CFA002815D1A200104B9A581288111D60
:10754000A2009858002208F0BFFE0546002D07D083
:1075500072B6A1000A4A5058294607F0C1F962B62E
:1075600000BF72B6A100054A505808F079FE00200D
:10757000A100024A505062B600BFBDE7E82F0020CC
:1075800018300020F8B504460D461646052C00DDDF
:10759000F8BD600104494018009032462946009821
:1075A00000F004F800BFF3E70C200140F7B582B00B
:1075B0000F461446002500260121029807F08AFC98
:1075C00001280CD115490298401AC004010E0191FE
:1075D0002246394668460079FFF706FF1CE0002581
:1075E00018E0795D029807F014FD08E0029807F0B2
:1075F00002FD002801D1002604E0701C86B2084874
:107600008642F3DB00BF0648401E864200DB25466B
:10761000681C85B2A542E4DB05B0F0BD0C2001403A
:107620005555000030B587B005460C46012170481D
:1076300006F08CFA6F48281AC004010E01916846C2
:107640000079030008F004FD0604183E546B81978E
:1076500001216748801F06F079FA02220821664856
:1076600000F0F8F800221021634800F0F3F82178C8
:10767000092003F061F97FE001215D48401F06F019
:1076800065FA607801280CD1022201215A4880381D
:1076900000F0E0F8002202215748803800F0DAF8C4
:1076A0000BE0022208215448203800F0D3F80022D1
:1076B00010215148203800F0CDF821780A2003F03D
:1076C0003BF959E001214A48001F06F03FFA022227
:1076D00004214948803800F0BDF8002208214648BE
:1076E000803800F0B7F821780B2003F025F943E04B
:1076F00001213F48C01E06F029FA022251023E48ED
:10770000603800F0A7F800220121C9023A48603829
:1077100000F0A0F821780C2003F00EF92CE00121F4
:107720003348801E06F012FA022201213248403806
:1077300000F090F8002202212F48403800F08AF82B
:1077400021780D2003F0F8F816E001212848401EAA
:1077500006F0FCF9022210212748603800F07AF880
:10776000002220212448603800F074F821780E208F
:1077700003F0E2F800E000BF00BF02A806F016F92F
:10778000214608312846049A07F064FB0121284667
:1077900007F023FC0121284607F050FCE07801287F
:1077A00005D101220021284607F0A8FB04E00022B1
:1077B0001146284607F0A2FB2079012805D10122B5
:1077C0001146284607F09AFB04E0002201212846D2
:1077D00007F094FBA078012808D132210748049AC9
:1077E00007F094FA0121284607F016FC07B030BDD7
:1077F0000E0000030C200140A00C0040709400001B
:107800000146002901DD084670474842FCE70000B8
:1078100010B504460E48016801208847002C04D1A9
:107820000B4841680020884703E00948416801206F
:107830008847012007F088F90548C168012088477A
:10784000052007F081F90248C1680020884710BD73
:10785000E40800207CB506460D461446009500203D
:107860006946C871E007C00F002801D1487102E0E5
:1078700001206946487102202040002802D1694653
:10788000887102E00120694688710220694608710A
:10789000304601F073FA7CBD7CB505460C46009479
:1078A00000216846C17101214171002181710321CC
:1078B00001716946284601F061FA7CBD08B5684649
:1078C00003F078FA0748006A002801D10DF046F964
:1078D00002F026FA044804F0E7FC684603F0AAFA2E
:1078E00008BD00004830002000E20400F0B58C46DE
:1078F0000023002500262FE05900445C2746303F36
:10790000092F01D8FDB20CE02746403F062F02D8D0
:10791000373CE5B205E02746603F062F01D8573CCB
:10792000E5B2091849780C46303C092C01D8E6B27A
:107930000CE00C46403C062C02D83739CEB205E0AC
:107940000C46603C062C01D85739CEB22901891962
:107950006446E1545B1C9BB29342CDD3F0BD010958
:107960000A2200075143000F0818C0B2704730B513
:107970000446204600F004F80546284630BD0000C5
:107980000146104B99420ED90F4B994204D9090E6A
:107990000A460E4B985C14E0090C0A460B4B9B5CA4
:1079A000184608300DE0FF2906D9090A0A46074B98
:1079B0009B5C1846103004E00A46044B9B5C18465A
:1079C00018307047FFFF0000FFFFFF0078630100E1
:1079D00010B500F0DFF800F001F810BD70B500261A
:1079E000002018490880184908801849086018497B
:1079F00008601849086018490860184908600024A0
:107A000000BFFCF70BFC064600BF00250BE0002082
:107A10001049086000F074F800F08CF80D48006818
:107A20002418681C85B2002DF1D00C480460002099
:107A3000084908600849086000BF3046FCF7F2FBBF
:107A400000BF70BD74000020760000207800002088
:107A50007C0000208400002088000020800000209E
:107A600001460846044A1268904203D9024A126845
:107A7000801A00E0002070478000002070B50025CB
:107A800000BFFCF7CBFB054600BF0648046800BFFB
:107A90002846FCF7C7FB00BF2046FFF7E1FF06467C
:107AA000304670BD8400002070B50025FFF7E6FF6A
:107AB000044600BFFCF7B2FB054600BF00200449A6
:107AC000086000BF2846FCF7ADFB00BF204670BD34
:107AD0008400002070B5002500BFFCF79FFB054621
:107AE00000BF0648046800BF2846FCF79BFB00BFA8
:107AF0002046FFF7B5FF0646304670BD88000020DF
:107B000010B509480088401C0749088007480088CC
:107B1000002803D100F04AF80549086003480088AE
:107B2000401C0249088010BD74000020760000202F
:107B30007800002010B50F480088401E0D490880CD
:107B400008460088002814D100F030F80A4908607F
:107B50000846006809490968441A09480068A042B3
:107B600001D20748046007480068A04201D20548D6
:107B7000046010BD760000207C000020780000200A
:107B80008400002088000020002001490860704720
:107B90008800002010B500200249086000F004F8B9
:107BA00010BD0000700000207047000003494969C3
:107BB0000904024A12698818704700000031014028
:107BC000F0B505460F4600230CE05C00285D00F090
:107BD0000CF806016019407800F007F88019F85495
:107BE0005B1CDBB29342F0D3F0BD0146303909296A
:107BF00001D8C8B2704701464139052902D8373843
:107C0000C0B2704701466139052902D85738C0B261
:107C10007047202070470000F8B507460C4616460E
:107C20000C2C01DC012C01DA0020F8BD022C0CD157
:107C300038460AF0B1FA002804D009488078401C80
:107C4000C5B204E00648857801E00548055DAE420E
:107C500001DC012E01DA0020E7E70120E5E7000062
:107C60006863010010B500F04BFD1849184800F09A
:107C700031F816491648203000F02CF81349144802
:107C8000403000F027F811491148603000F022F828
:107C90000E490F48803000F01DF80C490C48A03008
:107CA00000F018F809490A48C03000F013F8002223
:107CB000FF2101310648C030FFF7CCFD0022012131
:107CC00049020348C030FFF7C5FD10BDFFFF0000AB
:107CD000000C00407CB504460D466A462946204605
:107CE00000F0CCFF68460079012809D029462046DB
:107CF00001F075F801222946204605F06DFD08E0E7
:107D000001222946204605F067FD2946204601F05C
:107D100066F87CBD00B591B00121204805F016FF42
:107D20001A2002F0FDFD0020009002902320049014
:107D30000020059001206946087600210791012165
:107D400006A801720021099101760E910F910EA8EB
:107D5000C1726946124800F088F901210F48401CA1
:107D600005F0F4FE1B2002F0DBFD00210EA80172DD
:107D7000417281720E910F91C1726946084820309C
:107D800000F073F90121064800F0DFF801210448F2
:107D9000203000F0DAF811B000BD0000020000044D
:107DA0009030014020B5002500BF00BF00BFFCF7A8
:107DB00035FA054600BFFFF7A3FE00BF02F01EFF25
:107DC00000BFFFF7B7FE00BF2846FCF72BFA00BF45
:107DD00000BF064800F016F9012804D1034800F05E
:107DE00018F907F0C5F902F01FFF20BDD03001409F
:107DF000F8B505460026F643284600F000F90121B3
:107E0000284600F0A2F8002420E01448406900044D
:107E100012490969471800BF284600F0E9F801280F
:107E200007D1284600F0EBF8284600F012F986B298
:107E30000AE00A4840690004084909694018C01B63
:107E40007D2109028842E7D300BF641C022CDCDBE1
:107E50000021284600F079F83046F8BD0031014095
:107E600010B592B004461D48201AC004010E0091BE
:107E70000020019002906846007803280BD1002072
:107E80000390042004900121154805F05FFE1D2099
:107E900002F046FD00E000BF00BF002005907F20FB
:107EA000069001206946087740210891002107A823
:107EB00001720A9101740C91012101764176002131
:107EC0000E910FA80172417281720F911091C172CF
:107ED00001A9204600F0C9F812B010BD9030014051
:107EE0000500000489B2416170470422012903D0D2
:107EF0000168914301607047016811430160704758
:107F0000026852085200C907C90F11430160704747
:107F1000026808239A431940114301607047022206
:107F2000012903D001689143016070470168114342
:107F3000016070472022012903D00168914301604C
:107F4000704701681143016070478022012903D006
:107F500001689143016070470168114301607047F7
:107F6000026810239A4319401143016070470122AF
:107F70005202012903D001689143016070470168F2
:107F8000114301607047026840239A43194011432E
:107F900001607047FF220132012903D0016891433B
:107FA0000160704701681143016070470222012996
:107FB00003D0816991438161704781691143816177
:107FC00070470422012903D0816991438161704780
:107FD0008169114381617047012904D08169490891
:107FE00049008161704781690122114381617047B5
:107FF000C069800701D50120704700207047022129
:10800000C1617047C069C00701D0012070470020DE
:1080100070470121C1617047426892089200890748
:10802000890F11434160704742681C239A431940ED
:10803000114341607047426840239A4319401143FD
:1080400041607047426880239A4319401143416060
:108050007047006980B2704789B201617047C9B248
:1080600081607047C9B2C160704770B506460C4662
:1080700030462168FFF7DFFF30466168FFF7E2FF17
:108080003046A168FFF7C8FF3046E168FFF7CCFF34
:1080900030462169FFF7E3FF30466169FFF7E2FFF1
:1080A000217E3046FFF763FF3046E169FFF76BFF43
:1080B0002546203529783046FFF73CFF3046616A77
:1080C000FFF74EFF297A3046FFF764FF3046E16A3A
:1080D000FFF71EFF297C3046FFF707FF697C30461B
:1080E000FFF71DFF3046616BFFF70AFF3046A16BBB
:1080F000FFF7B2FF3046E16BFFF7F4FE4034217822
:108100003046FFF75EFF61783046FFF74FFFA178FA
:108110003046FFF761FFE1783046FFF716FF70BD8C
:10812000044A1168890889008007800F084310609D
:10813000704700000010004070B504460D462A4606
:1081400021460320FFF71EFA2A4621460220FFF7A8
:1081500019FA70BDFEB504460D4616461F460020AE
:10816000019001A83B46324629460090204600F087
:108170001BF9FEBDFFB587B0109D07990998401AFD
:10818000069008990A98401A0590002003902868E4
:108190000290059906980843002805D10899079888
:1081A00000F098F90BB0F0BD0698FFF729FB0746E1
:1081B0000598FFF725FB87420DDA05A906A807F009
:1081C00019FF08A907A807F015FF0AA909A807F0D1
:1081D00011FF012003900698FFF712FB06998842D1
:1081E00010D006984042069005984042059009A993
:1081F00007A807F0FFFE0AA908A807F0FBFE002663
:10820000F64300E001260598002843D10398002892
:1082100020D06348807E002805D1099A07990898E4
:1082200001F0D4FF35E000240DE002994A1C084615
:10823000029207F06FFE002804D1079801190898F0
:1082400001F094FF641C06988442EEDD0298401E03
:1082500028601EE05248807E002804D107A807C885
:1082600001F058FF15E000240DE002994A1C084671
:10827000029207F04FFE002804D1079908190899C7
:1082800001F074FF641C06988442EEDD0298401EE3
:10829000286087E70698C10F0918491004910598CE
:1082A000002802DA0498404204903D48807E00286D
:1082B0002ED1002428E00598604304994718002F28
:1082C00001DD384600E078423649884206DA384611
:1082D0000699FCF71DFB0899401805E038460699F9
:1082E000FCF716FB0899401801900398002805D167
:1082F00007990819019901F039FF04E0079801195D
:10830000019801F033FF641C06988442D3DD44E0F9
:10831000002E03DA2868069940182860002430E00F
:108320000598604304994718002F01DD384600E0A6
:1083300078421C49884206DA38460699FCF7E8FA82
:108340000899401805E038460699FCF7E1FA0899C3
:1083500040180190296889190846296007F0DAFD5C
:1083600000280DD10398002805D107990819019913
:1083700001F0FCFE04E007980119019801F0F6FEF7
:10838000641C06988442CBDD002E03DA2868069927
:10839000401828602868801B286000BF02E70000A2
:1083A00020450020FF7F0000F0B58FB006460F4645
:1083B00014461D464648007E012808D114982B46D5
:1083C0002246394600903046FFF7D4FE7EE0301B4F
:1083D0000E90781B0D900D990E980843002874D0CC
:1083E00007A800903A48007E421E791B301B08AB5C
:1083F000029007F01BF8089800280BDD0899481C2C
:10840000C10F0918491006910898C10F09184910A1
:1084100004910AE00898C10F0918491006910899BB
:10842000481EC10F091849100491079800280BDD58
:108430000799481CC10F0918491005910798C10FE9
:108440000918491003910AE00798C10F091849104B
:1084500005910799481EC10F091849100391069804
:10846000301801B2684681840598381801B2684610
:10847000C1840498301A01B2684601850398381AFD
:1084800001B209A8C1800498201A01B2684681850A
:108490000398281A01B209A841810698201801B250
:1084A000684601860598281801B209A8C1810023F1
:1084B0001A46042100F074F83946304607F05AFC99
:1084C0002946204607F056FC00BF00BF0FB0F0BDA4
:1084D0002045002070B505460E460A48007E01285A
:1084E00004D13146284601F041FE09E00548007EEE
:1084F000441EE00F001942103146284600F004F8EF
:1085000070BD000020450020F7B582B00446164635
:108510002249714308467D21C900FCF7F9F9401C46
:108520000190F10F89194A10314671435118009199
:108530003546A219A01B039901F0ECFD012728E0A4
:10854000384678432946694341180098814213DD33
:10855000019885420FDDE3195A1E039B5919E31B4D
:10856000581C01F0D7FDE3195A1E039B591BE31B4E
:10857000581C01F0CFFD6D1E6219039BD919601BB9
:1085800001F0C8FD6219039BD91B601B01F0C2FDFD
:108590007F1C01988742D3DD05B0F0BDC302000007
:1085A000FFB589B006461F465348089040420790E1
:1085B00000250CE0A80080190224045F089884427A
:1085C00000DA08940798844200DD07946D1C0A982D
:1085D0008542EFDB4948406900281BD04748416984
:1085E0000620085EC11B0798814205DA43484169AD
:1085F0000620085EC01B0790404841690220085EC3
:10860000C11B0898814205DD3C4841690220085E93
:10861000C01B0890089C69E007F052FC00255DE053
:108620000A98401EA84201DD681C00E00020069068
:10863000A80081190220085E059006988000811923
:108640000220085E04900598A04228D10498A04218
:108650000DD106988000335E0B981A18E119A80016
:10866000335E0B981818039007F072FB35E0234631
:10867000294630460A9A07F0DDFB03900398A04292
:108680000CD00B98019700900498031B0398021BD1
:10869000A800305E2146029006F0B2FE1DE004986C
:1086A000A0421AD00498A04202DB0598A04205DD42
:1086B0000598A04211DB0498A0420EDC06988000C9
:1086C0008319A800821903A9204606F0ECFE0028B1
:1086D00002D0039806F06AFE00BF6D1C0A9885421E
:1086E0009EDBE1190B9807F05DFB641C0798844240
:1086F00092DD0DB0F0BD0000FF0F0000204500200E
:1087000000B500F03FF80E4800F072FB0C48203036
:1087100000F06EFB0A48403000F06AFB0848603009
:1087200000F066FB0648803000F062FB0448A03091
:1087300000F05EFB0248C03000F05AFB00BD0000B4
:10874000000C0040044A116849084900C007C00FE6
:108750000843106070470000000D0040034A116894
:10876000022399431840084310607047000D0040F1
:10877000034A116808239943184008431060704762
:10878000000D0040084907480862486288620020DE
:108790008863C86304494031086048608860C860E5
:1087A000704700000000FFFFC00C0040F0B503461A
:1087B0000C4600210020002207E0012595402540BD
:1087C000002D01D0114602E0521C102AF5D300BF43
:1087D000614E9D1BB34239D008DC604D5D19002D00
:1087E0000BD0202D0AD0402D73D11BE0202D43D07B
:1087F000402D56D0602DF7D181E000BF584D2D7827
:108800004F077F0F0126BE403540002D09D00120C3
:10881000534D2D784F077F0F0126BE407540504EB7
:10882000357096E04E4D6D784F077F0F0126BE40A4
:108830003540002D09D00120494D6D784F077F0F3D
:108840000126BE407540464E757082E00A2912D856
:10885000434D6D784F077F0F0126BE403540002DF8
:1088600009D001203E4D6D784F077F0F0126BE4095
:1088700075403B4E75706CE0022911D309290FD861
:10888000374DAD788E1E0127B7403D40002D07D0F3
:108890000120334DAD780127B7407D40304EB57093
:1088A00057E0002916D0072914D82D4DAD784F0771
:1088B0007F0F0126BE403540002D1FD00120284DDE
:1088C000AD784F077F0F0126BE407540244EB5702E
:1088D00014E03DE0082911D30B290FD8204DAD78C5
:1088E0000E1F0127B7403D40002D07D001201C4D31
:1088F000AD780127B7407D40194EB57029E00229B7
:1089000011D1174D6D784E1C0127B7403D40002D09
:108910001DD00120124D6D784E1C0127B7407D40BF
:108920000F4E757013E0052911D308290FD80C4D8F
:108930006D784E1E0127B7403D40002D07D0012025
:10894000074D6D780127B7407D40054E757000E0FA
:1089500000BF00BFF0BD0000600C004000F4FFBF8E
:108960006400002030B500220023012425469D40EC
:108970000D4201D01A4602E05B1C102BF6D3234DAA
:108980002249431B6031A84220D00BDC204BC01889
:1089900017D0202815D0402803D15007400F84401D
:1089A0000C6330BD202B18D0402B1CD0602BF8D18D
:1089B000022A28D0501F0328F3D8521E94400C637B
:1089C00030BD5007400F8440CC6230BD0A2AFCD82D
:1089D0005007400F84400C6330BD921E072AFBD81D
:1089E00094404C6330BD501E062804D85007400FF9
:1089F00084404C6330BD104608380328FAD8121F53
:108A000094404C6330BD0820086330BD600C0040CA
:108A100000F4FFBF70B504460D46164603222946F2
:108A2000204600F00FF82946204600F08FF8324625
:108A30002946204600F006F829462046FFF792FF17
:108A400070BD000070B50023002401263546A54006
:108A50000D4201D0234602E0641C102CF6D3394E9F
:108A60003849851B60310324B04230D010DC364DCC
:108A7000401922D0202820D0402808D15807000FC4
:108A800010304B6A8440A34382401A434A6270BD4F
:108A9000202D28D0402D32D0602DF8D1022B48D087
:108AA000581F0328F3D85B1E580010304B6A8440CF
:108AB000A34382401A434A6270BD5807000F10302A
:108AC0000B6A8440A34382401A430A6270BD0A2B9A
:108AD000FCD85807000F10304B6A8440A3438240F3
:108AE0001A434A6270BD9B1E072BFBD858001030FA
:108AF0008B6A8440A34382401A438A6270BD581E29
:108B0000062808D8580010308B6A8440A34382405E
:108B10001A438A6270BD184608380328FAD81B1F0A
:108B2000580010308B6A8440A34382401A438A6203
:108B300070BD486A03239B059843920502434A622D
:108B400070BD0000600C004000F4FFBF70B5002253
:108B5000002301252C469C400C4201D01A4602E01D
:108B60005B1C102BF6D3434E4249841B0323603118
:108B7000B04237D010DC404C041920D0202C1ED03D
:108B8000402C08D15007000F4C6A83409C43D20808
:108B9000824022434A6270BD202C30D0402C41D00C
:108BA000602CF8D1022A5FD0501F0328F3D8521E40
:108BB0005200486A9340984303434B6270BD540788
:108BC000240F0D6AA3409D432A4B603B984203D17A
:108BD000D008A040284303E0D008801CA0402843D0
:108BE000086270BD0A2AFCD85007000F4C6A834007
:108BF0009C43D208921C824022434A6270BD901E60
:108C0000032805D8921E886A9540A843886270BDE3
:108C1000921F032AFBD85200121D886A9340984382
:108C2000886270BD501E022805D8886A9540A84306
:108C300005438D6270BD101F032808D84000001D39
:108C40008A6A83409A43854015438D6270BD083A15
:108C5000032AFBD85000001D8C6A83409C430222EB
:108C6000824022438A6270BD486AC0229043024318
:108C70004A6270BD600C004000F4FFBF70B5002375
:108C800001252C469C400C40002C02D15B1C102B73
:108C9000F7D3102B20D2116006680E40DE4000246E
:108CA000012E1AD0D47146680E40DE40012E16D037
:108CB000947186680E40DE40012E12D05471C06857
:108CC0005900C8408007800F00280CD001280CD024
:108CD00002280CD00320107170BDD571E3E79571A7
:108CE000E7E75571EBE7147170BD157170BD022097
:108CF000107170BD1CB5684681880191002400BFC9
:108D000000BFFBF78BFA044600BFFEF7F9FE00BF79
:108D100001F074FF00BFFEF70DFF00BF2046FBF718
:108D200081FA00BF00BF124800781249C96A08439F
:108D30000F490870084640780E49096B08430C49F2
:108D40004870084680780B49496B08430849887089
:108D5000FF200849C8620863486301A800231A4637
:108D600019460090044802F051FF01F05DFF1CBD60
:108D700064000020C00C00400C31002070B50022BF
:108D80000126334693400C681C409C421AD104686B
:108D90009C43CD7995402543056044689C438D797B
:108DA00095402543456084689C434B799340234319
:108DB000836054000323A340C5689D430B79A340FF
:108DC0002B43C360521C102ADBD370BD0246002027
:108DD000D2690A4200D00120704781617047416129
:108DE000704702690A4201D0816170474161704752
:108DF0000021016041608160C16001617047000035
:108E0000F0B58FB0054660482621415E0D912821BE
:108E1000415E0C91C0698469A0890B900B98A842AF
:108E200009DCE089A84206DB20680E900B982E1A18
:108E30000027FF431FE0A06861680E91002816D04C
:108E400001880B910B99A9420DDC4188A9420ADBEC
:108E50000288AA1A95B24168AA00891800268E5F76
:108E60000227CF5F06E00026F643374602E00026E1
:108E7000F643374600BF701C00287CD04248C069CA
:108E8000007DA17C48430A90207C08903E48C06940
:108E9000007D07903C482E21415E0991099801F020
:108EA0000FFCC0B2069038490A9870430E9A801899
:108EB000A27C012302930392059104900846C069A5
:108EC000C07DC969897D00910190079B089A0C9922
:108ED0000D9801F003F8781C00281DD00222099992
:108EE0001143084601F0ECFB27490A9878430E9A93
:108EF0008018A27C012302930392059104900846F6
:108F0000C069C07DC969897D00910190079B089A5D
:108F10000C990D9800F0E2FF1B48C069407D1A498A
:108F2000C969097D884222DD099802281FD00422E0
:108F300009995140084601F0C3FB1348C069007D00
:108F40001149C969497D48430C99401805900E485C
:108F5000C069417D0C980B180B48C069807D089949
:108F600048430D99421805990D9801F059F9069852
:108F700001F0A6FB00BF0448C08C617C401800B221
:108F80000149C8840FB0F0BD2045002001460348C8
:108F9000C069826900BF507C7047000020450020F6
:108FA00000BF02220A807047F0B50446A3699D897C
:108FB0008D4204DCD889884201DB0120F0BD9A682B
:108FC000002A12D0108888420FDC508888420CDBBF
:108FD0008F005068C0191788BF00C61B0020305E84
:108FE000002801DB0120E9E700BF00BF0020E5E722
:108FF00010B500240CE0A101074A8918081D3C2285
:109000000649FBF7CFF80020A101034A5050641C29
:10901000042CF0DB10BD00005C4500202045002042
:1090200010B50020C0430249086000F097FB10BD56
:109030006401002070B505460C46284600F0DAFAB7
:10904000C6B2234600223146284600F001F870BD22
:10905000FFB581B00D4616461C46214601A806F014
:1090600078FA281AC5B2002E01D0681EC5B2A80031
:10907000184908580199884204D8A8001549085889
:10908000401E01901FE02846691ECDB2B04205D1B6
:10909000114801782268501C20601170A8000D4909
:1090A0000858009000990198FBF732FCC7B200986D
:1090B00078430199081A019038463030C1B22268CD
:1090C000501C20601170002DDDD100202168087037
:1090D00005B0F0BDB06601004801002010B50028C1
:1090E00002DA2D22404200E02B220C68631C0B6048
:1090F000227000230C68237010BD000010B5002101
:10910000084600F0D1F9034B1A465942084600F0D0
:1091100003F810BDFF0F0000F8B504460D461646D3
:109120001F4600F01DFA042001F0CAFA00903B46E9
:1091300032462946204601F073F8009801F0C0FA43
:1091400000F0F2FAF8BD70B504460D46002229463B
:10915000204600F016F870BDF0B585B005460E4605
:1091600017461C4601A800906B460022214628465F
:10917000FFF76EFF3A46314601A800F01BF905B033
:10918000F0BD7FB504460D46164601A800906B461B
:10919000324629462046FFF75BFF01A800F062F83F
:1091A0007FBD7FB505460C4601A80090002D06DA6C
:1091B00069462846FFF792FF0546601EC4B228465E
:1091C00000F018FAC6B205E0202000990870009857
:1091D000401C00903046711CCEB2A042F4DB6946C0
:1091E0002846FFF727FF01A800F03CF87FBD0000EC
:1091F000F8B506460D463046FCF7F2FA074600F091
:10920000F9F9281A441E002130460CF0F5F805D271
:10921000074930460CF072F900D2641E002C00DAC7
:109220000024E2B200232946304606F0A3F9F8BD37
:10923000000080BF7FB505460C46164601A8009089
:1092400069462846FFF74AFF0546601EC0B204463D
:1092500001466B4632462846FFF7FAFE01A800F0A9
:1092600001F87FBDF0B585B00446002C01D105B0F2
:10927000F0BD00F075F900F0E1F807464B492620F3
:10928000085E039000F0E6F806464848018D881B0A
:1092900000B24649088573E04549204600F0D8FAF7
:1092A00000902046009900F0AFFA05463F48008E36
:1092B0008007800F012807D0022807D12846E90F30
:1092C00009184910049104E0049502E0002004907C
:1092D00000BF00BF3548C18C0498081A01B233485A
:1092E000C1846846818080884019401E01B268466A
:1092F00001812E48018D6846C180C088C019401E7A
:1093000001B26846418101AA2046009900F058FA4E
:109310006846C088254908852046009900F0EEF986
:10932000041920780A2802D020780D281DD11F4862
:10933000008E8007800F012802D0022805D100BFCF
:10934000039800B21949C88404E01848808C174972
:10935000C88400BF00BF20780A280CD11348008DB4
:10936000C01900B21149088505E068468088401997
:1093700000B20E49C8842078002800D103E0641CA4
:109380002078002888D100BF0848008D801900B2DD
:109390000649088508463021415E88088000034957
:1093A000088600F0C1F900BF61E7000020450020F9
:1093B000FF7F000070B506460C46154600F0D0F859
:1093C00020B20549C88428B208853046FFF74AFF15
:1093D00000F0AAF970BD000020450020F8B5044651
:1093E0000D4616461F4600F0BBF83B46324629465E
:1093F0002046FEF7AFFE00F097F9F8BDF8B5044639
:109400000D4616461F4600F0ABF83B46324629464D
:109410002046FFF7C5F800F087F9F8BD70B504469F
:1094200000F09EF80448C069416820468847054618
:1094300000F07AF9284670BD2045002010B500F0F4
:109440008FF80348C069447D00F06EF9204610BDD6
:109450002045002010B5002400F082F8114930208A
:10946000085E0C210840042804D008280ED00C28DF
:1094700013D104E00B48C069007D441E0DE009498A
:10948000C969087DC10F09184C1006E00549C96972
:10949000087DC10F09184C1000BF00BF00F044F94F
:1094A000204610BD2045002070B506460C4600F051
:1094B00057F8304606F0F4FC0546204606F0F8FC66
:1094C000054300F031F9284670BD000010B52E208C
:1094D0000749087000F03EF9064806F0F7FCFFF770
:1094E0009FFD00F021F80446FFF782FD204610BDE5
:1094F0004801002020450020F8B504460D461646D8
:109500001F4600F02DF8012000F0A9F800903B461E
:1095100032462946204600F083FE009800F09FF86E
:1095200000F002F9F8BD000010B5002401F0A4F825
:1095300001F035F8044300F0B5FE042001F0C0F856
:10954000064B1A460021084600F06AFE002001F092
:10955000B7F801F032F8204610BD0000FF0F000000
:1095600010B51F480068002806D100F013F900F07C
:10957000E9F81C4908600BE000F0E4F819490968B3
:10958000884205D000F006F900F0DCF815490860C3
:1095900013480068401C1249086001281FD106F0DA
:1095A00061FC044610480068844217D00E480068E9
:1095B000002811DB0C49096889010C4A8918081D2B
:1095C0003C220B49FAF7EEFDA001084A8018011D64
:1095D0003C220748FAF7E6FD0348046000BF10BDCF
:1095E0006C01002068010020640100205C4500201F
:1095F0002045002010B501460120002901DD0B4661
:1096000000E04B421A4600E0401C8300044CE35843
:10961000934201D80928F7DB002900DA401C10BD6D
:10962000B066010002460220105E0623CB5E98421F
:1096300013DC0220085E0623D35E98420DDC002076
:10964000105E0423CB5E984207DC0020085E0423F2
:10965000D35E984201DC012070470020FCE770B522
:109660000446FFF77DFF204601F02AF8054600F08A
:109670005BF8284670BD000070B504460548C56912
:10968000FFF76EFF002C01D00248C46100F04CF8D7
:10969000284670BD2045002070B50446FFF760FFE6
:1096A0000348057E047600F03FF8284670BD0000B0
:1096B0002045002070B50446FFF752FF04482E25D0
:1096C000455F20B20249C88500F02EF8284670BDDB
:1096D0002045002070B5044625680748006A0168E7
:1096E0002846884706460448006A41682846884755
:1096F00045192560304670BD20450020F8B5054667
:109700000E46002707E00748006A41682846884758
:1097100004462D193F193046761E0028F3D13846ED
:10972000F8BD00002045002010B505480068401E27
:1097300003490860002801D100F038F810BD00008E
:109740006C010020024800682030C07E7047000095
:109750002401002010B500F092FB10BD08B56B4647
:10976000012205A1064801F0B7FB6B46012205A1C5
:10977000074801F0B1FB08BD6469737053656D0063
:10978000B84400206576656E7453656D0000000076
:10979000E04400200EB502A801AB00221146009063
:1097A000014801F0EFFB0EBDB844002008B56A4641
:1097B0000021024801F0F0FC08BD0000B844002080
:1097C0007CB505460E4614460D480068002805D0B5
:1097D0006A463146284605F011FF10E0082221466E
:1097E0006846FAF7D7FF684600880649C884684685
:1097F000408808856A463146284605F0FFFE7CBD54
:10980000580100202045002073B50C460025009823
:10981000002819D00D48C0690069002807D00B48FE
:10982000C069006921460268009890477CBD07E046
:109830006846FFF74FFF06463046FFF7EFFD451934
:10984000601E041EF4DA00BF2846EFE72045002022
:1098500073B50D460024009800281AD00E48C06940
:109860000069002807D00C48C06900692946426891
:10987000009890477CBD09E06846FFF72BFF06463D
:10988000002E01D00A2E00D102E0641CAC42F3DBB2
:1098900000BF2046EEE700002045002010B504463A
:1098A00001208002201800F001F810BD70B50146BB
:1098B00000250905090D0120C002814201DD091AB8
:1098C000012501208002814201DD4000411A8C11F6
:1098D0008806800E4026321A60000A4E335A5343DF
:1098E000402A06D0601C4000305A4026B61A704309
:1098F000C318184620308309002D01D0584270BD8E
:109900001846FCE7D8660100FEB504462078FEF74D
:1099100026F87D21090145186078FEF720F80290AD
:10992000A078FEF71CF80190E078FEF718F80646DC
:109930002079FEF714F807466079FEF710F80090DA
:1099400000983B2803DC3B2F01DC172E01DD0020B3
:10995000FEBD2846019A0299FEF75EF9002800D163
:10996000F6E70120F4E7F0B585B0064600250024AF
:10997000002700BF1EE002A804F080FB684604F048
:109980007DFB002408E002A8005D6946095D88426D
:1099900000D003E0601CC4B2072CF4DB00BF072C2E
:1099A00006D10127072202A93046FAF7F3FE03E0A9
:1099B000681CC5B2032DDEDB00BF384605B0F0BD24
:1099C00010B50446A01E030006F042FB08050E1762
:1099D0001D232932383E0020FEF7B4FE0121090381
:1099E0001B48FDF759FF30E00020FEF7B7FE0121CC
:1099F00049031748FDF750FF27E0012114482030A4
:109A0000FDF74AFF21E0022111482030FDF744FF15
:109A10001BE040210E486030FDF73EFF15E00020BE
:109A2000FEF7A6FE0121C9030948FDF735FF0CE04A
:109A3000042107482038FDF72FFF06E008210448DD
:109A40002038FDF729FF00E000BF00BF10BD000077
:109A5000400C004010B504460121154804F076F88A
:109A60000121144804F072F80120000404F062F8A7
:109A7000A078022803D11048FCF7F8FF09E0A0788D
:109A8000012803D10D48FCF7F1FF02E0FF20FCF7AD
:109A9000EDFF6078FCF7F2FF0120FCF791FF00205A
:109AA000FCF77EFF2178052000F046FF10BD000086
:109AB0000600000108000002FF030000FF01000093
:109AC00010B50446A01E030006F0C2FA08050B11EB
:109AD000171D23292F35012109031848FEF7FAF82D
