:020000040000FA
:10000000801400209D010000A5010000A701000050
:1000100000000000000000000000000000000000E0
:10002000000000000000000000000000A901000026
:100030000000000000000000AB010000AD01000066
:10004000AF010000AF010000AF010000AF010000F0
:10005000AF010000AF010000AF010000AF010000E0
:10006000AF010000AF0100005D230000AF01000000
:10007000AF010000AF010000AF010000AF010000C0
:10008000AF010000AF010000AF010000AF010000B0
:10009000AF010000AF010000AF010000AF010000A0
:1000A000AF010000AF010000AF010000E514000047
:1000B000AF010000AF010000AF010000AF01000080
:1000C00000F002F800F03EF80CA030C80838241800
:1000D0002D18A246671EAB4654465D46AC4201D180
:1000E00000F030F87E460F3E0FCCB6460126334274
:1000F00000D0FB1AA246AB4633431847A82A00009B
:10010000C82A0000103A02D378C878C1FAD852073A
:1001100001D330C830C101D504680C6070470000BD
:100120000023002400250026103A01D378C1FBD813
:10013000520700D330C100D50B6070471FB51FBDFB
:1001400010B510BD00F0FEFE1146FFF7F7FF02F0FC
:1001500073FC00F016FF03B4FFF7F2FF03BC02F0DC
:1001600069FC000070B505460C46164602E00FCC4F
:100170000FC5103E102EFAD2082E02D303CC03C5B1
:10018000083E042E07D301CC01C5361F03E02178B9
:100190002970641C6D1C761EF9D270BD074880471B
:1001A00007480047FEE7FEE7FEE7FEE7FEE7FEE75B
:1001B00004480549054A064B70470000012300002A
:1001C000C100000080040020801400208006002070
:1001D000800600207047F8B5042A2CD3830712D07C
:1001E0000B78491C0370401C521E83070BD00B7800
:1001F000491C0370401C521E830704D00B78491C15
:100200000370401C521E8B079B0F05D0C91ADF00DC
:100210002023DE1B08C90AE0FFF7A4FFF8BD1D4636
:1002200008C9FD401C46B4402C4310C0121F042ACC
:10023000F5D2F308C91A521EF0D40B78491C03708A
:10024000401C521EEAD40B78491C0370401C012A42
:10025000E4D409780170F8BD01E004C0091F042945
:10026000FBD28B0701D50280801CC90700D0027029
:10027000704700290BD0C30702D00270401C491EF2
:10028000022904D3830702D50280801C891EE3E77C
:100290000022EEE70022DFE770477047704700005A
:1002A000F0B50C46871A9C410D46861A9D4103D233
:1002B000C01BA141D21963410D0D1F0DC94EEC1B8E
:1002C000AE435CD07F057F0D0026002F51D02D0559
:1002D000AC46A943DD020123ED0A1B051D43202383
:1002E0001B1B24D41746E740381871412F46E740BE
:1002F000CC199D402818314661410C0D27D161442D
:100300009A4013D50023401C594152000ED1400899
:10031000400001224B005205D34207D3052040077D
:10032000C14201D5B04900E0B0493046F0BD6B0094
:10033000002A00D001229A181F23203C1B1B01D544
:10034000002302E0E540281871410C0DD7D00124AC
:1003500024050919C407CD0740084908E40F2843BC
:100360006144002CD5D00024401C61419A40D0D17A
:10037000CDE76A05520DD9D1C90FC907D5E79C4D04
:100380004E00002801D0012400E0002434195F0051
:10039000002A01D0012600E00026BE19954FAC428C
:1003A0000CD8AE420AD8B44206D001256D05EC4205
:1003B000BCD010461946F0BD9942FCD00020394609
:1003C000F0BDF0B51FB40C460F46811A9F4125467B
:1003D000861A9D4106D20125ED076F40401ABC41A7
:1003E00052187B41210D1E0D8D1BAC467D4D8D435A
:1003F0007ED075056D0D7CD00D05AE46AC431B035C
:100400001B0B794D52429D41202366469B1B14D302
:100410001746F740381800260090744160462F4672
:100420000741E41900989D402818664116D471468A
:1004300071189A4025D5012320E093182A466A4175
:100440005200002B00D0521C1E23203E9B1B002B71
:1004500061DD3541EE1728186641E8D50018764170
:100460005B1C9A4000D3401C4B05F3181524E34055
:1004700010D3002B52D071467118D30FC01802D37D
:10048000491C05B0F0BD0123DB079A42F9D14008B1
:100490004000F6E701225205B21801D1002853D0DE
:1004A0000123CC0ADB029943891E002A08D1020CE1
:1004B00003D0020C0004103902E00246002020396B
:1004C0000023550B05D112020823550B01D152010F
:1004D0000D23550C01D112011B1DD50C01D1920029
:1004E0009B1C150D01D152005B1C2025EE1A01E06A
:1004F0002CE022E00546F54015439840CA1AE10772
:1005000069181305C918002ABBDA03204007081828
:10051000C10FC9070FE071466118B2E7F107400843
:100520000843711071444A000CD001235B059A42C4
:10053000A7D2C90FC9070020A3E74905490D26D155
:10054000002001E00028F4D100219AE7284D660040
:10055000002801D0012100E0002171185F00002A6D
:1005600001D0012600E00026BE19224FA94210D872
:10057000AE420ED8B14208D001256D05E94206D041
:100580001946A802414010467BE79C4201D0214613
:1005900077E70020394674E710B50C465C4005D576
:1005A0000124E4076340FFF70CFF10BDFFF778FE5E
:1005B00010BD30B40C465C4004D50124E407634010
:1005C00030BC6DE630BCFCE670B50124E407614048
:1005D0000D465D4002D4FFF763FE70BD6340FFF738
:1005E000F0FE70BDFF0700000000F0FF0000F07F8C
:1005F0000000E0FF0000F87FF0B5F94D0C091E097E
:100600002C402E402F468BB0A7437DD0B543FCD065
:10061000002E7AD0002CFCD00D465D40ED0F254316
:10062000AC1BFF25AD0464190894C502440DC90232
:100630002143500DDC0204430120C0070143044361
:10064000D2020191200C110C00958C460104234626
:100650008B430A9161460904E24D8A430991010ADC
:100660007D4449198039097805464D4301266D18A6
:10067000F605751B6943C90C640B891C4C4364184F
:10068000B5012C1B250C2E04B4434C434D43210CC7
:10069000691889090591009DE90701D00121C90761
:1006A00004912C4601996708CD072F434C08059DFE
:1006B000E10B4D432D0C29466646754302950D46C8
:1006C00045432E46029D7D1BB44100950D465D437A
:1006D00001942C0C2F040D465543AE462D0C3D4382
:1006E000029503947546049C2D04641B049406D261
:1006F000029C039D641C002675410395029401AC85
:1007000070CC009F7D1B01E03EE162E1B441090431
:100710000095079101940599A4086143090C0C46C2
:100720004443650BE7040C4666467443A646640BD7
:100730003C43039502947446049DE4042C1B0494EA
:1007400006D2029C039D641C002675410395029409
:1007500001AC70CC009F7D1BB44101940C465C43FE
:100760000095650FE7000C465443A646640F3C43D2
:10077000039502947446049DE4002C1B049406D255
:10078000029C039D641C002675410395029401ACF4
:1007900070CC009F7D1BB441AE09AF06049DC9001B
:1007A000AD092F43049DA406AD060495079D34436F
:1007B00069180791059DE10B4D432D0C29466646AE
:1007C000754302950D4645432E46029D7D1BB4415F
:1007D00000950D465D4301942C0C2F040D465543A6
:1007E000AE462D0C3D43029503947546049C2D04A2
:1007F000641B049406D2029C039D641C0026754170
:100800000395029401AC70CC009F7D1BB441019410
:100810008C050694079C890A611800950791019C34
:100820000599A4086143090C0D464543680BEF0484
:100830000D46644665436C0B3C43049FED047D1BF1
:10084000AC4602D20025641C6841009E019D371B06
:1008500085410846584301950C46460FC500544350
:10086000600F28436546E4002C1B02D20025401C83
:100870006E41019D3F1AB5412846BD0980062843B7
:100880008446A009BF064E020699A40676180743BF
:10089000079D002068410A99079019430020099B91
:1008A00000906046FF1913434041E20F64003A4351
:1008B000A4460446D71A8C41A04203D901200090D7
:1008C00020463A46C70F941840416246D20F224351
:1008D000644664000494009CBE466400D71AA44693
:1008E000044602978C417746002F01D1A04204D9DB
:1008F0006046401C8446029A2046C40FA6469418BF
:100900004041049A0546D20F224364466400D31A3C
:100910008D417146002901D1A84202D928461A46C4
:10092000641C10430122002800D0164361020020FD
:10093000079B891904465C410223002C02DB4918FD
:1009400013466441089DCE0A2D145D194B056705B9
:10095000E10A2C050D1908993E43C9076940002B8F
:1009600008D0934006D30022761C5141002B01D1C0
:10097000760876001C4A002D43DB154241D0AA437D
:100980003FD030460BB0F0BD06180D464D41174C18
:100990007642AC411AD395181C465C41134A6D420D
:1009A000A24113D3012252054C00D4420AD15C006B
:1009B000D4420BD04B4002D592021143E2E74900EA
:1009C0004908DFE75940C90FC90718E00020084966
:1009D000D8E7054801420DD10342F7D0F2E7000005
:1009E0000000FF07802400000000F07F0000E0FF0F
:1009F0000000F87F114859400143C01241400020D7
:100A0000C0E70123089A9B069A4205DC032252079D
:100A10008918C90FC907B5E7052252078918074A7F
:100A20001143D2125140ADE770B515461C4602463F
:100A30000B4628462146FFF7DFFD70BDFFFFFF7F15
:100A40000346CA02400D10B510430A1504D0012414
:100A5000E4072043002A05DB0A4CA21A04D4D04044
:100A6000FF2A00DD002010BD4A00002B01D001202C
:100A700000E00020101801225205D042F2D8C81719
:100A8000C04310BD1E0400001F22030C02D10F2220
:100A9000000402D0030E03D004E00020014670479A
:100AA0000002083A030F01D10001121F830F01D188
:100AB0008000921E002801DB4000521E12055118D2
:100AC0004205C012411810467047C10FC90700D037
:100AD0004042012292071143D6E701218907D3E75B
:100AE000F0B58B4C0F09254689B0BD437BD01D095D
:100AF0002646AE43FAD00E465E402740F60F3E43F0
:100B0000254071D024012142FBD0FF24AD19A4045B
:100B10002D1B039501252D05DB02DB0AC9022B43A2
:100B2000C90A29431E010901040F130F05012143BE
:100B30001701880B820391432D098C46A90B1E4394
:100B40008A039543B30B9A0396433F09BA0B940368
:100B5000A74302962E467E430497B6464E19D719F0
:100B60000C460196544305977E43371B7646BF1BC0
:100B70003601B646BE0B361900967646BC043719C8
:100B8000009C01D3641C00946400002F01D0012656
:100B90003443029E049F754366467E430496760066
:100BA00034196E0034190094029C019E1C1966438E
:100BB000751BAE46069465464519059C05956C4324
:100BC000594375460891691A0191049E01465143A3
:100BD000A41B0491611A009C0791E10605D06109EC
:100BE0000122114302E072E06EE06109089D0027D6
:100BF0002C0A2D066918049D7C412A0A2D066918C5
:100C0000019D6241AC0DAD026D185441079A910DE2
:100C1000920255196141029A644658435443069B17
:100C2000059A5A43121A131B9A0E9B015B187A41BC
:100C3000010B0005C3185141220A200644195A41EC
:100C40009A4200D2491C01204002814203D315235D
:100C50000226F64302E014230326F6432020C51A99
:100C6000A9401746AF40DA400A4320460399D840CE
:100C70000914731819055118039A3843D2075140C3
:100C8000AC4009D00122944006D30022401C5141BF
:100C9000002C01D1400840001E4A934212D3012289
:100CA00003989206904207DB0520400709181A486E
:100CB0000143C012414004E0032040070818C10F5F
:100CC000C907002009B0F0BD0020F107FAE70518B8
:100CD0000C464C4111486D42A04115D394181A4658
:100CE0005A410E48644290410ED301204A0040050B
:100CF000824209D35A00824206D35940C90F084A9A
:100D0000C90700201143DDE700200649DAE70000AB
:100D10000000FF07FE070000FFFFFF7F0000E0FF6D
:100D20000000F07F0000F87F0121C9050123411870
:100D300042001B06D3185B0E0AD0C1100722D20650
:100D4000891840075242D14201D552008918704794
:100D5000090208D50146002A03D0C10FC9070020A7
:100D6000704710467047420202D000200249704787
:100D7000072109050143F4E70000F87FF0B5FF25DE
:100D80002D04C609C209FF2704462E400137CB09AE
:100D90003E4348402A402B400746002A6BD0002B98
:100DA00069D0AA4267D0AB4265D0002800DA32464B
:100DB0000125ED0529432C4309022002090AD21A14
:100DC0004B0C7F24E31A434C000A7C44E35C7D24F3
:100DD0002404121914145B00A218884201D3521C77
:100DE00000E0400049420C465C4324115C43DB01B7
:100DF0006415E318040A5C43C502200D0C46444305
:100E00006419250A5D432303EC0C0D46654300037A
:100E10000019EB184C42A34201D35B18401CD405C7
:100E20002018002B07D05B00C91804D3401C0029F0
:100E300001D1400840003F2189048A4209D3002A99
:100E400008DC1106090F04D0032149074018C00F20
:100E5000C007F0BD01224100120689187F22520608
:100E60009142F6D205214907C84201D59010F0BD44
:100E7000FF20C005F0BD002F00DA32461648AA4216
:100E800007D2AB4205D21902090E17D0F80FC007DE
:100E9000F0BDFF2563002D06AB42F9D84900A942F9
:100EA000F6D8AB4201D1A942F2D0A94201D100212A
:100EB00001E061004908D0050843F0BD1102090EA8
:100EC000FBD0FF200243D005F0BD0A460146104684
:100ED00054E70000961D00000000C07F1F22030C95
:100EE00002D10F2200041CD0030E01D10002083AE7
:100EF000030F01D10001121F830F01D18000921E48
:100F0000002801DB4000521ED20551180212511870
:100F10001922904004D3491C002801D149084900F6
:100F200008467047C10FC90700D04042012292070E
:100F30001143D3E701218907D0E770470048704784
:100F4000200400207546FFF7F9FFAE46050069460C
:100F50005346C008C000854618B020B5FFF728F9F1
:100F600060BC00274908B6460026C0C5C0C5C0C53C
:100F7000C0C5C0C5C0C5C0C5C0C5403D49008D463F
:100F8000704710B50446C046C0462046FFF7E3F858
:100F900010BD00000649012804D048684008400000
:100FA000486070474868012210434860704700005D
:100FB000002801400649012804D008684008400084
:100FC00008607047086801221043086070470000FD
:100FD0000028014070B50546064C0121204600F06E
:100FE000E3FF284600F022FC0021204600F0DCFF51
:100FF00070BD00000500000270B592B006460C46B8
:10100000F72000013018400900900025019569463D
:101010000978002913D001291CD0022925D00329E1
:1010200049D103950121254800F0BEFF21781D20FC
:1010300000F0A8FE61780120002921D021E003956D
:101040001E480121C01E00F0AFFF21781A2000F0D9
:1010500099FEEFE7039519480121801E00F0A4FFD7
:1010600021781B2000F08EFEE4E703951348012150
:10107000401E00F099FF21781C2000F083FED9E784
:1010800060706178891C0591032106916946087793
:10109000089508A90D710A950D7510A90D714D716E
:1010A000887160880649081A0F9010A9CD7101A9AE
:1010B000304600F03EFB12B070BD00000500000499
:1010C000FFFF0000F0B587B007460C4601216D48D0
:1010D00000F06AFF0B20C0433818400901906946B0
:1010E0000879694E684D2036030001F096FC06042D
:1010F0001A3E52677D9063480121801F00F054FF23
:10110000614D022280350821284600F0C1F80022F6
:101110001021284600F0BCF82178092000F032FEAA
:1011200075E058480121401F00F03EFF607801281B
:1011300010D0554D022260350821284600F0A8F84D
:1011400000221021284600F0A3F821780A2000F0A0
:1011500019FE5CE002220121284600F099F80022E5
:101160000221284600F094F8EFE746480121001FCD
:1011700000F01AFF02220421284600F089F800221C
:101180000821284600F084F821780B2000F0FAFDB1
:101190003DE03C480121C01E00F006FF0222510242
:1011A000304600F075F801210022C902304600F0F7
:1011B0006FF821780C2000F0E5FD28E0314801218E
:1011C000801E00F0F1FE304D0222403501212846FC
:1011D00000F05EF800220221284600F059F821783C
:1011E0000D2000F0CFFD12E026480121401E00F046
:1011F000DBFE02221021304600F04AF800222021B6
:10120000304600F045F821780E2000F0BBFD02A822
:1012100000F006FE214608313846049A01F0AAF98A
:101220000121384601F08DFA0121384601F0B3FA68
:10123000E07801281AD000221146384601F0EEF974
:101240002079012818D000220121384601F0E6F962
:10125000A078012808D132210C48049A01F0E6F860
:101260000121384601F085FA07B0F0BD01220021C6
:10127000384601F0D3F9E3E701221146384601F080
:10128000CDF9E5E70E000003200C0040709400004B
:101290001CB5009100216B46D971D4070123002CA5
:1012A00006D06C466371920705D46A46917104E0DA
:1012B0006C466171F7E769468B7102216A461171CC
:1012C000694600F0F9FB1CBD0104090E0006000C84
:1012D00001430B480B4A084000091140090108432B
:1012E00009490A4A01408908104080000143084822
:1012F000084A084040081140490008437047000070
:10130000F0F000000F0F0000CCCC000033330000E1
:10131000AAAA000055550000F0B58C46124E622175
:101320007160B0600020F0601921104F090213E0D5
:1013300063461B5C33600023BC6975682D0701D4CC
:10134000012305E0BD69651B2D022D0A8D42F4D3F2
:10135000002B06D0401C80B29042E9D3306880B2A6
:10136000F0BD0348F0BD00000000014000E000E0D7
:10137000FFFF000010B504460021204601F03AF9B5
:10138000002808D10021204601F060F9012802D18F
:10139000204601F09DF90121204601F02BF900289B
:1013A00008D10121204601F051F9012802D120463F
:1013B00001F060F910BD000010B500F00BFB174CF8
:1013C0001748214600F02EF815482146203000F03D
:1013D00029F813482146403000F024F810482146EF
:1013E000603000F01FF80E482146803000F01AF8F7
:1013F0000B482146A03000F015F82146084CC034B7
:10140000204600F00FF80022A1152046FFF740FF0C
:10141000002261152046FFF73BFF10BDFFFF0000D3
:10142000000C00407CB504460D466A46294620461D
:1014300000F006FB6A461279012A09D029462046A7
:1014400000F062FB01222946204600F0D5FC7CBD5D
:1014500001222946204600F0CFFC2946204600F014
:1014600053FB7CBD10B572B61B2000F073FC00214D
:10147000184800F0E2F80021174800F095FD174CDD
:1014800001212046FFF7CEFF02212046FFF7CAFFC9
:10149000124C082160342046FFF7C4FF102120467B
:1014A000FFF7C0FF0A2000F055FC0D4C002201217F
:1014B000204601F0B3F800221146204601F0AEF8B4
:1014C0000021204601F067F90021204601F039F99A
:1014D00010BD0000B030014003000004200C0040AB
:1014E0002C200140F8B5354800F0FAF83449088856
:1014F000401C088033490868401C08600025324EB3
:101500000127BF02314868438019C419E0880028C8
:1015100015D0401E80B2E080002810D1002D09D1E6
:10152000002201212A4801F079F8012200212848EF
:1015300001F074F80020A070E070207120816D1C13
:10154000EDB2032DDED3002520481F49684346181D
:101550000120800234182079002829D0401EC0B212
:101560002071002824D1E078882210421ED0002D5E
:101570000ED1174F0978384601F0F8F800221146CD
:10158000384601F04BF801221146384601F046F882
:1015900001202081E078000705D57078B17800023D
:1015A000C01D081820807D20E08001E0012020710E
:1015B0006D1CEDB2032DC7D3F8BD0000B030014063
:1015C0000A00002000000020140000200A0400008F
:1015D0002C20014089B2416170470422012903D0C7
:1015E00001689143016070470168114301607047D1
:1015F000026852085200C907C90F114301607047C1
:10160000026808239A43194011430160704702227F
:10161000012903D0016891430160704701681143BB
:10162000016070472022012903D0016891430160C5
:10163000704701681143016070478022012903D07F
:101640000168914301607047016811430160704770
:10165000026810239A431940114301607047012228
:101660005202012903D0016891430160704701686B
:10167000114301607047026840239A4319401143A7
:1016800001607047FF220132012903D001689143B4
:10169000016070470168114301607047022201290F
:1016A00003D08169914381617047816911438161F0
:1016B00070470422012903D08169914381617047F9
:1016C0008169114381617047012904D0816949080A
:1016D000490081617047816901221143816170472E
:1016E0000121C16170474268920892008907890F01
:1016F00011434160704742681C239A4319401143CB
:1017000041607047426840239A4319401143416049
:101710007047426880239A431940114341607047E3
:1017200089B201617047C9B281607047C9B2C160B6
:10173000704770B506460C4630462168FFF7E2FF59
:1017400030466168FFF7E5FF3046A168FFF7CBFF41
:101750003046E168FFF7CFFF30462169FFF7E3FF2E
:1017600030466169FFF7E2FF217E3046FFF777FFE1
:101770003046E169FFF77FFF25462035297830465E
:10178000FFF750FF3046616AFFF762FF297A304663
:10179000FFF778FF3046E16AFFF732FF297C3046D9
:1017A000FFF71BFF697C3046FFF731FF3046616B66
:1017B000FFF71EFF3046A16BFFF7B2FF3046E16B2B
:1017C000FFF708FF403421783046FFF772FF617859
:1017D0003046FFF763FFA1783046FFF775FFE178E9
:1017E0003046FFF72AFF70BD044A51694908490095
:1017F000C007C00F08435061704700000010004050
:10180000044A516903231B0299431840084350615D
:101810007047000000100040034A516902239943B9
:1018200018400843506170470010004010B504464E
:101830000020FFF7E5FF0120FFF7D6FF094800F081
:1018400037F8094800F034F80849216000E000BF8B
:1018500000F00EF80128FAD100F014F8002000F092
:1018600027F810BD96969696EAEAEAEACDAB3412CE
:101870000348006AC00701D001207047002070476C
:10188000001000400149012008627047001000402C
:101890000348006A800701D5012070470020704787
:1018A000001000400149022008627047001000400B
:1018B000014988617047000000100040044A116827
:1018C000890889008007800F084310607047000076
:1018D00000100040F0B505460E4617460220FFF7FF
:1018E0009BFF0F48FFF7E4FF0E48FFF7E1FF0024DE
:1018F0000FE00220FFF790FF305D28706D1C00E0C4
:1019000000BFFFF7C5FF0028FAD0FFF7CBFF641C2C
:10191000A4B2BC42EDD30020FFF7CAFFF0BD000027
:10192000A5A5A5A5F1F1F1F170B50024202801D2FB
:10193000022070BD450201208004854201D90220A9
:1019400070BD0D480D4E814203D10121304600F09B
:101950002BFB2846FFF76AFF0021304600F024FBEE
:10196000A0002958491C01D0012070BD641CA4B2FC
:10197000802CF5D3002070BD0FF0AB1205000002E3
:10198000FFB581B005460F46002400260F4883426C
:1019900003D101210E4800F007FB39462846039A7F
:1019A000FFF798FF00210A4800F0FEFA07E0285DE3
:1019B000395D884201D0012604E0641CA4B203987A
:1019C0008442F4D3304605B0F0BD00000FF0AB12F6
:1019D0000500000200B500F01FF80E4800F096F870
:1019E0000C48203000F092F80A48403000F08EF8A1
:1019F0000848603000F08AF80648803000F086F829
:101A00000448A03000F082F80248C03000F07EF8B0
:101A100000BD0000000C0040084907480862486209
:101A2000886200208863C8630449403108604860C8
:101A30008860C860704700000000FFFFC00C0040D5
:101A400070B5002301252C469C400C40002C02D18F
:101A50005B1C102BF7D3102B20D2116006680E40B0
:101A6000DE400024012E1AD0D47146680E40DE40BC
:101A7000012E16D0947186680E40DE40012E12D0E1
:101A80005471C0685900C8408007800F00280CD0EE
:101A900001280CD002280CD00320107170BDD57124
:101AA000E3E79571E7E75571EBE7147170BD1571C8
:101AB00070BD0220107170BD70B500220126334642
:101AC00093400C681C409C421AD104689C43CD7919
:101AD00095402543056044689C438D799540254396
:101AE000456084689C434B79934023438360540052
:101AF0000323A340C5689D430B79A3402B43C360D8
:101B0000521C102ADBD370BD416170470021016077
:101B100041608160C1600161704700000249014875
:101B2000086070475A5A341200140140044A516840
:101B3000890889008007800F0843506070470000C3
:101B40000014014005490422012803D0486890434D
:101B5000486070474868104348607047001401406F
:101B600010B50121054800F01FFAFFF7D7FF032049
:101B7000FFF7DCFF0020FFF7E5FF10BD05000001C7
:101B800038B502206946087064204870800048809B
:101B9000044C2046FFF730FA01212046FFF74DFDA7
:101BA00038BD0000B030014000210348C9438162C4
:101BB000C1620163416370470002004010B588B004
:101BC0000F2000040690012469460C7706A800F057
:101BD0007FFA0020019002900390049069460C75F2
:101BE000487501A800F0E2FA08B010BD10B5012058
:101BF000FFF764FE002000F015FAFFF7DFFFFFF7A4
:101C0000D3FF002000F0C4F90120FFF7D3F9002032
:101C1000FFF7C0F9012000F0E7FA10BD10B5074842
:101C2000074C60610321081F00F0C4F80020A06188
:101C3000072020610520206110BD0000FFFFFF008C
:101C400000E000E010B572B6FFF78AFFFFF766FF0D
:101C5000FFF7CCFFFFF7E2FF042000F073F9FFF776
:101C6000ABFB002000F0B8FA10BD0000F3B581B066
:101C70000025364A01987D235043354A80180122B9
:101C800092028418E380A2780026130000F0C5FEBB
:101C90000805111B4747232E3947682901D0AA257B
:101CA0003EE0E27812091201E2700122A270268160
:101CB00036E02289022A33D3427812025218228057
:101CC0000222A2702CE0682901D0AA2528E0E67043
:101CD0000522A27024E022882389D21C934201D1DC
:101CE0000627A77093421BD9AA2519E022882389C9
:101CF000521D934201D10727A770934210D9AA25FC
:101D00000EE0162901D0AA250AE00822A270E6807A
:101D10000F222271E27804231A43E27000E0AA2520
:101D2000002D04D1228911542089401C2081019862
:101D300000F040FE002800D0AA25AA2D04D1A670EC
:101D4000E07880088000E070A078FEBD0A04000002
:101D500014000020002805DBC106C90E01208840C0
:101D6000014908607047000080E100E0002805DBC1
:101D7000C106C90E01208840014908607047000073
:101D800080E100E070B504460D46032D00D9022520
:101D90002046FFF7EBFF2946204600F00BF8002C09
:101DA00005DBE106C90E012088400149086070BDCD
:101DB00000E100E08307FF22DB0E9A408907090E4D
:101DC0009940002808DB830809489B00181803681D
:101DD00093430B43036070470007000F08388308E4
:101DE00004489B001818C36993430B43C3617047B1
:101DF00000E400E000ED00E01CB5009100216B461E
:101E0000D9710123002A08D06A4653716A4691713C
:101E100013716946FFF750FE1CBD6A465171F5E724
:101E200010B502460020D0601061106050609060D4
:101E300000F02CF9012808D100F014F9000C0F284B
:101E40000AD03E49401C4843D06000F0E1F801242C
:101E5000E403012803D01EE03948D060F5E700F024
:101E6000F1F8400801280DD002280ED0234600F0DA
:101E7000C5F8000C401C5843106100F0EBF808282E
:101E800006D008E07D231B02F1E7D068030AEEE7E5
:101E900010694000106100F075F9002822D0012877
:101EA00023D0022825D0032825D0D068106000F068
:101EB00019F9000A042821D0052823D0062825D0A6
:101EC000072827D01068506000F020F9000C042883
:101ED00024D0052826D0062828D007282AD05068E4
:101EE000906010BDD0681060E1E77D2000031060B5
:101EF000DDE71460DBE710691060D8E71068400880
:101F00005060E1E7106880085060DDE71068C008A5
:101F10005060D9E7106800095060D5E75068400864
:101F2000906010BD50688008906010BD5068C00877
:101F3000906010BD50680009906010BD00127A00DA
:101F40000051250200B5114A012812D00F4940392D
:101F5000022810D0032810D0042810D01068C243E3
:101F6000010C92B291420CD14006400E00F0A8F84C
:101F700000BD1068F3E7C86BF1E7886BEFE708690D
:101F8000EDE7402000F09CF800BD000040FDFF1F81
:101F9000044A516849084900C007C00F084350600F
:101FA000704700004002004010B500220F231B06BE
:101FB000FF24034024061B1910D01B1911D01B1934
:101FC00012D0E34200D10C4A002A06D001238340FC
:101FD00000290CD010681843106010BD064A0C3A56
:101FE000F2E7054A083AEFE7034A121FECE71068E8
:101FF0009843106010BD0000340200400248806920
:102000000249084070470000000200400000FF0342
:1020100003488069C00701D0012070470020704745
:10202000000200400649012804D0886940084000A9
:1020300088617047886901221043886170470000F9
:1020400000020040024880690621084070470000F5
:1020500000020040024880690821084070470000E3
:1020600000020040024800690F210904084070473F
:1020700000020040044A11690F231B0499431840D1
:1020800008431061704700000002004003480069E7
:10209000C00701D0012070470020704700020040B7
:1020A0000649012804D008694008400008617047CB
:1020B00008690122104308617047000000020040D7
:1020C00040060249400E486170470000000200408F
:1020D00010B504462068FFF7CDFF2079FFF7E0FF39
:1020E00010BD00000248C06807210902084070477F
:1020F00000020040044AD16807231B02994318409C
:102100000843D06070470000000200400248C068E9
:10211000072109040840704700020040044AD168C2
:1021200007231B04994318400843D0607047000000
:1021300000020040034AD168D30399431840084382
:10214000D0607047000200400649012804D0C868EA
:1021500040004008C8607047C8680122D207104399
:10216000C86070470002004005490A04012803D0F6
:10217000C8689043C8607047C8681043C86070471B
:10218000000200400248C0688007800F70470000CE
:1021900000020040044AD168890889008007800F46
:1021A0000843D060704700000002004010B50446AC
:1021B0002068FFF7EFFF6068FFF79CFFA068FFF75C
:1021C000ADFFE068FFF7B6FF207CFFF7CDFF607C36
:1021D000FFF7BAFF10BD000040050249400D08633B
:1021E000704700000010014010B5012818D00020F1
:1021F00000F079F8002000F068F8002000F058F8AE
:10220000002000F048F8002000F038F8002000F02E
:1022100028F8002000F018F8002000F008F810BDA1
:10222000012000F060F8012000F04FF8E5E70121FF
:1022300089078A15012803D0486890434860704791
:102240004868104348607047012189074A150128F2
:1022500003D048689043486070474868104348601E
:102260007047012189070A15012803D04868904367
:1022700048607047486810434860704701218907EB
:10228000CA14012803D048689043486070474868E2
:10229000104348607047012189078A14012803D040
:1022A00048689043486070474868104348607047EA
:1022B000012189074A14012803D0486890434860E7
:1022C000704748681043486070470121890701281A
:1022D00004D04868400840004860704748680122C0
:1022E000104348607047012189070222012803D06A
:1022F000486890434860704748681043486070479A
:1023000002490148086070470048E80110000020B9
:1023100070B50F4902464A430E49521801218902FD
:10232000541821892388994202D30220E08070BD8D
:102330008D5C002806D12946074800F017FA0648A8
:102340002C3885632089401C20817D20E08070BD71
:102350000A040000140000202C20014010B5154C88
:102360000021204600F046F901280CD1002120462A
:1023700000F06CF9012806D1204600F0A9F9C1B29D
:102380000020FFF773FC0121204600F033F90128FB
:102390000BD10121204600F059F9012805D1002078
:1023A000FFF7B6FF204600F065F92046FEF7E2FF92
:1023B00010BD00002C20014070B50C46FEF7BAFDA0
:1023C00005462046FEF7B6FD2946FEF7D7FC7F21DD
:1023D000C90588420CDDFEF7A7FC0022054BFEF77D
:1023E000E8F80022044BFEF7D7F8FEF729FB70BD92
:1023F000002070BD0000F03F0000E03F044A9168FB
:102400000F23DB0299431840084390607047000097
:1024100000200140044A9168C90AC9024005400DE4
:10242000084390607047000000200140F8B50F4657
:102430001446002858D0844256D3642F54D2FEF755
:1024400079FD05462046FEF775FD2946FEF796FC08
:10245000FEF76AFC0022254BFEF79EF8FEF7F0FA25
:10246000441E6005400DFFF7D5FF214E20091FD007
:102470002009FEF75FFD0546601CFEF75BFD29465F
:10248000FEF77CFCFEF750FC04460D463846FEF78E
:1024900024FB00223346FEF7AFF822462B46FEF718
:1024A0001FFB0022114BFEF777F8FEF7C9FA17E081
:1024B000601CFEF73FFDFEF737FC04460D4638462C
:1024C000FEF70BFB00223346FEF796F822462B461A
:1024D000FEF706FB0022054BFEF75EF8FEF7B0FAAA
:1024E0000007400CFFF78AFFF8BD00000000E03F46
:1024F0000000594070B506460C463046616800F051
:102500002BF93046A16800F009F9254620352978D5
:10251000304600F0BBF83046216900F035F9217BE8
:10252000304600F0D8F83046616900F03FF9304697
:10253000E16900F014F922780021304600F06EF8CD
:1025400062780121304600F069F86978304600F081
:10255000A8F8A978304600F0AFF8617B304600F06B
:10256000F0F8217E304600F016F9617E304600F02A
:1025700000F970BD30B50C4689B00546114620689B
:10258000FFF71AFF0190002108A80170207940226E
:1025900001281DD0022827D00291012008AB187015
:1025A000A079002823D0049268460170417001731D
:1025B00020200590079108A84170817068464173FA
:1025C0000176417669462846FFF794FF09B030BD91
:1025D0006079012803D0022803D00291E0E702923B
:1025E000DEE780200290DBE7C0200290D8E704916C
:1025F000DAE70000074A80180009002900D1401CD2
:102600000549096801228240114201D0012070472A
:1026100000207047F4DFFEBF00200140094BC018C6
:102620000009002900D1401C0121074B012A04D0D8
:102630001A6881408A431A6070471A6881400A43C9
:102640001A607047F4DFFEBF00200140074A80187F
:102650000009002900D1401C054949680122824037
:10266000114201D00120704700207047F4DFFEBF07
:10267000002001400B21C94340180009012181407D
:1026800001484160704700000020014004220129F8
:1026900003D0C1699143C1617047C1691143C161F0
:1026A00070470222012903D0C1699143C16170477B
:1026B000C1691143C1617047012904D0C16949084A
:1026C0004900C1617047C16901221143C16170476E
:1026D0008068C0B270472022012903D0016891436D
:1026E000016070470168114301607047006840074E
:1026F00001D50120704700207047016804229143F2
:10270000016070470068800701D5012070470020F4
:102710007047016802229143016070470268C0233C
:102720009A4319401143016070470068000701D5C2
:102730000120704700207047016808229143016022
:1027400070471022012903D001689143016070474E
:10275000016811430160704789B2016170474269A5
:102760000C239A431940114341617047C9B2C160BB
:1027700070470822012903D04168914341607047A6
:102780004168114341607047426840239A431940B1
:102790001143416070471022012903D041689143E1
:1027A000416070474168114341607047426820238F
:1027B0009A4319401143416070470000F0B5FFB0E3
:1027C00086B0074675483946414375480C180120C4
:1027D00080022618F078FB210840F0706078A1781C
:1027E0000002001D081885B221462A460020FEF787
:1027F00093FD80B2615D62195278090289188142A5
:1028000075D1217980A8017362794273A379607AC6
:102810001B061843E379257A1B042D022B4318432A
:1028200082900025152930D15C495E4B4F435C49AD
:1028300079180A315C4F082A3AD006DC012A0CD0FC
:10284000022A23D0042A20D129E0FD2A50D057485B
:10285000FE2A7ED0FF2A18D17EE03B600027FFF7DA
:102860005DF938465049203080B20968FFF75CF8BE
:102870007F1CBFB2FF20E1308742F0D31F2040020F
:10288000FEF7A8FB48480021016067E019463B605D
:10289000C001000CFFF748F8002038605EE0012519
:1028A0006D020B4601462A461846FDF794FC55E09A
:1028B0003D4A3C4B136001225202FFF761F8074684
:1028C0003B480178002908D1012101701F20354BB8
:1028D000042282A94002FFF753F833490020086020
:1028E000002F3BD0207940210843207136E051E091
:1028F0000121490201A8FDF7CDFC0625A17A607BE4
:1029000009060843E17A227B0904120211430843B5
:1029100081900020002714E0FEF7D6FC80B284905E
:1029200082980122C119520201A8FDF754FC01222C
:10293000520201A98498FEF7EFFC80B2FF37FF37FF
:10294000023781998F42E7D3010AA173E07305E052
:10295000FFE70021017001E05521017020798021FD
:1029600008432071AD1D280A6070E9B2A170000211
:10297000001D081885B221462A460020FEF7CCFC2F
:10298000010A61556119487016208870F078082195
:102990000843F0707FB006B0F0BD00000A040000EC
:1029A000140000200FF0AB120C00002008000020E3
:1029B0000400002070B50024002809D1054D2846E8
:1029C00000F00AF8012803D1AA24284600F019F8DB
:1029D000204670BD2C20014010B504462046FFF76C
:1029E000A4FE01280BD02046FFF780FE012806D068
:1029F0002046FFF787FE012801D0002010BD0120EE
:102A000010BD10B504462046FFF796FE2046FFF79E
:102A100074FE2046FFF77DFE10BD30B47446641E80
:102A20002578641CAB4200D21D46635D5B00E31851
:102A300030BC18477047000086B0FFF703F901204B
:102A400069460870487000268E70C8704B21C90115
:102A50000291694608734E738E731E48FEF732FB6F
:102A6000FFF78EF862B61C4F3E707E807E601B4D75
:102A7000FFF754F8E878400704D50020FFF79EFEE2
:102A8000FFF74CF838780028F2D17888FA28EFD38D
:102A9000FEF7E8FC7E601F204002016805910029D6
:102AA00009D001229204914205D24868096881F355
:102AB00008888047DCE70124A4030594084B04221E
:102AC00005A9FEF75DFF6068216881F308888047EB
:102AD000CEE700002C200140080000201404002054
:102AE0000FF0AB1280807F7E7D7C7B7A7978777661
:102AF00076757473727171706F6E6E6D6C6C6B6ADB
:102B00006A69686867666665646463636261616078
:102B1000605F5F5E5E5D5D5C5C5B5B5A5A595958F5
:102B2000585757565655555554545353525252515F
:102B3000515050504F4F4F4E4E4D4D4D4C4C4C4BB5
:102B40004B4B4A4A4A4949494848484747474746FC
:102B50004646454545444444444343434342424238
:102B6000424141418182838485868788898B8C8D0F
:102B70008E8F919293959697999A9C9D9FA0A2A3D0
:102B8000A5A7A8AAACAEB0B2B3B5B7B9BCBEC0C217
:102B9000C5C7C9CCCED1D4D7D9DCDFE2E6E9ECF0A9
:102BA000F3F7FAFEC42B0000000000201400000020
:102BB00004010000D82B0000140000206C14000059
:102BC00020010000000000000000000000000000E4
:082BD000000000000048E801CC
:04000005000000C136
:00000001FF
