:020000040000FA
:1000000080560020AD010000B5010000B7010000DE
:1000100000000000000000000000000000000000E0
:10002000000000000000000000000000B901000016
:100030000000000000000000BB010000BD01000046
:10004000BF010000BF010000BF010000BF010000B0
:10005000BF010000BF010000BF010000BF010000A0
:10006000BF010000BF010000BF010000BF01000090
:10007000D9280000BF010000BF010000BF0100003F
:10008000BF010000BF010000BF010000BF01000070
:10009000BF010000BF010000BF010000BF01000060
:1000A000BF010000BF010000BF010000311A0000C5
:1000B000BF010000BF010000BF010000BF01000040
:1000C00000F002F800F046F80CA030C808382418F8
:1000D0002D18A246671EAB4654465D46AC4201D180
:1000E00000F038F87E460F3E0FCCB646012633426C
:1000F00000D0FB1AA246AB46334318471C41000010
:100100003C410000103A02D378C878C1FAD85207AF
:1001100001D330C830C101D504680C6070470000BD
:100120000023002400250026103A01D378C1FBD813
:10013000520700D330C100D50B60704710B5642959
:1001400002D100F0CDF810BD002010BD1FB51FBDBD
:1001500010B510BD01F0A8F91146FFF7F7FF03F045
:10016000B9FA01F0C0F903B4FFF7F2FF03BC03F0E2
:100170003FF8000070B505460C46164602E00FCC6D
:100180000FC5103E102EFAD2082E02D303CC03C5A1
:10019000083E042E07D301CC01C5361F03E02178A9
:1001A0002970641C6D1C761EF9D270BD074880470B
:1001B00007480047FEE7FEE7FEE7FEE7FEE7FEE74B
:1001C00004480549054A064B704700007D28000099
:1001D000C10000008044002080560020804600209E
:1001E00080460020704770B500252C46AD1A9C4112
:1001F00012DA00252C462D1A8C4102DA01F032F871
:1002000070BD002440428C41214601F02BF80024AF
:1002100040428C41214619E000252C462D1A8C4184
:100220000ADA002452429C41234601F01BF80024C4
:1002300040428C41214670BD002452429C414042C4
:10024000234600248C41214601F00CF80024524240
:100250009C41234670BD00000FB4054910B503AAA8
:10026000029801F0F1F810BC08BC04B01847000077
:1002700024000020F8B50E460446002020622046E7
:10028000E1688847002829D0252802D06268A16843
:1002900020E0E16820460027884705001ED0284658
:1002A0004138192802D80127FF022035324620465E
:1002B00027602946FFF742FF002808D0012804D014
:1002C000F61DF608F6000836D9E7361DD7E762684E
:1002D0002846A1689047206A401CCFE7206AF8BDF5
:1002E000F7B5002575291068009914A611D0C046ED
:1002F000C046002802DA404211A608E000990968C9
:100300008A0701D50FA602E0490704D50EA60125EC
:1003100001E0C046C046009F0024243704E001F0FD
:10032000A7F830313955641C0028F8D12B463246E5
:100330002146009801F017F8FEBD00000000000003
:100340002D0000002B00000020000000034610B527
:100350000B439B070FD1042A0DD308C810C9121FE5
:10036000A342F8D018BA21BA884201D9012010BDA1
:100370000020C04310BD002A03D0D30703D0521C75
:1003800007E0002010BD03780C78401C491C1B1BA3
:1003900007D103780C78401C491C1B1B01D1921E0D
:1003A000F1D1184610BDF8B5042A2CD3830712D01A
:1003B0000B78491C0370401C521E83070BD00B782E
:1003C000491C0370401C521E830704D00B78491C43
:1003D0000370401C521E8B079B0F05D0C91ADF000B
:1003E0002023DE1B08C90AE0FFF7C4FEF8BD1D4646
:1003F00008C9FD401C46B4402C4310C0121F042AFB
:10040000F5D2F308C91A521EF0D40B78491C0370B8
:10041000401C521EEAD40B78491C0370401C012A70
:10042000E4D409780170F8BD01E004C0091F042973
:10043000FBD28B0701D50280801CC90700D0027057
:10044000704700290BD0C30702D00270401C491E20
:10045000022904D3830702D50280801C891EE3E7AA
:100460000022EEE70022DFE7002203098B422CD3B3
:10047000030A8B4211D300239C464EE003460B43F4
:100480003CD4002243088B4231D303098B421CD356
:10049000030A8B4201D394463FE0C3098B4201D348
:1004A000CB01C01A524183098B4201D38B01C01A80
:1004B000524143098B4201D34B01C01A52410309F7
:1004C0008B4201D30B01C01A5241C3088B4201D3A6
:1004D000CB00C01A524183088B4201D38B00C01A53
:1004E000524143088B4201D34B00C01A5241411A7A
:1004F00000D201465241104670475DE0CA0F00D05D
:100500004942031000D34042534000229C46030955
:100510008B422DD3030A8B4212D3FC22890112BADB
:10052000030A8B420CD3890192118B4208D38901B3
:1005300092118B4204D389013AD0921100E08909CB
:10054000C3098B4201D3CB01C01A524183098B42AC
:1005500001D38B01C01A524143098B4201D34B0195
:10056000C01A524103098B4201D30B01C01A5241F8
:10057000C3088B4201D3CB00C01A524183088B427F
:1005800001D38B00C01A5241D9D243088B4201D308
:100590004B00C01A5241411A00D2014663465241F3
:1005A0005B10104601D34042002B00D549427047F2
:1005B00063465B1000D3404201B50020C046C046F0
:1005C00002BD704770477047F0B50C46871A9C41D2
:1005D0000D46861A9D4103D2C01BA141D219634129
:1005E0000D0D1F0DC94EEC1BAE435CD07F057F0D7A
:1005F0000026002F51D02D05AC46A943DD02012372
:10060000ED0A1B051D4320231B1B24D41746E7407E
:10061000381871412F46E740CC199D4028183146C3
:1006200061410C0D27D161449A4013D50023401C31
:10063000594152000ED14008400001224B005205A2
:10064000D34207D305204007C14201D5B04900E09D
:10065000B0493046F0BD6B00002A00D001229A1844
:100660001F23203C1B1B01D5002302E0E540281876
:1006700071410C0DD7D0012424050919C407CD07F9
:1006800040084908E40F28436144002CD5D00024D9
:10069000401C61419A40D0D1CDE76A05520DD9D1B5
:1006A000C90FC907D5E79C4D4E00002801D0012491
:1006B00000E0002434195F00002A01D0012600E088
:1006C0000026BE19954FAC420CD8AE420AD8B442AF
:1006D00006D001256D05EC42BCD010461946F0BD90
:1006E0009942FCD000203946F0BDF0B51FB40C464D
:1006F0000F46811A9F412546861A9D4106D2012543
:10070000ED076F40401ABC4152187B41210D1E0D70
:100710008D1BAC467D4D8D437ED075056D0D7CD017
:100720000D05AE46AC431B031B0B794D52429D4158
:10073000202366469B1B14D31746F7403818002623
:100740000090744160462F460741E41900989D408F
:100750002818664116D4714671189A4025D5012390
:1007600020E093182A466A415200002B00D0521C08
:100770001E23203E9B1B002B61DD3541EE17281800
:100780006641E8D5001876415B1C9A4000D3401CB6
:100790004B05F3181524E34010D3002B52D07146BB
:1007A0007118D30FC01802D3491C05B0F0BD012346
:1007B000DB079A42F9D140084000F6E701225205D2
:1007C000B21801D1002853D00123CC0ADB0299438F
:1007D000891E002A08D1020C03D0020C0004103933
:1007E00002E00246002020390023550B05D11202F9
:1007F0000823550B01D152010D23550C01D11201D3
:100800001B1DD50C01D192009B1C150D01D152006E
:100810005B1C2025EE1A01E02CE022E00546F540A5
:1008200015439840CA1AE10769181305C918002A28
:10083000BBDA032040070818C10FC9070FE0714653
:100840006118B2E7F10740080843711071444A008B
:100850000CD001235B059A42A7D2C90FC90700201B
:10086000A3E74905490D26D1002001E00028F4D175
:1008700000219AE7284D6600002801D0012100E000
:10088000002171185F00002A01D0012600E0002637
:10089000BE19224FA94210D8AE420ED8B14208D09C
:1008A00001256D05E94206D01946A80241401046CF
:1008B0007BE79C4201D0214677E70020394674E768
:1008C00010B50C465C4005D50124E4076340FFF7F2
:1008D0000CFF10BDFFF778FE10BD30B40C465C4035
:1008E00004D50124E407634030BC6DE630BCFCE66F
:1008F00070B50124E40761400D465D4002D4FFF766
:1009000063FE70BD6340FFF7F0FE70BDFF0700009F
:100910000000F0FF0000F07F0000E0FF0000F87F23
:10092000F0B5F94D0C091E092C402E402F468BB016
:10093000A7437DD0B543FCD0002E7AD0002CFCD04C
:100940000D465D40ED0F2543AC1BFF25AD0464193A
:100950000894C502440DC9022143500DDC02044332
:100960000120C00701430443D2020191200C110C65
:1009700000958C46010423468B430A916146090485
:10098000E24D8A430991010A7D4449198039097869
:1009900005464D4301266D18F605751B6943C90CC4
:1009A000640B891C4C436418B5012C1B250C2E04C8
:1009B000B4434C434D43210C691889090591009DAE
:1009C000E90701D00121C90704912C460199670864
:1009D000CD072F434C08059DE10B4D432D0C2946B7
:1009E0006646754302950D4645432E46029D7D1B86
:1009F000B44100950D465D4301942C0C2F040D4627
:100A00005543AE462D0C3D43029503947546049C18
:100A10002D04641B049406D2029C039D641C0026D2
:100A200075410395029401AC70CC009F7D1B01E0E1
:100A30003EE162E1B44109040095079101940599F2
:100A4000A4086143090C0C464443650BE7040C46BB
:100A500066467443A646640B3C4303950294744671
:100A6000049DE4042C1B049406D2029C039D641C88
:100A7000002675410395029401AC70CC009F7D1B4C
:100A8000B44101940C465C430095650FE7000C46A9
:100A90005443A646640F3C43039502947446049D58
:100AA000E4002C1B049406D2029C039D641C0026C7
:100AB00075410395029401AC70CC009F7D1BB4413D
:100AC000AE09AF06049DC900AD092F43049DA406DD
:100AD000AD060495079D344369180791059DE10B08
:100AE0004D432D0C29466646754302950D464543F8
:100AF0002E46029D7D1BB44100950D465D43019439
:100B00002C0C2F040D465543AE462D0C3D4302954B
:100B100003947546049C2D04641B049406D2029C25
:100B2000039D641C002675410395029401AC70CCB2
:100B3000009F7D1BB44101948C050694079C890A93
:100B4000611800950791019C0599A4086143090C5F
:100B50000D464543680BEF040D46644665436C0B38
:100B60003C43049FED047D1BAC4602D20025641C6F
:100B70006841009E019D371B8541084658430195F9
:100B80000C46460FC5005443600F28436546E400F9
:100B90002C1B02D20025401C6E41019D3F1AB5411D
:100BA0002846BD09800628438446A009BF064E0298
:100BB0000699A40676180743079D002068410A9904
:100BC000079019430020099B00906046FF191343CA
:100BD0004041E20F64003A43A4460446D71A8C41D0
:100BE000A04203D90120009020463A46C70F94182E
:100BF00040416246D20F2243644664000494009C44
:100C0000BE466400D71AA446044602978C41774634
:100C1000002F01D1A04204D96046401C8446029AAC
:100C20002046C40FA64694184041049A0546D20FA8
:100C3000224364466400D31A8D417146002901D1D4
:100C4000A84202D928461A46641C104301220028F3
:100C500000D0164361020020079B891904465C41BD
:100C60000223002C02DB491813466441089DCE0A7A
:100C70002D145D194B056705E10A2C050D1908991E
:100C80003E43C9076940002B08D0934006D3002299
:100C9000761C5141002B01D1760876001C4A002DAC
:100CA00043DB154241D0AA433FD030460BB0F0BDE4
:100CB00006180D464D41174C7642AC411AD3951893
:100CC0001C465C41134A6D42A24113D301225205D6
:100CD0004C00D4420AD15C00D4420BD04B4002D528
:100CE00092021143E2E749004908DFE75940C90F82
:100CF000C90718E000200849D8E7054801420DD18E
:100D00000342F7D0F2E700000000FF07CC370000F5
:100D10000000F07F0000E0FF0000F87F114859401C
:100D20000143C01241400020C0E70123089A9B06FE
:100D30009A4205DC032252078918C90FC907B5E793
:100D4000052252078918074A1143D2125140ADE7D4
:100D500070B515461C4602460B4628462146FFF74D
:100D6000DFFD70BDFFFFFF7F0346CA02400D10B5D7
:100D700010430A1504D00124E4072043002A05DBB0
:100D80000A4CA21A04D4D040FF2A00DD002010BD76
:100D90004A00002B01D0012000E0002010180122A1
:100DA0005205D042F2D8C817C04310BD1E0400003F
:100DB0001F22030C02D10F22000402D0030E03D025
:100DC00004E00020014670470002083A030F01D1F9
:100DD0000001121F830F01D18000921E002801DB49
:100DE0004000521E120551184205C012411810460B
:100DF0007047C10FC90700D040420122920711433A
:100E0000D6E701218907D3E7F0B58B4C0F092546BA
:100E100089B0BD437BD01D092646AE43FAD00E46AD
:100E20005E402740F60F3E43254071D02401214209
:100E3000FBD0FF24AD19A4042D1B039501252D051E
:100E4000DB02DB0AC9022B43C90A29431E0109013F
:100E5000040F130F050121431701880B82039143EF
:100E60002D098C46A90B1E438A039543B30B9A03A5
:100E700096433F09BA0B9403A74302962E467E433E
:100E80000497B6464E19D7190C4601965443059758
:100E90007E43371B7646BF1B3601B646BE0B36195E
:100EA00000967646BC043719009C01D3641C00945C
:100EB0006400002F01D001263443029E049F754335
:100EC00066467E430496760034196E003419009409
:100ED000029C019E1C196643751BAE46069465462E
:100EE0004519059C05956C43594375460891691A47
:100EF0000191049E01465143A41B0491611A009C78
:100F00000791E10605D061090122114302E072E078
:100F10006EE06109089D00272C0A2D066918049DC2
:100F20007C412A0A2D066918019D6241AC0DAD0273
:100F30006D185441079A910D920255196141029A18
:100F4000644658435443069B059A5A43121A131B8E
:100F50009A0E9B015B187A41010B0005C3185141A1
:100F6000220A200644195A419A4200D2491C012003
:100F70004002814203D315230226F64302E01423E4
:100F80000326F6432020C51AA9401746AF40DA4091
:100F90000A4320460399D8400914731819055118BB
:100FA000039A3843D2075140AC4009D00122944003
:100FB00006D30022401C5141002C01D140084000C2
:100FC0001E4A934212D3012203989206904207DBF5
:100FD0000520400709181A480143C012414004E0A7
:100FE000032040070818C10FC907002009B0F0BD51
:100FF0000020F107FAE705180C464C4111486D42F4
:10100000A04115D394181A465A410E4864429041A3
:101010000ED301204A004005824209D35A00824281
:1010200006D35940C90F084AC90700201143DDE71C
:1010300000200649DAE700000000FF07FE07000075
:10104000FFFFFF7F0000E0FF0000F07F0000F87F5F
:101050000121C9050123411842001B06D3185B0E6C
:101060000AD0C1100722D206891840075242D14245
:1010700001D5520089187047090208D50146002A97
:1010800003D0C10FC90700207047104670474202C5
:1010900002D0002002497047072109050143F4E707
:1010A0000000F87FF0B5FF252D04C609C209FF270F
:1010B00004462E400137CB093E4348402A402B408E
:1010C0000746002A6BD0002B69D0AA4267D0AB42FA
:1010D00065D0002800DA32460125ED0529432C436E
:1010E00009022002090AD21A4B0C7F24E31A434C4E
:1010F000000A7C44E35C7D242404121914145B0070
:10110000A218884201D3521C00E0400049420C461C
:101110005C4324115C43DB016415E318040A5C435F
:10112000C502200D0C4644436419250A5D43230380
:10113000EC0C0D46654300030019EB184C42A3422A
:1011400001D35B18401CD4052018002B07D05B008E
:10115000C91804D3401C002901D1400840003F2198
:1011600089048A4209D3002A08DC1106090F04D039
:10117000032149074018C00FC007F0BD01224100FC
:10118000120689187F2252069142F6D2052149079C
:10119000C84201D59010F0BDFF20C005F0BD002F62
:1011A00000DA32461648AA4207D2AB4205D21902EB
:1011B000090E17D0F80FC007F0BDFF2563002D06FC
:1011C000AB42F9D84900A942F6D8AB4201D1A942B5
:1011D000F2D0A94201D1002101E061004908D00507
:1011E0000843F0BD1102090EFBD0FF200243D005D9
:1011F000F0BD0A460146104654E70000E230000008
:101200000000C07F1F22030C02D10F2200041CD05B
:10121000030E01D10002083A030F01D10001121F91
:10122000830F01D18000921E002801DB4000521E76
:10123000D2055118021251181922904004D3491CAA
:10124000002801D14908490008467047C10FC90765
:1012500000D04042012292071143D3E701218907C0
:10126000D0E77047FEB5054610460C46184373D0CC
:10127000AE468C460020AD1A01469C4167D36646B7
:10128000002701243D46B61A9D4102D313463A4633
:101290002124654676462F04360C3E432D0CB61AA3
:1012A0009D4104D3150C1B042B43120410346546D6
:1012B00076462F06360A3E432D0AB61A9D4104D3C0
:1012C000150E1B022B4312020834654676462F0783
:1012D00036093E432D09B61A9D4104D3150F1B0153
:1012E0002B431201241D65467646AF07B6083E43E0
:1012F000AD08B61A9D4104D3950F9B002B43920075
:10130000A41C65467646EF0776083E436D08B61A7C
:101310009D411AD392185B41641C16E00018764672
:1013200065464941B71A9D410191009009D3604635
:10133000B11A98418E468446009801990025401CB8
:101340006941DD0752082A435B08641EE6D57246F0
:10135000634603B0F0BDFFE700200146C046C0462B
:101360002A462346F5E7FFB504460D4681B02430F2
:1013700000902168880604D51022E069914321601D
:1013800000E00120A84201DD471B00E0002704988F
:10139000A1697A191018081AA0612078C00602D431
:1013A0002046C046C046002608E003986268A1684F
:1013B000805D9047206A401C761C2062049886421B
:1013C000F3DB2078C0060AD52046C046C04606E0BA
:1013D0006268A16830209047206A401C206238462D
:1013E0007F1E0028F4DC07E000986268A168405D79
:1013F0009047206A401C206228466D1E0028F3DCBE
:101400002046C046C0462078000602D5022005B01E
:10141000F0BD0120FBE7000001694A1C0261087869
:10142000704700B58FB002910021059105490193E5
:1014300079440391114604906846FEF71BFF0FB0F4
:1014400000BD0000E5FFFFFF084B70B50D467B4473
:10145000FFF7E7FF0446284600F022F8002802D0F4
:101460000020C04370BD204670BD00000B1F00006F
:1014700001468008081A02091018020A1018020C06
:101480001018C008820012185200891A01E0401C8E
:101490000A390A29FBD270470048704720440020CF
:1014A000C0688021084070477546FFF7F5FFAE46DB
:1014B000050069465346C008C000854618B020B5EF
:1014C000FEF77EFE60BC00274908B6460026C0C570
:1014D000C0C5C0C5C0C5C0C5C0C5C0C5C0C5403DEC
:1014E00049008D46704710B50446C046C0462046A8
:1014F000FEF739FE10BD00000649012804D04868F7
:101500004008400048607047486801221043486026
:1015100070470000002801400649012804D00868EF
:1015200040084000086070470868012210430860C6
:10153000704700000028014070B50546064C0121A7
:10154000204600F0EFFF284600F016FC0021204660
:1015500000F0E8FF70BD00000500000270B592B019
:1015600006460C46F720000130184009009000257F
:10157000019569460978002913D001291CD0022958
:1015800025D0032948D103950121244800F0CAFF42
:1015900021781D2000F0B4FE61780120002921D0BF
:1015A00021E003951D480121C01E00F0BBFF2178FA
:1015B0001A2000F0A5FEEFE7039518480121801ED0
:1015C00000F0B0FF21781B2000F09AFEE4E70395BD
:1015D00012480121401E00F0A5FF21781C2000F0D8
:1015E0008FFED9E760706178491E059106956946BE
:1015F0000877089508A90D710A950D7510A90D7148
:101600004D71887160880649081A0F9010A9CD7134
:1016100001A9304600F033FB12B070BD0500000494
:10162000FFFF0000F0B587B007460C4601216D486A
:1016300000F078FF0B20C04338184009019069463C
:101640000879694E684D2036030001F0BEFC06049F
:101650001A3E52677D9063480121801F00F062FFAF
:10166000614D022280350821284600F0C1F8002291
:101670001021284600F0BCF82178092000F040FE37
:1016800075E058480121401F00F04CFF60780128A8
:1016900010D0554D022260350821284600F0A8F8E8
:1016A00000221021284600F0A3F821780A2000F03B
:1016B00027FE5CE002220121284600F099F8002272
:1016C0000221284600F094F8EFE746480121001F68
:1016D00000F028FF02220421284600F089F80022A9
:1016E0000821284600F084F821780B2000F008FE3D
:1016F0003DE03C480121C01E00F014FF02225102CF
:10170000304600F075F801210022C902304600F091
:101710006FF821780C2000F0F3FD28E0314801211A
:10172000801E00F0FFFE304D022240350121284688
:1017300000F05EF800220221284600F059F82178D6
:101740000D2000F0DDFD12E026480121401E00F0D2
:10175000E9FE02221021304600F04AF80022202142
:10176000304600F045F821780E2000F0C9FD02A8AF
:1017700000F014FE214608313846049A01F0B8F909
:101780000121384601F09BFA0121384601F0C1FAE7
:10179000E07801281AD000221146384601F0FCF901
:1017A0002079012818D000220121384601F0F4F9EF
:1017B000A078012808D132210C48049A01F0F4F8ED
:1017C0000121384601F093FA07B0F0BD0122002153
:1017D000384601F0E1F9E3E701221146384601F00D
:1017E000DBF9E5E70E000003200C004070940000D8
:1017F0001CB5009100216B46D971D4070123002C40
:1018000006D06C466371920705D46A46917104E074
:101810006C466171F7E769468B7102216A46117166
:10182000694600F0EFFB1CBD0104090E0006000C28
:1018300001430B480B4A08400009114009010843C5
:1018400009490A4A014089081040800001430848BC
:10185000084A08404008114049000843704700000A
:10186000F0F000000F0F0000CCCC0000333300007C
:10187000AAAA000055550000F0B58C46124E622110
:101880007160B0600020F0601921104F890113E0F1
:1018900063461B5C33600023BC6975682D0701D467
:1018A000012305E0BD69651B2D022D0A8D42F4D38D
:1018B000002B06D0401C80B29042E9D3306880B241
:1018C000F0BD0348F0BD00000000014000E000E072
:1018D000FFFF000010B504460021204601F048F942
:1018E000002808D10021204601F06EF9012802D11C
:1018F000204601F0ABF90121204601F039F900281A
:1019000008D10121204601F05FF9012802D12046CB
:1019100001F06EF910BD000010B500F001FB174C8E
:101920001748214600F02EF815482146203000F0D7
:1019300029F813482146403000F024F81048214689
:10194000603000F01FF80E482146803000F01AF891
:101950000B482146A03000F015F82146084CC03451
:10196000204600F00FF80022A1152046FFF740FFA7
:10197000002261152046FFF73BFF10BDFFFF00006E
:10198000000C00407CB504460D466A4629462046B8
:1019900000F0FCFA6A461279012A09D0294620464D
:1019A00000F058FB01222946204600F0E3FC7CBDF4
:1019B00001222946204600F0DDFC2946204600F0A1
:1019C00049FB7CBD10B572B61B2000F081FC0021E4
:1019D000134800F0D8F80021124800F0A3FD124C83
:1019E000012189022046FFF7CDFFE1142046FFF7D1
:1019F000C9FF0C2000F06CFC0C4C00220121204699
:101A000001F0CAF800221146204601F0C5F8002175
:101A1000204601F07EF90021204601F050F910BD6A
:101A2000B030014003000004400C00406C20014035
:101A3000F8B5354800F0FAF834490888401C0880A9
:101A400033490868401C08600025324E0127BF0258
:101A5000314868438019C419E088002815D0401E19
:101A600080B2E080002810D1002D09D10022012190
:101A70002A4801F091F801220021284801F08CF851
:101A80000020A070E070207120816D1CEDB2032D4C
:101A9000DED3002520481F496843461801208002F4
:101AA00034182079002829D0401EC0B220710028A7
:101AB00024D1E078882210421ED0002D0ED1174F7D
:101AC0000978384601F010F900221146384601F035
:101AD00063F801221146384601F05EF801202081AA
:101AE000E078000705D57078B1780002C01D0818AD
:101AF00020807D20E08001E0012020716D1CEDB28E
:101B0000032DC7D3F8BD0000B03001400A0000200B
:101B1000000000203C0000200A0400006C2001406E
:101B200089B2416170470422012903D001689143C1
:101B300001607047016811430160704702685208F4
:101B40005200C907C90F114301607047026808239A
:101B50009A4319401143016070470222012903D0C2
:101B6000016891430160704701681143016070474B
:101B70002022012903D00168914301607047016868
:101B80001143016070478022012903D0016891430D
:101B900001607047016811430160704702681023BB
:101BA0009A431940114301607047012252020129F2
:101BB00003D00168914301607047016811430160DF
:101BC0007047026840239A431940114301607047EF
:101BD000FF220132012903D001689143016070475F
:101BE00001681143016070470222012903D0816915
:101BF000914381617047816911438161704704227B
:101C0000012903D081699143816170478169114342
:101C100081617047012904D08169490849008161C7
:101C20007047816901221143816170470121C161BF
:101C300070474268920892008907890F11434160FA
:101C4000704742681C239A43194011434160704712
:101C5000426840239A4319401143416070474268EB
:101C600080239A43194011434160704789B2016152
:101C70007047C9B281607047C9B2C160704770B522
:101C800006460C4630462168FFF7E2FF30466168A1
:101C9000FFF7E5FF3046A168FFF7CBFF3046E1686C
:101CA000FFF7CFFF30462169FFF7E3FF3046616958
:101CB000FFF7E2FF217E3046FFF777FF3046E1690C
:101CC000FFF77FFF2546203529783046FFF750FF84
:101CD0003046616AFFF762FF297A3046FFF778FFE6
:101CE0003046E16AFFF732FF297C3046FFF71BFFE1
:101CF000697C3046FFF731FF3046616BFFF71EFF0E
:101D00003046A16BFFF7B2FF3046E16BFFF708FFEB
:101D1000403421783046FFF772FF61783046FFF794
:101D200063FFA1783046FFF775FFE1783046FFF793
:101D30002AFF70BD044A516949084900C007C00F15
:101D4000084350617047000000100040044A516988
:101D500003231B0299431840084350617047000059
:101D600000100040034A5169022399431840084378
:101D7000506170470010004010B504460020FFF786
:101D8000E5FF0120FFF7D6FF094800F037F80948C2
:101D900000F034F80849216000E000BF00F00EF8C0
:101DA0000128FAD100F014F8002000F027F810BD47
:101DB00096969696EAEAEAEACDAB34120348006AB0
:101DC000C00701D00120704700207047001000407C
:101DD0000149012008627047001000400348006A72
:101DE000800701D501207047002070470010004097
:101DF00001490220086270470010004001498861D3
:101E00007047000000100040044A116889088900EA
:101E10008007800F084310607047000000100040EA
:101E2000F0B505460E4617460220FFF79BFF0F4808
:101E3000FFF7E4FF0E48FFF7E1FF00240FE0022068
:101E4000FFF790FF305D28706D1C00E000BFFFF7CA
:101E5000C5FF0028FAD0FFF7CBFF641CA4B2BC4238
:101E6000EDD30020FFF7CAFFF0BD0000A5A5A5A592
:101E7000F1F1F1F170B50024802801D2022070BD8B
:101E8000450201208004854201D9022070BD0D4821
:101E90000D4E814203D10121304600F043FB28461C
:101EA000FFF76AFF0021304600F03CFBA0002958F4
:101EB000491C01D0012070BD641CA4B2802CF5D354
:101EC000002070BD0FF0AB1205000002FFB581B01D
:101ED00005460F46002400260F48834203D1012106
:101EE0000E4800F01FFB39462846039AFFF798FF7B
:101EF00000210A4800F016FB07E0285D395D8842A2
:101F000001D0012604E0641CA4B203988442F4D3F7
:101F1000304605B0F0BD00000FF0AB120500000226
:101F200000B500F01FF80E4800F096F80C4820307D
:101F300000F092F80A48403000F08EF8084860300F
:101F400000F08AF80648803000F086F80448A03097
:101F500000F082F80248C03000F07EF800BD0000BA
:101F6000000C004008490748086248628862002067
:101F70008863C86304494031086048608860C8606D
:101F8000704700000000FFFFC00C004070B5002348
:101F900001252C469C400C40002C02D15B1C102BD0
:101FA000F7D3102B20D2116006680E40DE400024CB
:101FB000012E1AD0D47146680E40DE40012E16D094
:101FC000947186680E40DE40012E12D05471C068B4
:101FD0005900C8408007800F00280CD001280CD081
:101FE00002280CD00320107170BDD571E3E7957104
:101FF000E7E75571EBE7147170BD157170BD0220F4
:10200000107170BD70B500220126334693400C68F4
:102010001C409C421AD104689C43CD7995402543CD
:10202000056044689C438D799540254345608468EC
:102030009C434B7993402343836054000323A34084
:10204000C5689D430B79A3402B43C360521C102AE3
:10205000DBD370BD41617047002101604160816048
:10206000C160016170470000024901480860704783
:102070005A5A341200140140044A516889088900F0
:102080008007800F08435060704700000014014033
:1020900005490422012803D04868904348607047EE
:1020A00048681043486070470014014010B5012192
:1020B000054800F037FAFFF7D7FF0320FFF7DCFFF2
:1020C0000020FFF7E5FF10BD0500000138B5022034
:1020D000694608706420487080004880044C20469F
:1020E000FFF73CFA01212046FFF74DFD38BD000007
:1020F000B030014000210348C9438162C1620163DD
:10210000416370470002004030B587B00024059459
:1021100001256846057605A800F098FA0094019418
:102120000294039468460574447400F0FDFA07B005
:1021300030BD10B50020FFF767FE002000F030FA38
:10214000FFF7E2FFFFF7D6FF002000F0DFF90120E4
:10215000FFF7E2F90020FFF7CFF9012000F002FBC2
:1021600010BD000010B50748074C60610321081F2F
:1021700000F0DEF80020A06107202061052020612A
:1021800010BD0000FFFFFF0000E000E010B572B6D8
:10219000FFF78CFFFFF768FFFFF7CBFFFFF7E2FFCA
:1021A000012000F08DF9FFF7B7FB002000F0D2FA14
:1021B00010BD0000F3B581B00025364A01987D239B
:1021C0005043354A8018012292028418E380A27895
:1021D0000026130000F0F9FE0805111B4747232EC7
:1021E0003947682901D0AA253EE0E2781209120198
:1021F000E2700122A270268136E02289022A33D3BE
:1022000042781202521822800222A2702CE0682921
:1022100001D0AA2528E0E6700522A27024E02288D9
:102220002389D21C934201D10627A77093421BD960
:10223000AA2519E022882389521D934201D107273C
:10224000A770934210D9AA250EE0162901D0AA251D
:102250000AE00822A270E6800F222271E2780423AD
:102260001A43E27000E0AA25002D04D122891154FE
:102270002089401C2081019800F074FE002800D0C5
:10228000AA25AA2D04D1A670E07880088000E0700D
:10229000A078FEBD0A0400003C00002030B50446D2
:1022A00009480A4D0DE02178641C4840002103468E
:1022B0004008DB0700D06840491C89B20829F6D3E2
:1022C000521E002AEFD130BDFFFF000001A0000028
:1022D000002805DBC106C90E0120884001490860BD
:1022E0007047000080E100E0002805DBC106C90E50
:1022F00001208840014908607047000080E100E04B
:1023000070B504460D46032D00D902252046FFF77F
:10231000EBFF2946204600F00BF8002C05DBE10618
:10232000C90E012088400149086070BD00E100E04D
:102330008307FF22DB0E9A408907090E9940002887
:1023400008DB830809489B001818036893430B4374
:10235000036070470007000F0838830804489B009B
:102360001818C36993430B43C361704700E400E04E
:1023700000ED00E01CB5009100216B46D9710123EE
:10238000002A08D06A4653716A46917113716946F2
:10239000FFF738FE1CBD6A465171F5E710B50246DD
:1023A0000020D060106110605060906000F02CF947
:1023B000012808D100F014F9000C0F280AD03E497A
:1023C000401C4843D06000F0E1F80124E4030128F8
:1023D00003D01EE03948D060F5E700F0F1F840087E
:1023E00001280DD002280ED0234600F0C5F8000CBD
:1023F000401C5843106100F0EBF8082806D008E0B4
:102400007D231B02F1E7D068030AEEE71069400064
:10241000106100F075F9002822D0012823D002288D
:1024200025D0032825D0D068106000F019F9000AE3
:10243000042821D0052823D0062825D0072827D016
:102440001068506000F020F9000C042824D0052802
:1024500026D0062828D007282AD05068906010BDC2
:10246000D0681060E1E77D2000031060DDE71460B4
:10247000DBE710691060D8E7106840085060E1E7BA
:10248000106880085060DDE71068C0085060D9E728
:10249000106800095060D5E750684008906010BD92
:1024A00050688008906010BD5068C008906010BDF2
:1024B00050680009906010BD00127A00005125029A
:1024C00000B5114A012812D00F494039022810D016
:1024D000032810D0042810D01068C243010C92B217
:1024E00091420CD14006400E00F0A8F800BD1068E3
:1024F000F3E7C86BF1E7886BEFE70869EDE7402089
:1025000000F09CF800BD000040FDFF1F044A516828
:1025100049084900C007C00F0843506070470000D9
:102520004002004010B500220F231B06FF24034089
:1025300024061B1910D01B1911D01B1912D0E3420D
:1025400000D10C4A002A06D00123834000290CD078
:1025500010681843106010BD064A0C3AF2E7054AAD
:10256000083AEFE7034A121FECE71068984310603F
:1025700010BD000034020040024880690249084052
:1025800070470000000200400000FF03034880691C
:10259000C00701D0012070470020704700020040B2
:1025A0000649012804D088694008400088617047C6
:1025B00088690122104388617047000000020040D2
:1025C0000248806906210840704700000002004070
:1025D000024880690821084070470000000200405E
:1025E000024800690F2109040840704700020040BA
:1025F000044A11690F231B049943184008431061D2
:10260000704700000002004003480069C00701D085
:102610000120704700207047000200400649012851
:1026200004D0086940084000086170470869012229
:102630001043086170470000000200404006024954
:10264000400E4861704700000002004010B504468B
:102650002068FFF7CDFF2079FFF7E0FF10BD0000F5
:102660000248C06807210902084070470002004084
:10267000044AD16807231B02994318400843D060DD
:1026800070470000000200400248C06807210904AA
:102690000840704700020040044AD16807231B0429
:1026A000994318400843D060704700000002004082
:1026B000034AD168D303994318400843D060704758
:1026C000000200400649012804D0C86840004008C4
:1026D000C8607047C8680122D2071043C8607047BD
:1026E0000002004005490A04012803D0C86890434D
:1026F000C8607047C8681043C86070470002004057
:102700000248C0688007800F704700000002004048
:10271000044AD168890889008007800F0843D06087
:10272000704700000002004010B504462068FFF723
:10273000EFFF6068FFF79CFFA068FFF7ADFFE06860
:10274000FFF7B6FF207CFFF7CDFF607CFFF7BAFFF5
:1027500010BD000040050249400D086370470000AD
:102760000010014010B5012818D0002000F079F8C1
:10277000002000F068F8002000F058F8002000F079
:1027800048F8002000F038F8002000F028F8002079
:1027900000F018F8002000F008F810BD012000F04B
:1027A00060F8012000F04FF8E5E7012189078A155C
:1027B000012803D048689043486070474868104338
:1027C00048607047012189074A15012803D04868ED
:1027D0009043486070474868104348607047012143
:1027E00089070A15012803D048689043486070475C
:1027F000486810434860704701218907CA140128BE
:1028000003D0486890434860704748681043486068
:102810007047012189078A14012803D04868904332
:102820004860704748681043486070470121890735
:102830004A14012803D048689043486070474868AC
:1028400010434860704701218907012804D0486877
:1028500040084000486070474868012210434860C3
:102860007047012189070222012803D0486890435C
:102870004860704748681043486070470249014803
:102880000860704700127A003800002070B50F49C8
:1028900002464A430E4952180121890254182189DF
:1028A0002388994202D30220E08070BD8D5C00280D
:1028B00006D12946074800F017FA06482C388563E8
:1028C0002089401C20817D20E08070BD0A0400002A
:1028D0003C0000206C20014010B5154C0021204622
:1028E00000F046F901280CD10021204600F06CF9D7
:1028F000012806D1204600F0A9F9C1B20020FFF757
:1029000059FC0121204600F033F901280BD10121A7
:10291000204600F059F9012805D10020FFF7B6FF45
:10292000204600F065F92046FEF7D4FF10BD0000F8
:102930006C20014070B50C46FEF790FC0546204621
:10294000FEF78CFC2946FEF7ADFB7F21C9058842C6
:102950000CDDFEF77DFB0022054BFDF7BEFF0022DC
:10296000044BFDF7ADFFFEF7FFF970BD002070BD11
:102970000000F03F0000E03F044A91680F23DB02B3
:1029800099431840084390607047000000200140C0
:10299000044A9168C90AC9024005400D0843906085
:1029A0007047000000200140F8B50F46144600288B
:1029B00058D0844256D3642F54D2FEF74FFC0546BC
:1029C0002046FEF74BFC2946FEF76CFBFEF740FB6A
:1029D0000022254BFDF774FFFEF7C6F9441E600583
:1029E000400DFFF7D5FF214E20091FD02009FEF72B
:1029F00035FC0546601CFEF731FC2946FEF752FB0C
:102A0000FEF726FB04460D463846FEF7FAF900228B
:102A10003346FDF785FF22462B46FEF7F5F90022E7
:102A2000114BFDF74DFFFEF79FF917E0601CFEF715
:102A300015FCFEF70DFB04460D463846FEF7E1F99E
:102A400000223346FDF76CFF22462B46FEF7DCF9E9
:102A50000022054BFDF734FFFEF786F90007400C16
:102A6000FFF78AFFF8BD00000000E03F000059407A
:102A700070B506460C463046616800F02BF93046CA
:102A8000A16800F009F9254620352978304600F084
:102A9000BBF83046216900F035F9217B304600F063
:102AA000D8F83046616900F03FF93046E16900F03E
:102AB00014F922780021304600F06EF86278012186
:102AC000304600F069F86978304600F0A8F8A97837
:102AD000304600F0AFF8617B304600F0F0F8217E20
:102AE000304600F016F9617E304600F000F970BD06
:102AF00030B50C4689B0054611462068FFF71AFF2D
:102B00000190002108A801702079402201281DD0E1
:102B1000022827D00291012008AB1870A079002864
:102B200023D0049268460170417001732020059003
:102B3000079108A84170817068464173017641761B
:102B400069462846FFF794FF09B030BD6079012837
:102B500003D0022803D00291E0E70292DEE7802052
:102B60000290DBE7C0200290D8E70491DAE700008A
:102B7000074A80180009002900D1401C054909684E
:102B800001228240114201D001207047002070478D
:102B9000F4DFFEBF00200140094BC01800090029E6
:102BA00000D1401C0121074B012A04D01A68814042
:102BB0008A431A6070471A6881400A431A60704756
:102BC000F4DFFEBF00200140074A801800090029F9
:102BD00000D1401C0549496801228240114201D0C0
:102BE0000120704700207047F4DFFEBF0020014045
:102BF0000B21C9434018000901218140014841606F
:102C000070470000002001400422012903D0C1695F
:102C10009143C1617047C1691143C161704702228C
:102C2000012903D0C1699143C1617047C169114352
:102C3000C1617047012904D0C16949084900C161D7
:102C40007047C16901221143C16170478068C0B2F9
:102C500070472022012903D0016891430160704729
:102C600001681143016070470068400701D50120E9
:102C7000704700207047016804229143016070474B
:102C80000068800701D50120704700207047016867
:102C900002229143016070470268C0239A431940A1
:102CA0001143016070470068000701D5012070479B
:102CB000002070470168082291430160704710228C
:102CC000012903D0016891430160704701681143F5
:102CD0000160704789B20161704742690C239A43D1
:102CE0001940114341617047C9B2C1607047082261
:102CF000012903D041689143416070474168114305
:102D000041607047426840239A4319401143416033
:102D100070471022012903D04168914341607047F8
:102D20004168114341607047426820239A4319402B
:102D3000114341607047F0B585B00B9E0A9D012498
:102D40006F463C707C70BA70FB703D7102913C73B1
:102D500000217973BE736946FEF764FC05B0F0BDCF
:102D6000F0B5FFB086B00746784839464143784809
:102D70000C18012080022618F078FB210840F07022
:102D80006078A1780002001D081885B221462A4605
:102D90000020FEF771FD80B2615D62195278090270
:102DA000891881427CD1217980A8017362794273AC
:102DB000A379607A1B061843E379257A1B042D0258
:102DC0002B43184381900025152934D15F494F4387
:102DD0005F497B180A3300275E49082A3FD006DC8A
:102DE000012A0CD0022A27D0042A24D12FE0FD2A60
:102DF00057D05948FE2A7DD0FF2A1CD185E057487C
:102E00000160574A002111700027FFF72DF938465D
:102E10005249803080B20968FFF72CF87F1CBFB29E
:102E2000FF2081308742F0D327204002FEF784FB49
:102E30004A49002008606AE0494A1770474A116011
:102E4000C001000CFFF716F8444807605FE0012559
:102E50006D0201462A461846FDF7A5FA57E03F499C
:102E60003C4A0A601946134601225202FFF72EF827
:102E700082903B480178002908D101210170272068
:102E8000344B042281A94002FFF720F83348076041
:102E9000829800283BD0207940210843207136E0F9
:102EA00051E0012149026846FDF7DCFA0625A07AC7
:102EB000617B00060143E07A227B0004120210438A
:102EC000014380910020002716E0FEF7ADFC80B2A0
:102ED000849081980122C11952026846FDF763FA75
:102EE0000122520269468498FEF7C6FC80B2FF3781
:102EF000FF3700E007E0023780998F42E5D3010AEF
:102F0000A173E07303E0077001E05521017020799F
:102F1000802108432071AD1D280A6070E9B2A170BC
:102F20000002001D081885B221462A460020FEF73F
:102F3000A3FC010A61556119487016208870F07869
:102F400008210843F0707FB006B0F0BD0A0400000D
:102F50003C0000200FF0AB12080000200C00002005
:102F60000400002070B50024002809D1054D284632
:102F700000F00AF8012803D1AA24284600F019F825
:102F8000204670BD6C20014010B504462046FFF776
:102F90008AFE01280BD02046FFF766FE012806D0E6
:102FA0002046FFF76DFE012801D0002010BD012052
:102FB00010BD10B504462046FFF77CFE2046FFF703
:102FC0005AFE2046FFF763FE10BD30B47446641EFF
:102FD0002578641CAB4200D21D46635D5B00E3189C
:102FE00030BC1847F8B506ACF0CC002804D0481C1B
:102FF00005D0022903D026E00020C043F8BD501CB4
:1030000001D0042A1FD1581C01D0042B1BD1601CF5
:1030100001D0042C17D1681C01D0042D13D1701CD1
:1030200001D0042E0FD1781C01D0042F0BD10A98A7
:10303000401C02D00A98042805D10B98401C08D0E7
:103040000B98182805D00020002804D000F020F8A4
:10305000F8BD0120F8E70020C043F8BD10B50028F6
:1030600004D003498968401A00F084FB10BD0000B9
:103070001000002010B5002100F0B8FB411C03D067
:1030800002498968081810BD002010BD10000020FA
:10309000F0B587B0002503950295002102A801F044
:1030A00059F8007800283ED00020C407E40F0395AB
:1030B0000295802668460672002102A801F04AF8AF
:1030C0000068802831D00027274003950295012011
:1030D000694608720220C872012102A801F03AF87C
:1030E0000190019800F0D0FA002820D000243C4044
:1030F000019800F0B5FA00281BD000272740684649
:103100004672019800F0ACFA802814D000243C40AC
:10311000812768468772019800F0A2FA32498842F6
:103120000BD101200AE00120BFE70127CCE70124F1
:10313000DDE70127E2E70124E9E7002004400198E8
:1031400000F0A2FA2849884201D1012000E00020C5
:1031500004400395029503206946087204204873D1
:10316000012102A800F0F6FF0546284600F094FA77
:1031700000281FD000200440284600F079FA0028DB
:103180001AD00020044068464672284600F070FAC3
:10319000802813D00026264069468F728220C8728C
:1031A00083200873284600F063FA104FB84207D115
:1031B000012406E00120DEE70120E3E70126EAE73B
:1031C00000243440284600F067FAB84201D10120BB
:1031D00000E000202040012803D00020C04307B0B9
:1031E000F0BD0020FBE70000808100008081828329
:1031F00070470000F3B591B011984068109000201E
:103200000C900D90002425468BE00021049105913F
:1032100006AE19E012980123476808220EA9B847A4
:10322000002803D00020C04313B0F0BD0EA800F06A
:10323000B1FC049AD200B21803C204990598491C43
:10324000002250410491059004990223059A002020
:10325000591A9041DEDA0798069E071E16DB364B98
:1032600000209A1BB84111DB0999089800290DDB51
:103270000A460021181A914108DB11983946036962
:103280003219406969419A1A884102DA0020C04324
:10329000CAE71098069A0119129800234668B047A9
:1032A000002802D00020C043BEE70799069802908C
:1032B00003910C980D99009022462B46019111988C
:1032C00000F08CFD0698079904194D410C9A0D9B4E
:1032D000801859410D910C901198089B0999026929
:1032E0001B1940696941D21A884102DA0020C043A3
:1032F0009AE71098089A0119129800234668B04777
:10330000002802D00020C0438EE7089909980C19C4
:1033100045410A9B0C980D9A0B99181851410D9133
:103320000C901198016942692846611A904100DAAF
:103330006BE7002078E70000FFFFFF7F30B5002338
:1033400007E0C45CCD5CAC4201D0002030BD5B1C0A
:103350009BB29342F5D3012030BD000010B500218F
:10336000074A084B04E0491C914201D9002010BDD6
:103370001C68E407F7D1034AC1B2403A916310BD1B
:10338000FFFF00008020014030B5002901DB002B49
:1033900001DA002030BD84185941BF25AD0200205C
:1033A0002C1B884101DA002030BD2720074940024C
:1033B00000680860FF218902091A0020891A9841D3
:1033C00001DA002030BD012030BD000028000020BF
:1033D000F8B59E4645187146096889188C46002341
:1033E00071460B601446854276D00178112912D9B6
:1033F000401C1139042970D363461B1B8B426DD3CB
:103400002F1ACE1CB74267D30378401C2370641C6C
:10341000491EF9D12EE0291A0329F4D30178401C62
:10342000102943D200290ED18B4B05E0FF31401CFF
:10343000994251D88542D7D00678002EF6D003782D
:10344000401C59180F3163461F1BCE1CB742D6D300
:103450002F1A8E1DB742D6D303782370437863703A
:103460008378C01CA370E41C0378401C2370641C88
:10347000491EF9D10178401C102917D2774BE31867
:1034800089085B1A0178401C8900591A914275D34A
:10349000A14273D263461B1B032BB0D30B7823705E
:1034A0004B7863708978A170E41C80E0402916D3C2
:1034B000661ECB065F0FF61B0778401CFF00F61B4D
:1034C0004909491E964259D3A64257D267463B1B2B
:1034D0008F1CBB4202D35EE08DE070E08AE02029C1
:1034E00020D3C906C90E002911D15B4B05E0FF317D
:1034F000401C99427ED885427DD00678002EF6D0B9
:103500000378401C59181F312B1A022B73D3661EE7
:103510000096037847789E08BF01F719009EF61BB6
:10352000801C2FE0102968D308230B40DB02E61A29
:103530004907490F002911D1474B05E0FF31401CD5
:1035400099427DD8854275D00778002FF6D0037850
:10355000401C5918C91D2B1A022B6BD303789F08E6
:1035600043789B01FF18F61B801CA64207D1A21AC4
:1035700071460A60A84255D10020F8BD66E00127D7
:10358000BF03F61B964261D3A6425FD267463B1B40
:103590008F1CBB4254D3377827707378B61C637086
:1035A000A41C3778761C2770641C491EF9D101468B
:1035B0002039897F8907890F002900D12BE76346CD
:1035C0001B1B8B423CD32F1ACE1CB74232D303783D
:1035D000401C2370641C012909D90378401C237006
:1035E000641C022903D90178401C2170641C0178F5
:1035F000401C5BE724E01DE0FFE7631E89085B1ABF
:103600000178401C8900591A91421FD3A1421DD252
:1036100063461B1B022B13D30B7823704978617010
:10362000A41CC4E7A84202D20720C043A5E7032098
:10363000C043A2E7A11A704601600320C0439CE783
:10364000A11A704601600420C04396E7A11A704693
:1036500001600520C04390E701FEFFFFFFF7FFFF79
:1036600008B501786A46117040785070108808BD1E
:1036700008B501786A46117041785170817891706F
:10368000C078D070009808BD08B501786A461170FE
:1036900040785070108808BD08B501786A461170EE
:1036A0004178517081789170C078D070009808BDD1
:1036B0007CB50D4614460168009323462A4601A8AE
:1036C00000F058F9A04202D00020C0437CBD002089
:1036D0007CBD00000EB5FEF759FD0026E1210096E5
:1036E0000123324649021F480196FFF724FBFEF7EB
:1036F000EDFC62B61C4F3E707E807E6000F0EAFCFE
:103700001A4DFEF7B1FCE878400704D50020FFF71A
:1037100027FBFEF7A9FC38780028F2D17888FA2830
:10372000EFD3FEF74FF97E60272040020168029137
:10373000002909D001229204914205D24868096803
:1037400081F308888047DCE7012424040294084BB5
:10375000042202A9FEF7BAFB6068216881F3088899
:103760008047CEE76C200140080000203C04002088
:103770000FF0AB1238B512490A7C002A0CD00F2288
:103780009202904219D24009CA684300D25A5404A6
:10379000640C002200920BE008688047012038BDCD
:1037A000009DCB6845196D005A53009B5B1C00932C
:1037B000009BA342F4DB002038BD022038BD00008E
:1037C0001000002010B5084C0F2292010021E06883
:1037D00000F0D9F90F2292020021A06800F0D3F97D
:1037E0000120207410BD000010000020F3B581B04E
:1037F0000646002400270097304D287C002801D180
:1038000028688047002E0ED072B6F002000CF10638
:1038100001D0401C80B2FF21E131884249D2091A0F
:10382000002200921FE00020C043FEBD009AEE6817
:103830008A185300F35A002B12D0824217D3571E16
:103840007F00F65B9E4205D15B045B0C93420ED277
:10385000D11A00E0111A009A94B20022009202E0FC
:10386000009A521C0092009A12198242DED3009AEA
:10387000A21882421DD1002200920122D2030346E7
:10388000134310E0029A002A05D0009CEA680C1944
:103890006400135304E0009CEA680C1964001053A0
:1038A000009A521C0092009A8242EBD362B6480101
:1038B000FEBD62B60020C043FEBD00001000002027
:1038C00010B5002000220949CB68FF21E1315400E6
:1038D0001C5B002C00D0401C521C8A42F7D364228F
:1038E0005043FCF7C1FDC0B210BD00001000002025
:1038F00070B588B004460D4616460020C0430790B8
:1039000004231820009305900293039304931A460E
:10391000022101930C48FFF765FB002803D00BA0A0
:10392000FCF79AFC0DE00020009007AB32462946D8
:103930002046FFF74DFD002803D108A00799FCF7AA
:103940008BFC079808B070BDA02000000D0AB3F5ED
:10395000CABCBBAFCAA7B0DC0D0A00000D0ABDE2AD
:10396000D1B9BAF3B5C4B3A4B6C8CEAAA3BA256474
:103970000D0A0000FFB581B00C4616461D4600201A
:103980002060019908605FE0E368A068984202D96E
:10399000002005B0F0BD002802D16168002904D0E4
:1039A000616888420DD199420BD1221D616920695D
:1039B00000F08EF8002815D0216908182061002039
:1039C000A06062682068A16813184F19BB4222D317
:1039D0000A9A002A0ED0626951182A1A8019FCF737
:1039E000E2FC0FE00199002008601CA0FCF734FC09
:1039F0000020CEE7626951182A1A801900F0E8FA0F
:103A0000002806D02168A068691A4018A0602560C7
:103A10001AE00020BDE70A9B002B06D06369521A0A
:103A200059188019FCF7BFFC07E06369521A59184E
:103A3000801900F0CDFA00280ED0A16860682268D5
:103A4000411A89182160A0602068A8429CD301987F
:103A50006721016020689CE700209AE76D796C7A05
:103A60006F5F64206572720D0A00000010B5044695
:103A700072B66069FFF7F2FA0020606162B672B652
:103A80002046FFF7EBFA62B610BD0000F8B5054618
:103A90000C460E4F0020286018213846FCF7E2FC47
:103AA0003E46F460FF2C09D9601CFFF7E3FA706111
:103AB000002803D0672028603046F8BD72B638462B
:103AC000FFF7CCFA62B60020F8BD000008440020E1
:103AD000FFB583B00446154600200290019028608F
:103AE0002078672804D0472802D0002007B0F0BD16
:103AF00061786A461172A17851720299994201D98E
:103B00000020F3E7029966187179792903D05929C1
:103B100001D00020EAE7672816D0E11C029A049839
:103B2000FCF741FC0298286000232A680498FEF7FD
:103B3000B5FBF1786A4611713179517191888842EB
:103B40001FD10298801DD1E719460498FCF788FC24
:103B50000298401CFFF78EFA071E10D0E11C384671
:103B6000029AFCF720FC3846049A0299FFF7C0FE3F
:103B7000286072B63846FFF771FA62B6D4E70020C3
:103B8000B4E70020B2E701E00170401C521E531C54
:103B9000FAD1704730B50246D4796006400EC10FA5
:103BA000030E090219430002957900232818594190
:103BB000050E090229430002557928185941050EBE
:103BC000090229430002157928185941050E0902F6
:103BD00029430002D57828185941050E09022943C6
:103BE0000002957828185941050E09022943000260
:103BF000557828185941050E090229430002127808
:103C000010185941220603D50A460021404291412D
:103C100030BD0000F0B58DB000221146022000F04A
:103C20000BFA064600221146104600F005FA0490F1
:103C3000049F062242A13046FCF788FB002805D0ED
:103C400041A0FCF709FB00200DB0F0BDB1796A4638
:103C50001171F179B01C5171317A1173717A51730C
:103C6000017A1172407A507230461030FFF792FF9D
:103C70000791069030461830FFF78CFF09910890A5
:103C8000069C079D02460B4620462946FFF77CFB13
:103C900000280DD03846079B069AFEF7FFFA6946C2
:103CA0008989884209D031A0FCF7D6FA0020CBE7F9
:103CB00032A0FCF7D1FA0020C6E708AA06A9012025
:103CC00000F0BAF9059000280FD0059C684681885D
:103CD0000CA8FFF7DBFE051E02D00C98672809D060
:103CE0002BA0FCF7B9FA0020AEE72FA0FCF7B4FA3E
:103CF0000020A9E731480B9020362E610A950AA9C9
:103D000004A8FFF777FA002807D02846FFF7AEFE91
:103D10002BA0FCF7A1FA002096E72846FFF7A6FEA5
:103D20002046099B089AFEF7B9FA69460989884234
:103D300004D027A0FCF790FA002085E7012083E754
:103D400047594346534A0000436865636B20666FDA
:103D50007220617070726F707269617465206D613C
:103D6000676963206572726F720D0A006F6C64631D
:103D70007263206572720D0A0000000066696C654E
:103D80002073697A65206572726F720D0A000000F7
:103D90006D794C7A6F526561644F70656E20666113
:103DA000696C0D0A00000000676574206E6577611C
:103DB0006472206572720D0A00000000B1360000C6
:103DC00062737061746368206661696C0D0A00003B
:103DD000637263206572720D0A000000F0B51FB4B3
:103DE00086B0129C10461946012252020023FCF7AD
:103DF000FAF90490039200200290002706980068C8
:103E000000903748FFF736F90190002851D10BB0E8
:103E1000F0BD0398002807D00121039849020D1A2C
:103E2000A54206D9254604E001256D02AC4200D822
:103E30002546641B06980299426804984018460279
:103E400091190122520205960198FCF7ACFA0698E6
:103E500001214068801900F067F8002217E0109EE9
:103E600011990023F01959412CD40B4606998E68FC
:103E7000C968861B8B4125DA0399019B009E511866
:103E80005B5C305C1818019B58547F1C521CAA4282
:103E9000E5D3069801224168059852020818019955
:103EA00000F096F8002814D00298401C02900020E0
:103EB0000390002CADD172B60198FFF7CFF862B62F
:103EC0000120A4E772B60198FFF7C8F862B6002097
:103ED0009DE772B60198FFF7C1F862B6002096E739
:103EE0000102000070B505460C78002A02D128783E
:103EF0000019C4B20220FDF735FF2C7000E000BFAE
:103F0000FDF76CFF0028FAD0FDF772FF70BD0000CE
:103F100010B50020FDF772FF00210248FEF702FBFA
:103F200010BD000005000002F3B581B00646002474
:103F300024E0FEF799F86002851905200003124974
:103F4000281A884201D30020FEBD104F01213846B7
:103F5000FEF7E8FA2846FDF70FFF00213846FEF786
:103F6000E1FA002188002858401C01D00020FEBD45
:103F7000491C89B28029F5D3641CA4B202988442FA
:103F8000D7D30120FEBD000001AC030005000002F4
:103F900010B501210648FEF7C5FA0220FDF7E2FE42
:103FA0000448FDF72BFF0448FDF728FF10BD000073
:103FB00005000002A5A5A5A5F1F1F1F110B57D213F
:103FC000C900FCF751FA002901D1FEF74DF810BDE8
:103FD000FEB504460D461646002001902746009582
:103FE000FFF7D6FF002001900CE00198FFF7E6FFF5
:103FF000012229462046FFF775FF641C6D1C0198BD
:10400000401C01900198B042EFD3FFF781FF0020E0
:1040100001900BE00198019A395C0098805C814224
:1040200001D00020FEBD0198401C01900198B042D3
:10403000F0D30120FEBD000070B51C4C002805D057
:10404000012808D002282DD0002070BD2720400272
:104050000068206070BD0B68A3601068E060410AD2
:104060008A1C5502012212042668AD18B54201D2FD
:10407000626011E0834201D9636000E060606368C0
:104080005B0A9B1C5B029A1862601018FF22920266
:10409000904201D9002070BD491C6068FFF744FFC1
:1040A000606870BD0520000370BD0000280000207E
:1040B00038B527246402216800912046FDF73CFAB8
:1040C000034B042269462046FDF700FF38BD00007F
:1040D0000FF0AB127CB500251A4C00202060606008
:1040E000A060E06000900190062217496846FCF746
:1040F00041F8062215A16846FCF728F900281FD1CF
:10410000FFF788FD00281BD0E068410A491C2068A1
:10411000FFF70AFFE26861682068FFF759FF227B1A
:1041200061682068FFF70AF9002801D0FFF7C0FF97
:104130006D1CEDB2032DE7D327204002FDF7FCF9FB
:104140007CBD000028000020084E0000475943466F
:10415000534A00004018704780807F7E7D7C7B7AC8
:104160007978777676757473727171706F6E6E6D23
:104170006C6C6B6A6A6968686766666564646363C9
:1041800062616160605F5F5E5E5D5D5C5C5B5B5A4F
:104190005A595958585757565655555554545353BC
:1041A00052525251515050504F4F4F4E4E4D4D4D17
:1041B0004C4C4C4B4B4B4A4A4A4949494848484762
:1041C00047474746464645454544444444434343A0
:1041D00043424242424141418182838485868788AD
:1041E000898B8C8D8E8F919293959697999A9C9DA1
:1041F0009FA0A2A3A5A7A8AAACAEB0B2B3B5B7B909
:10420000BCBEC0C2C5C7C9CCCED1D4D7D9DCDFE2D1
:10421000E6E9ECF0F3F7FAFE384200000000002077
:104220003C00000004010000744200003C0000203B
:1042300044560000200100000000000000000000C3
:104240000000000000000000C5370000C138000079
:10425000460400204640002000000000000000004E
:10426000000000000000000000000000000000004E
:0442700000127A00BE
:04000005000000C136
:00000001FF
