:20000000801400209D010000A5010000A70100000000000000000000000000000000000040
:20002000000000000000000000000000A90100000000000000000000AB010000AD010000BC
:20004000AF010000AF010000AF010000AF010000AF010000AF010000AF010000AF01000020
:20006000AF010000AF0100005D230000AF010000AF010000AF010000AF010000AF01000030
:20008000AF010000AF010000AF010000AF010000AF010000AF010000AF010000AF010000E0
:2000A000AF010000AF010000AF010000E5140000AF010000AF010000AF010000AF01000077
:2000C00000F002F800F03EF80CA030C8083824182D18A246671EAB4654465D46AC4201D150
:2000E00000F030F87E460F3E0FCCB6460126334200D0FB1AA246AB4633431847A82A0000FF
:20010000C82A0000103A02D378C878C1FAD8520701D330C830C101D504680C607047000008
:200120000023002400250026103A01D378C1FBD8520700D330C100D50B6070471FB51FBD3F
:2001400010B510BD00F0FEFE1146FFF7F7FF02F073FC00F016FF03B4FFF7F2FF03BC02F029
:2001600069FC000070B505460C46164602E00FCC0FC5103E102EFAD2082E02D303CC03C571
:20018000083E042E07D301CC01C5361F03E021782970641C6D1C761EF9D270BD0748804765
:2001A00007480047FEE7FEE7FEE7FEE7FEE7FEE704480549054A064B704700000123000036
:2001C000C1000000800400208014002080060020800600207047F8B5042A2CD3830712D0BD
:2001E0000B78491C0370401C521E83070BD00B78491C0370401C521E830704D00B78491C06
:200200000370401C521E8B079B0F05D0C91ADF002023DE1B08C90AE0FFF7A4FFF8BD1D4624
:2002200008C9FD401C46B4402C4310C0121F042AF5D2F308C91A521EF0D40B78491C037088
:20024000401C521EEAD40B78491C0370401C012AE4D409780170F8BD01E004C0091F0429D9
:20026000FBD28B0701D50280801CC90700D00270704700290BD0C30702D00270401C491E8D
:20028000022904D3830702D50280801C891EE3E70022EEE70022DFE7704770477047000068
:2002A000F0B50C46871A9C410D46861A9D4103D2C01BA141D21963410D0D1F0DC94EEC1B73
:2002C000AE435CD07F057F0D0026002F51D02D05AC46A943DD020123ED0A1B051D432023AE
:2002E0001B1B24D41746E740381871412F46E740CC199D402818314661410C0D27D16144DD
:200300009A4013D50023401C594152000ED14008400001224B005205D34207D30520400729
:20032000C14201D5B04900E0B0493046F0BD6B00002A00D001229A181F23203C1B1B01D50B
:20034000002302E0E540281871410C0DD7D0012424050919C407CD0740084908E40F2843BB
:200360006144002CD5D00024401C61419A40D0D1CDE76A05520DD9D1C90FC907D5E79C4DF1
:200380004E00002801D0012400E0002434195F00002A01D0012600E00026BE19954FAC4270
:2003A0000CD8AE420AD8B44206D001256D05EC42BCD010461946F0BD9942FCD000203946C1
:2003C000F0BDF0B51FB40C460F46811A9F412546861A9D4106D20125ED076F40401ABC41F5
:2003E00052187B41210D1E0D8D1BAC467D4D8D437ED075056D0D7CD00D05AE46AC431B03A9
:200400001B0B794D52429D41202366469B1B14D31746F740381800260090744160462F4688
:200420000741E41900989D402818664116D4714671189A4025D5012320E093182A466A4133
:200440005200002B00D0521C1E23203E9B1B002B61DD3541EE1728186641E8D50018764135
:200460005B1C9A4000D3401C4B05F3181524E34010D3002B52D071467118D30FC01802D346
:20048000491C05B0F0BD0123DB079A42F9D140084000F6E701225205B21801D1002853D023
:2004A0000123CC0ADB029943891E002A08D1020C03D0020C0004103902E002460020203900
:2004C0000023550B05D112020823550B01D152010D23550C01D112011B1DD50C01D192000C
:2004E0009B1C150D01D152005B1C2025EE1A01E02CE022E00546F54015439840CA1AE107D0
:2005000069181305C918002ABBDA032040070818C10FC9070FE071466118B2E7F107400880
:200520000843711071444A000CD001235B059A42A7D2C90FC9070020A3E74905490D26D14E
:20054000002001E00028F4D100219AE7284D6600002801D0012100E0002171185F00002A02
:2005600001D0012600E00026BE19224FA94210D8AE420ED8B14208D001256D05E94206D028
:200580001946A802414010467BE79C4201D0214677E70020394674E710B50C465C4005D51E
:2005A0000124E4076340FFF70CFF10BDFFF778FE10BD30B40C465C4004D50124E407634023
:2005C00030BC6DE630BCFCE670B50124E40761400D465D4002D4FFF763FE70BD6340FFF755
:2005E000F0FE70BDFF0700000000F0FF0000F07F0000E0FF0000F87FF0B5F94D0C091E09FF
:200600002C402E402F468BB0A7437DD0B543FCD0002E7AD0002CFCD00D465D40ED0F254391
:20062000AC1BFF25AD0464190894C502440DC9022143500DDC0204430120C00701430443C9
:20064000D2020191200C110C00958C46010423468B430A9161460904E24D8A430991010A58
:200660007D4449198039097805464D4301266D18F605751B6943C90C640B891C4C4364186B
:20068000B5012C1B250C2E04B4434C434D43210C691889090591009DE90701D00121C907BE
:2006A00004912C4601996708CD072F434C08059DE10B4D432D0C29466646754302950D467C
:2006C00045432E46029D7D1BB44100950D465D4301942C0C2F040D465543AE462D0C3D43D2
:2006E000029503947546049C2D04641B049406D2029C039D641C002675410395029401ACDC
:2007000070CC009F7D1B01E03EE162E1B44109040095079101940599A4086143090C0C460A
:200720004443650BE7040C4666467443A646640B3C43039502947446049DE4042C1B0494F8
:2007400006D2029C039D641C002675410395029401AC70CC009F7D1BB44101940C465C435E
:200760000095650FE7000C465443A646640F3C43039502947446049DE4002C1B049406D29E
:20078000029C039D641C002675410395029401AC70CC009F7D1BB441AE09AF06049DC900A6
:2007A000AD092F43049DA406AD060495079D344369180791059DE10B4D432D0C29466646D4
:2007C000754302950D4645432E46029D7D1BB44100950D465D4301942C0C2F040D465543DC
:2007E000AE462D0C3D43029503947546049C2D04641B049406D2029C039D641C0026754109
:200800000395029401AC70CC009F7D1BB44101948C050694079C890A611800950791019C5C
:200820000599A4086143090C0D464543680BEF040D46644665436C0B3C43049FED047D1BAD
:20084000AC4602D20025641C6841009E019D371B85410846584301950C46460FC5005443AE
:20086000600F28436546E4002C1B02D20025401C6E41019D3F1AB5412846BD0980062843B2
:200880008446A009BF064E020699A40676180743079D002068410A99079019430020099BE8
:2008A00000906046FF1913434041E20F64003A43A4460446D71A8C41A04203D901200090E0
:2008C00020463A46C70F941840416246D20F2243644664000494009CBE466400D71AA446BC
:2008E000044602978C417746002F01D1A04204D96046401C8446029A2046C40FA646941892
:200900004041049A0546D20F224364466400D31A8D417146002901D1A84202D928461A4619
:20092000641C10430122002800D0164361020020079B891904465C410223002C02DB491833
:2009400013466441089DCE0A2D145D194B056705E10A2C050D1908993E43C9076940002BA1
:2009600008D0934006D30022761C5141002B01D1760876001C4A002D43DB154241D0AA43B6
:200980003FD030460BB0F0BD06180D464D41174C7642AC411AD395181C465C41134A6D42BE
:2009A000A24113D3012252054C00D4420AD15C00D4420BD04B4002D592021143E2E749000E
:2009C0004908DFE75940C90FC90718E000200849D8E7054801420DD10342F7D0F2E7000044
:2009E0000000FF07802400000000F07F0000E0FF0000F87F114859400143C01241400020DF
:200A0000C0E70123089A9B069A4205DC032252078918C90FC907B5E7052252078918074A36
:200A20001143D2125140ADE770B515461C4602460B4628462146FFF7DFFD70BDFFFFFF7F8E
:200A40000346CA02400D10B510430A1504D00124E4072043002A05DB0A4CA21A04D4D040B2
:200A6000FF2A00DD002010BD4A00002B01D0012000E00020101801225205D042F2D8C817BF
:200A8000C04310BD1E0400001F22030C02D10F22000402D0030E03D004E000200146704754
:200AA0000002083A030F01D10001121F830F01D18000921E002801DB4000521E1205511814
:200AC0004205C012411810467047C10FC90700D04042012292071143D6E701218907D3E76C
:200AE000F0B58B4C0F09254689B0BD437BD01D092646AE43FAD00E465E402740F60F3E4347
:200B0000254071D024012142FBD0FF24AD19A4042D1B039501252D05DB02DB0AC9022B4318
:200B2000C90A29431E010901040F130F050121431701880B820391432D098C46A90B1E438D
:200B40008A039543B30B9A0396433F09BA0B9403A74302962E467E430497B6464E19D719B3
:200B60000C460196544305977E43371B7646BF1B3601B646BE0B361900967646BC04371903
:200B8000009C01D3641C00946400002F01D001263443029E049F754366467E430496760057
:200BA00034196E0034190094029C019E1C196643751BAE46069465464519059C05956C436D
:200BC000594375460891691A0191049E01465143A41B0491611A009C0791E10605D061096A
:200BE0000122114302E072E06EE06109089D00272C0A2D066918049D7C412A0A2D06691896
:200C0000019D6241AC0DAD026D185441079A910D920255196141029A644658435443069B15
:200C2000059A5A43121A131B9A0E9B015B187A41010B0005C3185141220A200644195A41E4
:200C40009A4200D2491C01204002814203D315230226F64302E014230326F6432020C51A52
:200C6000A9401746AF40DA400A4320460399D8400914731819055118039A3843D20751400D
:200C8000AC4009D00122944006D30022401C5141002C01D1400840001E4A934212D30122E4
:200CA00003989206904207DB0520400709181A480143C012414004E0032040070818C10F89
:200CC000C907002009B0F0BD0020F107FAE705180C464C4111486D42A04115D394181A46EC
:200CE0005A410E48644290410ED301204A004005824209D35A00824206D35940C90F084AA1
:200D0000C90700201143DDE700200649DAE700000000FF07FE070000FFFFFF7F0000E0FF35
:200D20000000F07F0000F87F0121C9050123411842001B06D3185B0E0AD0C1100722D206FD
:200D4000891840075242D14201D5520089187047090208D50146002A03D0C10FC907002098
:200D6000704710467047420202D0002002497047072109050143F4E70000F87FF0B5FF25E2
:200D80002D04C609C209FF2704462E400137CB093E4348402A402B400746002A6BD0002BE3
:200DA00069D0AA4267D0AB4265D0002800DA32460125ED0529432C4309022002090AD21A1C
:200DC0004B0C7F24E31A434C000A7C44E35C7D242404121914145B00A218884201D3521C47
:200DE00000E0400049420C465C4324115C43DB016415E318040A5C43C502200D0C464443B9
:200E00006419250A5D432303EC0C0D46654300030019EB184C42A34201D35B18401CD4055F
:200E20002018002B07D05B00C91804D3401C002901D1400840003F2189048A4209D3002AC7
:200E400008DC1106090F04D0032149074018C00FC007F0BD01224100120689187F22520686
:200E60009142F6D205214907C84201D59010F0BDFF20C005F0BD002F00DA32461648AA42D8
:200E800007D2AB4205D21902090E17D0F80FC007F0BDFF2563002D06AB42F9D84900A94275
:200EA000F6D8AB4201D1A942F2D0A94201D1002101E061004908D0050843F0BD1102090E90
:200EC000FBD0FF200243D005F0BD0A460146104654E70000961D00000000C07F1F22030CF7
:200EE00002D10F2200041CD0030E01D10002083A030F01D10001121F830F01D18000921E2D
:200F0000002801DB4000521ED2055118021251181922904004D3491C002801D14908490085
:200F200008467047C10FC90700D04042012292071143D3E701218907D0E7704700487047D1
:200F4000200400207546FFF7F9FFAE46050069465346C008C000854618B020B5FFF728F95C
:200F600060BC00274908B6460026C0C5C0C5C0C5C0C5C0C5C0C5C0C5C0C5403D49008D46FA
:200F8000704710B50446C046C0462046FFF7E3F810BD00000649012804D0486840084000F7
:200FA00048607047486801221043486070470000002801400649012804D0086840084000A0
:200FC000086070470868012210430860704700000028014070B50546064C0121204600F04A
:200FE000E3FF284600F022FC0021204600F0DCFF70BD00000500000270B592B006460C4608
:20100000F72000013018400900900025019569460978002913D001291CD0022925D003293E
:2010200049D103950121254800F0BEFF21781D2000F0A8FE61780120002921D021E00395A9
:201040001E480121C01E00F0AFFF21781A2000F099FEEFE7039519480121801E00F0A4FF10
:2010600021781B2000F08EFEE4E7039513480121401E00F099FF21781C2000F083FED9E754
:2010800060706178891C05910321069169460877089508A90D710A950D7510A90D714D71A1
:2010A000887160880649081A0F9010A9CD7101A9304600F03EFB12B070BD00000500000407
:2010C000FFFF0000F0B587B007460C4601216D4800F06AFF0B20C043381840090190694660
:2010E0000879694E684D2036030001F096FC06041A3E52677D9063480121801F00F054FF50
:20110000614D022280350821284600F0C1F800221021284600F0BCF82178092000F032FEC1
:2011200075E058480121401F00F03EFF6078012810D0554D022260350821284600F0A8F8A9
:2011400000221021284600F0A3F821780A2000F019FE5CE002220121284600F099F80022E6
:201160000221284600F094F8EFE746480121001F00F01AFF02220421284600F089F800226A
:201180000821284600F084F821780B2000F0FAFD3DE03C480121C01E00F006FF0222510294
:2011A000304600F075F801210022C902304600F06FF821780C2000F0E5FD28E03148012146
:2011C000801E00F0F1FE304D022240350121284600F05EF800220221284600F059F8217819
:2011E0000D2000F0CFFD12E026480121401E00F0DBFE02221021304600F04AF800222021FD
:20120000304600F045F821780E2000F0BBFD02A800F006FE214608313846049A01F0AAF9CE
:201220000121384601F08DFA0121384601F0B3FAE07801281AD000221146384601F0EEF91E
:201240002079012818D000220121384601F0E6F9A078012808D132210C48049A01F0E6F824
:201260000121384601F085FA07B0F0BD01220021384601F0D3F9E3E701221146384601F0C8
:20128000CDF9E5E70E000003200C0040709400001CB5009100216B46D971D4070123002C92
:2012A00006D06C466371920705D46A46917104E06C466171F7E769468B7102216A46117168
:2012C000694600F0F9FB1CBD0104090E0006000C01430B480B4A0840000911400901084391
:2012E00009490A4A014089081040800001430848084A084040081140490008437047000094
:20130000F0F000000F0F0000CCCC000033330000AAAA000055550000F0B58C46124E622179
:201320007160B0600020F0601921104F090213E063461B5C33600023BC6975682D0701D4E4
:20134000012305E0BD69651B2D022D0A8D42F4D3002B06D0401C80B29042E9D3306880B2FB
:20136000F0BD0348F0BD00000000014000E000E0FFFF000010B504460021204601F03AF90F
:20138000002808D10021204601F060F9012802D1204601F09DF90121204601F02BF90028CD
:2013A00008D10121204601F051F9012802D1204601F060F910BD000010B500F00BFB174CFA
:2013C0001748214600F02EF815482146203000F029F813482146403000F024F8104821460F
:2013E000603000F01FF80E482146803000F01AF80B482146A03000F015F82146084CC034B1
:20140000204600F00FF80022A1152046FFF740FF002261152046FFF73BFF10BDFFFF000003
:20142000000C00407CB504460D466A462946204600F006FB6A461279012A09D02946204608
:2014400000F062FB01222946204600F0D5FC7CBD01222946204600F0CFFC2946204600F0D5
:2014600053FB7CBD10B572B61B2000F073FC0021184800F0E2F80021174800F095FD174CAE
:2014800001212046FFF7CEFF02212046FFF7CAFF124C082160342046FFF7C4FF10212046E8
:2014A000FFF7C0FF0A2000F055FC0D4C00220121204601F0B3F800221146204601F0AEF8F7
:2014C0000021204601F067F90021204601F039F910BD0000B030014003000004200C004029
:2014E0002C200140F8B5354800F0FAF834490888401C088033490868401C08600025324E0D
:201500000127BF02314868438019C419E088002815D0401E80B2E080002810D1002D09D1D3
:20152000002201212A4801F079F801220021284801F074F80020A070E070207120816D1C47
:20154000EDB2032DDED3002520481F49684346180120800234182079002829D0401EC0B294
:201560002071002824D1E078882210421ED0002D0ED1174F0978384601F0F8F800221146B0
:20158000384601F04BF801221146384601F046F801202081E078000705D57078B178000264
:2015A000C01D081820807D20E08001E0012020716D1CEDB2032DC7D3F8BD0000B030014036
:2015C0000A00002000000020140000200A0400002C20014089B2416170470422012903D03B
:2015E00001689143016070470168114301607047026852085200C907C90F11430160704797
:20160000026808239A4319401143016070470222012903D001689143016070470168114360
:20162000016070472022012903D0016891430160704701681143016070478022012903D08A
:2016400001689143016070470168114301607047026810239A4319401143016070470122FE
:201660005202012903D001689143016070470168114301607047026840239A431940114398
:2016800001607047FF220132012903D0016891430160704701681143016070470222012969
:2016A00003D0816991438161704781691143816170470422012903D08169914381617047AF
:2016C0008169114381617047012904D081694908490081617047816901221143816170471E
:2016E0000121C16170474268920892008907890F11434160704742681C239A4319401143D2
:2017000041607047426840239A431940114341607047426880239A43194011434160704753
:2017200089B201617047C9B281607047C9B2C160704770B506460C4630462168FFF7E2FF56
:2017400030466168FFF7E5FF3046A168FFF7CBFF3046E168FFF7CFFF30462169FFF7E3FFD6
:2017600030466169FFF7E2FF217E3046FFF777FF3046E169FFF77FFF2546203529783046C6
:20178000FFF750FF3046616AFFF762FF297A3046FFF778FF3046E16AFFF732FF297C3046E3
:2017A000FFF71BFF697C3046FFF731FF3046616BFFF71EFF3046A16BFFF7B2FF3046E16B58
:2017C000FFF708FF403421783046FFF772FF61783046FFF763FFA1783046FFF775FFE17829
:2017E0003046FFF72AFF70BD044A516949084900C007C00F084350617047000000100040EC
:20180000044A516903231B0299431840084350617047000000100040034A5169022399433E
:2018200018400843506170470010004010B504460020FFF7E5FF0120FFF7D6FF094800F017
:2018400037F8094800F034F80849216000E000BF00F00EF80128FAD100F014F8002000F085
:2018600027F810BD96969696EAEAEAEACDAB34120348006AC00701D00120704700207047C2
:20188000001000400149012008627047001000400348006A800701D501207047002070475B
:2018A00000100040014902200862704700100040014988617047000000100040044A1168FA
:2018C000890889008007800F084310607047000000100040F0B505460E4617460220FFF75D
:2018E0009BFF0F48FFF7E4FF0E48FFF7E1FF00240FE00220FFF790FF305D28706D1C00E0AA
:2019000000BFFFF7C5FF0028FAD0FFF7CBFF641CA4B2BC42EDD30020FFF7CAFFF0BD00007C
:20192000A5A5A5A5F1F1F1F170B50024202801D2022070BD450201208004854201D90220ED
:2019400070BD0D480D4E814203D10121304600F02BFB2846FFF76AFF0021304600F024FBF2
:20196000A0002958491C01D0012070BD641CA4B2802CF5D3002070BD0FF0AB120500000268
:20198000FFB581B005460F46002400260F48834203D101210E4800F007FB39462846039A94
:2019A000FFF798FF00210A4800F0FEFA07E0285D395D884201D0012604E0641CA4B2039826
:2019C0008442F4D3304605B0F0BD00000FF0AB120500000200B500F01FF80E4800F096F84F
:2019E0000C48203000F092F80A48403000F08EF80848603000F08AF80648803000F086F8D3
:201A00000448A03000F082F80248C03000F07EF800BD0000000C00400849074808624862E3
:201A2000886200208863C86304494031086048608860C860704700000000FFFFC00C0040E7
:201A400070B5002301252C469C400C40002C02D15B1C102BF7D3102B20D2116006680E40A9
:201A6000DE400024012E1AD0D47146680E40DE40012E16D0947186680E40DE40012E12D027
:201A80005471C0685900C8408007800F00280CD001280CD002280CD00320107170BDD571BC
:201AA000E3E79571E7E75571EBE7147170BD157170BD0220107170BD70B5002201263346D4
:201AC00093400C681C409C421AD104689C43CD7995402543056044689C438D799540254399
:201AE000456084689C434B7993402343836054000323A340C5689D430B79A3402B43C36034
:201B0000521C102ADBD370BD416170470021016041608160C1600161704700000249014817
:201B2000086070475A5A341200140140044A5168890889008007800F08435060704700004E
:201B40000014014005490422012803D0486890434860704748681043486070470014014027
:201B600010B50121054800F01FFAFFF7D7FF0320FFF7DCFF0020FFF7E5FF10BD050000019B
:201B800038B50220694608706420487080004880044C2046FFF730FA01212046FFF74DFDED
:201BA00038BD0000B030014000210348C9438162C1620163416370470002004010B588B093
:201BC0000F2000040690012469460C7706A800F07FFA0020019002900390049069460C7534
:201BE000487501A800F0E2FA08B010BD10B50120FFF764FE002000F015FAFFF7DFFFFFF707
:201C0000D3FF002000F0C4F90120FFF7D3F90020FFF7C0F9012000F0E7FA10BD10B50748A0
:201C2000074C60610321081F00F0C4F80020A061072020610520206110BD0000FFFFFF0060
:201C400000E000E010B572B6FFF78AFFFFF766FFFFF7CCFFFFF7E2FF042000F073F9FFF7EF
:201C6000ABFB002000F0B8FA10BD0000F3B581B00025364A01987D235043354A80180122AB
:201C800092028418E380A2780026130000F0C5FE0805111B4747232E3947682901D0AA25E2
:201CA0003EE0E27812091201E2700122A270268136E02289022A33D3427812025218228083
:201CC0000222A2702CE0682901D0AA2528E0E6700522A27024E022882389D21C934201D10B
:201CE0000627A77093421BD9AA2519E022882389521D934201D10727A770934210D9AA25D1
:201D00000EE0162901D0AA250AE00822A270E6800F222271E27804231A43E27000E0AA25C7
:201D2000002D04D1228911542089401C2081019800F040FE002800D0AA25AA2D04D1A6709B
:201D4000E07880088000E070A078FEBD0A04000014000020002805DBC106C90E012088402F
:201D6000014908607047000080E100E0002805DBC106C90E012088400149086070470000C1
:201D800080E100E070B504460D46032D00D902252046FFF7EBFF2946204600F00BF8002CD6
:201DA00005DBE106C90E012088400149086070BD00E100E08307FF22DB0E9A408907090EE7
:201DC0009940002808DB830809489B001818036893430B43036070470007000F08388308EE
:201DE00004489B001818C36993430B43C361704700E400E000ED00E01CB5009100216B46DC
:201E0000D9710123002A08D06A4653716A46917113716946FFF750FE1CBD6A465171F5E78E
:201E200010B502460020D060106110605060906000F02CF9012808D100F014F9000C0F286D
:201E40000AD03E49401C4843D06000F0E1F80124E403012803D01EE03948D060F5E700F0BE
:201E6000F1F8400801280DD002280ED0234600F0C5F8000C401C5843106100F0EBF8082896
:201E800006D008E07D231B02F1E7D068030AEEE710694000106100F075F9002822D001280A
:201EA00023D0022825D0032825D0D068106000F019F9000A042821D0052823D0062825D0DC
:201EC000072827D01068506000F020F9000C042824D0052826D0062828D007282AD0506855
:201EE000906010BDD0681060E1E77D2000031060DDE71460DBE710691060D8E71068400843
:201F00005060E1E7106880085060DDE71068C0085060D9E7106800095060D5E75068400838
:201F2000906010BD50688008906010BD5068C008906010BD50680009906010BD00127A00A0
:201F40000051250200B5114A012812D00F494039022810D0032810D0042810D01068C2437F
:201F6000010C92B291420CD14006400E00F0A8F800BD1068F3E7C86BF1E7886BEFE70869E8
:201F8000EDE7402000F09CF800BD000040FDFF1F044A516849084900C007C00F084350603F
:201FA000704700004002004010B500220F231B06FF24034024061B1910D01B1911D01B19C1
:201FC00012D0E34200D10C4A002A06D00123834000290CD010681843106010BD064A0C3A41
:201FE000F2E7054A083AEFE7034A121FECE710689843106010BD0000340200400248806917
:202000000249084070470000000200400000FF0303488069C00701D00120704700207047B7
:20202000000200400649012804D088694008400088617047886901221043886170470000F2
:20204000000200400248806906210840704700000002004002488069082108407047000048
:2020600000020040024800690F2109040840704700020040044A11690F231B0499431840A0
:2020800008431061704700000002004003480069C00701D00120704700207047000200404E
:2020A0000649012804D0086940084000086170470869012210430861704700000002004072
:2020C00040060249400E4861704700000002004010B504462068FFF7CDFF2079FFF7E0FFB8
:2020E00010BD00000248C068072109020840704700020040044AD16807231B02994318402B
:202100000843D06070470000000200400248C068072109040840704700020040044AD168DC
:2021200007231B04994318400843D0607047000000020040034AD168D303994318400843D3
:20214000D0607047000200400649012804D0C86840004008C8607047C8680122D2071043F4
:20216000C86070470002004005490A04012803D0C8689043C8607047C8681043C8607047A2
:20218000000200400248C0688007800F7047000000020040044AD168890889008007800FC5
:2021A0000843D060704700000002004010B504462068FFF7EFFF6068FFF79CFFA068FFF7D9
:2021C000ADFFE068FFF7B6FF207CFFF7CDFF607CFFF7BAFF10BD000040050249400D086362
:2021E000704700000010014010B5012818D0002000F079F8002000F068F8002000F058F8B0
:20220000002000F048F8002000F038F8002000F028F8002000F018F8002000F008F810BD01
:20222000012000F060F8012000F04FF8E5E7012189078A15012803D04868904348607047E2
:202240004868104348607047012189074A15012803D0486890434860704748681043486082
:202260007047012189070A15012803D04868904348607047486810434860704701218907E4
:20228000CA14012803D048689043486070474868104348607047012189078A14012803D0D4
:2022A00048689043486070474868104348607047012189074A14012803D0486890434860A3
:2022C0007047486810434860704701218907012804D04868400840004860704748680122CC
:2022E000104348607047012189070222012803D04868904348607047486810434860704716
:2023000002490148086070470048E8011000002070B50F4902464A430E49521801218902E9
:20232000541821892388994202D30220E08070BD8D5C002806D12946074800F017FA064888
:202340002C3885632089401C20817D20E08070BD0A040000140000202C20014010B5154C6C
:202360000021204600F046F901280CD10021204600F06CF9012806D1204600F0A9F9C1B25A
:202380000020FFF773FC0121204600F033F901280BD10121204600F059F9012805D1002026
:2023A000FFF7B6FF204600F065F92046FEF7E2FF10BD00002C20014070B50C46FEF7BAFD05
:2023C00005462046FEF7B6FD2946FEF7D7FC7F21C90588420CDDFEF7A7FC0022054BFEF74D
:2023E000E8F80022044BFEF7D7F8FEF729FB70BD002070BD0000F03F0000E03F044A9168A0
:202400000F23DB0299431840084390607047000000200140044A9168C90AC9024005400DAF
:20242000084390607047000000200140F8B50F461446002858D0844256D3642F54D2FEF700
:2024400079FD05462046FEF775FD2946FEF796FCFEF76AFC0022254BFEF79EF8FEF7F0FAA1
:20246000441E6005400DFFF7D5FF214E20091FD02009FEF75FFD0546601CFEF75BFD2946FA
:20248000FEF77CFCFEF750FC04460D463846FEF724FB00223346FEF7AFF822462B46FEF75A
:2024A0001FFB0022114BFEF777F8FEF7C9FA17E0601CFEF73FFDFEF737FC04460D46384681
:2024C000FEF70BFB00223346FEF796F822462B46FEF706FB0022054BFEF75EF8FEF7B0FAB8
:2024E0000007400CFFF78AFFF8BD00000000E03F0000594070B506460C463046616800F0AB
:202500002BF93046A16800F009F9254620352978304600F0BBF83046216900F035F9217BF2
:20252000304600F0D8F83046616900F03FF93046E16900F014F922780021304600F06EF8B9
:2025400062780121304600F069F86978304600F0A8F8A978304600F0AFF8617B304600F061
:20256000F0F8217E304600F016F9617E304600F000F970BD30B50C4689B00546114620685A
:20258000FFF71AFF0190002108A801702079402201281DD0022827D00291012008AB187038
:2025A000A079002823D00492684601704170017320200590079108A84170817068464173EC
:2025C0000176417669462846FFF794FF09B030BD6079012803D0022803D00291E0E70292C1
:2025E000DEE780200290DBE7C0200290D8E70491DAE70000074A80180009002900D1401C53
:202600000549096801228240114201D00120704700207047F4DFFEBF00200140094BC01826
:202620000009002900D1401C0121074B012A04D01A6881408A431A6070471A6881400A43F7
:202640001A607047F4DFFEBF00200140074A80180009002900D1401C05494968012282402C
:20266000114201D00120704700207047F4DFFEBF002001400B21C94340180009012181401A
:202680000148416070470000002001400422012903D0C1699143C1617047C1691143C1619E
:2026A00070470222012903D0C1699143C1617047C1691143C1617047012904D0C16949089B
:2026C0004900C1617047C16901221143C16170478068C0B270472022012903D001689143D1
:2026E0000160704701681143016070470068400701D5012070470020704701680422914356
:20270000016070470068800701D50120704700207047016802229143016070470268C02367
:202720009A4319401143016070470068000701D5012070470020704701680822914301603B
:2027400070471022012903D00168914301607047016811430160704789B20161704742696A
:202760000C239A431940114341617047C9B2C16070470822012903D04168914341607047F8
:202780004168114341607047426840239A4319401143416070471022012903D04168914349
:2027A000416070474168114341607047426820239A4319401143416070470000F0B5FFB049
:2027C00086B0074675483946414375480C18012080022618F078FB210840F0706078A178D7
:2027E0000002001D081885B221462A460020FEF793FD80B2615D6219527809028918814243
:2028000075D1217980A8017362794273A379607A1B061843E379257A1B042D022B43184328
:2028200082900025152930D15C495E4B4F435C4979180A315C4F082A3AD006DC012A0CD001
:20284000022A23D0042A20D129E0FD2A50D05748FE2A7ED0FF2A18D17EE03B600027FFF7AD
:202860005DF938465049203080B20968FFF75CF87F1CBFB2FF20E1308742F0D31F20400265
:20288000FEF7A8FB48480021016067E019463B60C001000CFFF748F8002038605EE001252E
:2028A0006D020B4601462A461846FDF794FC55E03D4A3C4B136001225202FFF761F80746F6
:2028C0003B480178002908D1012101701F20354B042282A94002FFF753F8334900200860D0
:2028E000002F3BD0207940210843207136E051E00121490201A8FDF7CDFC0625A17A607B8D
:2029000009060843E17A227B090412021143084381900020002714E0FEF7D6FC80B284904C
:2029200082980122C119520201A8FDF754FC0122520201A98498FEF7EFFC80B2FF37FF3784
:20294000023781998F42E7D3010AA173E07305E0FFE70021017001E05521017020798021C8
:2029600008432071AD1D280A6070E9B2A1700002001D081885B221462A460020FEF7CCFCD9
:20298000010A61556119487016208870F07808210843F0707FB006B0F0BD00000A0400003A
:2029A000140000200FF0AB120C000020080000200400002070B50024002809D1054D2846A4
:2029C00000F00AF8012803D1AA24284600F019F8204670BD2C20014010B504462046FFF740
:2029E000A4FE01280BD02046FFF780FE012806D02046FFF787FE012801D0002010BD01206F
:202A000010BD10B504462046FFF796FE2046FFF774FE2046FFF77DFE10BD30B47446641E58
:202A20002578641CAB4200D21D46635D5B00E31830BC18477047000086B0FFF703F90120F6
:202A400069460870487000268E70C8704B21C9010291694608734E738E731E48FEF732FBFE
:202A6000FFF78EF862B61C4F3E707E807E601B4DFFF754F8E878400704D50020FFF79EFEF1
:202A8000FFF74CF838780028F2D17888FA28EFD3FEF7E8FC7E601F2040020168059100291D
:202AA00009D001229204914205D24868096881F308888047DCE70124A4030594084B04224D
:202AC00005A9FEF75DFF6068216881F308888047CEE700002C200140080000201404002039
:202AE0000FF0AB1280807F7E7D7C7B7A7978777676757473727171706F6E6E6D6C6C6B6A56
:202B00006A696868676666656464636362616160605F5F5E5E5D5D5C5C5B5B5A5A595958A8
:202B200058575756565555555454535352525251515050504F4F4F4E4E4D4D4D4C4C4C4B6F
:202B40004B4B4A4A4A494949484848474747474646464545454444444443434343424242AF
:202B6000424141418182838485868788898B8C8D8E8F919293959697999A9C9D9FA0A2A37A
:202B8000A5A7A8AAACAEB0B2B3B5B7B9BCBEC0C2C5C7C9CCCED1D4D7D9DCDFE2E6E9ECF07B
:202BA000F3F7FAFEC42B0000000000201400000004010000D82B0000140000206C14000054
:182BC00020010000000000000000000000000000000000000048E801AB
:20400000C0560020DD410000E5410000859B00000000000000000000000000000000000006
:20402000000000000000000000000000E9410000000000000000000069420000C9C2000020
:20404000EF410000EF41000011DF0000EF410000EF41000025690000EF410000EF410000C2
:20406000EF410000EF410000EF41000089EC000015ED0000EF410000EF410000EF410000A9
:20408000EF410000EF410000EF410000EF410000EF410000EF410000EF410000EF410000A0
:2040A000EF410000EF410000EF410000EF410000A57D0000EF410000F58C0000EF4100003D
:2040C00000F002F800F05FF80CA030C8083824182D18A246671EAB4654465D46AC4201D1EF
:2040E00000F051F87E460F3E0FCCB6460126334200D0FB1AA246AB4633431847C037010078
:20410000E03701000023002400250026103A01D378C1FBD8520700D330C100D50B607047B7
:2041200010B5662902D111F07BFB10BD642902D100F056F910BD752902D100F051F910BD30
:20414000782902D100F082F910BD632902D101F03DFE10BD732902D101F040FE10BD0020D0
:2041600010BD1FB501F064FF04000020002111F08FF9401C60600020002111F09FF9E06046
:204180001FBD10B510BD02F037FB1146FFF7E9FF0EF038FC02F04FFB03B4FFF7F2FF03BC8D
:2041A0000CF048FA70B505460C46164602E00FCC0FC5103E102EFAD2082E02D303CC03C518
:2041C000083E042E07D301CC01C5361F03E021782970641C6D1C761EF9D270BD07488047E5
:2041E00007480047FEE7FEE7FEE7FEE7FEE7FEE704480549054A064B704700000DEB0000E2
:20420000C1400000C0460020C0560020C0480020C048002072B6704762B67047EFF31080D1
:2042200072B6704780F31088704730BF704720BF7047000072B6214821490160002080F3B2
:20424000098807F09FFE1F48016881F308881E481E49016062B6FEE71B481C49016070475A
:2042600019481A490160704772B6EFF3098000280BD02438164909680860F0C044464D466B
:2042800056465F46F0C0734608C007F07BFE114811490A7802700E4810490A68026010689A
:2042A0001030F0C8A046A946B246BB4608C89E4680F309882438F0C862B6704720ED00E0B0
:2042C0000000FF008C00002004ED00E00000001024010020CA000020CB00002028010020EF
:2042E000704710B5044601F0D1FA0068005DC00602D52046203010BD204610BD0FB4054913
:2043000010B503AA029801F06DFD10BC08BC04B018470000600000200FB41CB5074B06AA7D
:204320007B4469460090059801F02DFD0020694601F03CFD1CBC08BC04B01847891A00007C
:2043400070B5044685690068C10601D5302600E02026C00707D070BD62683046A168904794
:20436000206A401C20626D1EF6D570BD70B5044685690078C00707D170BD6268A16820209E
:204380009047206A401C20626D1EF6D570BD70B50C460546012A05D02878800600D5EA694B
:2043A000002302E0012305E05B1C934202D2E05C0028F9D1A869E618C01AA861286AC01845
:2043C00028622846FFF7BCFF04E06A682078A968641C9047B442F8D32846FFF7C7FF70BD66
:2043E000F7B5002575291068009914A611D0C046C046002802DA404211A608E00099096867
:204400008A0701D50FA602E0490704D50EA6012501E0C046C046009F0024243704E001F0BB
:20442000F5FC30313955641C0028F8D12B4632462146009801F03DFAFEBD00000000000060
:204440002D0000002B0000002000000070B504460D4621461068C046C0462188090502D5A9
:204460000F4A7A4402E00E4A7A440E3223460021243305E006070009360F965D5E54491CC2
:204480000028F7D120780023000705D5702D03D0002901D002231132204601F00AFA70BD36
:2044A0008E2D0100F3B50446002081B020622046E1688847002872D0252802D06268A168A1
:2044C000ABE0594F00267F442046E16888472028054608DB312D06D278192038007800280D
:2044E00001D00643F0E7B00701D5042086430020E0610746A0612A2D0AD028460BF0E3FF26
:20450000002827D0B8000019303D0090856119E00298BA00121902C8916102902046E16853
:204520008847012F054617D1E06900281FDA202086431CE000980A218069484300994019B1
:20454000303888612046E168884705460BF0BBFF0028EFD1012F0AD02E2D08D12046E168B7
:2045600088470546202006437F1C022FC3DBA069002803DA4042A06101200643F00701D06B
:20458000102086436C2D0BD0682D09D04C2D3CD06A2D38D0742D38D07A2D36D016E040E0B0
:2045A000E1682F4620468847B842054609D16C2F29D001208002E1680643204688470546A0
:2045C00004E06C2F1DD0FF2001300643002D28D028464138192803D80120C002064320352D
:2045E000204626602946029A1646FFF799FD002810D001280BD0F61DF008C000083002903B
:2046000055E74020E1E78020D5E70020D3E7361D02964CE762682846A1689047206A401CE4
:2046200044E7206AFEBD0000522D010030B505460B462A461C781078521C5B1C002801D09F
:20464000A042F7D0002C03D0002802D06D1CEFE7284630BD034610B50B439B070FD1042AF2
:204660000DD308C810C9121FA342F8D018BA21BA884201D9012010BD0020C04310BD002A7A
:2046800003D0D30703D0521C07E0002010BD03780C78401C491C1B1B07D103780C78401C2F
:2046A000491C1B1B01D1921EF1D1184610BD000030B5441C03E00178401C00290DD0810765
:2046C000F9D10B4BDD0104C8D11A91432940FAD0001B0A0603D0C01E30BD001B30BD0A043F
:2046E00001D0801E30BD0902FCD0401E30BD0000010101010346F0B50B439B072DD1244DEB
:20470000EF01042A29D308C810C95E1B9E43121F3E4017D0D8B2E1B2401A3106014310D113
:2047200098B2A1B2401A310401430AD118022102000A090A401A3102014302D1180E210EDB
:20474000401AF0BDA342DCD018BA21BA884201D90120F0BD0020C043F0BD002A01D10020B6
:20476000F0BD03780C78401C491C002B0DD0A3420BD1521E09D003780C78401C491C002BCF
:2047800003D0A34201D1521EEBD1181BF0BD000001010101F8B5042A2CD3830712D00B78B6
:2047A000491C0370401C521E83070BD00B78491C0370401C521E830704D00B78491C037010
:2047C000401C521E8B079B0F05D0C91ADF002023DE1B08C90AE0FFF7E5FCF8BD1D4608C983
:2047E000FD401C46B4402C4310C0121F042AF5D2F308C91A521EF0D40B78491C0370401CF8
:20480000521EEAD40B78491C0370401C012AE4D409780170F8BD134610B50446CAB21946E6
:204820001002821810048218204600F00FF8204610BD01E004C0091F0429FBD28B0701D55F
:204840000280801CC90700D00270704700290BD0C30702D00270401C491E022904D3830710
:2048600002D50280801C891EE3E70022EEE70022DFE70000024670B50A4392072AD11E4D3A
:20488000EE0104C808C9541B9443344017D0D0B2D9B2401A2106014310D190B299B2401A51
:2048A000210401430AD110021902000A090A401A2102014302D1100E190E401A70BD9A422E
:2048C000DFD010BA19BA884201D9012070BD0020C04370BD02780B78401C491C002A09D089
:2048E0009A4207D102780B78401C491C002A01D09A42EFD0D01A70BD010101010022030967
:204900008B422CD3030A8B4211D300239C464EE003460B433CD4002243088B4231D30309E9
:204920008B421CD3030A8B4201D394463FE0C3098B4201D3CB01C01A524183098B4201D341
:204940008B01C01A524143098B4201D34B01C01A524103098B4201D30B01C01A5241C308C7
:204960008B4201D3CB00C01A524183088B4201D38B00C01A524143088B4201D34B00C01A29
:204980005241411A00D201465241104670475DE0CA0F00D04942031000D3404253400022E2
:2049A0009C4603098B422DD3030A8B4212D3FC22890112BA030A8B420CD3890192118B4256
:2049C00008D3890192118B4204D389013AD0921100E08909C3098B4201D3CB01C01A5241DC
:2049E00083098B4201D38B01C01A524143098B4201D34B01C01A524103098B4201D30B0132
:204A0000C01A5241C3088B4201D3CB00C01A524183088B4201D38B00C01A5241D9D243086B
:204A20008B4201D34B00C01A5241411A00D20146634652415B10104601D34042002B00D556
:204A40004942704763465B1000D3404201B50020C046C04602BD7047704770470246C80FC6
:204A6000C00781434B0030B54B405B009B0D20D01923DB06C91801231B05994220DB0324BE
:204A8000A40704251346AB400BD3002B04D1EB0613409B00E34204D4012464070023121966
:204AA0005941FF231B0599420BD2C9000143500F09E0CB0204D501430803024305D00548B1
:204AC00030BDFF21C905084330BD084607210905884330BD0000C07FF0B50C46871A9C41D3
:204AE0000D46861A9D4103D2C01BA141D21963410D0D1F0DC94EEC1BAE435CD07F057F0D33
:204B00000026002F51D02D05AC46A943DD020123ED0A1B051D4320231B1B24D41746E740A0
:204B2000381871412F46E740CC199D402818314661410C0D27D161449A4013D50023401CC5
:204B4000594152000ED14008400001224B005205D34207D305204007C14201D5B04900E030
:204B6000B0493046F0BD6B00002A00D001229A181F23203C1B1B01D5002302E0E5402818CB
:204B800071410C0DD7D0012424050919C407CD0740084908E40F28436144002CD5D0002403
:204BA000401C61419A40D0D1CDE76A05520DD9D1C90FC907D5E79C4D4E00002801D0012497
:204BC00000E0002434195F00002A01D0012600E00026BE19954FAC420CD8AE420AD8B442A8
:204BE00006D001256D05EC42BCD010461946F0BD9942FCD000203946F0BDF0B51FB40C466E
:204C00000F46811A9F412546861A9D4106D20125ED076F40401ABC4152187B41210D1E0D64
:204C20008D1BAC467D4D8D437ED075056D0D7CD00D05AE46AC431B031B0B794D52429D4141
:204C4000202366469B1B14D31746F740381800260090744160462F460741E41900989D40A4
:204C60002818664116D4714671189A4025D5012320E093182A466A415200002B00D0521CAA
:204C80001E23203E9B1B002B61DD3541EE1728186641E8D5001876415B1C9A4000D3401CE8
:204CA0004B05F3181524E34010D3002B52D071467118D30FC01802D3491C05B0F0BD012353
:204CC000DB079A42F9D140084000F6E701225205B21801D1002853D00123CC0ADB029943D3
:204CE000891E002A08D1020C03D0020C0004103902E00246002020390023550B05D11202BE
:204D00000823550B01D152010D23550C01D112011B1DD50C01D192009B1C150D01D15200F3
:204D20005B1C2025EE1A01E02CE022E00546F54015439840CA1AE10769181305C918002AA0
:204D4000BBDA032040070818C10FC9070FE071466118B2E7F10740080843711071444A00D1
:204D60000CD001235B059A42A7D2C90FC9070020A3E74905490D26D1002001E00028F4D1A3
:204D800000219AE7284D6600002801D0012100E0002171185F00002A01D0012600E000266A
:204DA000BE19224FA94210D8AE420ED8B14208D001256D05E94206D01946A80241401046BE
:204DC0007BE79C4201D0214677E70020394674E710B50C465C4005D50124E4076340FFF7CD
:204DE0000CFF10BDFFF778FE10BD30B40C465C4004D50124E407634030BC6DE630BCFCE637
:204E000070B50124E40761400D465D4002D4FFF763FE70BD6340FFF7F0FE70BDFF070000B8
:204E20000000F0FF0000F07F0000E0FF0000F87FF0B5F94D0C091E092C402E402F468BB00D
:204E4000A7437DD0B543FCD0002E7AD0002CFCD00D465D40ED0F2543AC1BFF25AD0464197A
:204E60000894C502440DC9022143500DDC0204430120C00701430443D2020191200C110CAB
:204E800000958C46010423468B430A9161460904E24D8A430991010A7D4449198039097822
:204EA00005464D4301266D18F605751B6943C90C640B891C4C436418B5012C1B250C2E04E0
:204EC000B4434C434D43210C691889090591009DE90701D00121C90704912C460199670886
:204EE000CD072F434C08059DE10B4D432D0C29466646754302950D4645432E46029D7D1BD1
:204F0000B44100950D465D4301942C0C2F040D465543AE462D0C3D43029503947546049CF3
:204F20002D04641B049406D2029C039D641C002675410395029401AC70CC009F7D1B01E088
:204F40003EE162E1B44109040095079101940599A4086143090C0C464443650BE7040C46A2
:204F600066467443A646640B3C43039502947446049DE4042C1B049406D2029C039D641C0E
:204F8000002675410395029401AC70CC009F7D1BB44101940C465C430095650FE7000C462A
:204FA0005443A646640F3C43039502947446049DE4002C1B049406D2029C039D641C002674
:204FC00075410395029401AC70CC009F7D1BB441AE09AF06049DC900AD092F43049DA4068F
:204FE000AD060495079D344369180791059DE10B4D432D0C29466646754302950D46454395
:205000002E46029D7D1BB44100950D465D4301942C0C2F040D465543AE462D0C3D43029539
:2050200003947546049C2D04641B049406D2029C039D641C002675410395029401AC70CCAD
:20504000009F7D1BB44101948C050694079C890A611800950791019C0599A4086143090CE8
:205060000D464543680BEF040D46644665436C0B3C43049FED047D1BAC4602D20025641CBD
:205080006841009E019D371B85410846584301950C46460FC5005443600F28436546E40028
:2050A0002C1B02D20025401C6E41019D3F1AB5412846BD09800628438446A009BF064E020B
:2050C0000699A40676180743079D002068410A99079019430020099B00906046FF19134344
:2050E0004041E20F64003A43A4460446D71A8C41A04203D90120009020463A46C70F941894
:2051000040416246D20F2243644664000494009CBE466400D71AA446044602978C4177462E
:20512000002F01D1A04204D96046401C8446029A2046C40FA64694184041049A0546D20F2B
:20514000224364466400D31A8D417146002901D1A84202D928461A46641C104301220028BE
:2051600000D0164361020020079B891904465C410223002C02DB491813466441089DCE0A4E
:205180002D145D194B056705E10A2C050D1908993E43C9076940002B08D0934006D30022EE
:2051A000761C5141002B01D1760876001C4A002D43DB154241D0AA433FD030460BB0F0BDE7
:2051C00006180D464D41174C7642AC411AD395181C465C41134A6D42A24113D301225205E0
:2051E0004C00D4420AD15C00D4420BD04B4002D592021143E2E749004908DFE75940C90F41
:20520000C90718E000200849D8E7054801420DD10342F7D0F2E700000000FF079123010088
:205220000000F07F0000E0FF0000F87F114859400143C01241400020C0E70123089A9B06F2
:205240009A4205DC032252078918C90FC907B5E7052252078918074A1143D2125140ADE75F
:2052600070B515461C4602460B4628462146FFF7DFFD70BDFFFFFF7F30B50346CA02400D1C
:205280001043164D164C0A1502D02043002A06DBAA1A002A12DDD040FF2A0BDC30BD520556
:2052A000520D01D140004008AA1A07D4D0404042FF2A01DD002030BD0028FCDD4A00002B7A
:2052C00001D0012000E00020101801225205D042F0D8C817C043604030BD00001E040000CF
:2052E000000000800346CA02400D10B510430A1504D00124E4072043002A05DB0A4CA21A32
:2053000004D4D040FF2A00DD002010BD4A00002B01D0012000E00020101801225205D04297
:20532000F2D8C817C04310BD1E0400001F22030C02D10F22000402D0030E03D004E00020C0
:20534000014670470002083A030F01D10001121F830F01D18000921E002801DB4000521EAD
:20536000120551184205C012411810467047C10FC90700D04042012292071143D6E701214D
:205380008907D3E7F0B58B4C0F09254689B0BD437BD01D092646AE43FAD00E465E4027409A
:2053A000F60F3E43254071D024012142FBD0FF24AD19A4042D1B039501252D05DB02DB0AE3
:2053C000C9022B43C90A29431E010901040F130F050121431701880B820391432D098C4681
:2053E000A90B1E438A039543B30B9A0396433F09BA0B9403A74302962E467E430497B6460D
:205400004E19D7190C460196544305977E43371B7646BF1B3601B646BE0B361900967646D3
:20542000BC043719009C01D3641C00946400002F01D001263443029E049F754366467E436E
:205440000496760034196E0034190094029C019E1C196643751BAE46069465464519059CBD
:2054600005956C43594375460891691A0191049E01465143A41B0491611A009C0791E10677
:2054800005D061090122114302E072E06EE06109089D00272C0A2D066918049D7C412A0A22
:2054A0002D066918019D6241AC0DAD026D185441079A910D920255196141029A64465843B1
:2054C0005443069B059A5A43121A131B9A0E9B015B187A41010B0005C3185141220A2006BC
:2054E00044195A419A4200D2491C01204002814203D315230226F64302E014230326F64391
:205500002020C51AA9401746AF40DA400A4320460399D8400914731819055118039A38436F
:20552000D2075140AC4009D00122944006D30022401C5141002C01D1400840001E4A934299
:2055400012D3012203989206904207DB0520400709181A480143C012414004E00320400788
:205560000818C10FC907002009B0F0BD0020F107FAE705180C464C4111486D42A04115D31F
:2055800094181A465A410E48644290410ED301204A004005824209D35A00824206D35940D6
:2055A000C90F084AC90700201143DDE700200649DAE700000000FF07FE070000FFFFFF7F02
:2055C0000000E0FF0000F07F0000F87F70B505464800440D124B0020002C0AD0634008D0FF
:2055E0009A4206DA6642B24203DD12054019514170BD002C08D0002B09D0C90FC907002A6A
:20560000F6DB084A114370BDC90FC90770BD28460A03104302D00020034970BD284670BD3D
:20562000FF0700000000F07F0000F87F0121C9050123411842001B06D3185B0E0AD0C110AF
:205640000722D206891840075242D14201D5520089187047090208D50146002A03D0C10F3E
:20566000C9070020704710467047420202D0002002497047072109050143F4E70000F87F72
:20568000F0B5FF252D04C609C209FF2704462E400137CB093E4348402A402B400746002A37
:2056A0006BD0002B69D0AA4267D0AB4265D0002800DA32460125ED0529432C43090220026C
:2056C000090AD21A4B0C7F24E31A434C000A7C44E35C7D242404121914145B00A218884241
:2056E00001D3521C00E0400049420C465C4324115C43DB016415E318040A5C43C502200D07
:205700000C4644436419250A5D432303EC0C0D46654300030019EB184C42A34201D35B1872
:20572000401CD4052018002B07D05B00C91804D3401C002901D1400840003F2189048A424F
:2057400009D3002A08DC1106090F04D0032149074018C00FC007F0BD012241001206891830
:205760007F2252069142F6D205214907C84201D59010F0BDFF20C005F0BD002F00DA3246E0
:205780001648AA4207D2AB4205D21902090E17D0F80FC007F0BDFF2563002D06AB42F9D816
:2057A0004900A942F6D8AB4201D1A942F2D0A94201D1002101E061004908D0050843F0BD3D
:2057C0001102090EFBD0FF200243D005F0BD0A460146104654E70000DB1B01000000C07F90
:2057E00010B501469E240002CA15A307002A02D01843002A04DBA21A002A0CDDD04010BD44
:205800001206120E01D140004008A21A03D4D04040420028F3DDFF2248001206904201D9AC
:20582000002010BDC817C043584010BD1F22030C02D10F2200041CD0030E01D10002083AC9
:20584000030F01D10001121F830F01D18000921E002801DB4000521ED2055118021251182D
:205860001922904004D3491C002801D14908490008467047C10FC90700D04042012292079A
:205880001143D3E701218907D0E7704710B500F0CFFB001D10BD00BFF9FB000010B500F009
:2058A000CBFB006810BD10B5044600F0C5FB046010BDFFB504460D4681B02430009021680E
:2058C000880604D51022E0699143216000E00120A84201DD471B00E000270498A1697A1926
:2058E0001018081AA0612078C00602D42046FEF727FD002608E003986268A168805D90477A
:20590000206A401C761C206204988642F3DB2078C0060AD52046FEF713FD06E06268A168FA
:2059200030209047206A401C206238467F1E0028F4DC07E000986268A168405D9047206A75
:20594000401C206228466D1E0028F3DC2046FEF70DFD2078000602D5022005B0F0BD0120FA
:20596000FBE700007047FFB50C461E468FB003CA089009914F007D0D00D16D1E0021084642
:205980000020C0460321099A89050840002A03DA8200801840080840800D01280A9002DD64
:2059A0000020C0430A90089807430DD0F048F149281848430714189800281DD07542291E48
:2059C0001DDD0A9842421BE01898012802D00020302104E00020F24305E02154401CB042AF
:2059E000FBDB30460022189B002121540F998B600A60486013B0F0BDBD1B6D1CDFE70A9A10
:205A0000002900DA69420BA800F09CFB0BAB07CB03AB07C30899099800F000FC6B4607C3F5
:205A20000146D5480918002D00910BDDD24903980A9A49424018002303A90390684600F0FE
:205A40005DFE08E003990A9A0023081803A90390684600F0FDFD6B4607C30004000C03D04B
:205A60000020C043410800E01046189A002A03D00022009215461EE0751E05D400F0E0FA92
:205A8000303262556D1EF9D501220843079602D000227F1C04E02078302801D100227F1E95
:205AA000002A069787D01EE0112D07DA00F0C8FA303262556D1C02460A43F5D1084303D0DE
:205AC0000098002819D00EE00021681E05E0235C625C63542254401E491C8142F7DBA81B1E
:205AE000401E07950690079A18990020A0540F98079B069A81600CC07CE7112600201890B8
:205B000059E7D21DF0B50D460446D10893B0C90003C90C900D910AF02DFB02460D98C00F4B
:205B200001D02D2007E02068810701D52B2002E04007C00F4001032A0F9001D0072A05DB48
:205B400003462946204600F0B9FA0EE12078800601D5E76900E006272846652D04D06628E2
:205B600014D0672D69D12DE00020112F009001DB112300E07B1C0CAA03A910A8FFF7F3FEEE
:205B80001199002610987D1C0E9142E001203B460CAAC0070B900120009003A910A8FFF76E
:205BA000E2FE119D12981099002600280E9501D1781C0D18781B02D446427D1C761EE81B67
:205BC00000903AE0012F00DA01270020112F009001DD112300E03B460CAA03A910A8FFF776
:205BE000C2FE11993D46109800260E91217809070BD40E99A94200DA0D4603A9012D04DD49
:205C00004A19203AD27F302A06D0B84201DA011D04DA012100910FE06D1EEFE7002802DC6C
:205C200086192D1A03E0411CA94200DD0D46801B401C00900120C0070B902078000705D4A1
:205C40000098A84202DB0020C043009069460020C8720B98012102AF0337C907884225D0EA
:205C6000022010902B2011900B9800280BDA40420B902D20119006E00B9800F0C7F8303122
:205C80007F1E0B9039701099481E00291090F3DC0B980028F0D111987F1E38702088000555
:205CA00001D5452000E065207F1E387001A8C01BC01D0B900F98002800D001204119009851
:205CC000C01709180B980818A169081A401EA0612078C00602D42046FEF732FB0F980028F3
:205CE00005D06268A1689047206A401C20622078C00625D52046FEF723FB21E0002E07DBDB
:205D00000E98B04204DD03A86268805DA16802E06268A16830209047206A761C401C2062D9
:205D20000098401E002800900AD100F081F9C06862680168405CA1689047206A401C206231
:205D400028466D1E0028D9DC07E062683878A1687F1C9047206A401C20620B99481E0029F6
:205D60000B90F2DC2046FEF701FB032042E6000001FCFFFF104D0000E1DFFFFF01694A1C32
:205D800002610878704700B58FB00291002105910549019379440391114604906846FEF76A
:205DA00081FB0FB000BD0000E5FFFFFF0A681070521C0A60704710B54369002B02D0C04614
:205DC000C04601E0FEF7E3FA012010BD1278014624310A7000224A700122ECE7116800220F
:205DE000D243E8E7084B70B50D467B44FFF7CBFF0446284600F0D2FC002802D00020C043E2
:205E000070BD204670BD000053BD000001468008081A02091018020A1018020C1018C0085C
:205E2000820012185200891A01E0401C0A390A29FBD27047F8B5224C4E00069DA6420AD8B4
:205E4000A64201D1002806D15E00A64203D8A6420AD1002A08D00D24240425422CD0294678
:205E6000002000F09FFCF8BD0C461C430CD4994202D0EFF30080F8BD904202D0EFF3008067
:205E8000F8BDEFF30080F8BD09242407E5008B4206D0EFF30080A043591A06D2284304E077
:205EA000101A05D3EFF30080A04380F30088F8BDEFF30080A043F1E7009500F08BFCF8BD0D
:205EC0000000E0FFF0B53D4B02460C461C400020002C63D03A4D8B4366D000296BDB0B0D2F
:205EE0001D05A94301252D0529430124FD33E34001D392184941FF3381339C468B02940D5A
:205F00000121234389074C42920200271B198C105D1A04D42D1B02D42B4665004919921801
:205F20005B416408F4D15C1A08D40125ED07EE175519744102D42A462346491C94185B41A4
:205F4000012292071D46E61B8D4106D4B61A854103D42B46550034467F1924195B41520801
:205F6000802AEFD1234300D0022338460A22D04001D3012213438A0510436246890A120521
:205F80008918002B09D00122D34002D30022401C5141002B01D140084000F0BD0B031343AB
:205FA00007D0C90FC907F0BD0803104303D1002901DB1046F0BD00202946F0BD0000F07FD0
:205FC0000000F87F10B5FF231B0644009C421DD84C009C421AD80346124A0B4307D4401AE7
:205FE00002D3EFF3008010BDEFF3008010BD081A06D2EFF3008001219043C907084302E020
:20600000EFF30080904380F3008810BD0D231B041A4204D01146002000F0C4FB10BD00F021
:20602000E3FB10BD00000090004870475C460020004870477C460020004870475C460020C2
:206040000B4670B5024689078008084319469D08141AA94125090807054308092C1948419F
:20606000250A01060D43010A2C194141200C0D0428430D0C00194D41002140194D41C00890
:2060800069070843E908840F8D002543840024184D4124196D41121BAB4107E00925ED4335
:2060A0002C11521963410024401C61411C460A250026551BB441F1D270BD0000F8B51F4654
:2060C000044601230068DB02032601461840072A05DB002801D017A506E017A504E00028D1
:2060E00001D016A500E016A5102081432160A069C01E002FA06101D0401EA0612046FEF762
:206100001FF9002F09D038466268A1689047206A401C2062C01C206206E0206AFAE7626856
:206120002878A1686D1C9047761EF8D22046FEF71DF9F8BD4E414E006E616E00494E4600DB
:20614000696E6600F7B516468AB0334878446C4603467C33C06F5A689B680DC42E487844E8
:20616000763003AC0DC80DC43720C001081837211B30FEF7CDFB05460C46803D1B3C02D504
:206180006442012000E000200027099010E0E0070CD00C2020497843794432464C39411862
:2061A0006846012300F054FA6B4607C364107F1C002CECD1184F7F442E3F16E0E80712D0FE
:2061C0002001C0190EC80691089307920068F04201D1981908903246012306A903A800F089
:2061E00037FA03AB07C36D10641C002DE6D10998002806D032466946012303A800F07EFA18
:2062000005E001233246694603A800F021FA0A9B07C30DB0F0BD00003012010003464000F3
:206220000A4610B5400D0BD00121C9070F24A40200191C0364082143540D2143D20207E0CE
:2062400000210120F2E7D40F490021435200401E0029F8DADB0FDB07184310BDFFB50D46ED
:20626000144685B04868516809F05EFF00910190A868A16809F058FF02910390A868616846
:2062800009F052FF029A12188242029201D2012000E00020019A0B18D2180028019202D06D
:2062A0008A4202D903E08A4201D2012000E000200099081800906868A16809F035FF029AA9
:2062C00012188242029201D2012000E00020019A0B18D2180028019202D08A4202D903E089
:2062E0008A4201D2012000E000200099081800902868216840004900400849084018FA49BF
:20630000471814E001994000C90F08430090019802994000C90F08430190029803994000FF
:20632000C90F08430290039840007F1E039000980028E7DA0898002801D0EC4E00E0002643
:20634000B74201DA012000E00020002804902AD0F71BF806C00E15D0029B2021091A039A31
:206360008B401A430392029A019BC2408B401A430292019A009BC2408B4000991A430192DE
:20638000C14000917B110DD06F460320C11A03D500218200B95003E08A008100BA587A5001
:2063A000401EF3D5374603980299002800D00120014308980291002808460CD0002800D02A
:2063C00001200199019A490508430121D20AC902D202019200E001210E9B0122D207012BCB
:2063E00002D0002B03D013E0002807D120E0904204D890420CD1019B0B4209D0019B5918AE
:20640000019105D10099491C009101D17F1C009200280DD0102108460020C0460498002818
:2064200006D00F98002803D0082108460020C04628682168019B009A4840C10F0598C90733
:2064400039430EC009B0F0BDFFB587B0099A089808995368926840688968964600220393DB
:2064600017469446089A12685300099A5B081268520052089A1A9E4BD4180A9A002A01D022
:20648000352200E0402206920022012315460492DB07059324E0002D05D175460346039E6E
:2064A0004D1BB34109D375466646039B491B049D9841059B7519AC465F4163463B4308D002
:2064C000059B049EDD0776082E435B080496059301E0521E641EC50FED0749184041521C27
:2064E000069B9A42D7DB002D04D17546039A6B1A824101D203200CE0039A0B466B404240CE
:20650000134303D0014303D0012002E0022000E00020614601910021009702910A990029C6
:2065200005D0614640020143704B019102E08007002302909C4201DA012000E0002007000D
:206540003AD01A1BD006C00E15D0029D2021019C091AC5408C402543029C8C4000D001243B
:206560002543019C0295009DC4408D4000992C430194C140009154111DD06D460221002298
:2065800002290CD10320001B07E0002804DB8600AE59002E00D00122401C0328F5DB081B9F
:2065A00002D588002A5004E08000285810438A00A850491EE3D51C460A98002802980CD088
:2065C000002800D001200199019A490508430121D20AC902D202019200E00121109B0122D4
:2065E000D207012B02D0002B03D013E0002807D11FE0904204D890420CD1019B0B4209D0B5
:20660000019B5918019105D10099491C009101D1641C009200280CD0102108460020C046E9
:20662000002F06D01198002803D0082108460020C04608980999019A009B0068096848403B
:20664000C10F0798C907214382600AC00BB0F0BD00B585B0019300920A460146002302A80F
:20666000FFF7FCFD02A807C805B000BDFFB50A461F4685B00799019301230091014602A8C8
:20668000FFF7ECFD02990398049ECA0F4900D20700920F22490892028C1A0021002800DBD6
:2066A0000C46450013486D08844214D3079A002A04DA441E0026104DF64302E004460D4680
:2066C0000E46102108460020C046002F03D0042108460020C0462005E90A084300990843DF
:2066E0006905F20A1143ADE602C0FFFF013C0000FF3F0000FF070000FFFFFF7F00B585B0A2
:20670000019300920A460146002302A8FFF79CFE02A807C8A8E7FFB50A461F4685B0079919
:20672000019301230091014602A8FFF78DFE02990398049ECA0F4900D20700920F224908B7
:2067400092028C1A0021002800DB0C46450011486D08844214D3079A002A04DA441E002698
:206760000D4DF64302E004460D460E46102108460020C046002F03D0042108460020C04673
:206780002005E90A0843009908436905F20A114358E60000FF070000FFFFFF7FC06880216B
:2067A00008407047C80212D54803400F002804D0C803C043012188407047EFF300800001C1
:2067C000000903210907084380F30088704700207047000010B500200249029A00F033F8C1
:2067E00010BD00000000F87F10B5024800F02BF810BD00000000C07F7546FFF715FCAE4671
:20680000050069465346C008C000854618B020B5FDF7EEFC60BC00274908B6460026C0C522
:20682000C0C5C0C5C0C5C0C5C0C5C0C5C0C5403D49008D46704710B50446C046C0462046E4
:20684000FDF7AAFC10BD10B50C461107090F092904D00A290AD008290CD104E01146082006
:20686000FFF7A0FF06E0510606D501E0510601D50120C007214610BDD10607D5010109097A
:20688000CC084907000E0006044309E0410F20024907000A0143200E00061D22D1410143B7
:2068A0000846E7E770B58C180578401C6B075B0F01D10378401C2A1106D10278401C03E0CA
:2068C0000678401C0E70491C5B1EF9D12B0705D40023521E0DD40B70491CFAE70378401CA1
:2068E000CB1A921C03E01D780D70491C5B1C521EF9D5A142D8D3002070BD000010B504460C
:2069000002200749087008464470002088700220C87000200871084600F052FA10BD000029
:20692000BA08002020B5002500BF00BF00BFFDF775FC054600BF01F0E3F800BF04F08AF9CD
:2069400000BF01F0F7F800BF2846FDF76BFC00BF00BF00F003F804F093F920BD10B500F095
:206960004FF800F045F881B20C48407842000B482038815220304078401CC1B207484170CD
:2069800041780078814208DB002000F019F8002000F006F8002000F047F810BDE0080020CD
:2069A0000649012804D0C86A40084000C8627047C86A01221043C8627047000000280140FE
:2069C00005498022012803D0C86A9043C8627047C86A1043C862704700280140034AD16A8E
:2069E0000223994318400843D0627047002801400248406B4005400D7047000000280140FA
:206A000001490120886370470028014005491022012803D0886A904388627047886A1043D9
:206A2000886270470028014005492022012803D0886A904388627047886A10438862704774
:206A400000280140044A916A090909010007000F0843906270470000002801400248006B40
:206A60004005400D704700000028014040050249400D0863704700000028014030B50446CD
:206A8000234D230009F068FB0B072333333333333333331514000020FFF7A0FF1C48FC30CC
:206AA000FFF7E4FF0120FFF7B1FF0120FFF7BCFF30BD0020FFF792FF19208001FFF7D6FF4B
:206AC0000120FFF7A3FF0120FFF7AEFF30BD0220FFF784FF2846FFF7C9FF0120FFF796FFD9
:206AE0000120FFF7A1FF0620FFF7ACFF30BD0220FFF774FF2846FFF7B9FF0020FFF786FFE9
:206B00000120FFF791FFA01DFFF79CFF30BD0000FF030000F3B581B00F46214E214D307CDA
:206B20001E2813D0204C214E214930460EF010FE01990EF053FD314601980EF009FE2946F9
:206B4000FEF79EFD21460EF003FDFEBD707CC009FEF715FC0022D243FEF738FD02460B46D0
:206B600000201449FEF734F9FDF778FF0446032F0AD0708AFEF703FC0F4A104BFEF735F9F0
:206B8000FDF76CFF0646CFE7708AFEF7F8FB0C4A0C4BFEF72AF9FDF761FF0646C4E70000A2
:206BA00080FCFF1F7A36A1400000F0410080BB440000C84100003E40421CEBE2363A2EC0EA
:206BC000D712F241CF2624C0F3B581B002460023FFF744FF06467D2162201446C90044432D
:206BE000554DFF2E2CD15548CF00008BB84227D94B27FF01B84223D2082A05D90C2A04D855
:206C0000083A1420424313468AE0252A04D85043FDF774FE034683E07D2A05D86043294650
:206C2000FDF76CFE03467BE0444C5043FDF766FE05461A20205E6421FDF76AFE2B186FE061
:206C4000F01FFF38F9382DD13C487D27008A7F01B84227D94B27BF01B84223D20F2A5FD901
:206C6000192A04D80F3A0A204243134658E04B2A04D85043FDF742FE034651E0FA2A05D8D9
:206C800060432946FDF73AFE034649E02B4C5043FDF734FE05461220205E6421FDF738FE6A
:206CA0002B183DE0F01FFF38F93802D0FF2E02D002E0520000E09200214C224EA08AFF2759
:206CC00086199037BE4225D21E2A29D9322A03D81E3A9000131823E0962A04D85043FDF79D
:206CE0000DFE03461CE0FF23F5339A4207D862214A4350432946FDF701FE034610E050436E
:206D0000FDF7FCFD05461620205E6421FDF700FE2B1805E00C480A3A5043FDF7EFFD034694
:206D20000298032805D1662058436421FDF7E6FD03461846FEBD0000A086010040FDFF1F57
:206D400040FCFF1F2FF8FFFF7E0800000649012804D0486840084000486070474868012278
:206D60001043486070470000002801400348406AC00701D001207047002070470028014053
:206D80000149012048627047002801400348406A400601D501207047002070470028014095
:206DA0000649012804D0086840084000086070470868012210430860704700000028014002
:206DC000F8B50446002000900026607802F0F8FD204602F03FFE1021A01DFDF746FDE07815
:206DE000102801DD0F20E070E078022801DA0220E070E1782620015500212720015501205B
:206E0000FFF7CEFD25484069000424490969471800BF2720015D2620005D814220DB00266E
:206E2000012505E06900A01D405A8619681CC5B2E078A842F6DCE078411E3046FDF75EFD5D
:206E400006462079012805D105213046FFF7BCFE009004E003213046FFF7B6FE00900DE0CD
:206E60000E48406900040D4909694018C01BE1787D22D2005143C9008842CAD300BF6078EF
:206E800002F01EFE0020FFF79BFD0020FFF788FD0020FFF7C9FD0098F8BD00000031014000
:206EA00010B504460021204601F04FF80121204601F04BF810BD000030B593B005460C46B6
:206EC0002648281AC004010E01910020029068460079022802D0032817D10AE00020049017
:206EE00001211F4806F05EFE21781C2003F050FD0DE00020049001211948401C06F052FEDC
:206F000021781D2003F044FD01E013B030BD00BF6078012801DA012060706078801C069040
:206F200003200790012008A908700021099108A801720B91017610A8017241720121817269
:206F400060880849091A1091002110A8C17202A9284601F08AF800BFD7E70000903001401E
:206F600004000004FFFF000070B504460D462946204601F01BFC01281BD12946204601F091
:206F800025FF00280AD1052007F056FE2946204601F01CFF00280CD1012070BD052007F00A
:206FA0004BFE2946204601F011FF012801D10220F3E70020F1E77CB50446684602F0D3FCD9
:206FC000072269462046FDF7E5FB002507E00520401B205C0621491B6054681CC5B2062D2A
:206FE000F5DB2020207007222146E01DFDF7D2FB072505E0605D00F0B2FC6055681CC5B287
:207000000E2DF7DB7CBD00001FB504460121314806F0C8FD002006F06FFF002007F08AF899
:20702000002006F0FBFF002007F036F8002007F043F80021C943002007F00AF86078002863
:2070400004D00121084607F003F803E00121002006F0FEFFA078002804D00221012006F094
:20706000F7FF03E00221002006F0F2FFE078002804D00421012006F0EBFF03E0042100206B
:2070800006F0E6FF2079002804D00821012006F0DFFF03E00821002006F0DAFF082006F049
:2070A000EFFF2178022003F073FC02A802F05BFC02A802F029FC00280BD107A103C9019107
:2070C0000090019900980391029002A800F0A2F800BF1FBD02000001190318102958010030
:2070E000FFB581B01D460A9E002700200090002400BF24E000200090012301A807C807F09F
:207100004DFA002802D00120009010E000240CE0701EA04204D9012007F07AF9285503E045
:20712000002007F075F92855641CB442F0D307F0A1FC0098002800D103E0781CC7B2032FCD
:20714000D8DB00BF009805B0F0BDFFB581B01D460A9E0027002000900024632E02DD022046
:2071600005B0F0BD002724E000200090002301A807C807F013FA002802D0012000900DE09B
:20718000002408E0285D07F0F9FB002802D00120009002E0641CB442F4D300BF07F06AFC8D
:2071A0000098002803D1019807F09AFA03E0781CC7B2032FD8DB00BF0098D1E7F8B5074639
:2071C0000E460E48C1680020884700210C460D4609E0385D094A11698847385528460021F1
:2071E000641C4841054629460020A21B8141F0D30248C16801208847F8BD0000D42F00202F
:207200000020024908600248486070473C00002034000020FEB50546002600240027284665
:2072200002F072FB002800D1FEBD002621E0134806F02CFF284606F065FF1048C04306F07F
:2072400025FF684602F08FFB002810D0002407E06846005D295D884200D003E0601CC4B2CD
:20726000062CF5DB00BF062C01D1012703E0701CC6B2032EDBDB00BF3846D5E7ACACACACAA
:20728000FEB50446002001900026204602F0E2FB1021A01DFDF7E9FAE078102801DD0F2083
:2072A000E070E078022801DA0220E070E178262001550021272001550120FFF771FB294808
:2072C0004069000427490969471800BF2720015D2620005D81422ADB002601250BE06A0050
:2072E000A11D885AFEF7CEFA314600900EF030F90646681CC5B2E078A842F0DCE178481EEF
:20730000FEF7B8FA014600903046FEF7B9F906462079012805D105213046FFF7FBFB0190D5
:2073200004E003213046FFF7F5FB01900EE00D48406900040B4909694018C11BE0787D2277
:20734000D20050430A2250438142BFD300BF0020FFF736FB0020FFF723FB0020FFF764FB05
:207360000198FEBD0031014038B505460C46022C00DA02241448007800280CD102216846E5
:20738000017064214170FF214131418069460F48FFF792FD00BF042D07D10B4800780421B0
:2073A00008430949087008464470082D07D10648007808210843044908700846847003481D
:2073C000FFF76EFD38BD000067000020D030014038B504466001034940180090009807F034
:2073E0003DFE38BD0C200140F7B5054616460027002E01D0052D00DDFEBDA8001A49085842
:20740000002807D102F0BEFCA900174A5050002800D00127A80014490858002821D0301D2B
:2074200008F0B2FF0446002C1AD03246201D0199FDF7B0F96680012F02D10120208001E0CC
:207440000020208072B6A900074A5058214607F0CBFA62B6002F03D02179284600F006F86F
:2074600000BF00BFC8E700003030002038B504460D466001054940180090009807F0EEFDC4
:207480002946009807F049FE38BD00000C20014070B504460E46052C00DD70BD13E072B62C
:2074A000A100124A505802F04BFB054662B6002D08D02988281DB04772B6284608F054FFB9
:2074C000002562B600BFA100084A505806F078FA0028E4D0A100054A505808F061FE0020C2
:2074E000A100024A505000BFD7E700001830002070B50446052C00DD70BDA0001F49085808
:20750000002800D1F8E7A0001D49085800280BD102F038FCA1001A4A5050002804D0A100C1
:2075200050582421FDF7A3F9A100154A505806F058FA002815D1A200104B9A581288111D19
:20754000A2009858002208F043FF0546002D07D072B6A1000A4A5058294607F045FA62B66C
:2075600000BF72B6A100054A505808F0FDFE0020A100024A505062B600BFBDE7E82F00203A
:2075800018300020F8B504460D461646052C00DDF8BD600104494018009032462946009805
:2075A00000F004F800BFF3E70C200140F7B582B00F461446002500260121029807F00EFD43
:2075C00001280CD115490298401AC004010E01912246394668460079FFF706FF1CE00025C4
:2075E00018E0795D029807F098FD08E0029807F086FD002801D1002604E0701C86B2084883
:207600008642F3DB00BF0648401E864200DB2546681C85B2A542E4DB05B0F0BD0C2001402B
:207620005555000030B587B005460C460121704806F0B8FA6F48281AC004010E0191684659
:207640000079030008F088FD0604183E546B819701216748801F06F0A5FA022208216648FA
:2076600000F0F8F800221021634800F0F3F82178092003F08DF97FE001215D48401F06F09B
:2076800091FA607801280CD1022201215A48803800F0E0F8002202215748803800F0DAF8BB
:2076A0000BE0022208215448203800F0D3F8002210215148203800F0CDF821780A2003F034
:2076C00067F959E001214A48001F06F06BFA022204214948803800F0BDF8002208214648D3
:2076E000803800F0B7F821780B2003F051F943E001213F48C01E06F055FA022251023E4846
:20770000603800F0A7F800220121C9023A48603800F0A0F821780C2003F03AF92CE0012178
:207720003348801E06F03EFA022201213248403800F090F8002202212F48403800F08AF8AC
:2077400021780D2003F024F916E001212848401E06F028FA022210212748603800F07AF897
:20776000002220212448603800F074F821780E2003F00EF900E000BF00BF02A806F042F94C
:20778000214608312846049A07F0E8FB0121284607F0A7FC0121284607F0D4FCE078012861
:2077A00005D101220021284607F02CFC04E000221146284607F026FC2079012805D1012283
:2077C0001146284607F01EFC04E000220121284607F018FCA078012808D132210748049AD8
:2077E00007F018FB0121284607F09AFC07B030BD0E0000030C200140A00C00407094000050
:207800000146002901DD084670474842FCE7000010B504460E48016801208847002C04D1E9
:207820000B4841680020884703E00948416801208847012007F00CFA0548C168012088470C
:20784000052007F005FA0248C1680020884710BDE40800207CB506460D46144600950020F3
:207860006946C871E007C00F002801D1487102E001206946487102202040002802D1694620
:20788000887102E0012069468871022069460871304601F073FA7CBD7CB505460C4600948B
:2078A00000216846C1710121417100218171032101716946284601F061FA7CBD08B568463D
:2078C00003F0A4FA0748006A002801D10DF0CEF902F026FA044804F013FD684603F0D6FACD
:2078E00008BD00004830002000E20400F0B58C460023002500262FE05900445C2746303F7C
:20790000092F01D8FDB20CE02746403F062F02D8373CE5B205E02746603F062F01D8573C24
:20792000E5B2091849780C46303C092C01D8E6B20CE00C46403C062C02D83739CEB205E0CF
:207940000C46603C062C01D85739CEB2290189196446E1545B1C9BB29342CDD3F0BD010983
:207960000A2200075143000F0818C0B2704730B50446204600F004F80546284630BD0000C1
:207980000146104B99420ED90F4B994204D9090E0A460E4B985C14E0090C0A460B4B9B5C17
:2079A000184608300DE0FF2906D9090A0A46074B9B5C1846103004E00A46044B9B5C18461B
:2079C00018307047FFFF0000FFFFFF008865010010B500F0DFF800F001F810BD70B5002632
:2079E000002018490880184908801849086018490860184908601849086018490860002484
:207A000000BFFCF70BFC064600BF00250BE000201049086000F074F800F08CF80D48006824
:207A20002418681C85B2002DF1D00C4804600020084908600849086000BF3046FCF7F2FB02
:207A400000BF70BD7400002076000020780000207C000020840000208800002080000020F0
:207A600001460846044A1268904203D9024A1268801A00E0002070478000002070B50025FA
:207A800000BFFCF7CBFB054600BF0648046800BF2846FCF7C7FB00BF2046FFF7E1FF064681
:207AA000304670BD8400002070B50025FFF7E6FF044600BFFCF7B2FB054600BF002004493A
:207AC000086000BF2846FCF7ADFB00BF204670BD8400002070B5002500BFFCF79FFB05469F
:207AE00000BF0648046800BF2846FCF79BFB00BF2046FFF7B5FF0646304670BD88000020F1
:207B000010B509480088401C0749088007480088002803D100F04AF8054908600348008805
:207B2000401C0249088010BD74000020760000207800002010B50F480088401E0D490880A7
:207B400008460088002814D100F030F80A4908600846006809490968441A09480068A042FD
:207B600001D20748046007480068A04201D20548046010BD760000207C00002078000020CB
:207B8000840000208800002000200149086070478800002010B500200249086000F004F8E4
:207BA00010BD00007000002070470000034949690904024A12698818704700000031014016
:207BC000F0B505460F4600230CE05C00285D00F00CF806016019407800F007F88019F85470
:207BE0005B1CDBB29342F0D3F0BD01463039092901D8C8B2704701464139052902D8373818
:207C0000C0B2704701466139052902D85738C0B27047202070470000F8B507460C461646FB
:207C20000C2C01DC012C01DA0020F8BD022C0CD138460AF035FB002804D009488078401CFE
:207C4000C5B204E00648857801E00548055DAE4201DC012E01DA0020E7E70120E5E700003C
:207C60007865010010B500F04BFD1849184800F031F816491648203000F02CF81349144876
:207C8000403000F027F811491148603000F022F80E490F48803000F01DF80C490C48A0303C
:207CA00000F018F809490A48C03000F013F80022FF2101310648C030FFF7CCFD0022012180
:207CC00049020348C030FFF7C5FD10BDFFFF0000000C00407CB504460D466A4629462046FC
:207CE00000F0CCFF68460079012809D02946204601F075F801222946204605F099FD08E002
:207D000001222946204605F093FD2946204601F066F87CBD00B591B00121204805F042FFD3
:207D20001A2002F029FE0020009002902320049000200590012069460876002107910121F9
:207D400006A801720021099101760E910F910EA8C1726946124800F088F901210F48401C59
