:20000000E83A0020A1010000A9010000AB01000000000000000000000000000000000000A6
:20002000000000000000000000000000AD0100000000000000000000AF010000B1010000B0
:20004000B3010000B3010000B3010000B3010000B3010000B3010000B3010000B301000000
:20006000B3010000B3010000B3010000B301000021260000B3010000B3010000B30100004D
:20008000B3010000B3010000B3010000B3010000B3010000B3010000B3010000B3010000C0
:2000A000B3010000B3010000B30100006D170000B3010000B3010000B3010000B3010000D0
:2000C00000F002F800F041F80CA030C8083824182D18A246671EAB4654465D46AC4201D14D
:2000E00000F033F87E460F3E0FCCB6460126334200D0FB1AA246AB4633431847143D00007D
:20010000343D0000103A02D378C878C1FAD8520701D330C830C101D504680C607047000089
:200120000023002400250026103A01D378C1FBD8520700D330C100D50B60704710B500200A
:2001400010BD1FB51FBD10B510BD01F04BF81146FFF7F7FF03F06CF901F063F803B4FFF7C8
:20016000F2FF03BC02F0E8FE70B505460C46164602E00FCC0FC5103E102EFAD2082E02D3E5
:2001800003CC03C5083E042E07D301CC01C5361F03E021782970641C6D1C761EF9D270BDE4
:2001A0000748804707480047FEE7FEE7FEE7FEE7FEE7FEE704480549054A064B7047000044
:2001C000C5250000C1000000E82A0020E83A0020E82C0020E82C0020704700000FB40549D0
:2001E00010B503AA029800F0E1FF10BC08BC04B01847000024000020F8B50E4604460020D1
:2002000020622046E1688847002829D0252802D06268A16820E0E168204600278847050021
:200220001ED028464138192802D80127FF0220353246204627602946FFF780FF002808D007
:20024000012804D0F61DF608F6000836D9E7361DD7E762682846A1689047206A401CCFE7D7
:20026000206AF8BD034610B50B439B070FD1042A0DD308C810C9121FA342F8D018BA21BA1F
:20028000884201D9012010BD0020C04310BD002A03D0D30703D0521C07E0002010BD037875
:2002A0000C78401C491C1B1B07D103780C78401C491C1B1B01D1921EF1D1184610BDF8B5D9
:2002C000042A2CD3830712D00B78491C0370401C521E83070BD00B78491C0370401C521ED2
:2002E000830704D00B78491C0370401C521E8B079B0F05D0C91ADF002023DE1B08C90AE0AF
:20030000FFF732FFF8BD1D4608C9FD401C46B4402C4310C0121F042AF5D2F308C91A521E87
:20032000F0D40B78491C0370401C521EEAD40B78491C0370401C012AE4D409780170F8BDD3
:2003400001E004C0091F0429FBD28B0701D50280801CC90700D00270704700290BD0C307B9
:2003600002D00270401C491E022904D3830702D50280801C891EE3E70022EEE70022DFE7A5
:20038000002203098B422CD3030A8B4211D300239C464EE003460B433CD4002243088B4291
:2003A00031D303098B421CD3030A8B4201D394463FE0C3098B4201D3CB01C01A5241830998
:2003C0008B4201D38B01C01A524143098B4201D34B01C01A524103098B4201D30B01C01A4A
:2003E0005241C3088B4201D3CB00C01A524183088B4201D38B00C01A524143088B4201D3B6
:200400004B00C01A5241411A00D201465241104670475DE0CA0F00D04942031000D3404237
:20042000534000229C4603098B422DD3030A8B4212D3FC22890112BA030A8B420CD38901D6
:2004400092118B4208D3890192118B4204D389013AD0921100E08909C3098B4201D3CB019E
:20046000C01A524183098B4201D38B01C01A524143098B4201D34B01C01A524103098B426A
:2004800001D30B01C01A5241C3088B4201D3CB00C01A524183088B4201D38B00C01A524147
:2004A000D9D243088B4201D34B00C01A5241411A00D20146634652415B10104601D3404226
:2004C000002B00D54942704763465B1000D3404201B50020C046C04602BD704770477047AB
:2004E000F0B50C46871A9C410D46861A9D4103D2C01BA141D21963410D0D1F0DC94EEC1B31
:20050000AE435CD07F057F0D0026002F51D02D05AC46A943DD020123ED0A1B051D4320236B
:200520001B1B24D41746E740381871412F46E740CC199D402818314661410C0D27D161449A
:200540009A4013D50023401C594152000ED14008400001224B005205D34207D305204007E7
:20056000C14201D5B04900E0B0493046F0BD6B00002A00D001229A181F23203C1B1B01D5C9
:20058000002302E0E540281871410C0DD7D0012424050919C407CD0740084908E40F284379
:2005A0006144002CD5D00024401C61419A40D0D1CDE76A05520DD9D1C90FC907D5E79C4DAF
:2005C0004E00002801D0012400E0002434195F00002A01D0012600E00026BE19954FAC422E
:2005E0000CD8AE420AD8B44206D001256D05EC42BCD010461946F0BD9942FCD0002039467F
:20060000F0BDF0B51FB40C460F46811A9F412546861A9D4106D20125ED076F40401ABC41B2
:2006200052187B41210D1E0D8D1BAC467D4D8D437ED075056D0D7CD00D05AE46AC431B0366
:200640001B0B794D52429D41202366469B1B14D31746F740381800260090744160462F4646
:200660000741E41900989D402818664116D4714671189A4025D5012320E093182A466A41F1
:200680005200002B00D0521C1E23203E9B1B002B61DD3541EE1728186641E8D500187641F3
:2006A0005B1C9A4000D3401C4B05F3181524E34010D3002B52D071467118D30FC01802D304
:2006C000491C05B0F0BD0123DB079A42F9D140084000F6E701225205B21801D1002853D0E1
:2006E0000123CC0ADB029943891E002A08D1020C03D0020C0004103902E0024600202039BE
:200700000023550B05D112020823550B01D152010D23550C01D112011B1DD50C01D19200C9
:200720009B1C150D01D152005B1C2025EE1A01E02CE022E00546F54015439840CA1AE1078D
:2007400069181305C918002ABBDA032040070818C10FC9070FE071466118B2E7F10740083E
:200760000843711071444A000CD001235B059A42A7D2C90FC9070020A3E74905490D26D10C
:20078000002001E00028F4D100219AE7284D6600002801D0012100E0002171185F00002AC0
:2007A00001D0012600E00026BE19224FA94210D8AE420ED8B14208D001256D05E94206D0E6
:2007C0001946A802414010467BE79C4201D0214677E70020394674E710B50C465C4005D5DC
:2007E0000124E4076340FFF70CFF10BDFFF778FE10BD30B40C465C4004D50124E4076340E1
:2008000030BC6DE630BCFCE670B50124E40761400D465D4002D4FFF763FE70BD6340FFF712
:20082000F0FE70BDFF0700000000F0FF0000F07F0000E0FF0000F87FF0B5F94D0C091E09BC
:200840002C402E402F468BB0A7437DD0B543FCD0002E7AD0002CFCD00D465D40ED0F25434F
:20086000AC1BFF25AD0464190894C502440DC9022143500DDC0204430120C0070143044387
:20088000D2020191200C110C00958C46010423468B430A9161460904E24D8A430991010A16
:2008A0007D4449198039097805464D4301266D18F605751B6943C90C640B891C4C43641829
:2008C000B5012C1B250C2E04B4434C434D43210C691889090591009DE90701D00121C9077C
:2008E00004912C4601996708CD072F434C08059DE10B4D432D0C29466646754302950D463A
:2009000045432E46029D7D1BB44100950D465D4301942C0C2F040D465543AE462D0C3D438F
:20092000029503947546049C2D04641B049406D2029C039D641C002675410395029401AC99
:2009400070CC009F7D1B01E03EE162E1B44109040095079101940599A4086143090C0C46C8
:200960004443650BE7040C4666467443A646640B3C43039502947446049DE4042C1B0494B6
:2009800006D2029C039D641C002675410395029401AC70CC009F7D1BB44101940C465C431C
:2009A0000095650FE7000C465443A646640F3C43039502947446049DE4002C1B049406D25C
:2009C000029C039D641C002675410395029401AC70CC009F7D1BB441AE09AF06049DC90064
:2009E000AD092F43049DA406AD060495079D344369180791059DE10B4D432D0C2946664692
:200A0000754302950D4645432E46029D7D1BB44100950D465D4301942C0C2F040D46554399
:200A2000AE462D0C3D43029503947546049C2D04641B049406D2029C039D641C00267541C6
:200A40000395029401AC70CC009F7D1BB44101948C050694079C890A611800950791019C1A
:200A60000599A4086143090C0D464543680BEF040D46644665436C0B3C43049FED047D1B6B
:200A8000AC4602D20025641C6841009E019D371B85410846584301950C46460FC50054436C
:200AA000600F28436546E4002C1B02D20025401C6E41019D3F1AB5412846BD098006284370
:200AC0008446A009BF064E020699A40676180743079D002068410A99079019430020099BA6
:200AE00000906046FF1913434041E20F64003A43A4460446D71A8C41A04203D9012000909E
:200B000020463A46C70F941840416246D20F2243644664000494009CBE466400D71AA44679
:200B2000044602978C417746002F01D1A04204D96046401C8446029A2046C40FA64694184F
:200B40004041049A0546D20F224364466400D31A8D417146002901D1A84202D928461A46D7
:200B6000641C10430122002800D0164361020020079B891904465C410223002C02DB4918F1
:200B800013466441089DCE0A2D145D194B056705E10A2C050D1908993E43C9076940002B5F
:200BA00008D0934006D30022761C5141002B01D1760876001C4A002D43DB154241D0AA4374
:200BC0003FD030460BB0F0BD06180D464D41174C7642AC411AD395181C465C41134A6D427C
:200BE000A24113D3012252054C00D4420AD15C00D4420BD04B4002D592021143E2E74900CC
:200C00004908DFE75940C90FC90718E000200849D8E7054801420DD10342F7D0F2E7000001
:200C20000000FF07AC3400000000F07F0000E0FF0000F87F114859400143C0124140002060
:200C4000C0E70123089A9B069A4205DC032252078918C90FC907B5E7052252078918074AF4
:200C60001143D2125140ADE770B515461C4602460B4628462146FFF7DFFD70BDFFFFFF7F4C
:200C80000346CA02400D10B510430A1504D00124E4072043002A05DB0A4CA21A04D4D04070
:200CA000FF2A00DD002010BD4A00002B01D0012000E00020101801225205D042F2D8C8177D
:200CC000C04310BD1E0400001F22030C02D10F22000402D0030E03D004E000200146704712
:200CE0000002083A030F01D10001121F830F01D18000921E002801DB4000521E12055118D2
:200D00004205C012411810467047C10FC90700D04042012292071143D6E701218907D3E729
:200D2000F0B58B4C0F09254689B0BD437BD01D092646AE43FAD00E465E402740F60F3E4304
:200D4000254071D024012142FBD0FF24AD19A4042D1B039501252D05DB02DB0AC9022B43D6
:200D6000C90A29431E010901040F130F050121431701880B820391432D098C46A90B1E434B
:200D80008A039543B30B9A0396433F09BA0B9403A74302962E467E430497B6464E19D71971
:200DA0000C460196544305977E43371B7646BF1B3601B646BE0B361900967646BC043719C1
:200DC000009C01D3641C00946400002F01D001263443029E049F754366467E430496760015
:200DE00034196E0034190094029C019E1C196643751BAE46069465464519059C05956C432B
:200E0000594375460891691A0191049E01465143A41B0491611A009C0791E10605D0610927
:200E20000122114302E072E06EE06109089D00272C0A2D066918049D7C412A0A2D06691853
:200E4000019D6241AC0DAD026D185441079A910D920255196141029A644658435443069BD3
:200E6000059A5A43121A131B9A0E9B015B187A41010B0005C3185141220A200644195A41A2
:200E80009A4200D2491C01204002814203D315230226F64302E014230326F6432020C51A10
:200EA000A9401746AF40DA400A4320460399D8400914731819055118039A3843D2075140CB
:200EC000AC4009D00122944006D30022401C5141002C01D1400840001E4A934212D30122A2
:200EE00003989206904207DB0520400709181A480143C012414004E0032040070818C10F47
:200F0000C907002009B0F0BD0020F107FAE705180C464C4111486D42A04115D394181A46A9
:200F20005A410E48644290410ED301204A004005824209D35A00824206D35940C90F084A5E
:200F4000C90700201143DDE700200649DAE700000000FF07FE070000FFFFFF7F0000E0FFF3
:200F60000000F07F0000F87F0121C9050123411842001B06D3185B0E0AD0C1100722D206BB
:200F8000891840075242D14201D5520089187047090208D50146002A03D0C10FC907002056
:200FA000704710467047420202D0002002497047072109050143F4E70000F87FF0B5FF25A0
:200FC0002D04C609C209FF2704462E400137CB093E4348402A402B400746002A6BD0002BA1
:200FE00069D0AA4267D0AB4265D0002800DA32460125ED0529432C4309022002090AD21ADA
:201000004B0C7F24E31A434C000A7C44E35C7D242404121914145B00A218884201D3521C04
:2010200000E0400049420C465C4324115C43DB016415E318040A5C43C502200D0C46444376
:201040006419250A5D432303EC0C0D46654300030019EB184C42A34201D35B18401CD4051D
:201060002018002B07D05B00C91804D3401C002901D1400840003F2189048A4209D3002A85
:2010800008DC1106090F04D0032149074018C00FC007F0BD01224100120689187F22520644
:2010A0009142F6D205214907C84201D59010F0BDFF20C005F0BD002F00DA32461648AA4296
:2010C00007D2AB4205D21902090E17D0F80FC007F0BDFF2563002D06AB42F9D84900A94233
:2010E000F6D8AB4201D1A942F2D0A94201D1002101E061004908D0050843F0BD1102090E4E
:20110000FBD0FF200243D005F0BD0A460146104654E70000C22D00000000C07F1F22030C78
:2011200002D10F2200041CD0030E01D10002083A030F01D10001121F830F01D18000921EEA
:20114000002801DB4000521ED2055118021251181922904004D3491C002801D14908490043
:2011600008467047C10FC90700D04042012292071143D3E701218907D0E7704701694A1CBE
:2011800002610878704700B58FB00291002105910549019379440391114604906846FFF7B5
:2011A0002BF80FB000BD0000E5FFFFFF084B70B50D467B44FFF7E7FF0446284600F00EF89A
:2011C000002802D00020C04370BD204670BD0000071F000000487047882A0020C068802172
:2011E000084070477546FFF7F5FFAE46050069465346C008C000854618B020B5FEF7DAFF4C
:2012000060BC00274908B6460026C0C5C0C5C0C5C0C5C0C5C0C5C0C5C0C5403D49008D4657
:20122000704710B50446C046C0462046FEF796FF10BD00000649012804D04868400840009B
:2012400048607047486801221043486070470000002801400649012804D0086840084000FD
:20126000086070470868012210430860704700000028014070B50546064C0121204600F0A7
:20128000F5FF284600F016FC0021204600F0EEFF70BD00000500000270B592B006460C464D
:2012A000F72000013018400900900025019569460978002913D001291CD0022925D003299C
:2012C00048D103950121244800F0D0FF21781D2000F0BAFE61780120002921D021E00395E5
:2012E0001D480121C01E00F0C1FF21781A2000F0ABFEEFE7039518480121801E00F0B6FF3A
:2013000021781B2000F0A0FEE4E7039512480121401E00F0ABFF21781C2000F095FED9E77C
:2013200060706178491E0591069569460877089508A90D710A950D7510A90D714D71887163
:2013400060880649081A0F9010A9CD7101A9304600F033FB12B070BD05000004FFFF00006A
:20136000F0B587B007460C4601216D4800F07EFF0B20C04338184009019069460879694E6F
:20138000684D2036030001F0C4FC06041A3E52677D9063480121801F00F068FF614D0222D1
:2013A00080350821284600F0C1F800221021284600F0BCF82178092000F046FE75E05848E8
:2013C0000121401F00F052FF6078012810D0554D022260350821284600F0A8F80022102195
:2013E000284600F0A3F821780A2000F02DFE5CE002220121284600F099F8002202212846F2
:2014000000F094F8EFE746480121001F00F02EFF02220421284600F089F8002208212846AD
:2014200000F084F821780B2000F00EFE3DE03C480121C01E00F01AFF02225102304600F0F9
:2014400075F801210022C902304600F06FF821780C2000F0F9FD28E031480121801E00F067
:2014600005FF304D022240350121284600F05EF800220221284600F059F821780D2000F0D2
:20148000E3FD12E026480121401E00F0EFFE02221021304600F04AF800222021304600F0E9
:2014A00045F821780E2000F0CFFD02A800F01AFE214608313846049A01F0BEF901213846B6
:2014C00001F0A1FA0121384601F0C7FAE07801281AD000221146384601F002FA207901281D
:2014E00018D000220121384601F0FAF9A078012808D132210C48049A01F0FAF8012138467C
:2015000001F099FA07B0F0BD01220021384601F0E7F9E3E701221146384601F0E1F9E5E7F7
:201520000E000003200C0040709400001CB5009100216B46D971D4070123002C06D06C46F9
:201540006371920705D46A46917104E06C466171F7E769468B7102216A461171694600F0AE
:20156000EFFB1CBD0104090E0006000C01430B480B4A0840000911400901084309490A4AF1
:20158000014089081040800001430848084A0840400811404900084370470000F0F00000B7
:2015A0000F0F0000CCCC000033330000AAAA000055550000F0B58C46124E62217160B060D6
:2015C0000020F0601921104F890113E063461B5C33600023BC6975682D0701D4012305E09B
:2015E000BD69651B2D022D0A8D42F4D3002B06D0401C80B29042E9D3306880B2F0BD03486A
:20160000F0BD00000000014000E000E0FFFF000010B504460021204601F04EF9002808D14F
:201620000021204601F074F9012802D1204601F0B1F90121204601F03FF9002808D10121F4
:20164000204601F065F9012802D1204601F074F910BD000010B500F001FB174C174821466E
:2016600000F02EF815482146203000F029F813482146403000F024F810482146603000F0B2
:201680001FF80E482146803000F01AF80B482146A03000F015F82146084CC034204600F038
:2016A0000FF80022A1152046FFF740FF002261152046FFF73BFF10BDFFFF0000000C00406B
:2016C0007CB504460D466A462946204600F0FCFA6A461279012A09D02946204600F058FB7A
:2016E00001222946204600F0E9FC7CBD01222946204600F0E3FC2946204600F049FB7CBDDB
:2017000010B572B61B2000F087FC0021134800F0D8F80021124800F0A9FD124C01218902D6
:201720002046FFF7CDFFE1142046FFF7C9FF0C2000F072FC0C4C00220121204601F0D0F823
:2017400000221146204601F0CBF80021204601F084F90021204601F056F910BDB03001404C
:2017600003000004400C00406C200140F8B5354800F0FAF834490888401C08803349086820
:20178000401C08600025324E0127BF02314868438019C419E088002815D0401E80B2E080F8
:2017A000002810D1002D09D1002201212A4801F097F801220021284801F092F80020A07084
:2017C000E070207120816D1CEDB2032DDED3002520481F49684346180120800234182079F8
:2017E000002829D0401EC0B22071002824D1E078882210421ED0002D0ED1174F0978384697
:2018000001F016F900221146384601F069F801221146384601F064F801202081E078000719
:2018200005D57078B1780002C01D081820807D20E08001E0012020716D1CEDB2032DC7D39C
:20184000F8BD0000B03001400A000020000000203C0000200A0400006C20014089B2416154
:2018600070470422012903D001689143016070470168114301607047026852085200C9077E
:20188000C90F114301607047026808239A4319401143016070470222012903D0016891436F
:2018A0000160704701681143016070472022012903D0016891430160704701681143016089
:2018C00070478022012903D001689143016070470168114301607047026810239A431940B5
:2018E00011430160704701225202012903D001689143016070470168114301607047026874
:2019000040239A431940114301607047FF220132012903D00168914301607047016811435F
:20192000016070470222012903D0816991438161704781691143816170470422012903D01D
:2019400081699143816170478169114381617047012904D081694908490081617047816954
:2019600001221143816170470121C16170474268920892008907890F114341607047426808
:201980001C239A431940114341607047426840239A431940114341607047426880239A430D
:2019A000194011434160704789B201617047C9B281607047C9B2C160704770B506460C46A5
:2019C00030462168FFF7E2FF30466168FFF7E5FF3046A168FFF7CBFF3046E168FFF7CFFF56
:2019E00030462169FFF7E3FF30466169FFF7E2FF217E3046FFF777FF3046E169FFF77FFF43
:201A00002546203529783046FFF750FF3046616AFFF762FF297A3046FFF778FF3046E16ACB
:201A2000FFF732FF297C3046FFF71BFF697C3046FFF731FF3046616BFFF71EFF3046A16BFC
:201A4000FFF7B2FF3046E16BFFF708FF403421783046FFF772FF61783046FFF763FFA17876
:201A60003046FFF775FFE1783046FFF72AFF70BD044A516949084900C007C00F0843506137
:201A80007047000000100040044A516903231B0299431840084350617047000000100040BD
:201AA000034A51690223994318400843506170470010004010B504460020FFF7E5FF012099
:201AC000FFF7D6FF094800F037F8094800F034F80849216000E000BF00F00EF80128FAD103
:201AE00000F014F8002000F027F810BD96969696EAEAEAEACDAB34120348006AC00701D0E3
:201B00000120704700207047001000400149012008627047001000400348006A800701D5D8
:201B20000120704700207047001000400149022008627047001000400149886170470000DF
:201B400000100040044A1168890889008007800F084310607047000000100040F0B505468C
:201B60000E4617460220FFF79BFF0F48FFF7E4FF0E48FFF7E1FF00240FE00220FFF790FFEC
:201B8000305D28706D1C00E000BFFFF7C5FF0028FAD0FFF7CBFF641CA4B2BC42EDD30020D8
:201BA000FFF7CAFFF0BD0000A5A5A5A5F1F1F1F170B50024802801D2022070BD45020120E6
:201BC0008004854201D9022070BD0D480D4E814203D10121304600F049FB2846FFF76AFFB1
:201BE0000021304600F042FBA0002958491C01D0012070BD641CA4B2802CF5D3002070BDE5
:201C00000FF0AB1205000002FFB581B005460F46002400260F48834203D101210E4800F0DA
:201C200025FB39462846039AFFF798FF00210A4800F01CFB07E0285D395D884201D001262F
:201C400004E0641CA4B203988442F4D3304605B0F0BD00000FF0AB120500000200B500F062
:201C60001FF80E4800F096F80C48203000F092F80A48403000F08EF80848603000F08AF8D1
:201C80000648803000F086F80448A03000F082F80248C03000F07EF800BD0000000C0040A9
:201CA0000849074808624862886200208863C86304494031086048608860C86070470000BB
:201CC0000000FFFFC00C004070B5002301252C469C400C40002C02D15B1C102BF7D3102B3C
:201CE00020D2116006680E40DE400024012E1AD0D47146680E40DE40012E16D09471866803
:201D00000E40DE40012E12D05471C0685900C8408007800F00280CD001280CD002280CD0D3
:201D20000320107170BDD571E3E79571E7E75571EBE7147170BD157170BD0220107170BD21
:201D400070B500220126334693400C681C409C421AD104689C43CD79954025430560446851
:201D60009C438D7995402543456084689C434B7993402343836054000323A340C5689D4387
:201D80000B79A3402B43C360521C102ADBD370BD416170470021016041608160C1600161E8
:201DA0007047000002490148086070475A5A341200140140044A5168890889008007800F33
:201DC00008435060704700000014014005490422012803D0486890434860704748681043A7
:201DE000486070470014014010B50121054800F03DFAFFF7D7FF0320FFF7DCFF0020FFF7FE
:201E0000E5FF10BD0500000138B50220694608706420487080004880044C2046FFF73CFA6F
:201E200001212046FFF74DFD38BD0000B030014000210348C9438162C16201634163704787
:201E40000002004030B587B00024059401256846057605A800F09EFA00940194029403948D
:201E600068460574447400F003FB07B030BD10B50020FFF767FE002000F036FAFFF7E2FF9A
:201E8000FFF7D6FF002000F0E5F90120FFF7E2F90020FFF7CFF9012000F008FB10BD0000D8
:201EA00010B50748074C60610321081F00F0E4F80020A061072020610520206110BD0000A7
:201EC000FFFFFF0000E000E010B572B6FFF78CFFFFF768FFFFF7CBFFFFF7E2FF012000F0D2
:201EE00093F9FFF7B7FB002000F0D8FA10BD0000F3B581B00025364A01987D235043354A36
:201F00008018012292028418E380A2780026130000F0FFFE0805111B4747232E394768290A
:201F200001D0AA253EE0E27812091201E2700122A270268136E02289022A33D3427812026C
:201F4000521822800222A2702CE0682901D0AA2528E0E6700522A27024E022882389D21C23
:201F6000934201D10627A77093421BD9AA2519E022882389521D934201D10727A77093425F
:201F800010D9AA250EE0162901D0AA250AE00822A270E6800F222271E27804231A43E2703C
:201FA00000E0AA25002D04D1228911542089401C2081019800F07AFE002800D0AA25AA2D1B
:201FC00004D1A670E07880088000E070A078FEBD0A0400003C00002070B501460C480D4E0E
:201FE00010E00C78491C6040002405464008ED0700D07040641CA4B2082CF6D30024E4431F
:20200000521E634100252C46AD1A9C41E9DB70BDFFFF000001A00000002805DBC106C90E3B
:2020200001208840014908607047000080E100E0002805DBC106C90E0120884001490860CC
:202040007047000080E100E070B504460D46032D00D902252046FFF7EBFF2946204600F08B
:202060000BF8002C05DBE106C90E012088400149086070BD00E100E08307FF22DB0E9A409C
:202080008907090E9940002808DB830809489B001818036893430B43036070470007000F4F
:2020A0000838830804489B001818C36993430B43C361704700E400E000ED00E01CB5009120
:2020C00000216B46D9710123002A08D06A4653716A46917113716946FFF732FE1CBD6A46B6
:2020E0005171F5E710B502460020D060106110605060906000F02CF9012808D100F014F950
:20210000000C0F280AD03E49401C4843D06000F0E1F80124E403012803D01EE03948D06084
:20212000F5E700F0F1F8400801280DD002280ED0234600F0C5F8000C401C5843106100F01A
:20214000EBF8082806D008E07D231B02F1E7D068030AEEE710694000106100F075F900284F
:2021600022D0012823D0022825D0032825D0D068106000F019F9000A042821D0052823D021
:20218000062825D0072827D01068506000F020F9000C042824D0052826D0062828D0072821
:2021A0002AD05068906010BDD0681060E1E77D2000031060DDE71460DBE710691060D8E78E
:2021C000106840085060E1E7106880085060DDE71068C0085060D9E7106800095060D5E7B6
:2021E00050684008906010BD50688008906010BD5068C008906010BD50680009906010BD6A
:2022000000127A000051250200B5114A012812D00F494039022810D0032810D0042810D0AD
:202220001068C243010C92B291420CD14006400E00F0A8F800BD1068F3E7C86BF1E7886BEF
:20224000EFE70869EDE7402000F09CF800BD000040FDFF1F044A516849084900C007C00F30
:2022600008435060704700004002004010B500220F231B06FF24034024061B1910D01B1918
:2022800011D01B1912D0E34200D10C4A002A06D00123834000290CD010681843106010BDFF
:2022A000064A0C3AF2E7054A083AEFE7034A121FECE710689843106010BD000034020040F1
:2022C000024880690249084070470000000200400000FF0303488069C00701D00120704799
:2022E00000207047000200400649012804D088694008400088617047886901221043886110
:20230000704700000002004002488069062108407047000000020040024880690821084085
:202320007047000000020040024800690F2109040840704700020040044A11690F231B045A
:202340009943184008431061704700000002004003480069C00701D0012070470020704799
:20236000000200400649012804D008694008400008617047086901221043086170470000AF
:202380000002004040060249400E4861704700000002004010B504462068FFF7CDFF207988
:2023A000FFF7E0FF10BD00000248C068072109020840704700020040044AD16807231B02C7
:2023C000994318400843D06070470000000200400248C0680721090408407047000200406D
:2023E000044AD16807231B04994318400843D0607047000000020040034AD168D30399432D
:2024000018400843D0607047000200400649012804D0C86840004008C8607047C8680122BA
:20242000D2071043C86070470002004005490A04012803D0C8689043C8607047C868104392
:20244000C8607047000200400248C0688007800F7047000000020040044AD1688908890039
:202460008007800F0843D060704700000002004010B504462068FFF7EFFF6068FFF79CFFFE
:20248000A068FFF7ADFFE068FFF7B6FF207CFFF7CDFF607CFFF7BAFF10BD00004005024959
:2024A000400D0863704700000010014010B5012818D0002000F079F8002000F068F8002075
:2024C00000F058F8002000F048F8002000F038F8002000F028F8002000F018F8002000F0CC
:2024E00008F810BD012000F060F8012000F04FF8E5E7012189078A15012803D048689043B2
:20250000486070474868104348607047012189074A15012803D0486890434860704748685B
:20252000104348607047012189070A15012803D048689043486070474868104348607047D8
:2025400001218907CA14012803D048689043486070474868104348607047012189078A145B
:20256000012803D048689043486070474868104348607047012189074A14012803D048685F
:20258000904348607047486810434860704701218907012804D04868400840004860704761
:2025A00048680122104348607047012189070222012803D0486890434860704748681043DF
:2025C00048607047024901480860704700127A003800002070B50F4902464A430E495218F2
:2025E00001218902541821892388994202D30220E08070BD8D5C002806D12946074800F078
:2026000017FA06482C3885632089401C20817D20E08070BD0A0400003C0000206C20014008
:2026200010B5154C0021204600F046F901280CD10021204600F06CF9012806D1204600F086
:20264000A9F9C1B20020FFF753FC0121204600F033F901280BD10121204600F059F9012864
:2026600005D10020FFF7B6FF204600F065F92046FEF7CEFF10BD00006C20014070B50C46CC
:20268000FEF778FD05462046FEF774FD2946FEF795FC7F21C90588420CDDFEF765FC00222B
:2026A000054BFEF7A6F80022044BFEF795F8FEF7E7FA70BD002070BD0000F03F0000E03FA6
:2026C000044A91680F23DB0299431840084390607047000000200140044A9168C90AC90238
:2026E0004005400D084390607047000000200140F8B50F461446002858D0844256D3642FC7
:2027000054D2FEF737FD05462046FEF733FD2946FEF754FCFEF728FC0022254BFEF75CF8EC
:20272000FEF7AEFA441E6005400DFFF7D5FF214E20091FD02009FEF71DFD0546601CFEF7A3
:2027400019FD2946FEF73AFCFEF70EFC04460D463846FEF7E2FA00223346FEF76DF8224681
:202760002B46FEF7DDFA0022114BFEF735F8FEF787FA17E0601CFEF7FDFCFEF7F5FB044676
:202780000D463846FEF7C9FA00223346FEF754F822462B46FEF7C4FA0022054BFEF71CF8CD
:2027A000FEF76EFA0007400CFFF78AFFF8BD00000000E03F0000594070B506460C46304644
:2027C000616800F02BF93046A16800F009F9254620352978304600F0BBF83046216900F041
:2027E00035F9217B304600F0D8F83046616900F03FF93046E16900F014F922780021304683
:2028000000F06EF862780121304600F069F86978304600F0A8F8A978304600F0AFF8617BAE
:20282000304600F0F0F8217E304600F016F9617E304600F000F970BD30B50C4689B0054610
:2028400011462068FFF71AFF0190002108A801702079402201281DD0022827D002910120D1
:2028600008AB1870A079002823D00492684601704170017320200590079108A84170817050
:20288000684641730176417669462846FFF794FF09B030BD6079012803D0022803D00291F7
:2028A000E0E70292DEE780200290DBE7C0200290D8E70491DAE70000074A80180009002962
:2028C00000D1401C0549096801228240114201D00120704700207047F4DFFEBF0020014063
:2028E000094BC0180009002900D1401C0121074B012A04D01A6881408A431A6070471A6817
:2029000081400A431A607047F4DFFEBF00200140074A80180009002900D1401C0549496840
:2029200001228240114201D00120704700207047F4DFFEBF002001400B21C9434018000955
:20294000012181400148416070470000002001400422012903D0C1699143C1617047C1696E
:202960001143C16170470222012903D0C1699143C1617047C1691143C1617047012904D0DD
:20298000C16949084900C1617047C16901221143C16170478068C0B270472022012903D0D0
:2029A000016891430160704701681143016070470068400701D50120704700207047016850
:2029C00004229143016070470068800701D5012070470020704701680222914301607047F8
:2029E0000268C0239A4319401143016070470068000701D501207047002070470168082261
:202A00009143016070471022012903D00168914301607047016811430160704789B20161D4
:202A2000704742690C239A431940114341617047C9B2C16070470822012903D0416891432B
:202A4000416070474168114341607047426840239A4319401143416070471022012903D0AB
:202A600041689143416070474168114341607047426820239A431940114341607047F0B5B8
:202A800085B00B9E0A9D01246F463C707C70BA70FB703D7102913C7300217973BE736946CD
:202AA000FEF75EFC05B0F0BDF0B5FFB086B0074678483946414378480C1801208002261806
:202AC000F078FB210840F0706078A1780002001D081885B221462A460020FEF76BFD80B2DD
:202AE000615D621952780902891881427CD1217980A8017362794273A379607A1B061843DF
:202B0000E379257A1B042D022B43184381900025152934D15F494F435F497B180A33002751
:202B20005E49082A3FD006DC012A0CD0022A27D0042A24D12FE0FD2A57D05948FE2A7DD00B
:202B4000FF2A1CD185E057480160574A002111700027FFF727F938465249803080B209680E
:202B6000FFF726F87F1CBFB2FF2081308742F0D327204002FEF77EFB4A49002008606AE07D
:202B8000494A1770474A1160C001000CFFF710F8444807605FE001256D0201462A46184672
:202BA000FDF78DFB57E03F493C4A0A601946134601225202FFF728F882903B48017800296E
:202BC00008D1012101702720344B042281A94002FFF71AF833480760829800283BD0207961
:202BE00040210843207136E051E0012149026846FDF7C4FB0625A07A617B00060143E07ABE
:202C0000227B000412021043014380910020002716E0FEF7A7FC80B2849081980122C11926
:202C200052026846FDF74BFB0122520269468498FEF7C0FC80B2FF37FF3700E007E00237C7
:202C400080998F42E5D3010AA173E07303E0077001E0552101702079802108432071AD1D5E
:202C6000280A6070E9B2A1700002001D081885B221462A460020FEF79DFC010A6155611970
:202C8000487016208870F07808210843F0707FB006B0F0BD0A0400003C0000200FF0AB125A
:202CA000080000200C0000200400002070B50024002809D1054D284600F00AF8012803D1A2
:202CC000AA24284600F019F8204670BD6C20014010B504462046FFF78AFE01280BD02046FA
:202CE000FFF766FE012806D02046FFF76DFE012801D0002010BD012010BD10B5044620466A
:202D0000FFF77CFE2046FFF75AFE2046FFF763FE10BD30B47446641E2578641CAB4200D209
:202D20001D46635D5B00E31830BC1847F8B506ACF0CC002804D0481C05D0022903D026E07B
:202D40000020C043F8BD501C01D0042A1FD1581C01D0042B1BD1601C01D0042C17D1681CF7
:202D600001D0042D13D1701C01D0042E0FD1781C01D0042F0BD10A98401C02D00A980428EC
:202D800005D10B98401C08D00B98182805D00020002804D000F020F8F8BD0120F8E70020D5
:202DA000C043F8BD10B5002804D003498968401A00F08EFB10BD00001000002010B50021A7
:202DC00000F0C2FB411C03D002498968081810BD002010BD10000020F0B587B00025039537
:202DE0000295002102A800F0B1FF007800283ED00020C407E40F039502958026684606724A
:202E0000002102A800F0A2FF0068802831D000272740039502950120694608720220C872E2
:202E2000012102A800F092FF0190019800F0DCFA002820D000243C40019800F0C1FA002831
:202E40001BD00027274068464672019800F0B8FA802814D000243C40812768468772019844
:202E600000F0AEFA324988420BD101200AE00120BFE70127CCE70124DDE70127E2E70124ED
:202E8000E9E700200440019800F0AEFA2849884201D1012000E00020044003950295032009
:202EA0006946087204204873012102A800F04EFF0546284600F0A0FA00281FD00020044043
:202EC000284600F085FA00281AD00020044068464672284600F07CFA802813D0002626404E
:202EE00069468F728220C87283200873284600F06FFA104FB84207D1012406E00120DEE73F
:202F00000120E3E70126EAE700243440284600F073FAB84201D1012000E0002020400128F5
:202F200003D00020C04307B0F0BD0020FBE70000808100008081828370470000F0B51FB4FF
:202F40008CB0002006900790002637469AE00024254614E01A980822436808A99847002809
:202F600003D00020C04311B0F0BD08A800F087FCE3006A46D21803C20020641C454102213F
:202F80000020091BA841E5DA0198009C051E15DB414B0020191BA84110DB039902980029EA
:202FA0000CDB0A460021181A914107DB2946A319189A79411998D21A884102DA0020C043D7
:202FC000D1E71698009A81191A9843689847002802D00020C043C6E700F0D6FD00242546FF
:202FE0001CE006990798091968410A910B9012D40A9B0E990F9A0B98591A90410BDA204689
:2030000000F0D8FD0C990A98169A411830198018002200F05FFD0020641C45410099019AF2
:203020002846611A9041DCDB00F06EFD0098019986194F41069B079AC01851410791069089
:20304000029803998319189A79411998D21A884102DA0020C04386E71698029A81191A98CA
:2030600043689847002802D00020C0437BE7029903988E19474105A807C8049B59185041C5
:2030800006910790189A19993846B21A884100DA5DE7002067E70000FFFFFF7F30B500237B
:2030A00007E0C45CCD5CAC4201D0002030BD5B1C9BB29342F5D3012030BD000010B50021BF
:2030C000074A084B04E0491C914201D9002010BD1C68E407F7D1034AC1B2403A916310BD37
:2030E000FFFF00008020014030B5002901DB002B01DA002030BD84185941BF25AD0200200B
:203100002C1B884101DA002030BD0748806807490860FF218902091A0020891A984101DA83
:20312000002030BD012030BD00ED00E028000020F8B59E4645187146096889188C460023B3
:2031400071460B601446854276D00178112912D9401C1139042970D363461B1B8B426DD346
:203160002F1ACE1CB74267D30378401C2370641C491EF9D12EE0291A0329F4D30178401CB5
:20318000102943D200290ED18B4B05E0FF31401C994251D88542D7D00678002EF6D0037833
:2031A000401C59180F3163461F1BCE1CB742D6D32F1A8E1DB742D6D3037823704378637061
:2031C0008378C01CA370E41C0378401C2370641C491EF9D10178401C102917D2774BE31836
:2031E00089085B1A0178401C8900591A914275D3A14273D263461B1B032BB0D30B7823700F
:203200004B7863708978A170E41C80E0402916D3661ECB065F0FF61B0778401CFF00F61B95
:203220004909491E964259D3A64257D267463B1B8F1CBB4202D35EE08DE070E08AE0202992
:2032400020D3C906C90E002911D15B4B05E0FF31401C99427ED885427DD00678002EF6D0FC
:203260000378401C59181F312B1A022B73D3661E0096037847789E08BF01F719009EF61B85
:20328000801C2FE0102968D308230B40DB02E61A4907490F002911D1474B05E0FF31401C06
:2032A00099427DD8854275D00778002FF6D00378401C5918C91D2B1A022B6BD303789F085E
:2032C00043789B01FF18F61B801CA64207D1A21A71460A60A84255D10020F8BD66E00127E3
:2032E000BF03F61B964261D3A6425FD267463B1B8F1CBB4254D3377827707378B61C63702E
:20330000A41C3778761C2770641C491EF9D101462039897F8907890F002900D12BE76346DF
:203320001B1B8B423CD32F1ACE1CB74232D30378401C2370641C012909D90378401C2370EA
:20334000641C022903D90178401C2170641C0178401C5BE724E01DE0FFE7631E89085B1A7B
:203360000178401C8900591A91421FD3A1421DD263461B1B022B13D30B782370497861704B
:20338000A41CC4E7A84202D20720C043A5E70320C043A2E7A11A704601600320C0439CE724
:2033A000A11A704601600420C04396E7A11A704601600520C04390E701FEFFFFFFF7FFFF35
:2033C00008B501786A46117040785070108808BD08B501786A4611704178517081789170D6
:2033E000C078D070009808BD08B501786A46117040785070108808BD08B501786A46117055
:203400004178517081789170C078D070009808BD38B50D461446016823462A46684600F0E9
:2034200049F9A04202D00020C04338BD002038BD0EB5FEF749FD0026E12100960123324611
:2034400049021F480196FFF71AFBFEF7DDFC62B61C4F3E707E807E6000F032FC1A4DFEF7C3
:20346000A1FCE878400704D50020FFF71DFBFEF799FC38780028F2D17888FA28EFD3FEF703
:203480003FF97E602720400201680291002909D001229204914205D24868096881F3088807
:2034A0008047DCE7012424040294084B042202A9FEF7AAFB6068216881F308888047CEE710
:2034C0006C200140080000203C0400200FF0AB1238B512490A7C002A0CD009229202904276
:2034E00019D24009CA684300D25A5404640C002200920BE008688047012038BD009DCB6873
:2035000045196D005A53009B5B1C0093009BA342F4DB002038BD022038BD000010000020E3
:2035200010B5084C092292010021E06800F0A0F9092292020021A06800F09AF901202074A2
:2035400010BD000010000020F3B581B00646002400270097304D287C002801D128688047F5
:20356000002E0ED072B6F002000CF10601D0401C80B2FF212131884249D2091A0022009295
:203580001FE00020C043FEBD009AEE688A185300F35A002B12D0824217D3571E7F00F65B1C
:2035A0009E4205D15B045B0C93420ED2D11A00E0111A009A94B20022009202E0009A521C66
:2035C0000092009A12198242DED3009AA21882421DD1002200920122D2030346134310E0DE
:2035E000029A002A05D0009CEA680C196400135304E0009CEA680C1964001053009A521C8D
:203600000092009A8242EBD362B64801FEBD62B60020C043FEBD00001000002010B50020D5
:2036200000220949CB68FF21213154001C5B002C00D0401C521C8A42F7D364225043FCF73E
:203640009FFEC0B210BD00001000002070B588B004460D4616460020C043079004231820EF
:20366000009305900293039304931A46022101930948FFF75BFB002803D008A0FCF7AEFD6B
:2036800007E00020009007AB324629462046FFF74FFD079808B070BDA02000000D0AE5888A
:2036A0009DE5A78BE58C96E5A4B1E8B4A55C720A00000000FFB581B00C4616461D460020E6
:2036C0002060019908604BE0E368A068984202D9002005B0F0BD002802D16168002904D0F2
:2036E000616888420DD199420BD1221D6169206900F07BF800281AD0216908182061002050
:20370000A06062682068A16813184F19BB4218D3626951182A1A801900F056FA00280ED07C
:203720002168A068691A4018A060256018E00199002008600FA0FCF751FD0020C9E700209E
:20374000C7E76369521A5918801900F03DFA00280ED0A16860682268411A89182160A06074
:203760002068A842B0D30198672101602068B0E70020AEE76D796C7A6F5F64206572720D8A
:203780000A00000010B5044672B66069FFF70AFB0020606162B672B62046FFF703FB62B691
:2037A00010BD70B506460C46002030601820FFF705FB051E10D018212846FCF7DFFDEC60D6
:2037C000FF2C0BD9601CFFF7F9FA6861002805D067203060284670BD002070BD72B628461A
:2037E000FFF7E0FA62B6002070BD7CB50E46144600210191009121600178672903D04729A4
:2038000001D000207CBD42786D462A7182786A71019A9A4201D900207CBD019A85186A79DC
:20382000792A03D0592A01D000207CBD672916D0C11C3046019AFCF742FD01982060002393
:2038400030462268FEF7C8FBE9786A461170297951701188884209D10198801D7CBD324697
:20386000C01C0199FFF7F2FE2060E8E700207CBD01E00170401C521E531CFAD1704730B550
:203880000246D4796006400EC10F030E0902194300029579002328185941050E0902294300
:2038A0000002557928185941050E090229430002157928185941050E090229430002D57891
:2038C00028185941050E090229430002957828185941050E09022943000255782818594168
:2038E000050E090229430002127810185941220603D50A4600214042914130BDF0B591B058
:203900000021089109910691079100221146012000F07EF9044600221146104600F078F9A9
:203920000546062244A12046FCF79CFC002805D043A0FCF753FC002011B0F0BDA17908AAC2
:203940001172E179A01C5172217A1174617A5174017A1173407A507320461030FFF78FFFA5
:203960000991089020461830FFF789FF0791069002460B4609990898FFF7B6FB00280DD034
:203980002846099B089AFEF727FB6946098E884209D034A0FCF722FC0020CDE735A0FCF7F2
:2039A0001DFC0020C8E706AA08A9012000F030F9071E0ED06846018D0FA8FFF7F2FE061E84
:2039C00002D00F98672809D02FA0FCF707FC0020B2E733A0FCF702FC0020ADE735480E90F5
:2039E000203434610D960DA80490079906980391029000972846099B089AFFF79FFA00288C
:203A000007D03046FFF7BEFE2BA0FCF7E7FB002092E73046FFF7B6FE3846079B069AFEF799
:203A2000DBFA6946898D884204D027A0FCF7D6FB002081E701207FE747594346534A0000EE
:203A4000436865636B20666F7220617070726F707269617465206D61676963206572726F61
:203A6000720D0A006F6C64637263206572720D0A0000000066696C652073697A6520657254
:203A8000726F720D0A0000006D794C7A6F526561644F70656E206661696C0D0A00000000C0
:203AA000676574206E6577616472206572720D0A000000001134000062737061746368205B
:203AC0006661696C0D0A0000637263206572720D0A00000070B504460D4616460220FDF747
:203AE000DFFF002E02D02878207005E0207829784018207000E000BFFEF70EF80028FAD026
:203B0000FEF714F870BD000010B50020FEF714F800210248FEF7AAFB10BD000005000002B8
:203B2000F8B505460E46002425E0FEF73BF960024419052120680903401A1149884201D31C
:203B40000020F8BD0F4F01213846FEF78FFB2046FDF7B0FF00213846FEF788FB0022900041
:203B60002058401C01D00020F8BD521C92B2802AF5D3521C94B2B442D7D30120F8BD00007D
:203B800001AC03000500000210B501210648FEF76DFB0220FDF784FF0448FDF7CDFF0448EB
:203BA000FDF7CAFF10BD000005000002A5A5A5A5F1F1F1F110B57D21C900FCF7E1FB0029F8
:203BC00001D1FEF7EFF810BDF8B504460D4616460027FFF7D9FF0AE03846FFF7EBFF012264
:203BE00029462046FFF776FF641C6D1C7F1CB742F2D3FFF789FF002306E0E05CE95C884251
:203C000001D00020F8BD5B1CB342F6D30120F8BD70B51D4D002805D0012807D0022830D03D
:203C2000002070BD19488068286070BD0E68AE601468EC60272149022046FCF7A1FB27211D
:203C4000401C49024843401C4102012000042A680918914201D2686011E0A64201D96E60CC
:203C600000E06C606968490A891C490208186860FF2100198902884201D9002070BD686817
:203C800070BD0520000370BD2800002000ED00E038B527246402216800912046FDF7EAFA97
:203CA000064B042269462046FDF7AEFF00984168006880F30888884738BD00000FF0AB12AB
:203CC0007CB500251D4C002020606060A060E0600090019006221A496846FCF745FA0622D1
:203CE00018A16846FCF7BEFA002825D1FFF706FE002821D0272676023146E068FCF740FBCF
:203D00002721401C490241432068FFF709FFE26861682068FFF758FF227B61682068FFF7DE
:203D2000BDF9002801D0FFF7B3FF6D1CEDB2032DE2D33046FDF79EFA7CBD0000280000209C
:203D4000084E000047594346534A00004018704780807F7E7D7C7B7A79787776767574739D
:203D6000727171706F6E6E6D6C6C6B6A6A696868676666656464636362616160605F5F5E51
:203D80005E5D5D5C5C5B5B5A5A595958585757565655555554545353525252515150505058
:203DA0004F4F4F4E4E4D4D4D4C4C4C4B4B4B4A4A4A494949484848474747474646464545C5
:203DC000454444444443434343424242424141418182838485868788898B8C8D8E8F919226
:203DE00093959697999A9C9D9FA0A2A3A5A7A8AAACAEB0B2B3B5B7B9BCBEC0C2C5C7C9CC2F
:203E0000CED1D4D7D9DCDFE2E6E9ECF0F3F7FAFE303E0000000000203C0000000401000086
:203E20006C3E00003C000020AC3A0000200100000000000000000000000000000000000075
:203E4000213500001D360000460400204628002000000000000000000000000000000000C1
:0C3E6000000000000000000000127A00CA
:20400000A8530020DD410000E541000005A600000000000000000000000000000000000096
:20402000000000000000000000000000E941000000000000000000006942000001CD0000DD
:20404000EF410000EF41000049E90000EF410000EF410000CD6F0000EF410000EF410000D2
:20406000EF410000EF410000F1F50000C5F6000051F70000EF410000EF410000EF41000067
:20408000EF410000EF410000EF410000EF410000EF410000EF410000EF410000EF410000A0
:2040A000EF410000EF410000EF410000EF41000005860000EF4100001D970000EF410000A1
:2040C00000F002F800F05FF80CA030C8083824182D18A246671EAB4654465D46AC4201D1EF
:2040E00000F051F87E460F3E0FCCB6460126334200D0FB1AA246AB4633431847884B01009C
:20410000A84B01000023002400250026103A01D378C1FBD8520700D330C100D50B607047DB
:2041200010B5662902D112F0D7FA10BD642902D100F056F910BD752902D100F051F910BDD4
:20414000782902D100F082F910BD632902D101F075FF10BD732902D101F078FF10BD00205E
:2041600010BD1FB502F0E6F804000020002112F0EBF8401C60600020002112F0FBF8E06012
:204180001FBD10B510BD02F08BFE1146FFF7E9FF0EF088FF02F0A3FE03B4FFF7F2FF03BC8C
:2041A0000CF03CFF70B505460C46164602E00FCC0FC5103E102EFAD2082E02D303CC03C51F
:2041C000083E042E07D301CC01C5361F03E021782970641C6D1C761EF9D270BD07488047E5
:2041E00007480047FEE7FEE7FEE7FEE7FEE7FEE704480549054A064B70470000A1F4000045
:20420000C1400000A8430020A8530020A8450020A845002072B6704762B67047EFF310803D
:2042200072B6704780F31088704730BF704720BF7047000072B6214821490160002080F3B2
:20424000098808F0BBFB1F48016881F308881E481E49016062B6FEE71B481C490160704740
:2042600019481A490160704772B6EFF3098000280BD02438164909680860F0C044464D466B
:2042800056465F46F0C0734608C008F097FB114811490A7802700E4810490A680260106880
:2042A0001030F0C8A046A946B246BB4608C89E4680F309882438F0C862B6704720ED00E0B0
:2042C0000000FF008C00002004ED00E00000001024010020CA000020CB00002028010020EF
:2042E000704710B5044601F009FC0068005DC00602D52046203010BD204610BD0FB40549D9
:2043000010B503AA029801F0A5FE10BC08BC04B018470000640000200FB41CB5074B06AA40
:204320007B4469460090059801F065FE0020694601F074FE1CBC08BC04B01847F91C000098
:2043400070B5044685690068C10601D5302600E02026C00707D070BD62683046A168904794
:20436000206A401C20626D1EF6D570BD70B5044685690078C00707D170BD6268A16820209E
:204380009047206A401C20626D1EF6D570BD70B50C460546012A05D02878800600D5EA694B
:2043A000002302E0012305E05B1C934202D2E05C0028F9D1A869E618C01AA861286AC01845
:2043C00028622846FFF7BCFF04E06A682078A968641C9047B442F8D32846FFF7C7FF70BD66
:2043E000F7B5002575291068009914A611D0C046C046002802DA404211A608E00099096867
:204400008A0701D50FA602E0490704D50EA6012501E0C046C046009F0024243704E001F0BB
:2044200077FE30313955641C0028F8D12B4632462146009801F075FBFEBD000000000000A3
:204440002D0000002B0000002000000070B504460D4621461068C046C0462188090502D5A9
:204460000F4A7A4402E00E4A7A440E3223460021243305E006070009360F965D5E54491CC2
:204480000028F7D120780023000705D5702D03D0002901D002231132204601F042FB70BDFD
:2044A0003E410100F3B50446002081B020622046E1688847002872D0252802D06268A168DD
:2044C000ABE0594F00267F442046E16888472028054608DB312D06D278192038007800280D
:2044E00001D00643F0E7B00701D5042086430020E0610746A0612A2D0AD028460CF0D7FC34
:20450000002827D0B8000019303D0090856119E00298BA00121902C8916102902046E16853
:204520008847012F054617D1E06900281FDA202086431CE000980A218069484300994019B1
:20454000303888612046E168884705460CF0AFFC0028EFD1012F0AD02E2D08D12046E168C5
:2045600088470546202006437F1C022FC3DBA069002803DA4042A06101200643F00701D06B
:20458000102086436C2D0BD0682D09D04C2D3CD06A2D38D0742D38D07A2D36D016E040E0B0
:2045A000E1682F4620468847B842054609D16C2F29D001208002E1680643204688470546A0
:2045C00004E06C2F1DD0FF2001300643002D28D028464138192803D80120C002064320352D
:2045E000204626602946029A1646FFF799FD002810D001280BD0F61DF008C000083002903B
:2046000055E74020E1E78020D5E70020D3E7361D02964CE762682846A1689047206A401CE4
:2046200044E7206AFEBD0000024101000FB400B58DB010A909900B900020C04300910A90D6
:2046400000200C90074878440690074878446A4607900F9909A801F027FD0DB008BC04B008
:2046600018470000831A00009D1A0000FFB51D460027FF4383B05C68002001909E68A96947
:2046800004987F1C88470090296A88470028F6D10098401C0CD0032040028443002E19DD13
:2046A000600614D500982B2809D02D280FD103E00020C04307B0F0BD012080020443A9694C
:2046C00004987F1C8847761E002E009002DD0098302803D00598002825D035E00120A969DE
:2046E00040020443761E04987F1C8847002E009003DD782805D0582803D00598002810D08C
:2047000022E00598002801D010281DD10120A96940028443761E04987F1C88470090102045
:2047200002E0082000E00A2005900DE00121059A49020C430199761E514308180190A96903
:2047400004987F1C88470090002E05DD0599009801F094FC0028E9DAE96904988847A005AF
:2047600002D40120C043A5E7E00722D1600611D56005019800D5404229680A1D2A60096885
:20478000220501D5087014E0220701D5088010E008600EE02868011D29600068210502D547
:2047A0000199017005E02107019901D5018000E0016038467EE7FFB5144683B00020002645
:2047C00000905068019091699768049888470C9905460698084305D009E0A1690498761CCD
:2047E00088470546216A284688470028F5D1681C03D00198C00704D017E00020C04307B08D
:20480000F0BD2068011D2160006800900DE00198C00704D1009805700098401C0090A1690F
:20482000761C04987F1E88470546002F1CDD681C1AD0069800280FD0E817C00E40194111E0
:2048400040098A000699400151182A1A0968012090400142DBD107E00C980028D7D12846DE
:20486000216A88470028D2D0E169049888470C98002807D1002E05DD0198C00702D10098E0
:2048800000210170A068B84204DD0C98002804D0002F02D00120C043B1E73046AFE730B555
:2048A00005460B462A461C781078521C5B1C002801D0A042F7D0002C03D0002802D06D1CC7
:2048C000EFE7284630BD034610B50B439B070FD1042A0DD308C810C9121FA342F8D018BA62
:2048E00021BA884201D9012010BD0020C04310BD002A03D0D30703D0521C07E0002010BD6F
:2049000003780C78401C491C1B1B07D103780C78401C491C1B1B01D1921EF1D1184610BD64
:2049200030B5441C03E00178401C00290DD08107F9D10B4BDD0104C8D11A91432940FAD030
:20494000001B0A0603D0C01E30BD001B30BD0A0401D0801E30BD0902FCD0401E30BD0000FA
:20496000010101010346F0B50B439B072DD1244DEF01042A29D308C810C95E1B9E43121F98
:204980003E4017D0D8B2E1B2401A3106014310D198B2A1B2401A310401430AD11802210257
:2049A000000A090A401A3102014302D1180E210E401AF0BDA342DCD018BA21BA884201D9F8
:2049C0000120F0BD0020C043F0BD002A01D10020F0BD03780C78401C491C002B0DD0A342C3
:2049E0000BD1521E09D003780C78401C491C002B03D0A34201D1521EEBD1181BF0BD000011
:204A000001010101F8B5042A2CD3830712D00B78491C0370401C521E83070BD00B78491CD8
:204A20000370401C521E830704D00B78491C0370401C521E8B079B0F05D0C91ADF0020239C
:204A4000DE1B08C90AE0FFF7ADFBF8BD1D4608C9FD401C46B4402C4310C0121F042AF5D223
:204A6000F308C91A521EF0D40B78491C0370401C521EEAD40B78491C0370401C012AE4D4A5
:204A800009780170F8BD134610B50446CAB219461002821810048218204600F00FF820460F
:204AA00010BD01E004C0091F0429FBD28B0701D50280801CC90700D00270704700290BD00F
:204AC000C30702D00270401C491E022904D3830702D50280801C891EE3E70022EEE70022FA
:204AE000DFE70000024670B50A4392072AD11E4DEE0104C808C9541B9443344017D0D0B288
:204B0000D9B2401A2106014310D190B299B2401A210401430AD110021902000A090A401A95
:204B20002102014302D1100E190E401A70BD9A42DFD010BA19BA884201D9012070BD002035
:204B4000C04370BD02780B78401C491C002A09D09A4207D102780B78401C491C002A01D0F7
:204B60009A42EFD0D01A70BD01010101002203098B422CD3030A8B4211D300239C464EE094
:204B800003460B433CD4002243088B4231D303098B421CD3030A8B4201D394463FE0C309F5
:204BA0008B4201D3CB01C01A524183098B4201D38B01C01A524143098B4201D34B01C01AE2
:204BC000524103098B4201D30B01C01A5241C3088B4201D3CB00C01A524183088B4201D34C
:204BE0008B00C01A524143088B4201D34B00C01A5241411A00D201465241104670475DE0C8
:204C0000CA0F00D04942031000D34042534000229C4603098B422DD3030A8B4212D3FC22AB
:204C2000890112BA030A8B420CD3890192118B4208D3890192118B4204D389013AD0921188
:204C400000E08909C3098B4201D3CB01C01A524183098B4201D38B01C01A524143098B42FD
:204C600001D34B01C01A524103098B4201D30B01C01A5241C3088B4201D3CB00C01A5241DD
:204C800083088B4201D38B00C01A5241D9D243088B4201D34B00C01A5241411A00D201462D
:204CA000634652415B10104601D34042002B00D54942704763465B1000D3404201B5002020
:204CC000C046C04602BD7047704770470246C80FC00781434B0030B54B405B009B0D20D08C
:204CE0001923DB06C91801231B05994220DB0324A40704251346AB400BD3002B04D1EB068E
:204D000013409B00E34204D401246407002312195941FF231B0599420BD2C9000143500FCA
:204D200009E0CB0204D501430803024305D0054830BDFF21C905084330BD08460721090597
:204D4000884330BD0000C07FF0B50C46871A9C410D46861A9D4103D2C01BA141D2196341F5
:204D60000D0D1F0DC94EEC1BAE435CD07F057F0D0026002F51D02D05AC46A943DD02012319
:204D8000ED0A1B051D4320231B1B24D41746E740381871412F46E740CC199D402818314690
:204DA00061410C0D27D161449A4013D50023401C594152000ED14008400001224B00520542
:204DC000D34207D305204007C14201D5B04900E0B0493046F0BD6B00002A00D001229A1870
:204DE0001F23203C1B1B01D5002302E0E540281871410C0DD7D0012424050919C407CD071E
:204E000040084908E40F28436144002CD5D00024401C61419A40D0D1CDE76A05520DD9D15C
:204E2000C90FC907D5E79C4D4E00002801D0012400E0002434195F00002A01D0012600E007
:204E40000026BE19954FAC420CD8AE420AD8B44206D001256D05EC42BCD010461946F0BD4D
:204E60009942FCD000203946F0BDF0B51FB40C460F46811A9F412546861A9D4106D20125BE
:204E8000ED076F40401ABC4152187B41210D1E0D8D1BAC467D4D8D437ED075056D0D7CD0D7
:204EA0000D05AE46AC431B031B0B794D52429D41202366469B1B14D31746F74038180026EB
:204EC0000090744160462F460741E41900989D402818664116D4714671189A4025D50123AF
:204EE00020E093182A466A415200002B00D0521C1E23203E9B1B002B61DD3541EE172818B8
:204F00006641E8D5001876415B1C9A4000D3401C4B05F3181524E34010D3002B52D0714640
:204F20007118D30FC01802D3491C05B0F0BD0123DB079A42F9D140084000F6E70122520507
:204F4000B21801D1002853D00123CC0ADB029943891E002A08D1020C03D0020C00041039D1
:204F600002E00246002020390023550B05D112020823550B01D152010D23550C01D11201FB
:204F80001B1DD50C01D192009B1C150D01D152005B1C2025EE1A01E02CE022E00546F54064
:204FA00015439840CA1AE10769181305C918002ABBDA032040070818C10FC9070FE07146EC
:204FC0006118B2E7F10740080843711071444A000CD001235B059A42A7D2C90FC907002037
:204FE000A3E74905490D26D1002001E00028F4D100219AE7284D6600002801D0012100E026
:20500000002171185F00002A01D0012600E00026BE19224FA94210D8AE420ED8B14208D0A3
:2050200001256D05E94206D01946A802414010467BE79C4201D0214677E70020394674E727
:2050400010B50C465C4005D50124E4076340FFF70CFF10BDFFF778FE10BD30B40C465C4037
:2050600004D50124E407634030BC6DE630BCFCE670B50124E40761400D465D4002D4FFF705
:2050800063FE70BD6340FFF7F0FE70BDFF0700000000F0FF0000F07F0000E0FF0000F87F14
:2050A000F0B5F94D0C091E092C402E402F468BB0A7437DD0B543FCD0002E7AD0002CFCD0D4
:2050C0000D465D40ED0F2543AC1BFF25AD0464190894C502440DC9022143500DDC020443FE
:2050E0000120C00701430443D2020191200C110C00958C46010423468B430A91614609049C
:20510000E24D8A430991010A7D4449198039097805464D4301266D18F605751B6943C90CFE
:20512000640B891C4C436418B5012C1B250C2E04B4434C434D43210C691889090591009D67
:20514000E90701D00121C90704912C4601996708CD072F434C08059DE10B4D432D0C29462C
:205160006646754302950D4645432E46029D7D1BB44100950D465D4301942C0C2F040D46DE
:205180005543AE462D0C3D43029503947546049C2D04641B049406D2029C039D641C00263D
:2051A00075410395029401AC70CC009F7D1B01E03EE162E1B4410904009507910194059946
:2051C000A4086143090C0C464443650BE7040C4666467443A646640B3C43039502947446BF
:2051E000049DE4042C1B049406D2029C039D641C002675410395029401AC70CC009F7D1B87
:20520000B44101940C465C430095650FE7000C465443A646640F3C43039502947446049DD3
:20522000E4002C1B049406D2029C039D641C002675410395029401AC70CC009F7D1BB441F6
:20524000AE09AF06049DC900AD092F43049DA406AD060495079D344369180791059DE10BF7
:205260004D432D0C29466646754302950D4645432E46029D7D1BB44100950D465D43019463
:205280002C0C2F040D465543AE462D0C3D43029503947546049C2D04641B049406D2029CC4
:2052A000039D641C002675410395029401AC70CC009F7D1BB44101948C050694079C890AB9
:2052C000611800950791019C0599A4086143090C0D464543680BEF040D46644665436C0B2B
:2052E0003C43049FED047D1BAC4602D20025641C6841009E019D371B85410846584301951C
:205300000C46460FC5005443600F28436546E4002C1B02D20025401C6E41019D3F1AB541E9
:205320002846BD09800628438446A009BF064E020699A40676180743079D002068410A998F
:20534000079019430020099B00906046FF1913434041E20F64003A43A4460446D71A8C41AD
:20536000A04203D90120009020463A46C70F941840416246D20F2243644664000494009CA5
:20538000BE466400D71AA446044602978C417746002F01D1A04204D96046401C8446029A35
:2053A0002046C40FA64694184041049A0546D20F224364466400D31A8D417146002901D1F1
:2053C000A84202D928461A46641C10430122002800D0164361020020079B891904465C4145
:2053E0000223002C02DB491813466441089DCE0A2D145D194B056705E10A2C050D1908994D
:205400003E43C9076940002B08D0934006D30022761C5141002B01D1760876001C4A002D19
:2054200043DB154241D0AA433FD030460BB0F0BD06180D464D41174C7642AC411AD395186B
:205440001C465C41134A6D42A24113D3012252054C00D4420AD15C00D4420BD04B4002D512
:2054600092021143E2E749004908DFE75940C90FC90718E000200849D8E7054801420DD144
:205480000342F7D0F2E700000000FF07D13401000000F07F0000E0FF0000F87F1148594064
:2054A0000143C01241400020C0E70123089A9B069A4205DC032252078918C90FC907B5E707
:2054C000052252078918074A1143D2125140ADE770B515461C4602460B4628462146FFF7B7
:2054E000DFFD70BDFFFFFF7F30B50346CA02400D1043164D164C0A1502D02043002A06DB69
:20550000AA1A002A12DDD040FF2A0BDC30BD5205520D01D140004008AA1A07D4D040404260
:20552000FF2A01DD002030BD0028FCDD4A00002B01D0012000E00020101801225205D0423B
:20554000F0D8C817C043604030BD00001E040000000000800346CA02400D10B510430A15D9
:2055600004D00124E4072043002A05DB0A4CA21A04D4D040FF2A00DD002010BD4A00002B78
:2055800001D0012000E00020101801225205D042F2D8C817C04310BD1E0400001F22030C7A
:2055A00002D10F22000402D0030E03D004E00020014670470002083A030F01D10001121FD1
:2055C000830F01D18000921E002801DB4000521E120551184205C012411810467047C10FB4
:2055E000C90700D04042012292071143D6E701218907D3E7F0B58B4C0F09254689B0BD4318
:205600007BD01D092646AE43FAD00E465E402740F60F3E43254071D024012142FBD0FF24F7
:20562000AD19A4042D1B039501252D05DB02DB0AC9022B43C90A29431E010901040F130F2C
:20564000050121431701880B820391432D098C46A90B1E438A039543B30B9A0396433F09DE
:20566000BA0B9403A74302962E467E430497B6464E19D7190C460196544305977E43371BFA
:205680007646BF1B3601B646BE0B361900967646BC043719009C01D3641C00946400002FB0
:2056A00001D001263443029E049F754366467E430496760034196E0034190094029C019E2A
:2056C0001C196643751BAE46069465464519059C05956C43594375460891691A0191049E34
:2056E00001465143A41B0491611A009C0791E10605D061090122114302E072E06EE0610943
:20570000089D00272C0A2D066918049D7C412A0A2D066918019D6241AC0DAD026D185441CA
:20572000079A910D920255196141029A644658435443069B059A5A43121A131B9A0E9B0193
:205740005B187A41010B0005C3185141220A200644195A419A4200D2491C0120400281421A
:2057600003D315230226F64302E014230326F6432020C51AA9401746AF40DA400A4320461E
:205780000399D8400914731819055118039A3843D2075140AC4009D00122944006D30022ED
:2057A000401C5141002C01D1400840001E4A934212D3012203989206904207DB05204007DD
:2057C00009181A480143C012414004E0032040070818C10FC907002009B0F0BD0020F10703
:2057E000FAE705180C464C4111486D42A04115D394181A465A410E48644290410ED3012085
:205800004A004005824209D35A00824206D35940C90F084AC90700201143DDE70020064928
:20582000DAE700000000FF07FE070000FFFFFF7F0000E0FF0000F07F0000F87F70B50546EB
:205840004800440D124B0020002C0AD0634008D09A4206DA6642B24203DD12054019514177
:2058600070BD002C08D0002B09D0C90FC907002AF6DB084A114370BDC90FC90770BD28463A
:205880000A03104302D00020034970BD284670BDFF0700000000F07F0000F87F0121C905C6
:2058A0000123411842001B06D3185B0E0AD0C1100722D206891840075242D14201D5520051
:2058C00089187047090208D50146002A03D0C10FC9070020704710467047420202D000208A
:2058E00002497047072109050143F4E70000F87FF0B5FF252D04C609C209FF2704462E4068
:205900000137CB093E4348402A402B400746002A6BD0002B69D0AA4267D0AB4265D000281A
:2059200000DA32460125ED0529432C4309022002090AD21A4B0C7F24E31A434C000A7C44A6
:20594000E35C7D242404121914145B00A218884201D3521C00E0400049420C465C432411FA
:205960005C43DB016415E318040A5C43C502200D0C4644436419250A5D432303EC0C0D4601
:20598000654300030019EB184C42A34201D35B18401CD4052018002B07D05B00C91804D304
:2059A000401C002901D1400840003F2189048A4209D3002A08DC1106090F04D003214907EE
:2059C0004018C00FC007F0BD01224100120689187F2252069142F6D205214907C84201D525
:2059E0009010F0BDFF20C005F0BD002F00DA32461648AA4207D2AB4205D21902090E17D048
:205A0000F80FC007F0BDFF2563002D06AB42F9D84900A942F6D8AB4201D1A942F2D0A9423A
:205A200001D1002101E061004908D0050843F0BD1102090EFBD0FF200243D005F0BD0A46E8
:205A40000146104654E700001B2D01000000C07F10B501469E240002CA15A307002A02D091
:205A60001843002A04DBA21A002A0CDDD04010BD1206120E01D140004008A21A03D4D040E1
:205A800040420028F3DDFF2248001206904201D9002010BDC817C043584010BD1F22030CDB
:205AA00002D10F2200041CD0030E01D10002083A030F01D10001121F830F01D18000921E21
:205AC000002801DB4000521ED2055118021251181922904004D3491C002801D1490849007A
:205AE00008467047C10FC90700D04042012292071143D3E701218907D0E7704710B500F010
:205B000019FC001D10BD00BF4108010010B500F015FC006810BD10B5044600F00FFC046014
:205B200010BDFFB504460D4681B0243000902168880604D51022E0699143216000E0012071
:205B4000A84201DD471B00E000270498A1697A191018081AA0612078C00602D42046FEF701
:205B6000EFFB002608E003986268A168805D9047206A401C761C206204988642F3DB207847
:205B8000C0060AD52046FEF7DBFB06E06268A16830209047206A401C206238467F1E0028A4
:205BA000F4DC07E000986268A168405D9047206A401C206228466D1E0028F3DC2046FEF79C
:205BC000D5FB2078000602D5022005B0F0BD0120FBE700007047FFB50C461E468FB003CACC
:205BE000089009914F007D0D00D16D1E002108460020C0460321099A89050840002A03DA05
:205C00008200801840080840800D01280A9002DD0020C0430A90089807430DD0F048F149B5
:205C2000281848430714189800281DD07542291E1DDD0A9842421BE01898012802D00020D5
:205C4000302104E00020F24305E02154401CB042FBDB30460022189B002121540F998B60C8
:205C60000A60486013B0F0BDBD1B6D1CDFE70A9A002900DA69420BA800F0B8FD0BAB07CB49
:205C800003AB07C30899099800F01CFE6B4607C30146D5480918002D00910BDDD2490398E4
:205CA0000A9A49424018002303A90390684601F079F808E003990A9A0023081803A9039041
:205CC000684601F019F86B4607C30004000C03D00020C043410800E01046189A002A03D065
:205CE0000022009215461EE0751E05D400F02AFB303262556D1EF9D501220843079602D0C7
:205D000000227F1C04E02078302801D100227F1E002A069787D01EE0112D07DA00F012FB29
:205D2000303262556D1C02460A43F5D1084303D00098002819D00EE00021681E05E0235CA6
:205D4000625C63542254401E491C8142F7DBA81B401E07950690079A18990020A0540F98A0
:205D6000079B069A81600CC07CE711260020189059E7D21DF0B50D460446D10893B0C9007C
:205D800003C90C900D910AF0F7FE02460D98C00F01D02D2007E02068810701D52B2002E03A
:205DA0004007C00F4001032A0F9001D0072A05DB03462946204600F00BFB0EE120788006BD
:205DC00001D5E76900E006272846652D04D0662814D0672D69D12DE00020112F009001DBA3
:205DE000112300E07B1C0CAA03A910A8FFF7F3FE1199002610987D1C0E9142E001203B4683
:205E00000CAAC0070B900120009003A910A8FFF7E2FE119D12981099002600280E9501D1BB
:205E2000781C0D18781B02D446427D1C761EE81B00903AE0012F00DA01270020112F0090BC
:205E400001DD112300E03B460CAA03A910A8FFF7C2FE11993D46109800260E9121780907BC
:205E60000BD40E99A94200DA0D4603A9012D04DD4A19203AD27F302A06D0B84201DA011D98
:205E800004DA012100910FE06D1EEFE7002802DC86192D1A03E0411CA94200DD0D46801B3F
:205EA000401C00900120C0070B902078000705D40098A84202DB0020C0430090694600201A
:205EC000C8720B98012102AF0337C907884225D0022010902B2011900B9800280BDA404269
:205EE0000B902D20119006E00B9800F011F930317F1E0B9039701099481E00291090F3DCAD
:205F00000B980028F0D111987F1E38702088000501D5452000E065207F1E387001A8C01BF1
:205F2000C01D0B900F98002800D0012041190098C01709180B980818A169081A401EA061F1
:205F40002078C00602D42046FEF7FAF90F98002805D06268A1689047206A401C2062207871
:205F6000C00625D52046FEF7EBF921E0002E07DB0E98B04204DD03A86268805DA16802E05B
:205F80006268A16830209047206A761C401C20620098401E002800900AD100F0CBF9C068A8
:205FA00062680168405CA1689047206A401C206228466D1E0028D9DC07E062683878A1688A
:205FC0007F1C9047206A401C20620B99481E00290B90F2DC2046FEF7C9F9032042E60000E3
:205FE00001FCFFFF104D0000E1DFFFFF01694A1C02610878704700B58FB0029100210591E3
:206000000549019379440391114604906846FEF749FA0FB000BD0000E5FFFFFF0A6810702C
:20602000521C0A60704710B54369002B02D0C046C04601E0FEF7ABF9012010BD127801461E
:2060400024310A7000224A700122ECE711680022D243E8E7084B70B50D467B44FFF7CBFFD6
:206060000446284600F0EEFE002802D00020C04370BD204670BD000073C100003A2800D247
:206080003038202302469A43412A01D310463738884201D30020C0437047000002685118E1
:2060A000137801601846704710B5D16005497944516105497944116200211161114600F0D4
:2060C000CBF910BDEBFFFFFF070300004268002A08D001680B78491C002B03D0521E06C00C
:2060E000184670470121C160881E70474268002A0BD0C3680168002B07D183688B4204D019
:20610000491E521C06C0002070470020C043704701468008081A02091018020A1018020CCD
:206120001018C008820012185200891A01E0401C0A390A29FBD27047F8B5224C4E00069D8B
:20614000A6420AD8A64201D1002806D15E00A64203D8A6420AD1002A08D00D242404254216
:206160002CD02946002000F071FEF8BD0C461C430CD4994202D0EFF30080F8BD904202D087
:20618000EFF30080F8BDEFF30080F8BD09242407E5008B4206D0EFF30080A043591A06D261
:2061A000284304E0101A05D3EFF30080A04380F30088F8BDEFF30080A043F1E7009500F0F7
:2061C0005DFEF8BD0000E0FFF0B53D4B02460C461C400020002C63D03A4D8B4366D000297A
:2061E0006BDB0B0D1D05A94301252D0529430124FD33E34001D392184941FF3381339C4627
:206200008B02940D0121234389074C42920200271B198C105D1A04D42D1B02D42B466500DC
:20622000491992185B416408F4D15C1A08D40125ED07EE175519744102D42A462346491CDD
:2062400094185B41012292071D46E61B8D4106D4B61A854103D42B46550034467F192419AC
:206260005B415208802AEFD1234300D0022338460A22D04001D3012213438A0510436246D2
:20628000890A12058918002B09D00122D34002D30022401C5141002B01D140084000F0BD62
:2062A0000B03134307D0C90FC907F0BD0803104303D1002901DB1046F0BD00202946F0BDD8
:2062C0000000F07F0000F87F10B5FF231B0644009C421DD84C009C421AD80346124A0B43AA
:2062E00007D4401A02D3EFF3008010BDEFF3008010BD081A06D2EFF3008001219043C90715
:20630000084302E0EFF30080904380F3008810BD0D231B041A4204D01146002000F096FDDA
:2063200010BD00F0B5FD10BD00000090004870474443002000487047644300200048704726
:20634000444300200B4670B5024689078008084319469D08141AA9412509080705430809C3
:206360002C194841250A01060D43010A2C194141200C0D0428430D0C00194D410021401915
:206380004D41C00869070843E908840F8D002543840024184D4124196D41121BAB4107E03A
:2063A0000925ED432C11521963410024401C61411C460A250026551BB441F1D270BD10B540
:2063C0000446FFF79BFB0068005DC007C00F10BDF8B51F46044601230068DB02032601468A
:2063E0001840072A05DB002801D017A506E017A504E0002801D016A500E016A510208143B6
:206400002160A069C01E002FA06101D0401EA0612046FDF795FF002F09D038466268A1686D
:206420009047206A401C2062C01C206206E0206AFAE762682878A1686D1C9047761EF8D23D
:206440002046FDF793FFF8BD4E414E006E616E00494E4600696E6600F3B50C468FB000200E
:206460000C90012000260E9008460C3003906269039801219047051E2ED0252D2DD0216A24
:206480008847002818D06269039801219047216A88470028F7D16269411E0398904700E0F8
:2064A000761CA1690F988847216A88470028F7D1E1690F988847DAE7A1690F988847A84295
:2064C000074601D1761CD2E7E1690F9888477F1C02D10C98002877D075E16269039800272E
:2064E0003D46394690472A280CD16269039801219047012506E00A214F433F18303FEBD4E7
:20650000102005436269039801219047014630390A2903D2B1498F42DEDCECE7E90600D4D1
:20652000AF4F6C280AD04C2810D0682824D06A282ED074280CD07A280AD00DE06269039840
:20654000012190476C2823D004211CE0202005436269039801219047A760652865604FD03B
:2065600026DC582839D01ADC452849D012DC252834D04128B0D143E0626903980121904769
:20658000682802D008210D43E6E70120C002DEE70220DCE7462833D047289DD130E05B28E5
:2065A00070D061282CD063286CD0642894D161E06F284FD009DC662822D0672820D06928F2
:2065C00026D06E2888D12EE0F9E070284DD073286FD075284ED078280DD154E0A1690F9842
:2065E00088472528054600D16CE7E1690F9888476D1C00D16DE7E6E00A224CE00A2252E026
:20660000012023466A460F99C043C046C046CFE040212846234608436060A80701D50022F0
:2066200039E000223FE0E80700D020E72068011D21600068290501D5067018E7290701D52C
:20664000068014E7A90703D5F117066041600EE706600CE740212846234608436060A807E2
:2066600001D5082217E008221DE05E4928460840606016E040212846234608436060A807F7
:20668000BCD5B9E715E04021284608436060A80707D52346102201200F99C043C046C046FC
:2066A00086E01022234601200F99C043FDF7DEFF7EE0002163280B460191009102910D918D
:2066C00002D05B2808D03CE02079C00601D40120A0600120009034E0E06801210D90626985
:2066E000039890475E2807D101200190E06801210D906269039890472169002906D10B46F9
:2067000004AA8F00491C0829D351FADB00285AD02169002927D00298401C029062690398C3
:20672000012190475D28F1D10198002808D0002004AB8100401C5A58D24308285A50F8DB60
:2067400004AB2069002820791DD0400726D5029A00980D9B00922246029001200F99C043DD
:20676000C046C04624E0C117C90E09184A114909930004AA9A184901411A13680120884090
:2067800003431360CAE74007224617480F9902D5C046C0460CE0FEF70EF809E00298224624
:2067A00000990D9B009002910F480F99C046C04600280ADA401C06D10E98002803D000206A
:2067C000C04311B0F0BD0C98FBE7E90702D10C99491C0C91361800200E9048E6CCCCCC0CAE
:2067E000FFFFFF7FF1F7FFFFFEFFFFFFF7B516468AB0334878446C4603467C33C06F5A6828
:206800009B680DC42E487844763003AC0DC80DC43720C001081837211B30FEF7B1F90546B2
:206820000C46803D1B3C02D56442012000E000200027099010E0E0070CD00C202049784391
:20684000794432464C3941186846012300F054FA6B4607C364107F1C002CECD1184F7F4478
:206860002E3F16E0E80712D02001C0190EC80691089307920068F04201D19819089032461C
:20688000012306A903A800F037FA03AB07C36D10641C002DE6D10998002806D0324669463A
:2068A000012303A800F07EFA05E001233246694603A800F021FA0A9B07C30DB0F0BD0000E2
:2068C000381F0100034640000A4610B5400D0BD00121C9070F24A40200191C0364082143C7
:2068E000540D2143D20207E000210120F2E7D40F490021435200401E0029F8DADB0FDB07F6
:20690000184310BDFFB50D46144685B0486851680AF00CF900910190A868A1680AF006F91D
:2069200002910390A86861680AF000F9029A12188242029201D2012000E00020019A0B1895
:20694000D2180028019202D08A4202D903E08A4201D2012000E0002000990818009068685D
:20696000A1680AF0E3F8029A12188242029201D2012000E00020019A0B18D21800280192C4
:2069800002D08A4202D903E08A4201D2012000E000200099081800902868216840004900F0
:2069A000400849084018FA49471814E001994000C90F08430090019802994000C90F08432C
:2069C0000190029803994000C90F08430290039840007F1E039000980028E7DA08980028A7
:2069E00001D0EC4E00E00026B74201DA012000E00020002804902AD0F71BF806C00E15D018
:206A0000029B2021091A039A8B401A430392029A019BC2408B401A430292019A009BC240ED
:206A20008B4000991A430192C14000917B110DD06F460320C11A03D500218200B95003E0ED
:206A40008A008100BA587A50401EF3D5374603980299002800D001200143089802910028BE
:206A600008460CD0002800D001200199019A490508430121D20AC902D202019200E00121D3
:206A80000E9B0122D207012B02D0002B03D013E0002807D120E0904204D890420CD1019B69
:206AA0000B4209D0019B5918019105D10099491C009101D17F1C009200280DD01021084629
