:20000000801600209D010000A5010000A7010000000000000000000000000000000000003E
:20002000000000000000000000000000A90100000000000000000000AB010000AD010000BC
:20004000AF010000AF010000AF010000AF010000AF010000AF010000AF010000AF01000020
:20006000AF010000AF01000051890000AF010000AF010000AF010000AF010000AF010000D6
:20008000AF010000AF010000AF010000AF010000AF010000AF010000AF010000AF010000E0
:2000A000AF010000AF010000AF010000C9310000AF010000AF010000AF010000AF01000076
:2000C00000F002F800F03EF80CA030C8083824182D18A246671EAB4654465D46AC4201D150
:2000E00000F030F87E460F3E0FCCB6460126334200D0FB1AA246AB4633431847A896000093
:20010000C8960000103A02D378C878C1FAD8520701D330C830C101D504680C60704700009C
:200120000023002400250026103A01D378C1FBD8520700D330C100D50B6070471FB51FBD3F
:2001400010B510BD01F0E4F81146FFF7F7FF09F0E5F801F0FCF803B4FFF7F2FF03BC00F0F5
:20016000F1FB000070B505460C46164602E00FCC0FC5103E102EFAD2082E02D303CC03C5EA
:20018000083E042E07D301CC01C5361F03E021782970641C6D1C761EF9D270BD0748804765
:2001A00007480047FEE7FEE7FEE7FEE7FEE7FEE704480549054A064B7047000021880000B1
:2001C000C10000008004002080160020800600208006002030B505460B462A461C781078AB
:2001E000521C5B1C002801D0A042F7D0002C03D0002802D06D1CEFE7284630BD30B5441C80
:2002000003E00178401C00290DD08107F9D10B4BDD0104C8D11A91432940FAD0001B0A06B1
:2002200003D0C01E30BD001B30BD0A0401D0801E30BD0902FCD0401E30BD00000101010188
:20024000F8B5042A2CD3830712D00B78491C0370401C521E83070BD00B78491C0370401C15
:20026000521E830704D00B78491C0370401C521E8B079B0F05D0C91ADF002023DE1B08C9A9
:200280000AE0FFF76FFFF8BD1D4608C9FD401C46B4402C4310C0121F042AF5D2F308C91A51
:2002A000521EF0D40B78491C0370401C521EEAD40B78491C0370401C012AE4D40978017099
:2002C000F8BD01E004C0091F0429FBD28B0701D50280801CC90700D00270704700290BD04F
:2002E000C30702D00270401C491E022904D3830702D50280801C891EE3E70022EEE7002222
:20030000DFE7002203098B422CD3030A8B4211D300239C464EE003460B433CD40022430818
:200320008B4231D303098B421CD3030A8B4201D394463FE0C3098B4201D3CB01C01A5241D7
:2003400083098B4201D38B01C01A524143098B4201D34B01C01A524103098B4201D30B0118
:20036000C01A5241C3088B4201D3CB00C01A524183088B4201D38B00C01A524143088B4230
:2003800001D34B00C01A5241411A00D201465241104670475DE0CA0F00D04942031000D366
:2003A0004042534000229C4603098B422DD3030A8B4212D3FC22890112BA030A8B420CD35F
:2003C000890192118B4208D3890192118B4204D389013AD0921100E08909C3098B4201D361
:2003E000CB01C01A524183098B4201D38B01C01A524143098B4201D34B01C01A52410309EC
:200400008B4201D30B01C01A5241C3088B4201D3CB00C01A524183088B4201D38B00C01A8D
:200420005241D9D243088B4201D34B00C01A5241411A00D20146634652415B10104601D395
:200440004042002B00D54942704763465B1000D3404201B50020C046C04602BD7047704760
:20046000704700000246C80FC00781434B0030B54B405B009B0D20D01923DB06C91801234B
:200480001B05994220DB0324A40704251346AB400BD3002B04D1EB0613409B00E34204D46D
:2004A00001246407002312195941FF231B0599420BD2C9000143500F09E0CB0204D501438B
:2004C0000803024305D0054830BDFF21C905084330BD084607210905884330BD0000C07F1C
:2004E000F0B50C46871A9C410D46861A9D4103D2C01BA141D21963410D0D1F0DC94EEC1B31
:20050000AE435CD07F057F0D0026002F51D02D05AC46A943DD020123ED0A1B051D4320236B
:200520001B1B24D41746E740381871412F46E740CC199D402818314661410C0D27D161449A
:200540009A4013D50023401C594152000ED14008400001224B005205D34207D305204007E7
:20056000C14201D5B04900E0B0493046F0BD6B00002A00D001229A181F23203C1B1B01D5C9
:20058000002302E0E540281871410C0DD7D0012424050919C407CD0740084908E40F284379
:2005A0006144002CD5D00024401C61419A40D0D1CDE76A05520DD9D1C90FC907D5E79C4DAF
:2005C0004E00002801D0012400E0002434195F00002A01D0012600E00026BE19954FAC422E
:2005E0000CD8AE420AD8B44206D001256D05EC42BCD010461946F0BD9942FCD0002039467F
:20060000F0BDF0B51FB40C460F46811A9F412546861A9D4106D20125ED076F40401ABC41B2
:2006200052187B41210D1E0D8D1BAC467D4D8D437ED075056D0D7CD00D05AE46AC431B0366
:200640001B0B794D52429D41202366469B1B14D31746F740381800260090744160462F4646
:200660000741E41900989D402818664116D4714671189A4025D5012320E093182A466A41F1
:200680005200002B00D0521C1E23203E9B1B002B61DD3541EE1728186641E8D500187641F3
:2006A0005B1C9A4000D3401C4B05F3181524E34010D3002B52D071467118D30FC01802D304
:2006C000491C05B0F0BD0123DB079A42F9D140084000F6E701225205B21801D1002853D0E1
:2006E0000123CC0ADB029943891E002A08D1020C03D0020C0004103902E0024600202039BE
:200700000023550B05D112020823550B01D152010D23550C01D112011B1DD50C01D19200C9
:200720009B1C150D01D152005B1C2025EE1A01E02CE022E00546F54015439840CA1AE1078D
:2007400069181305C918002ABBDA032040070818C10FC9070FE071466118B2E7F10740083E
:200760000843711071444A000CD001235B059A42A7D2C90FC9070020A3E74905490D26D10C
:20078000002001E00028F4D100219AE7284D6600002801D0012100E0002171185F00002AC0
:2007A00001D0012600E00026BE19224FA94210D8AE420ED8B14208D001256D05E94206D0E6
:2007C0001946A802414010467BE79C4201D0214677E70020394674E710B50C465C4005D5DC
:2007E0000124E4076340FFF70CFF10BDFFF778FE10BD30B40C465C4004D50124E4076340E1
:2008000030BC6DE630BCFCE670B50124E40761400D465D4002D4FFF763FE70BD6340FFF712
:20082000F0FE70BDFF0700000000F0FF0000F07F0000E0FF0000F87F0346CA02400D10B5BC
:2008400010430A1504D00124E4072043002A05DB0A4CA21A04D4D040FF2A00DD002010BDE8
:200860004A00002B01D0012000E00020101801225205D042F2D8C817C04310BD1E040000C2
:200880001F22030C02D10F22000402D0030E03D004E00020014670470002083A030F01D120
:2008A0000001121F830F01D18000921E002801DB4000521E120551184205C0124118104676
:2008C0007047C10FC90700D04042012292071143D6E701218907D3E70121C90501234118C9
:2008E00042001B06D3185B0E0AD0C1100722D206891840075242D14201D552008918704786
:20090000090208D50146002A03D0C10FC9070020704710467047420202D0002002497047EF
:20092000072109050143F4E70000F87F004870472004002010B5024800F011FD10BD0000CE
:200940000000C07F01491820ABBEFEE72600020071880000998800004F2900000563000066
:20096000A5750000A92800007D300000C5620000BB870000697F0000F0B5F94D0C091E0967
:200980002C402E402F468BB0A7437DD0B543FCD0002E7AD0002CFCD00D465D40ED0F25430E
:2009A000AC1BFF25AD0464190894C502440DC9022143500DDC0204430120C0070143044346
:2009C000D2020191200C110C00958C46010423468B430A9161460904E24D8A430991010AD5
:2009E0007D4449198039097805464D4301266D18F605751B6943C90C640B891C4C436418E8
:200A0000B5012C1B250C2E04B4434C434D43210C691889090591009DE90701D00121C9073A
:200A200004912C4601996708CD072F434C08059DE10B4D432D0C29466646754302950D46F8
:200A400045432E46029D7D1BB44100950D465D4301942C0C2F040D465543AE462D0C3D434E
:200A6000029503947546049C2D04641B049406D2029C039D641C002675410395029401AC58
:200A800070CC009F7D1B01E03EE162E1B44109040095079101940599A4086143090C0C4687
:200AA0004443650BE7040C4666467443A646640B3C43039502947446049DE4042C1B049475
:200AC00006D2029C039D641C002675410395029401AC70CC009F7D1BB44101940C465C43DB
:200AE0000095650FE7000C465443A646640F3C43039502947446049DE4002C1B049406D21B
:200B0000029C039D641C002675410395029401AC70CC009F7D1BB441AE09AF06049DC90022
:200B2000AD092F43049DA406AD060495079D344369180791059DE10B4D432D0C2946664650
:200B4000754302950D4645432E46029D7D1BB44100950D465D4301942C0C2F040D46554358
:200B6000AE462D0C3D43029503947546049C2D04641B049406D2029C039D641C0026754185
:200B80000395029401AC70CC009F7D1BB44101948C050694079C890A611800950791019CD9
:200BA0000599A4086143090C0D464543680BEF040D46644665436C0B3C43049FED047D1B2A
:200BC000AC4602D20025641C6841009E019D371B85410846584301950C46460FC50054432B
:200BE000600F28436546E4002C1B02D20025401C6E41019D3F1AB5412846BD09800628432F
:200C00008446A009BF064E020699A40676180743079D002068410A99079019430020099B64
:200C200000906046FF1913434041E20F64003A43A4460446D71A8C41A04203D9012000905C
:200C400020463A46C70F941840416246D20F2243644664000494009CBE466400D71AA44638
:200C6000044602978C417746002F01D1A04204D96046401C8446029A2046C40FA64694180E
:200C80004041049A0546D20F224364466400D31A8D417146002901D1A84202D928461A4696
:200CA000641C10430122002800D0164361020020079B891904465C410223002C02DB4918B0
:200CC00013466441089DCE0A2D145D194B056705E10A2C050D1908993E43C9076940002B1E
:200CE00008D0934006D30022761C5141002B01D1760876001C4A002D43DB154241D0AA4333
:200D00003FD030460BB0F0BD06180D464D41174C7642AC411AD395181C465C41134A6D423A
:200D2000A24113D3012252054C00D4420AD15C00D4420BD04B4002D592021143E2E749008A
:200D40004908DFE75940C90FC90718E000200849D8E7054801420DD10342F7D0F2E70000C0
:200D60000000FF07008D00000000F07F0000E0FF0000F87F114859400143C0124140002072
:200D8000C0E70123089A9B069A4205DC032252078918C90FC907B5E7052252078918074AB3
:200DA0001143D2125140ADE770B515461C4602460B4628462146FFF7DFFD70BDFFFFFF7F0B
:200DC000F0B5FF252D04C609C209FF2704462E400137CB093E4348402A402B400746002A40
:200DE0006BD0002B69D0AA4267D0AB4265D0002800DA32460125ED0529432C430902200275
:200E0000090AD21A4B0C7F24E31A434C000A7C44E35C7D242404121914145B00A218884249
:200E200001D3521C00E0400049420C465C4324115C43DB016415E318040A5C43C502200D0F
:200E40000C4644436419250A5D432303EC0C0D46654300030019EB184C42A34201D35B187B
:200E6000401CD4052018002B07D05B00C91804D3401C002901D1400840003F2189048A4258
:200E800009D3002A08DC1106090F04D0032149074018C00FC007F0BD012241001206891839
:200EA0007F2252069142F6D205214907C84201D59010F0BDFF20C005F0BD002F00DA3246E9
:200EC0001648AA4207D2AB4205D21902090E17D0F80FC007F0BDFF2563002D06AB42F9D81F
:200EE0004900A942F6D8AB4201D1A942F2D0A94201D1002101E061004908D0050843F0BD46
:200F00001102090EFBD0FF200243D005F0BD0A460146104654E70000528900000000C07FB4
:200F200010B501469E240002CA15A307002A02D01843002A04DBA21A002A0CDDD04010BD4C
:200F40001206120E01D140004008A21A03D4D04040420028F3DDFF2248001206904201D9B5
:200F6000002010BDC817C043584010BD1F22030C02D10F2200041CD0030E01D10002083AD2
:200F8000030F01D10001121F830F01D18000921E002801DB4000521ED20551180212511836
:200FA0001922904004D3491C002801D14908490008467047C10FC90700D0404201229207A3
:200FC0001143D3E701218907D0E7C80212D54803400F002804D0C803C043012188407047E4
:200FE000EFF300800001000903210907084380F3008870470020704770478AB24261704730
:201000000D1B0000751C0000E51D0000351E0000C31E00007920000011220000951D000063
:2010200035230000ED230000A123000039210000BD21000009260000C1480000BD4A00000D
:20104000ED400000D14C00005D5600001D3F000081470000094B0000E11F0000ED1B000013
:2010600063000000F0B58B4C0F09254689B0BD437BD01D092646AE43FAD00E465E402740E4
:20108000F60F3E43254071D024012142FBD0FF24AD19A4042D1B039501252D05DB02DB0A46
:2010A000C9022B43C90A29431E010901040F130F050121431701880B820391432D098C46E4
:2010C000A90B1E438A039543B30B9A0396433F09BA0B9403A74302962E467E430497B64670
:2010E0004E19D7190C460196544305977E43371B7646BF1B3601B646BE0B36190096764637
:20110000BC043719009C01D3641C00946400002F01D001263443029E049F754366467E43D1
:201120000496760034196E0034190094029C019E1C196643751BAE46069465464519059C20
:2011400005956C43594375460891691A0191049E01465143A41B0491611A009C0791E106DA
:2011600005D061090122114302E072E06EE06109089D00272C0A2D066918049D7C412A0A85
:201180002D066918019D6241AC0DAD026D185441079A910D920255196141029A6446584314
:2011A0005443069B059A5A43121A131B9A0E9B015B187A41010B0005C3185141220A20061F
:2011C00044195A419A4200D2491C01204002814203D315230226F64302E014230326F643F4
:2011E0002020C51AA9401746AF40DA400A4320460399D8400914731819055118039A3843D3
:20120000D2075140AC4009D00122944006D30022401C5141002C01D1400840001E4A9342FC
:2012200012D3012203989206904207DB0520400709181A480143C012414004E003204007EB
:201240000818C10FC907002009B0F0BD0020F107FAE705180C464C4111486D42A04115D382
:2012600094181A465A410E48644290410ED301204A004005824209D35A00824206D3594039
:20128000C90F084AC90700201143DDE700200649DAE700000000FF07FE070000FFFFFF7F65
:2012A0000000E0FF0000F07F0000F87F10B5FF231B0644009C421DD84C009C421AD80346E5
:2012C000124A0B4307D4401A02D3EFF3008010BDEFF3008010BD081A06D2EFF3008001217E
:2012E0009043C907084302E0EFF30080904380F3008810BD0D231B041A4204D0114600202B
:20130000FFF763FE10BDFFF715FB10BD000000907546FFF70BFBAE46050069465346C00886
:20132000C000854618B020B5FEF742FF60BC00274908B6460026C0C5C0C5C0C5C0C5C0C500
:20134000C0C5C0C5C0C5403D49008D46704710B50446C046C0462046FEF7FDFE10BD10B5AB
:201360000C461107090F092904D00A290AD008290CD104E011460820FFF727FE06E051060F
:2013800006D501E0510601D50120C007214610BDD10607D501010909CC084907000E000649
:2013A000044309E0410F20024907000A0143200E00061D22D14101430846E7E7012806D108
:2013C0000649096801221143044A116005E00349096849084900014A1160704700380140EF
:2013E0000348006880210843014908607047000000380140012806D1074909684202114313
:20140000054A116006E004490968012252029143014A116070470000003801400146064A9A
:201420001068602302469A43104660220A401043014A106070470000003801400146064A95
:201440001068062302469A43104606220A401043014A10607047000000380140012806D1C0
:2014600007490968C2021143054A116006E0044909680122D2029143014A116070470000F1
:2014800000380140012806D10749096802031143054A116006E00449096801221203914349
:2014A000014A11607047000000380140012806D10749096882021143054A116006E00449B4
:2014C0000968012292029143014A116070470000003801400146064A106803235B03024649
:2014E0009A4310461A460A401043014A10607047003801400146064A1068182302469A4362
:20150000104618220A401043014A1060704700000038014008B50146002012E00A5C12061F
:20152000431CCB5C1B041A43831CCB5C1B021A43C31CCB5C1A430092034B009A9A60021D73
:20154000D0B21028EADB08BD0038014010B585B00146002017E0214AD2680492049A120E7D
:201560006B461A54049A1202130E421C6C46A354049A1204130E821CA354049AD3B2C21C07
:20158000A354021DD0B21028E5DB154AD26807231B041A40002A15D0002005E06A46135C4C
:2015A000021D8B54421CD0B20C28F7DB002006E002460C326B469A5C0A54421CD0B20428AA
:2015C000F6DB08E0002004E06A46125C0A54421CD0B21028F8DB05B010BD000000380140EC
:2015E0000002004004484068C007C00F002801D0012070470020FCE70038014078B502465D
:20160000102904D0182902D0202900D078BD104B002018E0145C2406451C555D2D042C439C
:20162000851C555D2D022C43C51C555D2C4300940C1AE617B60F3619B610761EB600009D3F
:201640009D51041DE0B28842E4DB00BFDEE700001038014070B506460D463046FFF75AFFCA
:20166000002406E0FFF7BEFF012800D105E0601C84B2FF20F5308442F4DB00BFFFF7B0FEE0
:201680002846FFF763FFFF20F530844201D1012070BD0020FCE710B504462068FFF71AFFB1
:2016A0006068FFF7BBFEA068FFF724FFE068FFF7C5FE207CFFF7E6FE607CFFF7CFFEA07C60
:2016C000FFF7F4FEE07CFFF795FE207DFFF776FE10BD0000012806D10649C96A0122114370
:2016E000044AD16205E00349C96A49084900014AD162704700280140012806D10649C96A4B
:2017000080221143044AD16205E00349C96A80229143014AD1627047002801400146064A43
:20172000D06A022302469A43104602220A401043014AD0627047000000280140012806D171
:201740000649896A10221143044A916205E00349896A10229143014A9162704700280140F8
:20176000012806D10649896A20221143044A916205E00349896A20229143014A9162704721
:20178000002801400146054A906A000900010A07120F1043014A9062704700000028014064
:2017A0000248006B4005400D70470000002801404105490D014A1163704700000028014047
:2017C00010B50446230007F05EFD0B0722333435363738393A144B000020FFF79FFF224820
:2017E000FFF7E6FF0120FFF7A9FF0120FFF7B8FF37E00020FFF792FF19208001FFF7D8FF3C
:201800000120FFF79BFF0120FFF7AAFF29E00220FFF784FF1448FC38FFF7CAFF0120FFF74D
:201820008DFF0120FFF79CFF0620FFF7ABFF18E000BF00BF00BF00BF00BF00BF00BF022051
:20184000FFF76CFF0848FC38FFF7B2FF0020FFF775FF0120FFF784FFA01DFFF793FF00E0B3
:2018600000BF00BF10BD0000FB040000F3B581B0044600250026FFF793FF0646FF2E41D19D
:201880007448008B7D21890188423BDD7148008B4B21C901884235DA082C00D8CEE00C2CB2
:2018A00005D820460838142148430546C6E0252C09D86849098B614308467D21C900FEF72F
:2018C00020FD0546BAE07D2C0BD8214662225143604A128B514308465F49FEF712FD0546DB
:2018E000ACE05C49098B614308467D21C900FEF708FD074657491A20085E6421FEF70BFDC1
:201900003D189BE05548864242D15248008A7D21490188423CDD4F48008A4B2189018842AF
:2019200036DA0F2C01D8002588E0192C05D820460F380A214843054680E04B2C09D84549E0
:20194000098A614308467D21C900FEF7DAFC054674E0FA2C0BD82146622251433D4A128A86
:20196000514308463C49FEF7CCFC054666E03949098A614308467D21C900FEF7C2FC074644
:2019800034491220085E6421FEF7C5FC3D1855E03248864201D1640002E0FF2E00D1A40071
:2019A0002F48808A7D21090188423DDD2C48808A4B214901884237DA1E2C01D800253DE0A6
:2019C000322C04D820461E388100451836E0962C09D82349898A614308467D21C900FEF7AD
:2019E00090FC05462AE0FF20F53084420BD82146622251431A4A928A514308461649FEF7E4
:201A000080FC05461AE01649898A614308467D21C900FEF776FC074611491620085E64210B
:201A2000FEF779FC3D1809E021460A390D4A514308467D21C900FEF764FC0546029803284F
:201A400006D16621694308466421FEF75AFC05462846FEBD40FDFF1FA0860100FF01000068
:201A600040FCFF1F7E080000012806D10649496801221143044A516005E0034949684908DD
:201A80004900014A51607047002801400448406AC007C00F002801D0012070470020FCE781
:201AA000002801400120014948627047002801400448406A40210840002801D00120704718
:201AC0000020FCE7002801400146064A1068062302469A43104606220A401043014A106067
:201AE0007047000000280140012806D10649096801221143044A116005E0034909684908DD
:201B00004900014A1160704700280140FEB5044600200190461EE078012862DD607803F003
:201B200019FE204603F060FE1021A01DFEF7E5FBE078102801DD0F20E070E1782620015532
:201B40000021272001550120FFF7C4FD2648C0690090002700BF2448C1690098081A80B260
:201B60007D21C900884203D97F1C1F48C06900902720015D2620005D814220D10026012555
:201B800005E06900A01D405A8619681CC5B2E078A842F6DCE078411E3046FEF7B2FB0646D7
:201BA0002079012805D105213046FFF75FFE019004E003213046FFF759FE019004E0E07875
:201BC00081004018B842C6D800BF607803F04CFE0020FFF791FD0020FFF77CFD0020FFF777
:201BE000BFFD0198FEBD00000031014010B586B0044601211E4805F055FE0020FFF7DEFB5F
:201C0000A078012802D14003009007E0A078022802D14003009001E000200090607801287C
:201C200002D00020019001E0402001902078002801D1029001E018200290002003900021AC
:201C40006846017441748174C1740175FFF723FD1021A068FFF7D2FC0120FFF7AFFBE168EF
:201C60006068FFF7F7FC0020FFF7A8FB06B010BD0200000230B593B005460C464248281AE2
:201C8000C004000E0190002002902078032801DD0220207068460079002806D0012815D0A9
:201CA000022825D0032847D134E0002004900121364805F0F7FD1A2005F020FC21781A2053
:201CC00005F034FC1A2005F025FC36E00020049001212E48401C05F0E5FD1B2005F00EFCC0
:201CE00021781B2005F022FC1B2005F013FC24E00020049001212548801C05F0D3FD1C20DA
:201D000005F0FCFB21781C2005F010FC1C2005F001FC12E00020049001211C48C01C05F0D6
:201D2000C1FD1D2005F0EAFB21781D2005F0FEFB1D2005F0EFFB00E000BF00BF607801288F
:201D400001DA012060706078401E069000200790012008A908700021099108A801720B9170
:201D6000017610A8017241720121817260880849091A1091002110A8C17202A9284601F0E6
:201D8000B4FC13B030BD00009030014002000004FFFF00007CB50446684603F0B0FC0722ED
:201DA00069462046FEF74CFA002507E00520401B205C0621491B6054681CC5B2062DF5DB8E
:201DC0002020207007222146E01DFEF739FA072505E0605D01F0E5FF6055681CC5B20E2DF0
:201DE000F7DB7CBD10B501210E4805F05BFD012291030D4800F058FD0122D1030A4800F0C4
:201E000053FD0A490A4803F02AFF044603F034FF002003F0CFFF002003F0B8FF112005F070
:201E20006DFB10BD18000003000C004000127A00A0860100FFB583B006460C4617460C9DC8
:201E4000012F0FD1FF2C0DDD02200643E01FF93884B200953A4621463046069B03F044FDC5
:201E600002902BE0012F21D16019FF281EDD3802001B80B200903A4621463046069B03F000
:201E800033FD0290022006436019FF38013880B20190019800900698FF300130031B3A46A4
:201EA0000021304603F020FD029007E000953A4621463046069B03F017FD0290029807B085
:201EC000F0BDFFB585B00E460020049000273046F117090F091809030C0C0798012806D1C3
:201EE000102C04DB02210598084305900024601C0001801B85B20E9885420EDD0E98C0B244
:201F000000903146089B079A059803F0ABFD0746002F63D0384609B0F0BDE8B2009031460A
:201F2000089B079A059803F09DFD0746002F01D03846F0E7601C84B20798012806D1102C04
:201F400004DB022105980843059000240E98401B80B2039000BF0398102815DA0398C0B28A
:201F6000009004980001411908980B182005000C02900146079A059803F074FD0746002FEF
:201F800001D03846C7E728E01020009004980001411908980B182005000C02900146079A17
:201FA000059803F05FFD0746002F01D03846B2E70398103880B20390601C84B207980128AF
:201FC00006D1102C04DB022105980843059000240498401C80B20490BDE700BF38469AE72B
:201FE00010B590B004460121224805F05BFC0020019001200290002003906078642801DD61
:202000004020607062780399019804F021FB04901020059000200690079006200890A078F5
:202020000F2801DD0F20A070A0780990012108A8017200214172817200200B9008A80174AF
:20204000417400200D900E9008A801774177817701A804F0C1FB204601F04CFF20780028DD
:2020600003D0012004F064FB02E0002004F060FB10B010BD0300000210B58CB004460121C9
:202080002C4805F00FFC0121080605F00BFC00200190029008200390002004900590012038
:2020A000694608760020079008906068030007F0EAF80805080C1014181C2120002009908D
:2020C0001CE001208002099018E00120C002099014E003208002099010E001200003099075
:2020E0000CE005208002099008E00320C002099004E000BF07208002099000BF00BF0020CB
:202100000A9020890B9001A804F062FC142005F0F5F92078032801DD0220207021781420AF
:2021200005F004FA142005F0F5F9012004F00CFD0CB010BD0100000110B5044601211D4856
:2021400005F0B0FB01211B48083805F0ABFB082001F000FE02220821174800F0A5FB00220A
:202160001021154800F0A0FB2078032801DD022020701F2005F0C2F921781F2005F0D6F968
:202180001F2005F0C7F9201D04F084FE012004F01DFE012004F03AFE6078002803D0012027
:2021A00004F0A4FD02E0002004F0A0FD002004F0D1FD10BD17000003A00C0040F8B5074648
:2021C0000C46002604F054FE04F04CFE002519E0785D04F053FE08E004F038FE002802D1BE
:2021E000701C86B201E0002602E008488642F3DB00BF04F037FE0548401E864200DB2546AB
:20220000681C85B2A542E3DBF8BD0000555500001FB504460121444805F044FB002005F0EA
:2022200063FD002005F0F0FD002005F06BFD002005F096FD002005F0A5FD0021C943002013
:2022400005F072FD6078002804D00121084605F06BFD03E00121002005F066FDA0780028BC
:2022600004D00221012005F05FFD03E00221002005F05AFDE078002804D00421012005F0F4
:2022800053FD03E00421002005F04EFD2079002804D00821012005F047FD03E00821002042
:2022A00005F042FD082005F04FFD022005F026F92078032801DD022020702178022005F048
:2022C00035F9022005F026F902A803F018FA6846007A19281BDB6846007A992817DC684602
:2022E000407A012813DB6846407A12280FDC6846807A01280BDB6846807A312807DC684637
:20230000C07A232803DC6846007B59280BDD07A103C901910090019900980391029002A82F
:2023200000F008F800BF1FBD020000011903181029580100FEB50646304601F060FD00285E
:2023400000D1FEBD002523E0144805F003FD304605F042FD1148C04305F0FCFC684603F0E4
:20236000CEF90746002F11D10127002407E06846005D315D884200D003E0601CC4B2072CCA
:20238000F5DB00BF072C01D1002703E0681CC5B2032DD9DB00BF3846D3E70000ACACACAC19
:2023A000F7B50F4614460025002600BF18E0795D009806F04BFD08E0009806F031FD002848
:2023C00001D1002604E0701C86B207488642F3DB00BF0548401E864200DB2546681C85B245
:2023E000A542E4DBFEBD00005555000030B587B005460C460121804805F054FA7F48281AE3
:20240000C004000E01902078032801DD0220207068460079030006F036FF06041E4A668455
:20242000A0BC01217448801F05F03CFA00220821734800F039FA00221021714800F034FA45
:20244000092005F05BF82178092005F06FF8092005F060F89EE001216748401F05F022FAB8
:20246000607801280CD1002201216548803800F01BFA002202216248803800F015FA0BE03F
:20248000002208215E48203800F00EFA002210215B48203800F008FA0A2005F02FF82178DC
:2024A0000A2005F043F80A2005F034F872E001215148001F05F0F6F90022042150488038D0
:2024C00000F0F2F9002208214D48803800F0ECF90B2005F013F821780B2005F027F80B2086
:2024E00005F018F856E001214348C01E05F0DAF90022012189024248603800F0D5F900227D
:202500000121C9023E48603800F0CEF90C2004F0F5FF21780C2005F009F80C2004F0FAFF11
:2025200038E001213448801E05F0BCF9002201213348403800F0B8F9002202213048403890
:2025400000F0B2F90D2004F0D9FF21780D2004F0EDFF0D2004F0DEFF1CE001212648401E59
:2025600005F0A0F9002210212548603800F09CF9002220212248603800F096F90E2004F0EA
:20258000BDFF21780E2004F0D1FF0E2004F0C2FF00E000BF00BF02A805F094F8211D2846DC
:2025A000049A06F022FB0121284606F02AFC0121284606F066FCE078002805D0012200213D
:2025C000284606F06FFB04E000221146284606F069FB00220121284606F064FBA0780128C0
:2025E00008D132210748049A06F030FA0121284606F02FFC07B030BD0E0000030C200140CF
:20260000A00C004070940000F0B585B004460D4600270020039002906078A1780902401893
:2026200080B203900398811E0022204600F05FFA01460398801E205C814270D1E079102839
:2026400004D0202848D030286AD1CFE02878217A884223D1607AA17A090240186968884218
:202660001CD1A868002816D101F052F90746002F05D11120E0710020A86068702BE0122001
:20268000E0716878401CC0B26870032823DD0025CC20E0711FE01320E0711CE001F038F935
:2026A0000746002F0CD11120E071207A2870607AA17A0902401868600020A86068700AE003
:2026C0001220E0716878401CC0B26870032802DD0025CC20E071A5E02878217A884279D1B1
:2026E000607AA17A090240186968884272D1E07A217B09024018A96888425ED100260020FB
:2027000001900090607BA17B0902401886B2072E03DBFF200730864203DD012731E082E05A
:2027200073E0B01E81B220460F3006F0BBFD019030460D30215C401C205C0002081880B205
:2027400000900099019888421AD1042221460F3102A8FDF775FDB01F82B2214613310298DD
:2027600000F0ACFC0746A86800280AD14C4801F05BF94C4B042202A9494801F093F900E032
:202780000127002F07D1A868401CA860002068702120E07110E0012F0BD12220E07168789D
:2027A000401CC0B26870032806DD0025CC20E07102E02620E071002517E02420E0716878F9
:2027C000401CC0B2687003280FDD0025CC20E0710BE0FFE72520E0716878401CC0B26870ED
:2027E000032802DD0025CC20E0711BE0A9686868884206D16868002803D03120E071AA27B2
:2028000002E03220E07100250CE0E0790A30E0716878401CC0B26870032802DD0025CC209D
:20282000E07100BF0BE0E0790B30E0716878401CC0B26870032802DD0025CC20E071A62000
:2028400020700F2060700020A0702878207228796072A8880004000EA072287AE07228891B
:202860000004000E207300220D21204600F03FF960735A20A073AA2F10D109480068029070
:202880007F20400201F0D0F8064B042202A97F20400201F007F9012005B0F0BD0020FBE725
:2028A00000FE03000FF0AB127FB506460D4614466A462946304601F091F90098A84227D1A4
:2028C0006846C079002823D1E007C00F002803D16846407900281BD1E007C00F002803D017
:2028E00068464079012813D102202040002803D16846807900280BD102202040002803D0BE
:2029000068468079012803D16846007902281DD0029500206946C873E007C00F002801D184
:20292000487302E001206946487302202040002802D16946887302E0012069468873022079
:202940006946087302A9304601F0CAF97FBD7FB505460C466A462146284601F03FF9009825
:20296000A0420FD16846C07900280BD168464079012807D168468079002803D16846007978
:2029800003280DD0029400216846C17301214173002181730321017302A9284601F0A0F970
:2029A0007FBD000001460846FF2212020240120A03061B0C1A4310460C4A024012090C4BC6
:2029C00003401B011A4310460A4A024092080A4B03409B001A431046084A02405208084B8E
:2029E00003405B001A43104670470000F0F000000F0F0000CCCC000033330000AAAA00007F
:202A000055550000F8B503460C46002000906220174E7060304683600020F06000211EE075
:202A2000605C134E30600025124EB06900BF104E766808273E40002E01D1012508E00D4E3A
:202A4000B669861B3602360A1927BF01BE42EED300BF002D01D10848F8BD481C81B2914250
:202A6000DEDB0348006880B200900098F4E700000000014000E000E0FFFF00000146302916
:202A800005DB392903DC08463038C0B27047412905DB462903DC08463738C0B2F6E7612908
:202AA00005DB662903DC08465738C0B2EEE72020ECE7F8B505460E461746002400BF13E012
:202AC0006100685CFFF7DAFF0007000E00906100491C685CFFF7D2FF00994018C0B2009019
:202AE00000983055601CC4B2BC42E9DBF8BD30B5034614460020002204E09D5C2D18E8B2CA
:202B0000551CAAB28A42F8D3002C05D05D5C854201D0002000E0012030BD02461068884267
:202B200002D01160012070470020FCE710B504460021204606F0A0F8002808D100212046CB
:202B400006F0D0F8012802D1204606F011F90121204606F091F8002808D10121204606F0CF
:202B6000C1F8012802D1204606F0D2F810BD000000B507490748FFF7D0FF05490548001DDC
:202B8000FFF7CBFF024903480830FFF7C6FF00BD0000FFFFE00C004010B5FFF7E9FF002042
:202BA00001F066F8002001F075F8032001F008F803F078F903F08AF903F0D6F90121BC4872
:202BC00000F05CFA0221BA4800F058FA0421B84800F054FA0821B64800F050FA1021B44857
:202BE00000F04CFA2021B24800F048FA4021B04800F044FA8021AE4800F040FAFF21013198
:202C0000AB4800F03BFA01214902A94800F036FA01218902A64800F031FA0121C902A4488F
:202C200000F02CFA01210903A14800F027FA012149039F4800F022FA012189039C4800F073
:202C40001DFA0121C9039A4800F018FA01219848203000F013FA02219548203000F00EFAF4
:202C600004219348203000F009FA08219048203000F004FA10218E48203000F0FFF9202152
:202C80008B48203000F0FAF940218948203000F0F5F980218648203000F0F0F9FF210131E4
:202CA0008348203000F0EAF9012149028048203000F0E4F9012189027D48203000F0DEF94B
:202CC0000121C9027A48203000F0D8F9012109037748203000F0D2F90121490374482030C2
:202CE00000F0CCF9012189037148203000F0C6F90121C9036E48203000F0C0F904216C4843
:202D0000403000F0BBF908216948403000F0B6F910216748403000F0B1F92021644840306F
:202D200000F0ACF940216248403000F0A7F980215F48403000F0A2F9FF2101315C4840304A
:202D400000F09CF9012149025948403000F096F9012189025648403000F090F90121C902D0
:202D60005348403000F08AF9012109035048403000F084F9012149034D48403000F07EF958
:202D8000012189034A48403000F078F90121C9034748403000F072F901214548603000F0AB
:202DA0006DF902214248603000F068F904214048603000F063F908213D48603000F05EF911
:202DC00010213B48603000F059F920213848603000F054F940213648603000F04FF9802197
:202DE0003348603000F04AF904213148803000F045F908212E48803000F040F910212C48FC
:202E0000803000F03BF908212948A03000F036F910212748A03000F031F920212448A0304E
:202E200000F02CF940212248A03000F027F90121C9021F48A03000F021F9012109031C4812
:202E4000A03000F01BF9012149031948A03000F015F9012189031648A03000F00FF901210B
:202E6000C9031348A03000F009F904211048C03000F004F908210E48C03000F0FFF8402158
:202E80000B48C03000F0FAF880210948C03000F0F5F80022FF2101310548C030FFF704FDA6
:202EA0000022012149020248C030FFF7FDFC10BD000C004010B501216F4800F0DFF80221B9
:202EC0006D4800F0DBF8FF2101316B48203000F0D5F8012149026848203000F0CFF8012122
:202EE00089026548203000F0C9F80121C9026248203000F0C3F8012109035F48203000F0F2
:202F0000BDF8012149035C48203000F0B7F8012189035948203000F0B1F80121C903564837
:202F2000203000F0ABF801215348403000F0A6F802215148403000F0A1F820214E484030F7
:202F400000F09CF840214C48403000F097F880214948403000F092F8FF210131464840309D
:202F600000F08CF8012149024348403000F086F8012189024048403000F080F80121C9020D
:202F80003D48403000F07AF8012109033A48403000F074F8012149033748403000F06EF8AB
:202FA000012189033448403000F068F80121C9033148403000F062F801212F48603000F0ED
:202FC0005DF802212C48603000F058F804212A48603000F053F880212748603000F04EF8FD
:202FE000FF2101312448603000F048F8012149022148603000F042F8012189021E48603020
:2030000000F03CF801211C48803000F037F802211948803000F032F810211748803000F0B9
:203020002DF820211448803000F028F8012189021148803000F022F80121C9020E4880305B
:2030400000F01CF8012109030B48803000F016F8012149030848803000F010F80121890329
:203060000548803000F00AF80121C9030248803000F004F810BD0000400C00407CB50446B9
:203080000D466A462946204600F0A8FD68460079012809D02946204600F07EFE01222946C7
:2030A000204604F07FFA08E001222946204604F079FA2946204600F06FFE7CBDFEB504468E
:2030C0000E46174600200290019000257F204002006802901A4885680298A8420BD00295B7
:2030E0007F20400200F0A0FC164B042202A97F20400200F0D7FC012149040298884204D2E4
:203100000846844210D20220FEBD0F490298884208D201200004844202D34000844203D9A4
:203120000220F1E70220EFE7064801903A4631462046019B00F0B6FC00900098E4E7000030
:2031400000ED00E00FF0AB1200FE030010B572B61B2004F0C7F90021174800F01AFA002164
:20316000164804F09FFB01211548FFF787FF02211348FFF783FF082111486030FFF77EFFED
:2031800010210F486030FFF779FF0A2004F0AAF9002201210B4805F085FD00221146094810
:2031A00005F080FD0021074805F06BFE0021054805F027FE10BD0000B03001400300000452
:2031C000200C00402C20014010B57A4800F050FA79480088401C7849088078480068401CC3
:2031E00076490860002453E07548604375494018012189024018C088002847D070486043F4
:2032000070494018012189024018C088401E81B26B4860436B4A8018012292028018C1808C
:20322000674860436749401811464018C08800282CD1002C09D100220121634805F032FDFF
:2032400001220021604805F02DFD00215C4860435C4A80180122920280188170584860433A
:20326000584A8018012292028018C17054486043544A801801229202801801715048604323
:20328000504A80180122920280180181601CC4B2032CA9DB002488E04948604349494018DC
:2032A000012189024018007900287CD044486043444940180121890240180079401EC1B2B9
:2032C0003F4860433F4A801801229202801801713B4860433B494018114640180079002890
:2032E00061D1374860433749401811464018C07888210840002844D0002C10D13048604366
:20330000304A115C304805F0A1FD002211462E4805F0C8FC012211462B4805F0C3FC012150
:2033200027486043274A80188A0280180181244860432449401811464018C07808210840A0
:20334000002814D01E4860431E494018407801021B4860431B4A801880780818C01D81B2B3
:2033600017486043801801229202801801807D2113486043134A8018012292028018C180C2
:2033800011E00F4860430F4940180121890240180079401CC1B20A4860430A4A8018012241
:2033A000920280180171601CC4B2032C00DA73E710BD0000B03001400200002008000020E2
:2033C0000A040000140000202C200140F8B506460020C0430090304600F047F90121304634
:2033E00000F0D7F8002420E01448C769002500BF1248C069C01B80B27D21C900884202D9DE
:203400006D1C0E48C769304600F025F9012808D1304600F02AF9304600F05AF980B2009013
:2034200001E0082DE4D300BF641C022CDCDB0021304600F0AEF80098F8BD000000310140AF
:2034400010B592B004463448201AC004010E009100200190029068460078002806D0012871
:2034600010D002281BD0032833D125E000200390082004900121294804F014FA1A2004F0F1
:203480003DF827E0002003900820049001212348401C04F007FA1B2004F030F81AE0002032
:2034A00003900420049001211C48801C04F0FAF91C2004F023F80DE0002003900420049015
:2034C00001211648C01C04F0EDF91D2004F016F800E000BF00BF002005907F20069001200E
:2034E0006946087740210891002107A801720A9101740C9101210176417600210E910FA8ED
:203500000172417281720F911091C17201A9204600F0EBF812B010BD9030014002000004A5
:20352000012904D1026804231A43026003E0026804239A43026070470A460168490849007F
:20354000D307DB0F19430160704710B50A46016808240B46A34319460823134019430160B8
:2035600010BD012904D1026802231A43026003E0026802239A4302607047012904D1026860
:2035800020231A43026003E0026820239A4302607047012904D1026880231A43026003E0F5
:2035A000026880239A430260704710B50A46016810240B46A343194610231340194301607D
:2035C00010BD012904D102684B021A43026004E0026801235B029A430260704710B50A46CF
:2035E000016840240B46A3431946402313401943016010BD012904D102680B021A430260F3
:2036000004E00268FF2301339A4302607047012904D1826902231A43826103E082690223CE
:203620009A4382617047012904D1826904231A43826103E0826904239A438261704701292C
:2036400004D1826901231A43826103E0826952085200826170470146C8690222104000281E
:2036600001D0012070470020FCE70221C16170470121C16170470A464168890889009307FA
:203680009B0F19434160704710B50A4641681C240B46A34319461C2313401943416010BDDC
:2036A00010B50A46416840240B46A3431946402313401943416010BD10B50A464168802470
:2036C0000B46A3431946802313401943416010BD0146086980B270478AB202617047CAB221
:2036E00082607047CAB2C260704730B505460C4628462168FFF7D4FF28466168FFF7DCFF92
:203700002846A168FFF7B7FF2846E168FFF7BCFF28462169FFF7E3FF28466169FFF7E2FF3F
:20372000217E2846FFF74DFF2846E169FFF756FF2020015D2846FFF720FF2846616AFFF7E7
:2037400034FF2820015D2846FFF754FF2846E16AFFF7FBFE3020015D2846FFF7E1FE3120EF
:20376000015D2846FFF7FDFE2846616BFFF7E4FE2846A16BFFF7B0FF2846E16BFDF73DFC74
:203780004020015D2846FFF74EFF4120015D2846FFF73DFF4220015D2846FFF750FF432085
:2037A000015D2846FFF7F5FE30BD00000146054A506940084000CA07D20F1043014A50618F
:2037C00070470000001000400146064A506903231B0202469A4310461A460A401043014A8C
:2037E00050617047001000400146064A5069022302469A43104602220A401043014A506164
:20380000704700000010004010B504460020FFF7DBFF0120FFF7CAFF094800F03BF80948FD
:2038200000F038F80848206000E000BF00F00EF80128FAD100F016F8002000F02BF810BD11
:2038400096969696EAEAEAEACDAB34120448006AC007C00F002801D0012070470020FCE78A
:20386000001000400120014908627047001000400448006A02210840002801D0012070472A
:203880000020FCE700100040022001490862704700100040014988617047000000100040BE
:2038A0000146054A1068800880008A07920F1043014A10607047000000100040F0B50446BC
:2038C0000E4617460220FFF78FFF0F48FFF7E2FF0E48FFF7DFFF00250FE00220FFF784FF8A
:2038E000705D2070641C00E000BFFFF7C1FF0028FAD0FFF7C9FF681C85B2BD42EDDB002044
:20390000FFF7C8FFF0BD0000A5A5A5A5F1F1F1F1F8B500200090002600247F2040020068F5
:2039200000901D4885680098A8420BD000957F20400200F079F8194B042269467F20400257
:2039400000F0B0F8154E012149040098884210D200240BE002F02AFBE11DF93188B23146BA
:20396000009A00F01DF80746601C84B2FF2CF1DD0FE000240BE002F019FB2146803188B25A
:203980003146009A00F00CF80746601C84B2802CF1DB3846F8BD000000ED00E00FF0AB12EF
:2039A000F7B582B0044616460020019001204004864204D2FF2C0FDC022005B0F0BD1748D6
:2039C000864207D2802C03DBFF200130844203DD0220F2E70220F0E76702114903988842AA
:2039E00003D101210F4803F05DFF3846FFF70CFF00210C4803F056FF002509E0A8003858A9
:203A0000401C002802D00120019003E0681C85B2802DF3DB00BF0198CFE7000000FE030076
:203A20000FF0AB120500000210B504460121054803F038FF2046FFF7E7FE0021014803F07D
:203A400031FF10BD05000002F8B505460F4600200090802D01DA0220F8BD6E020F48874276
:203A600003D101210E4803F01DFF3046FFF7CCFE00210B4803F016FF002409E0A000305804
:203A8000401C002802D00120009003E0601C84B2802CF3DB00BF0098DEE700000FF0AB1238
:203AA00005000002FFB583B005460E46174600200290019511490698884203D101211048C4
:203AC00003F0F0FE3A4631462846FFF7F7FE00210B4803F0E7FE002409E00198005D315DD8
:203AE000884202D00120029003E0601C84B2BC42F3DB00BF029807B0F0BD00000FF0AB129D
:203B0000050000020146054A106840084000CA07D20F1043014A106070470000000D004044
:203B20000146064A1068022302469A43104602220A401043014A106070470000000D004056
:203B40000146064A1068042302469A43104604220A401043014A106070470000000D004032
:203B60000146064A1068082302469A43104608220A401043014A106070470000000D00400A
:203B80000146064A1068102302469A43104610220A401043014A106070470000000D0040DA
:203BA0000146064A1068202302469A43104620220A401043014A106070470000000D00409A
:203BC0000146054A906B000900010A07120F1043014A906370470000C00C0040F0B50446D5
:203BE0000025002307E001269E400E403546002D00D002E05B1C102BF5D300BF102B36D26D
:203C00001D46116026680E403046E840012802D10126D67101E00026D67166680E40EE4054
:203C20003046012801D1967101E000269671A6680E40EE403046012801D1567101E0002635
:203C40005671E6686F00FE40B007800F002802D1002616710BE0012802D10126167106E039
:203C6000022802D10226167101E003261671F0BD012806D10649C96B01221143044AD163DE
:203C800005E00349C96B49084900014AD1637047C00C0040012806D10649C96B02221143E8
:203CA000044AD16305E00349C96B02229143014AD1637047C00C0040012907D1074A5268D6
:203CC000012383401A43054B5A6006E0034A5268012383409A43014B5A607047000D0040DB
:203CE000F0B502460B4600210024002500BF2DE001268E4034461E6826403546A54224D19E
:203D000010680646A6433046DE798E403043106050680646A64330469E798E40304350600D
:203D200090680646A64330465E798E40304390604F000326BE403446D0680646A643304605
:203D40001E794F00BE403043D060491C1029CFD3F0BD00000146064AD068182302469A43C0
:203D6000104618220A401043014AD06070470000000D0040012905D1054A92680243044BBA
:203D80009A6004E0024A92688243014B9A607047000D004081617047416170478AB202615F
:203DA000704730B50146CC17240F641824110A256C430846CD172D0F2D182D112D014D1BF4
:203DC0006419E3B2184630BD70B504462546E017800F401980108000201A05D164212046C2
:203DE000FCF799FA002906D1FF2191312046FCF792FA002901D1012070BD0020FCE770B505
:203E000004466079592805DC2079592802DCE078232801DD002070BD207899280BDC60783F
:203E2000002808D06078122805DCA078002802D0A078312801DD0020EDE76078042808D05E
:203E40006078062805D06078092802D06078112804D1A078302801DD0020DCE76078012894
:203E600011D0607803280ED0607805280BD06078072808D06078082805D06078102802D002
:203E80006078122801D10120C5E72078F0210840051128460A214843054620780007000F4D
:203EA00045197D2000012D182846FFF78DFF00280FD0607802280AD1A078282805D0A07898
:203EC000302802D0A078312801D10020A3E70120A1E7607802280AD1A078292805D0A078EF
:203EE000302802D0A078312801D1002093E7012091E7000070B504460121074803F0D2FC81
:203F00000F25284602F09CFB606802F047FDA06802F04AFD70BD00000300000210B50446F6
:203F2000206FC007C00F00287ED06E20005D002806DD6E20005D401EC1B26E20015503E06D
:203F40006D20015D6C20015502F030F8206F8003C00F002813D06020005D401CC1B2602062
:203F6000015514290BDD0021015501214904206F884320678911206F884340182067206F9D
:203F80004006C00F00280ED05C20005D401CC1B25C200155032906DD4021206F884320673B
:203FA00000215C200155206FC005C00F002818D0206F4006C00F002813D15D20005D401CF5
:203FC000C1B25D20015505290BDD0021015501214902206F8843401820674910206F8843B5
:203FE0002067204604F065FF206F4004C00F002821D16420005B401C81B264200153FF205B
:204000006930814203DB206F400840002067206F0007C00F002841D06220005B401C81B2BE
:20402000622001533C2900E019E037DB206F40084000206732E001218903206F884320671B
:204040006220005B401C81B262200153E1208000814223DB206F4008400020671EE07420AC
:20406000005D8007C00F002815D06A20005B401C81B26A2001533C2910DB7420005D0221CA
:2040800088437421085500216A20015304A1204604F0CAF902E000216A20015310BD0000F4
:2040A00041542B4346554E3D300D0A0070B50546002400BF284600F019F80446002C01D087
:2040C000AA2C00D10EE0372C01D1204670BD5E20405D401CC1B25E204155405D0328E9DDF7
:2040E0002046F3E700BF2046F0E7000010B504466C20005D0F2876D00BDC030005F0C3F875
:204100000F26333D81909A47A7B4C1CED855ECFE8D00172856D008DC1038030005F0B3F846
:2041200007F4F3F2F1F0D2EF7D001B2872D006DC182870D019286FD01A286ED1C5E11C28AE
:204140006CD0AA286BD0FE28F7D1ECE2FEA1204604F06AF90A220021204604F033F801210A
:204160006C20015509E3FBA1204604F05DF902220321204604F026F8FFE2F8A1204604F091
:2041800053F90A220221204604F01CF8F5E22021206F88432067F4A1204604F045F90222CC
:2041A0000A21204604F00EF8E7E2F2A1204604F03BF901220021204604F004F817216C202C
:2041C0000155DAE22620005D0B280DD1EDA1204604F02AF901220021204603F0F3FF03215B
:2041E0006C2001550CE0D7E0EAA1204604F01CF901220021204603F0E5FF05216C200155B7
:20420000BBE2204604F01EF902220321204603F0D9FFB2E263E141E14DE1A6E269E171E1CB
:20422000E0A1204604F000F902220321204603F0C9FFA2E2DEA1204604F0F6F801220021B2
:20424000204603F0BFFF07216C20015595E2DBA1204604F0E9F801220021204603F0B2FFC1
:2042600008216C20015588E2D7A1204604F0DCF801220021204603F0A5FF09216C200155D6
:204280007BE22046A16A04F09FF801220021204603F098FF0A216C2001556EE2CDA1204660
:2042A00004F0C2F802220321204603F08BFF64E2D1A1204604F0B8F802220321204603F0C2
:2042C00081FF5AE2D0A1204604F0AEF802220521204603F077FF50E20821206F884320675C
:2042E000CCA1204604F0A0F87420005DC007C00F002817D07420005D400806E01FE0C4E007
:20430000B9E0AEE09FE094E053E040007421085500216D20015555216C20015501216E2012
:2043200001550BE002223C21204603F04BFF6C20005DFE2802D112216C2001551DE2012100
:204340000904206F884340182067B5A1204604F06BF82620005D0B2808D1022200212046AA
:2043600003F030FF0F216C20015514E02620005D4D2808D102220021204603F023FF19212A
:204380006C20015507E002220021204603F01AFF10216C200155F0E1A5A1204604F044F8DD
:2043A00001220021204603F00DFF11216C200155E3E10121C903206F88434018206726200F
:2043C000005D21280CD19EA1204604F02DF801220021204603F0F6FE16216C2001551CE0F6
:2043E0002620005D4D280CD19CA1204604F01CF802220021204603F0E5FE1A216C2001557F
:204400000BE09AA1204604F00FF801220021204603F0D8FE11216C2001555520005D302864
:2044200003DB5520005D392802DDFE216C200155A3E195A1204603F0F7FF022203212046D4
:2044400003F0C0FE99E11021206F8843206792A1204603F0E9FF02220321204603F0B2FE5A
:204460008BE190A1204603F0DFFF0A220221204603F0A8FE81E18EA1204603F0D5FF022238
:204480000321204603F09EFE77E1204604F08EF80F220121204603F095FE6EE188A12046AE
:2044A00003F0C2FF02220021204603F08BFEAA216C20015561E185A1204603F0B5FF0222DB
:2044C0000321204603F07EFE57E185A1204603F0ABFF02220321204603F074FE4DE189A117
:2044E000204603F0A1FF1E220121204603F06AFE43E1204603F0FAFF02220321204603F089
:2045000061FE3AE1206F0007C00F002807D00121C902206F884340182067002010BD206F1B
:20452000C006C00F00280DD01021206F884320678901206F88434018206700216420015313
:204540000120EBE7EAE0000041542B4E52420D0A0000000041540D0A0000000041542B4336
:2045600046554E3D310D0A0041542B4346554E3F0D0A000041542B43474154543D310D0AD3
:204580000000000041542B515245475357543D310D0A000041542B515245475357543D324D
:2045A0000D0A000041542B4E4E4D493D310D0A0041542B434D45453D310D0A0041542B430B
:2045C00047534E3D310D0A0041542B4E434349440D0A000041542B4350534D533D312C2C2A
:2045E0002C30313030303031312C30303030303031310D0A0000000041542B4E50534D52F7
:204600003D310D0A0000000041542B43455245473F0D0A0041542B43474154543F0D0A0010
:2046200041542B4E554553544154530D0A00000041542B434750414444520D0A0000000060
:2046400041542B4E534F43523D53545245414D2C362C35363030302C310D0A0041542B4D02
:2046600049504C4352454154450D0A0041542B4E534F43523D444752414D2C31372C343079
:2046800032382C310D0A000041542B4353434F4E3D310D0A0000000041542B4353510D0AC3
:2046A0000000000041542B4346554E3D300D0A0041542B4E435345415246434E0D0A000020
:2046C00041542B43434C4B3F0D0A000041542B4D49504C434F4E4649473D362C310D0A0018
:2046E00041542B4D49504C4144444F424A3D302C333230302C312C2231222C312C300D0AF8
:204700000000000041542B4D49504C4F50454E3D302C333030302C33300D0A0003215E20D1
:2047200001550220FAE6206F4007C00F00280AD15E20005D401CC1B25E20015500216C204E
:2047400001550320EAE6206F8006C00F002807D15E20005D801CC1B25E2001550420DDE687
:2047600000216C2001550520D8E6206FC007C00F002801D13720D1E600BF00BFAA20CDE62B
:2047800010B504462620005D0B2836D05520005D30280CD12620005D4D2804D126A120460D
:2047A00003F042FE03E029A1204603F03DFE5520005D31280CD12620005D4D2804D127A1C8
:2047C000204603F031FE03E029A1204603F02CFE5520005D32280CD12620005D4D2804D12B
:2047E00027A1204603F020FE03E02AA1204603F01BFE0121204604F071FD7420005DC007B8
:20480000C00F00280FD127A1204603F00DFE0121204604F063FD27A1204603F005FE032171
:20482000204604F05BFD00202067142120465C30FBF763FD10BD000041542B4D49504C43A4
:204840004C4F53453D300D0A0000000041542B4E534F434C3D300D0A0000000041542B4DD1
:2048600049504C434C4F53453D310D0A0000000041542B4E534F434C3D310D0A0000000094
:2048800041542B4D49504C434C4F53453D320D0A0000000041542B4E534F434C3D320D0A65
:2048A0000000000041542B4353434F4E3D300D0A0000000041542B4346554E3D300D0A00CE
:2048C00010B50446206F40084000401C20673DA1204603F0A9FD0F21204604F0FFFC608984
:2048E0004B218901884204D139A1204603F09CFD03E03EA1204603F097FD0121204604F02C
:20490000EDFC41A1204603F08FFD0121204604F0E5FC3FA1204603F087FD0121204604F051
:20492000DDFC3DA1204603F07FFD0121204604F0D5FC3CA1204603F077FD0121204604F078
:20494000CDFC41A1204603F06FFD0A21204604F0C5FC40A1204603F067FD0121204604F087
:20496000BDFC207B002804D143A1204603F05CFD16E0207B012804D144A1204603F054FD32
:204980000EE0207B022804D144A1204603F04CFD06E0207B032803D140A1204603F044FD0D
:2049A0000121204604F09AFC40A1204603F03CFD0121204604F092FC206F400840002067CA
:2049C00010BD000041542B4E52420D0A0000000041542B4E415453504545443D3438303034
:2049E0002C33302C312C302C320D0A0041542B4E415453504545443D393630302C33302C1F
:204A0000312C302C320D0A0041540D0A000000004154490D0A00000041542B43474D520DFD
:204A20000A00000041542B4350534D533D312C2C2C30313030303031312C30303030303065
:204A400031310D0A0000000041542B4346554E3D300D0A0041542B4E434F4E4649473D4329
:204A6000454C4C5F524553454C454354494F4E2C545255450D0A000041542B4E42414E4417
:204A80003D332C352C380D0A0000000041542B4E42414E443D350D0A0000000041542B4E10
:204AA00042414E443D380D0A0000000041542B4345445258533D302C350D0A0070B5044678
:204AC00000252046103003F0CBFD20461F3004F0E7FC142120465C30FBF70FFC01202067F8
:204AE0007420005DC007C00F002803D00D216C20015502E000216C2001552046FFF7D6FA13
:204B00000546284670BD0000F7B586B0054600276AA12868FBF75EFB00281DD067A12868C8
:204B2000FBF758FB064600240FE0A01D305C2C2800D10CE020460A2148434743A01D305C88
:204B40003038C01987B2601CC4B2042CEDDB00BFA01DC0B2049094E05AA12868FBF73AFB49
:204B6000002842D000200290019056A12868FBF731FB064600242DE020460B30305C2C2815
:204B800026D10298401CC0B20290029806281FD10020019017E020460C3001994018305CA4
:204BA0002C2800D112E00A2101984843474320460C3001994018305C3038C01987B20198D2
:204BC000401CC0B2019001980428E4DB00BF03E0601CC4B2322CCFDB00BF7F1020460C3066
:204BE00001994018C0B204904BE0294610312868FBF7F0FA0646002435E02420405D401CB4
:204C00002521495D40180019305C2C2829D10020039021E02420405D801C2521495D4018E8
:204C2000011903980818305C2C2800D117E00A210398484347432420405D801C2521495DB3
:204C40004018011903980818305C3038C01987B20398401CC0B2039003980428DADB00BFEA
:204C600003E0601CC4B2052CC7DB00BF2420405DC01C2521495D4018011903980818C0B285
:204C80000490FF203730874200DD471E049970180899FBF79FFA00280DD0049970180899D3
:204CA000FBF798FA05903A460799059803F00AF9012009B0F0BD0020FBE700002B4E4E4D8B
:204CC000493A00002B4D49504C57524954453A0070B50446607B012805D16820025B20469B
:204CE000216803F0A5FDFEA12068FBF773FA002805D001214903206F884340182067FAA1D1
:204D00002068FBF767FA002805D001214903206F884340182067206F0006C00F002808D0B0
:204D20008021206F884320678901206F884340182067206F0004C00F002827D0002000216C
:204D40002622125D4D2A01D10F2100E00521002013E02268125C302A0DDB2268125C392A75
:204D600009DC2268135C552213550423226F9A43121D226703E0421CD0B28842E9DB00BF19
:204D80000123DB03226F9A43226700BF206FC003C00F002870D0002146200153A1644C2086
:204DA00001534E2001535020015552200153D1A12068FBF70FFA0646707B2D2818D10025C2
:204DC00013E028460E30305C0D2800D10FE04620005B0A21484329460E31715C3039401AFE
:204DE00081B246200153681CC5B2042DE9DB18E0002513E028460D30305C0D2800D10FE09A
:204E00004620005B0A21484329460D31715C3039401881B246200153681CC5B2042DE9DB03
:204E200000BFB8A12068FBF7D5F90646002511E0281D305C0D2800D10EE05020005D0A21F3
:204E40004843291D715C30394018C1B250200155681CC5B2022DEBDB00BFABA12068FBF745
:204E6000B9F9064630792D2817D1002512E0681D305C0D2801D10FE0A2E05220005B0A21B6
:204E80004843691D715C3039401A81B252200153681CC5B2042DEADB16E0002511E0281D36
:204EA000305C0D2800D10EE05220005B0A214843291D715C3039401881B252200153681C9E
:204EC000C5B2042DEBDB00BF90A12068FBF782F90646002511E0281D305C0D2800D10EE058
:204EE0004E20005B0A214843291D715C3039401881B24E200153681CC5B2062DEBDB00BFB7
:204F000083A12068FBF766F90646002511E0E81D305C0D2800D10EE04C20005B0A21484330
:204F2000E91D715C3039401881B24C200153681CC5B2062DEBDB00BF77A12068FBF74AF962
:204F40000646002510E028460830305C0D2800D10CE00A21A06C484329460831715C30392C
:204F60004118A164681CC5B20A2DECDB00BF6CA12068FBF72FF90646002513E028460E305C
:204F8000305C0D2800D10FE05620005D0A21484329460E31715C30394018C1B2562001558C
:204FA000681CC5B2022DE9DB00BF01210904206F884320670421206F8843001D206700BF52
:204FC0005BA12068FBF706F9002808D06822115B2068FBF792F9204602F0A4F933E357A15E
:204FE0002068FBF7F7F8002810D0206F4006C00F0028F3D1206FC007C00F0028EED0012183
:20500000C902206F8843401820671CE34EA12068FBF7E0F8002810D04BA12068FBF7DAF80C
:2050200005460F22A91D20463630FBF709F90421206F8843001D206705E345A12068FBF703
:20504000C9F8002810D042A12068FBF7C3F805460A2221462C31E81DFDF72BFD0421206F5F
:205060008843001D2067EEE23BA12068FBF7B2F8002811D0206F4008400020677420005D59
:2050800040084000401C742108557420005D0221884374210855D6E232A12068FBF79AF8D2
:2050A00000280DD07420005D40084000742108557420005D02218843801C74210855C2E26F
:2050C0002BA12068FBF786F8002855D00C216C2001552021206F884320302067B3E20000A9
:2050E0002B4E4E4D493A00002B4D49504C57524954453A005369676E616C20706F7765724C
:205100000000000045434C00534E52005043490045415246434E000043656C6C2049440010
:2051200043555252454E542042414E44000000002B4E534F4E4D493A000000002B435343DA
:205140004F4E3A30000000002B4347534E3A00002B4E434349443A002B4E50534D523A31CC
:20516000000000002B4E50534D523A30000000002B4346554E3A3100F9A12068FBF72AF812
:2051800000281ED0F6A12068FBF724F80546A8792C2805D168793038C1B25420015507E0C9
:2051A00068790101A87930380818C1B2542001551021206F88431030206718216C200155B9
:2051C00041E2E9A12068FBF705F8002815D0E6A12068FAF7FFFF0546687A312805D0687A63
:2051E000322802D0687A352803D10D216C20015502E0FE216C20015525E2DDA12068FAF77F
:20520000E9FF00280DD00E216C2001550821206F8843083020670221206F8843801C2067AE
:2052200011E2D6A12068FAF7D5FF00282ED0D3A12068FAF7CFFF06460021A165307C2C2863
:2052400015D1002510E028461130305C2C2800D10CE00A21A06D484329461131715C30395D
:205260004118A165681CC5B20A2DECDB00BF1C216C20015501218904206F88434018206710
:205280000421206F8843001D2067DCE1BFA12068FAF7A0FF002820D0206F4004C00F0028D4
:2052A0008ED001218903206F88432067BBA1204603F0BAF80121204604F010F8B9A1204656
:2052C00003F0B2F80121204604F008F80121C902206F884340182067B5E1B6A12068FAF729
:2052E00079FF002806D001218903206F884340182067A8E1B3A12068FAF76CFF00287DD01B
:20530000B0A12068FAF766FF0546687D30380A214843A97D30394018C1B27C200155A87CA0
:2053200030380A214843E97C30394018C1B27D200155E97B30390A2251432A7C303A8B1883
:20534000297E30390A2251436A7E303A8818C117890F091889105918CAB27E210A55287BD3
:2053600030380A214843697B30394018C1B276200155687A30380A214843A97A3039401827
:20538000C1B277200155A87930380A214843E979303940187D210901401881B2782001532C
:2053A0007E20005D18286FDB7E20005D1838C1B27E2001557720005D030003F064FF0D7AE2
:2053C00044084566466747486849694A7A007821085B6421FAF79FFF002908D07820065BB2
:2053E000F017800F801980108000301A09D07821085BFF219131FAF78EFF00E063E00029A3
:2054000010D17620005D401CC1B2762001551D2918DD012101557720005D401CC1B27720F0
:2054200001550FE07620005D401CC1B2762001551C2907DD012101557720005D401CC1B215
:205440007720015535E000BF00BF00BF00BF00BF00BF7620005D401CC1B2762001551F29DA
:2054600011DD012101557720005D401CC1B2772001550C2907DD012101557820005B401C36
:2054800081B27820015314E014E000BF00BF00BF7620005D401CC1B2762001551E2907DDEF
:2054A000012101557720005D401CC1B27720015500BF00BF0421206F8843001D2067AA2158
:2054C0006C200155BFE041A12068FAF783FE002818D0206F0007C00F00280DD05F20005D19
:2054E000401CC1B25F200155032906DA01214904206F884340182067A5E0206F40084000B8
:205500002067A0E033A12068FAF764FE002826D00421206F8843001D20676D20005D112871
:205520007FD009DC030003F0AEFE0C8C115B5F638C8C8C8C8C676B8C1338030003F0A3FED3
:205540000A6569816D81817579817D81206F4005C00F002840D013216C2001553FE072E0B4
:205560002B4353513A0000002B43455245473A002B43474154543A31000000002B4D4950FA
:205580004C444953434F5645523A00002B514C57455654494E443A33000000004154490DE5
:2055A0000A00000041542B4353434F4E3D310D0A000000002B514C57455654494E443A35CE
:2055C000000000002B43434C4B3A00004552524F520000004F4B000002216C20015531E00F
:2055E00006216C2001552DE004216C20015529E005216C20015525E00B216C20015521E069
:2056000015216C2001551DE00BE014216C20015518E002216C20015514E011216C2001556E
:2056200010E012216C2001550CE010216C20015508E01B216C20015504E011216C20015568
:2056400000E000BF00BF206F8004C00F002804D16822115B2068FAF750FE70BD30B58FB0FF
:20566000044600250021322003F002F92620005D0B2803D1204601F091FC12E02620005D37
:20568000212803D1204601F0A9FD0AE02620005D4D2803D1204601F0FDFC02E0204601F091
:2056A0007DFE00250BE0606841190122684600F07FFA02226946204601F07CFD6D1C662051
:2056C000005BA842EFD82620005D4D2802D1204601F058FD0D21684601700A2141700222DA
:2056E0006946204601F066FD4021206F884340302067C900206F884320670FB030BDF0B594
:2057000085B00646012700251EE002A802F04CFB684602F049FB002408E002A8005D694634
:20572000095D884200D003E0601CC4B2072CF4DB00BF072C06D10027072202A93046FAF767
:205740007FFD03E0681CC5B2032DDEDB00BF384605B0F0BD10B50446A01E030003F093FD14
:2057600008050E171D232932383E0020FEF7CAF9012109031B48FDF7EAF830E00020FEF782
:20578000CFF9012149031748FDF7E1F827E0012114482030FDF7DBF821E00221114820303E
:2057A000FDF7D5F81BE040210E486030FDF7CFF815E00020FEF7D4F90121C9030948FDF721
:2057C000C6F80CE0042107482038FDF7C0F806E0082104482038FDF7BAF800E000BF00BFF0
:2057E00010BD0000400C004010B5044601211A4802F058F80121194802F054F80320000493
:2058000002F040F86078FBF7DBFFA078022803D11348FBF7CDFF09E0A078012803D1114834
:20582000FBF7C6FF02E0FF20FBF7C2FF0120FBF763FF0020FBF74EFF2078032801DD022066
:205840002070052001F05AFE2178052001F06EFE052001F05FFE10BD0600000108000002DE
:20586000FF030000FF01000010B50446A01E030003F009FD08050B11171D23292F3501212E
:2058800009031848FDF7FAFB2AE0012149031548FDF7F4FB24E0012112482030FDF7EEFB4E
:2058A0001EE002210F482030FDF7E8FB18E040210C486030FDF7E2FB12E00121C90309480A
:2058C000FDF7DCFB0CE0042106482038FDF7D6FB06E0082103482038FDF7D0FB00E000BF71
:2058E00000BF10BD400C0040FFB581B01D460A9E00273FE000200090012301A807C800F01E
:20590000ECF8002802D00120009026E0002421E0281900F035F8002802D0012000901BE0C9
:20592000701EA04203DD002000F072FA02E0012000F06EFA032000F03FF8002805D00020D9
:2059400000F066FA0120009006E0002000F060FA601C84B2B442DBDB00BF022000F02CF8A3
:20596000002801D0012000900098002800D103E0781CC7B2032FBDDB00BF009805B0F0BD79
:2059800070B50546012000F0C5F9002406E000F023FA012800D103E0601C84B2902CF6DB95
:2059A00000BF902C06DA00F06FF9287000F020FA002070BD0120FCE770B50546012000F0C0
:2059C00083F9002D06D0012D08D0022D0AD0032D10D10BE0012000F0C5F90CE0012000F071
:2059E000ADF908E0012000F081F904E0012000F057F900E000BF00BF002406E000F0ECF90C
:205A0000012800D103E0601CC4B2102CF6DB00BF102C06DA00F0ECF900F014FA0446002092
:205A200070BD0120FCE770B50546284600F032F9002406E000F0D0F9012800D103E0601C20
:205A400084B2902CF6DB00BF902C09DA00F0D0F900F0ECF9012801D1022070BD0020FCE74A
:205A60000120FAE7FFB581B01E460A9F102F02DD022005B0F0BD00242AE00020009000238F
:205A800001A807C800F029F8002802D0012000900EE0002509E0705DFFF7C5FF002802D055
:205AA0000120009003E0681CC5B2BD42F3DB00BF0220FFF781FF002801D0012000900098F1
:205AC000002803D1019800F04DF803E0601CC4B2032CD2DB00BF0098CBE7FFB581B0064611
:205AE0000D461746009600F0B9F90020FFF764FF0446002C02D0012005B0F0BD002000F06A
:205B000009F90098FFF78FFF0446002C01D00220F2E7022F07D12812FFF785FF0446002CF2
:205B200001D00320E8E7E8B2FFF77DFF0446002C01D00320E0E70498012811D1FFF73CFF8D
:205B40000446002C01D00520D6E70122009911430846FFF768FF0446002C01D00520CBE743
:205B60000020C9E7F8B5044600941048C769002600BF0E48C069C01B80B27D21C9008842A0
:205B800002D9761C0948C7690020FFF715FF0098FFF749FF05460220FFF70EFF002D01D1A8
:205BA0000020F8BD082EE4D30120FAE700310140F7B584B00F461646002543E06C00785D95
:205BC000F021084001A9085501A8005D0011085501A8005D092806DC01A8005D3021084336
:205BE00001A908550CE001A8005D0A2808DB01A8005D0F2804DC01A8005D373001A9085506
:205C0000785D0107090F01AA601C115401A9085C092806DC601C085C30210843611C505445
:205C20000FE001A9601C085C0A280ADB601C085C0F2806DC601C085C3730C1B201AA601CFA
:205C400011546D1CB542B9D30020710001AA5054720001A90498FAF7F3FA07B0F0BD70B5D4
:205C600005460E46A9003046FAF74BFB0446002C00D0641E204670BDC105C90D014A9160FC
:205C800070470000002401400148C068C0B2704700240140C1B2014AD160704700240140DE
:205CA000012806D10749096802031143054A116006E004490968012212039143014A11609E
:205CC0007047000000240140012806D10649096801221143044A116005E0034909684908BF
:205CE0004900014A1160704700240140012806D10749096882021143054A116006E00449F7
:205D00000968012292029143014A11607047000000240140012806D107490968C2021143D6
:205D2000054A116006E0044909680122D2029143014A11607047000000240140012806D15C
:205D40000749096842021143054A116006E004490968012252029143014A116070470000C8
:205D600000240140012806D10749096802021143054A116006E004490968FF220132914319
:205D8000014A11607047000000240140012806D10749896902021143054A916106E004491D
:205DA0008969FF2201329143014A91617047000000240140012806D1064909690222114337
:205DC000044A116105E00349096902229143014A116170470024014004480069C007C00F44
:205DE000002801D0012070470020FCE7002401400648006902210840002803D003200349DE
:205E0000086102E00120014908617047002401400146054A506840084000CA07D20F10436C
:205E2000014A506070470000002401400448406802210840002801D0012070470020FCE718
:205E4000002401400448406820210840002801D0012070470020FCE70024014008B5012049
:205E60000F49086103204003086008464068C1B2009100200A4948600846C068C1B2009104
:205E80000720074988610021009104E068460078401CC1B20091684600780328F6DB08BD9F
:205EA0000024014010B50020FDF77AFE0020FDF767FE0020FDF754FE0020FDF741FE0020DA
:205EC000FDF72EFE0020FDF71DFE10BD10B500211720FDF7F1FE00211120FDF7EDFE002154
:205EE0001020FDF7E9FE00210F20FDF7E5FE00210E20FDF7E1FE00210D20FDF7DDFE002110
:205F00000C20FDF7D9FE00210B20FDF7D5FE00210A20FDF7D1FE00210920FDF7CDFE00213F
:205F20000820FDF7C9FE00210720FDF7C5FE00210620FDF7C1FE00210520FDF7BDFE00216F
:205F40000420FDF7B9FE00210320FDF7B5FE00210220FDF7B1FE00210120FDF7ADFE00219F
:205F60000846FDF7A9FE10BD10B500218020FDF701FF00214020FDF7FDFE00212020FDF72C
:205F8000F9FE00211020FDF7F5FE00210820FDF7F1FE00210420FDF7EDFE00210220FDF74B
:205FA000E9FE00210120FDF7E5FE10BD01480249086070475A5A3412001401400146054A7C
:205FC0005068800880008A07920F1043014A50607047000000140140012806D10649496875
:205FE00004221143044A516005E00349496804229143014A516070470014014010B501215D
:20600000054801F04FFCFFF7D1FF0320FFF7D6FF0020FFF7E1FF10BD0500000108B502219A
:2060200068460170642141708900418069460448FBF720FE01210248FDF7ABFA08BD0000EC
:20604000B03001401FB5FF20F430009000200290019069460873684601F0C6FC002001F099
:206060007BFC1FBD10B500211048FDF797FE00210E482030FDF792FE00210C484030FDF7E2
:206080008DFE002109486030FDF788FE002107488030FDF783FE00210448A030FDF77EFEB7
:2060A00000210248C030FDF779FE10BD000C004010B50121654801F0F5FB01216348153872
:2060C00001F0F0FB01216148163801F0EBFB01215E48173801F0E6FB01215C48183801F004
:2060E000E1FB01215948193801F0DCFB012157481A3801F0D7FB012154481B3801F0D2FB43
:20610000012152481C3801F0CDFB01214F481D3801F0C8FB01214D481E3801F0C3FB012116
:20612000080601F0BFFB0121494801F0BBFB01214748401E01F0B6FB00214548801E01F05E
:20614000B1FB00214248C01E01F0ACFB01214048001F01F0A7FB01213D48401F01F0A2FB82
:2061600001213B48801F01F09DFB01213848C01F01F098FB0121480601F094FB01213548BE
:2061800001F090FB01213348401E01F08BFB01213048C01F01F086FB01212E48083801F05D
:2061A00081FB01212B48093801F07CFB012129480A3801F077FB012126480B3801F072FBBC
:2061C000012124480C3801F06DFB012121480D3801F068FB01211F480E3801F063FB012130
:2061E0001C480F3801F05EFB01211A48103801F059FB01211748163801F054FB012115480B
:20620000173801F04FFB01210320000601F04AFB0121114801F046FB01210F48401E01F0FE
:2062200041FB01210C48801E01F03CFB01210A48C01E01F037FB01210748001F01F032FBC3
:206240000121880601F02EFB10BD00001F00000108000002180000030500000400B587B06D
:206260000020059001216846017605A801F012FC00200090019002900390012168460174CB
:206280000021417401F08CFC07B000BD10B50020FDF706FBFFF7D6FEFFF7E0FFFFF708FFC5
:2062A000002001F0E1FA0120FBF71EFC0020FBF7DBFB012001F0B8FF10BD10B503F0C6F8D1
:2062C00010BD000010B50E4C72B6FFF797FEFFF76DFEFFF7F2FF00BF2046641E0028FBD13C
:2062E000FFF7D4FF012001F093FAFFF7BBFEFCF7E1FDFCF751FC002001F068FC10BD000034
:20630000FFFF0F007FB506460D4614466A4629463046FDF763FC0098A84217D16846C0790A
:20632000012813D16846407901280FD1002C03D168468079002809D1012C03D1684680798F
:20634000012803D168460079002814D0029501216846C1734173002C03D1002069468873F4
:2063600002E001206946887300206946087302A93046FDF7B5FC7FBD70B504460D4600263C
:206380007D21AD486043AD4A8018012292028018C180A9486043A949401811464018807823
:2063A000030002F070FF08052D50FAFA6798C9FA682D23D1A0486043A04940180121890237
:2063C0004018C078F02108409B4961439B4A8918012292028918C870012197486043974AB1
:2063E00080188A0280188170002193486043934A8018012292028018018100E0AA26CEE0AD
:206400008D4860438D4940180121890240180089022817DB884860438849401840780002D6
:20642000401981B284486043844A80180122920280180180022180486043804A80184A02EF
:2064400080188170ABE0682D12D100217A4860437A4A8018012292028018C170052176486A
:206460006043764A8018012292028018817000E0AA2694E0704860437049401801218902A4
:20648000401801896C4860436C4A80180122920280180088C01C814208D1062166486043AE
:2064A000664A80180122920280188170624860436249401801218902401801895E4860432C
:2064C0005E4A80180122920280180088C01C814200DDAA2663E058486043584940180121B8
:2064E00089024018018954486043544A80180122920280180088401D814208D107214E482C
:2065000060434E4A801801229202801881704A4860434A494018012189024018018946482B
:206520006043464A80180122920280180088401D814200DDAA2632E0162D2CD108213E48EB
:2065400060433E4A8018CA018018817000213A4860433A4A8018012292028018C1800F2102
:2065600035486043354A80180122920280180171314860433149401811464018C078042129
:2065800008432D4961432D4A8918012292028918C87001E001E0AA2601E0AA2600BF00BF2D
:2065A000002E1DD1244860432449411822486043224A801801229202801800890D541E483A
:2065C00060431E494018114640180089401C81B219486043194A80180122920280180181C2
:2065E000204602F01DFE002800D0AA26AA2E19D1002111486043114A80180122920280183F
:2066000081700D4860430D49401811464018C078FC21084008496143084A891801229202F8
:206620008918C8700448604304494018012189024018807870BD00000A0400001400002081
:206640000107090F014A116170470000400C0140F7B588B0074614460998002801D10225CC
:2066600000E00425002C1FD0642C1DD87900091D614369430846FAF7A5FC0190FAF72CF9FB
:2066800002460B460391029000200949FAF774F90022084B05910490FAF79EF80791069017
:2066A000FAF7CAF8064600E0202630460BB0F0BD0000E0400000E03FC1B2014A9160704732
:2066C000000C0140012806D10649096880221143044A116005E00349096880229143014A95
:2066E00011607047000C0140012806D10649096801221143044A116005E00349096849083C
:206700004900014A11607047000C0140012806D10649096804221143044A116005E0034946
:20672000096804229143014A11607047000C0140012806D10649096840221143044A1160F9
:2067400005E00349096840229143014A11607047000C0140012806D1064909680222114369
:20676000044A116005E00349096802229143014A11607047000C0140012806D106494969FF
:2067800001221143044A516105E00349496949084900014A51617047000C0140012806D104
:2067A0000649496902221143044A516105E00349496902229143014A51617047000C014084
:2067C0000120014988617047000C01400220014988617047000C014010B50446206800F081
:2067E0009DF8606800F04CF8A06800F0A5F8E068FFF762FF206900F081F8606900F05EF8D3
:20680000A06900F06BF8E06900F048F8206A00F02FF82421085DFFF755FF2521085DFFF76D
:2068200099FF2621085DFFF75FFFA06A00F094F82C21085D00F0A0F82D21085DFFF766FFF2
:20684000206B00F0BFF8606B00F0B6F83821085DFFF7A4FF3921085DFFF78EFFFFF7B6FF59
:20686000FFF7AEFF3A21085DFFF762FF10BD00000107090F014AD16070470000400C0140B1
:206880000146054A106A40084000CA07D20F1043014A106270470000000C01400146064A03
:2068A000106A062302469A43104606220A401043014A106270470000000C01400146064A9D
:2068C000106AE02302469A431046E0220A401043014A106270470000000C01400146064AC9
:2068E000106A182302469A43104618220A401043014A106270470000000C01400146064A39
:20690000D069102302469A43104610220A401043014AD06170470000000C01400146054AAB
:20692000D069800880008A07920F1043014AD06170470000000C01400146064AD06904231A
